:020000040800F2
:100000004016002029C0000895C0000811B600085D
:1000100099C000089DC00008A1C0000800000000B1
:10002000000000000000000000000000A5C0000863
:10003000A9C0000800000000ADC0000871B60008AB
:10004000B1C00008B5C00008B9C00008BDC00008B4
:10005000C1C00008C5C00008C9C00008CDC0000864
:10006000D1C00008D5C00008D9C00008DDC0000814
:10007000E1C00008E5C00008E9C00008EDC00008C4
:10008000F1C000080000000055B50008F5C00008E8
:10009000F9C00008FDC0000801C1000805C1000842
:1000A0007DB500086FB5000809C100080DC1000842
:1000B00011C1000815C1000819C100081DC10008C0
:1000C00021C1000825C1000829C100082DC1000870
:1000D00031C1000835C10008B1B5000839C10008B8
:1000E00095B600083DC1000841C1000845C100089F
:1000F00049C100084DC1000851C1000800000000BE
:100100000000000055C100080000000059C10008AF
:100110005DC100080000000061C1000865C1000861
:1001200069C100086DC1000871C1000875C10008EF
:1001300079C1000800000000000000007DC1000837
:1001400081C1000885C10008000000000000000017
:10015000000000000000000000000000000000009F
:1001600000000000000000000000000089C100083D
:100170008DC1000800000000000000000000000029
:100180000000000091C10008000000000000000015
:10019000000000000000000000000000000000005F
:1001A000000000000000000095C1000899C100088F
:1001B0009DC10008A1C10008A5C100080000000001
:1001C00000000000A9C100080000000000000000BD
:1001D000ADC10008B1C1000810B50446DF48606336
:1001E00001F016FE002084F8300084F83A00204622
:1001F00000F09BF8002084F82401F7EE000AD4F800
:10020000400590ED000A2069B8EE400A84ED100A1E
:1002100080EE800A84ED0F0A01F01DFE00EE100A48
:10022000D4F84005B8EE400A84ED110AF6EE000A53
:1002300090ED130A90ED091A60EE200AC0EE810AD3
:10024000FDEEE00A10EE901AA4F84810F0EE000A55
:1002500090ED060A90ED071A60EE200A60EE810A22
:1002600090ED130A80EE200A84ED130AF5EE000AE1
:10027000C16A216590ED0B0A60EE200AC4ED160AF2
:10028000C06A60650020E06520666066A06684F84C
:100290008C00C4F89000C4F8940084F89800C4F866
:1002A0009C00C4F8A000C4F8A400C4F8A800C4F8D6
:1002B000AC00C4F8B000C4F8B40084F83C05204693
:1002C00001F0E2F90020C4F8CC00C4F8D000C4F872
:1002D000D40084F8D800DFED9D0AD4F84005DFF89B
:1002E000F82C816BC4F8DC10416CC4F8E01081FB81
:1002F0000232921002EBD27200EE101AC4F8E8201B
:10030000B8EEC00A20EE200A4FF4FA72BDEEC00A21
:100310000021C4F8E82084ED390AA4F82C11C06B40
:10032000C4F8300184F8341110BD002180F83B106E
:1003300080F8EC10A0F8181180F81A11A0F81C1120
:10034000C0F82011C0F83811704710B504460021DC
:1003500094F83B00042808D1082184F830100020CC
:1003600084F8EC000121084610BD94F83000C0B9B3
:10037000206801F072FD0020012184F83A0084F821
:1003800030102046FFF7D1FF002084F8240101211E
:10039000606D2065002084F88C0084F898000120AE
:1003A0002087084610BD10B50446206801F05AFDAC
:1003B00094F83000062818BF072804D00A281CBF6C
:1003C000002084F8300010BD30B5044681B094F8A8
:1003D0003000401E072800F2B680DFE800F0040479
:1003E000040422B4B43F206801F041FD90B107211C
:1003F00084F83010E06801F079FD206801F0EDFD2F
:1004000094ED4A0ADFED520A20EE200A204601F060
:100410005DFC93E0204600F0F7FF84ED4A0A01B04E
:1004200030BD206801F023FD002800F08C800720FB
:1004300084F830000721E06801F058FD206801F0E1
:10044000CCFD94ED4A0ADFED420A20EE200A204658
:1004500001F03CFC206DC4F828016FE094F83B00EB
:10046000042870D0206801F002FD00286BD094EDC4
:100470004A0ADFED370A20EE200A204601F026FC6A
:10048000D4F8400594ED140A84ED4A0A9FED311A20
:10049000D0ED060AD0ED071A20EE811A21EE211ABE
:1004A000D0ED130AC1EE200A20EE800ABDEEC00A8C
:1004B00010EE100A451E206A2AB2002101F08FFDBD
:1004C000206A2AB2012101F08AFD206A2AB20221A3
:1004D00001F085FD206A2AB2032101F080FD206A27
:1004E0002AB2042101F07BFD94F8EC0001281BD115
:1004F000206901F07AFDC0EB00118800DFF8D82AEE
:1005000080FB0232921002EBD27200EE102AB8EE9B
:10051000C00ADFED110A60EE200AFDEEE00AC4ED2C
:10052000390A204601F058FB062084F830000721E4
:10053000E06801F0DBFC206801F04FFDDFF80C0EF5
:100540000188491C018001B030BD0000CDCCCC3EFB
:100550006666663F00008047CDCC4C3FEC0600202D
:100560002DE9F04F04460FF6982081B000272DEDBD
:10057000048B066886B094F83000D4F834900928CB
:1005800000F21A85DFE810F0F4040A0054000A00B3
:100590007D005E01F9041805EA02E60494ED140AF0
:1005A000204601F00FF8012823D194F830000128EB
:1005B0000DD1022184F83010484601F029FCD4F80E
:1005C0004005428E4EF66021484601F011FD94F838
:1005D000300003284FD1042184F83010484601F040
:1005E00017FCD4F84005828E218F484601F000FDAB
:1005F00041E0208F4EF6602188423CD1278720467B
:1006000000F002FF6FF0130084F8D800F6EE000A45
:1006100094F89800401C84F8980020EE200AC0B29C
:10062000032884ED140A26D3092084F8300022E040
:1006300094ED140A204600F0C5FF484601F0F0FB97
:10064000484601F019FDB0B1032084F83000F5EE02
:10065000000A94ED140A20EE200A6FF01300C4F88B
:10066000A870C4F8AC70C4F8B07084ED140A84EDBE
:10067000160A84F8D800218F206801F003FD00F0ED
:100680009FBC94ED140A204600F09CFF278F48463B
:1006900001F0C6FB204600F0B7FED4F8B000D4ED60
:1006A0002A0A401CC4F8B00030EE800A606884ED6D
:1006B0002A0A01F0F1FC00EE900A60684188384691
:1006C00001EE101AF8EE600AB8EE411A9FEDC20A68
:1006D00060EE810A01EE100AB8EE411A60EE800A5F
:1006E00021EE000A94ED2B1AC4ED170A00EE201A31
:1006F00084ED2B1A484601F0BFFC002800F0298247
:1007000094ED2C0A94F88C00D4ED2A0A94ED2B1A5F
:10071000B8EE400A80EE800A04EB800184ED240AE2
:10072000D4ED2C0A81ED1B0AF8EE600A94F88C00D7
:1007300004EB8001C1EE200AC1ED1F0A94F88C0081
:10074000401C84F88C00C0B2042816D26FF013004D
:1007500084F8D8000020C4F8A800C4F8AC00C4F89D
:10076000B00094ED140AD4ED160A30EE200A0320EE
:1007700084ED140A84F83000EBE1052084F83000A1
:100780009FED968A002084F83A00484601F040FB2D
:1007900064224EF66021484601F02AFC21460320DF
:1007A00091ED200AD1ED1F0A91ED1B1A30EE600A7F
:1007B000D1ED1C0A70EEC10A091D80EE200A401E10
:1007C00030EE088AECD1B0EE080AD4F8401588EE75
:1007D000000A84ED180A91F8400020BBD1ED0A0A06
:1007E00030EE600ADFED7E0AB4EE600AF1EE10FA38
:1007F00084ED180A03D5DFF8A80D206605E0F6EEB3
:10080000000A20EE200A84ED180ADFED760A94ED46
:10081000240A60EE200A0020C4ED250AC4F8A400D2
:10082000C4F8A00095E10A2084F830000721E068B0
:1008300001F05CFB206801F0D0FB206801F012FBA6
:10084000002786E1204600F0DFFD94F83A0010B161
:10085000022808D018E0DFED640AB4EE600AF1EE79
:1008600010FA11D50DE0D4ED250A278FB4EE600AF9
:10087000F1EE10FA05D5D4F89C00401CC4F89C0099
:1008800002E0484601F00AFC484601F0C9FA484631
:1008900001F0F2FB002800F05C8194F83A0018B1F6
:1008A000022810D008D354E1012084F83A004846C9
:1008B00001F0AEFA0A2247E1022084F83A00002053
:1008C000C4F89C003CE1002084F83A0094ED270A2B
:1008D000D4ED0F0AD4F8A00094ED291AB8EE400A1E
:1008E00020EE200AD4ED180A00EE201A401C14282D
:1008F00084ED291AC4F8A00040F02281062084F873
:1009000030000721E06801F0F1FA206801F065FB92
:10091000206801F0A7FA94ED280AD4ED290A60684E
:10092000B8EE400A80EE800A84ED190A01F0B4FBAB
:1009300000EE100A606894ED182A4188D4F840054A
:10094000D4ED4C1A00EE901AB8EE400AF8EE600AA8
:1009500020EE200A9FED201A20EE010A84ED170AEE
:100960000022D0ED060A20EE200AD0ED070A20EE84
:10097000200AD0ED130A80EE201A94ED190AD4ED66
:10098000370A20EE210A62EE211A94ED0F2A80EE3A
:10099000010A61EE821A002760EE200A81EE811AB8
:1009A0004FF0100C1020102190460F2547F6FF73D2
:1009B0004FF0010B0BFA05F601EE906AF8EEE11A22
:1009C00061EE801AFDEEE11A11EE906A9E4210DA95
:1009D0004FFA85FC0DE000BF0000803700000000EA
:1009E000CDCC4C3E9ED2213F0AD7233CBEF1100F06
:1009F000E0D01FFA80FEBEF1100F0FD10BFA05F206
:100A000001EE902AF8EEE11A61EEA01AFDEEE11A6D
:100A100011EE902A9A42B8BF68B200BF1FFA81FE59
:100A2000BEF1100F0ED10BFA05FE01EE90EAF8EEC2
:100A3000E11A61EE811AFDEEE11A11EE908A9845F5
:100A4000B8BF69B26D1E1FFA8CFECFD5BEF1100F74
:100A500083460D46924609D0A0691FFA8CF101F039
:100A600021FBA06931B201F023FB02E0092084F8E8
:100A700030001FFA8BF010280AD0E0691FFA8BF1C2
:100A800001F010FBE0690FFA8AF101F011FB02E0BE
:100A9000092084F83000A8B2102812D0A069A9B2A9
:100AA00001F008FBE069A9B201F004FBA0690FFAAC
:100AB00088F101F012FBE0690FFA88F101F00DFBFB
:100AC00002E0092084F83000DFEDA00AD4F84005E8
:100AD00090ED060A90ED071A60EE200A60EE810A9A
:100AE00090ED130A80EE800AD4ED140A20EE200A5D
:100AF000BDEEC00A10EE100A461E206A32B2002176
:100B000001F06DFA206A32B2012101F068FA206A20
:100B100032B2022101F063FA206A32B2032101F0FD
:100B20005EFA206A32B2042101F059FAD4F8400585
:100B3000428E206A002101F0D2FA204601F04CF8E2
:100B4000484601F065F964224EF66021484601F0FE
:100B50004FFA2068394601F095FA31E2E06801F079
:100B6000C4FA001F0F2800F22782DFE810F01000FF
:100B700010001000E60125022502250225022502AB
:100B80002502250225022502250225021000A06A61
:100B900001F0ADFA01F0ADFA0646A068006801F078
:100BA000ABFA0746314601F0CBFA0190A068B0F9E4
:100BB0001010BDF90400091AA06901F0F5FAADF8AA
:100BC0000800A068B0F91210BDF90600091AE06922
:100BD00001F0EAFAADF80A000299606901F024FB1D
:100BE0008246314601F04BFB05462068294601F05C
:100BF00065FB8046A06847600497A1680198C860BB
:100C0000A068C0F816A0A168D1F81A000390A168E6
:100C1000C1F81A50A0680684606801F03DFAADF88A
:100C2000140003A9606A01F01BFCADF80000606AC3
:100C300001F006FD2069694601F02DFD94F83B00A6
:100C4000052800F2BE81DFE810F006008300BC0139
:100C50004901BC016101204600F022FD022884F810
:100C6000240122D1206901F0C0F9C0EB00118800F5
:100C7000D94A80FB0232921002EBD272C4F8E4200F
:100C8000206901F0B2F90146204600F0FDFF012085
:100C900084F83B00204600F0F7FC06B01FFA88F00D
:100CA000BDEC048B01B0BDE8F08F012800F0898114
:100CB000032821D194ED3A0ABBEEEF0AFCEEC00AFC
:100CC000C4ED3A0A204600F087FF062084F8300081
:100CD0000721E06801F00AF9206801F07EF9DFF8E9
:100CE0006C064188491C418006B01FFA88F0BDECB3
:100CF000048B01B0BDE8F08F042840F0628194EDD0
:100D0000480AB8EE400ADFEDB30A60EE200AFDEEB5
:100D1000E00AC4ED390A204600F05EFF062084F8A0
:100D200030000721E06801F0E1F8206801F055F992
:100D3000DFF818068188491C818006B01FFA88F008
:100D4000BDEC048B01B0BDE8F08F00BF0000804710
:100D5000D4F84005A168D0ED060AB1F90C20D0ED19
:100D6000071A9FED9E1A20EE811A21EE211AD0ED6E
:100D7000130A00EE102AC0EE810AB8EEC00A94ED04
:100D80002E1A606800EE201A84ED2E1A01F084F904
:100D900000EE100A60684188A06800EE901AB8EE74
:100DA000400AF8EE600A20EE200A9FED8D1A20EE30
:100DB000010A84ED170ADFED8B0AB0F91610A0685E
:100DC00001EE101AB8EEC11A21EE000A94ED2F1AA6
:100DD00000EE201A84ED2F1AB0F9181094ED171AAE
:100DE000D4F8C80000EE101AB8EEC00A20EE010ACE
:100DF00094ED301A42F2107100EE201A401C884225
:100E000084ED301AC4F8C800C0F0DB8000EE100A90
:100E1000B8EE400AD4ED2E0A80EE808AD4ED2F0A77
:100E2000C0EE808AD4ED300A80EE809A204600F031
:100E30002BFC206901F0D9F800EE100AB8EEC00AC8
:100E4000F2EE040A80EE200ADFED670A60EE209AD7
:100E5000D4ED180AD4ED191A40EEC88AD4ED110A5F
:100E600020EE200A9FED611A20EE011A21EE211AD0
:100E700001EE089A28EEA80A09EE090AB5EE400A22
:100E8000F1EE10FA02DBB1EEC08A01E09FED588A64
:100E90009FED580A28EE000ADFED570A60EE200A9F
:100EA00080EEA90AE06A84ED1A0A02F0DEF8D4EDB9
:100EB000170A9FED521A89EE880A80EE811A20EEF9
:100EC000010A84ED330A022084F83B0006B01FFAC1
:100ED00088F0BDEC048B01B0BDE8F08F484600F00F
:100EE0009FFF484601F0C8F800286AD0606A01F008
:100EF0007CF800EE100ABAEE670ABDEEC00A10EEEA
:100F0000101A09B2204600F0BFFE0BE0206A02F082
:100F1000B2F810B1032084F83B00E06801F0E5F876
:100F200006284ED1042084F83B0006B01FFA88F052
:100F3000BDEC048B01B0BDE8F08F206801F04DF8E6
:100F400084F8307006B01FFA88F0BDEC048B01B055
:100F5000BDE8F08FE068072100F0C8FF84F830702A
:100F600006B01FFA88F0BDEC048B01B0BDE8F08F2D
:100F7000E06801F0BAF814281ED1204600F06EFA9D
:100F80002168032081F83A00D4F8B40004EB800112
:100F900081ED4F0AD4F8B400B0F5807F2EBFC4F8BD
:100FA000B470401CC4F8B40006B01FFA88F0BDEC61
:100FB000048B01B0BDE8F08F2068314601F07EF966
:100FC000804606B01FFA88F0BDEC048B01B0BDE886
:100FD000F08F0000CDCC4C3F67666666000080470E
:100FE0000000803746CD933700007042DB0FC940C8
:100FF0000000000071C49C3F00007A44D7B3DD3F7D
:101000000000000070B52DED048B044686B0656BC2
:10101000E06801F06AF894F83010062909D0C0F0B1
:101020001181082969D0C0F0FC8006B0BDEC048BAA
:1010300070BD0B2800F20681DFE810F00C000401FF
:10104000040104014F00040104010401040104012E
:1010500004010101204600F0B1FC002840F0F280BC
:1010600094ED100AD4ED190A94ED181AE06820EEF8
:10107000802A81EE022AF7EE002AF5EE001A32EEFF
:10108000C22A22EE212AF5EE002A72EE222AB8EEBA
:10109000003A32EE833A81EE201A03EE001A84ED14
:1010A000341AB7EE001A31EE421AFDEE002A31EE84
:1010B000221A02EE211A21EE001A21EE000A20EE79
:1010C000200A84ED350A032100F010FF206800F0AB
:1010D00084FF06B0BDEC048B70BD082084F830009E
:1010E0002046FFF722F9012084F82401204600F071
:1010F000CBFA06B0BDEC048B70BD94F83B0002281F
:1011000040F0A080D4ED331A94ED1A2A61EE821AD1
:10111000DFEDD02A61EEA22A9FEDCF3AB4F9483034
:10112000D4ED138AD4ED191A94ED109A82EE838AC5
:1011300021EEA82A02EE903A61EE891A94ED183A4F
:1011400022EE092AF8EEE22AC3EE211AC2EE822A22
:1011500094ED343A9FEDCE0ADFEDCD0A9FEDCC1A27
:10116000002100200E2288EE022A83EE093ADFEDEC
:10117000C93A9FEDC94A012303FA02F604EE906AC8
:10118000F8EEE44A21EEA45AB4EE445AF1EE10FA15
:10119000BEBF23EE241AB4EE441AF1EE10FA12DAAE
:1011A000B4EE631AF1EE10FA0DD422EE240AB4EE76
:1011B000440AF1EE10FABEBF62EEA40AF4EE440A4D
:1011C000F1EE10FA23DB521E56B2012ED4DAD4ED22
:1011D000351A61EEA81AC1EE881A0E22C1EE891ADC
:1011E00003FA02F602EE106AB8EEC22A61EE822A13
:1011F000F4EE442AF1EE10FA04DAF4EE632AF1EE8A
:1012000010FA23D5521E56B2012EE9DA27E052B267
:1012100001EE902AF8EEE11AFDEEE11A11EE901AB5
:10122000D5E750B9E068032100F060FE002084F8A3
:10123000300006B0BDEC048B70BD0B2802D1E06815
:1012400001F01FFF06B0BDEC048B70BD52B201EE81
:10125000902AF8EEE11AFDEEE11A11EE900AFDEE89
:10126000C51A11EE902AADF80020BDEEC11A11EE9C
:10127000102AADF80220BDEEC00A10EE102AADF81B
:101280000420BDEEE20A10EE102AADF80620BDEEF5
:10129000E00A10EE102AADF80820BDEEE40A10EEC8
:1012A000102AADF80A20BDEEC20A10EE102AADF8E1
:1012B0001000ADF80C20ADF80E106946606A00F021
:1012C00047F894ED331A94ED100AD4ED110A606AD0
:1012D000DFEDB41A61EE211A61EEA01A20EE002AA9
:1012E000C1EE821AB5EE002A61EE821AFDEEE11A15
:1012F00011EE902ADFEDAC1A21EE211A61EE200AE0
:1013000080EE800ABDEEC00A10EE101A12B209B2C9
:1013100001F0C2FE206900F0ECFE0646206901F0F3
:10132000CBFE0146606A324601F0C9FE284600F055
:101330006FFDFA224EF66021284600F059FE032088
:1013400084F83B0006B0BDEC048B70BD3012002069
:101350000246088850830123488890838888D08378
:10136000C8881084088950844889D0848889108569
:10137000C889A2F81801088AA2F81A0100209085ED
:10138000B1F90CC0DFF8400A90FBFCF000B258B392
:10139000B2F82CC000EBD070C0030CF1010C0014AB
:1013A0005B00A2F82CC0F8B100EBD070C0030CF1C8
:1013B000010C00145B00A2F82CC0A8B100EBD070A7
:1013C000C00300145B000CF1010C0028A2F82CC033
:1013D0000AD000EBD070C00300145B000CF1010CCC
:1013E0000028A2F82CC0D3D15385B1F90C00B2F972
:1013F0002A10DFF8D83910FB01F080FB03C31B1261
:1014000003EBD37393847047D0F84015806891ED57
:10141000060A91ED071ADFED9B0A60EE200A60EEE6
:10142000810A91ED130AB0F90010B0F9020080EEC4
:10143000200A00EE901AF8EEE00A01EE100A60EEC3
:10144000C00AB8EEC11A41EE400AB6EE000A20EE1C
:10145000800A70478104B53F0080D844D0F8401519
:101460008068D1ED060AB0F90020D1ED071A9FED92
:10147000851A20EE811A00EE102A21EE211AD1EDF4
:10148000130AB8EEC00AC0EE810A20EE600A704767
:101490000000000000FEFFC601FEFF460520704769
:1014A00030B5044681B0E06A01F0FDFC002501285A
:1014B00008BF84F83451E06800F017FE0A2806D10E
:1014C00084F8345184F83050284601B030BD94F887
:1014D00030000A281BD8DFE800F006090D111111B1
:1014E00015151506190094F8340180B10125284618
:1014F00001B030BD0225284601B030BD0325284685
:1015000001B030BD0425284601B030BD0E25284667
:1015100001B030BD90ED180A01F0E1BD90ED190A5F
:1015200001F0DDBD90ED1A0A01F0D9BD90ED170A6A
:1015300001F0D5BD90F83B1004291CBF90F8302075
:101540000A2A22D1002180F83B1080F8EC10A0F884
:10155000181180F81A11A0F81C11C0F82011C0F859
:10156000381180F82411DFF86828D0F8E01081FBEA
:101570000232921002EBD272C0F8E82000214FF440
:10158000FA72C0F8E82080F83010012180F8341198
:101590000021DFF824040180418081807047000031
:1015A000CDCCCC3DB0EDB7490000054410B50446A4
:1015B000206800F012FD002184F8301084F8341106
:1015C00010BD0000D0F840250021D2ED060AD2ED72
:1015D000071A9FED2C1A20EE811A21EE211AD2ED66
:1015E000130A8268535EB2F90220C0EE810A01EE4E
:1015F000103AB8EEC11A01EE902A21EE601AF8EE08
:10160000E11A01EEE01AF6EE000A61EE200AF4EEAD
:10161000400A028FF1EE10FA1DDB0AB1521E02875A
:1016200030EEC00ADFEDCC0AB4EE600AF1EE10FA3B
:1016300020D490F9D820521E53B213F1130FB8BF23
:101640006FF0130280F8D82090F9D800002858BF16
:101650000121084670474EF6602C30EE600A624564
:10166000DFEDBD0ABCBF521C0287B4EE600AF1EE8A
:1016700010FADED590F8D820521C53B2142BE1DBBF
:101680001422DFE7000080470021C0F8B810C0F83E
:10169000BC10C0F8C010C0F8C410C0F8C810704723
:1016A00070B504462DED068BD4F84005A168D0ED49
:1016B000060AB1F90C20D0ED071A9FEDBC1A20EEF6
:1016C000811A21EE211AD0ED130A00EE102AC0EE85
:1016D000810AB8EEC00A94ED2E1A606800EE201A56
:1016E00084ED2E1A00F0D8FC616800EE100A4888DC
:1016F00000EE900AB8EE400AF8EE600A20EE200AEA
:101700009FEDAB1AA06820EE010A84ED170ADFED09
:10171000A90AB0F91610A06801EE101AB8EEC11AA5
:1017200021EE000A94ED2F1A00EE201A84ED2F1AF4
:101730000125B0F9181094ED171A206900EE101A5F
:10174000B8EEC00A20EE010A94ED301A00EE201A1D
:1017500084ED301A00F049FC46F2676110FB01F19C
:10176000881400EBD07000B200EE100AD4F8C80064
:10177000D4ED110A94ED311AB8EEC00A42F210719C
:1017800000EE201A401C884284ED311AC4F8C800CB
:10179000C0F0DE8000EE100AB8EE400AD4ED2E0A4A
:1017A000C0EE808AD4ED2F0AC0EE809AD4ED300AC4
:1017B00080EE80AAD4ED310A80EE809A2046FFF7B1
:1017C00063FFB5EE409AF1EE10FA00F0C180206997
:1017D00000F00BFCC0EB00118800DFF8F42580FB63
:1017E0000232921002EBD27200EE102AB8EEC00A5A
:1017F000BDEEC00A10EE106A9FEDAC0A29EE008A19
:1018000094ED180A40EE689A94ED190A28EE000A41
:1018100000EE28AA29EEA90A0AEE0A0AB5EE400A45
:10182000F1EE10FA02DBF1EEC08A01E0DFEDA08AF2
:10183000B4F8181104F1F00000EB8100C0ED008A4B
:1018400004F58270B4F8181100EB810080ED008A75
:10185000B4F81801401CA4F8180180B2052804D37C
:101860000020A4F8180184F81A5194F81A21002ACB
:1018700050D0D4F8E00001F037FCDFF85825DFF84D
:10188000583501F055FC01F029FDB04242DA05223D
:1018900004F1F00104F5827000F00CF99FEDCC2A00
:1018A000F0EE681AB0EE481A204600F057F800280B
:1018B00094F8EC000ED050B9D4F8E410DFF81C0511
:1018C000711881FB002000EBD070C4F8380184F857
:1018D000EC501FE0012815D19FEDBE0A29EE000A49
:1018E000D4ED110A80EE200A0021BCEEC00A84F873
:1018F000EC1084ED480AA4F81C110425BDEC068BFD
:10190000284670BDB4F81C01401CA4F81C0180B22C
:1019100004280FDA206A01F0FEFC002894F8EC009D
:101920000AD038B10021A4F81C110225BDEC068BA9
:10193000284670BD032508E050B1D4F83811B142F3
:1019400006D2206A01F0F1FC02250020A4F81C0157
:101950002846BDEC068B70BDCDCC4C3E01EE200A76
:10196000B7EE001A32EE011AF7EE002A21EE001A45
:1019700032EEC22A014622EE000A0020B4EE610ACD
:10198000F1EE10FA44BFF4EE411AF1EE10FA0BD565
:101990009FEDC90A91ED111A80EE010AB4EE600ABA
:1019A000F1EE10FA48BF01207047000000008047A8
:1019B0000000803746CD93373012002030B5054601
:1019C00081B095F83C05012490B9286801F0F4FF36
:1019D00041F28830A5F82E014FF47A710020C5F845
:1019E000B400A5F82C1185F83C45204601B030BD67
:1019F000B5F82E01002851D0401EA5F82E01DFEDCC
:101A0000CC0A05F59E71402091ED001A70EE810A16
:101A100091ED011A70EE810A91ED021A70EE810AC1
:101A200091ED031A1031401E70EE810AECD19FED4A
:101A3000C11A60EE810A05F59E714020D1ED001AB1
:101A400091ED012AD1ED022A91ED033A71EEE01AEF
:101A500032EE602A01EEA10A72EEE02A02EE020ADC
:101A6000103133EE603A02EEA20A401E03EE030A82
:101A7000E4D120EE010ADFEDC70AB4EE600AF1EE10
:101A800010FAA8BF4FF47A7003DAB5F82C0128B128
:101A9000401EA5F82C0101B0204630BD002085F87D
:101AA0003C050024204601B030BD0000DB0FC940DA
:101AB0000000000003460FF2503070B490EC021AA0
:101AC00090B202EE100A81B09FED990ADFED980AFC
:101AD000B8EE422ADFED962A002458B3C5070AD58E
:101AE00093ED000A30EE200AD1ED000A9FED903A06
:101AF00070EE830A0124400800F01C8003EB84058B
:101B000001EB840695ED003A30EE030A641C96ED75
:101B1000003A03EB840570EE830A95ED003A01EB81
:101B2000840630EE030A641C96ED003A401E70EE07
:101B3000830AE3D180EE023A002094B2D4B392B289
:101B4000D40710D5D3ED002A91ED004A72EEC33AC6
:101B5000F0EE614ADFED762A43EE844A43EEA32A93
:101B6000F0EE641A0120520800F0248003EB800498
:101B700001EB8005D4ED003AD5ED004A401C73EE30
:101B8000C33AB0EE614A03EB800401EB800503EE3B
:101B9000A44AD4ED004A401C74EEC34A43EEA32A83
:101BA000D5ED003A04EEA34A521E44EEA42AF0EE0C
:101BB000441ADBD101B070BCC1EEA22A40EE620A29
:101BC000F0EE621A80EE820AF0EE610A70470000C1
:101BD000CDCCCC3D0000704230B581B004462DED37
:101BE000028BD4F8E80094ED390A00EE900AB8EEC2
:101BF000C00AF8EE600AC0EE200A9FED6C1A20EED3
:101C0000818ADFED6B0AB4EE608AF1EE10FA09DB2F
:101C100000EB801000EE100A84ED390AB8EEC00A1D
:101C20009FED648AF2EE040A20EE200A9FED621A0C
:101C300080EE010ABDEEC00A10EE105A29B220460D
:101C400000F022F8206A2AB2012101F089FF206AFF
:101C50002AB2022101F084FF206A2AB2032101F096
:101C60007FFF206A2AB2042101F07AFFBDEEC80A84
:101C700010EE100A82B2206ABDEC028B012101B085
:101C8000BDE8304000F02BBA00EE101AB8EEC00AE2
:101C9000DFED4A0A20EE200AB5EE400AF1EE10FA16
:101CA00048BFB1EE400ABDEEC00A10EE101A406AFD
:101CB00089B201F05BBF000017B7D13A00EE101AED
:101CC000B8EE400A80ED110A7047000030B5F5EE1D
:101CD000000A044660EE200A81B0C4ED160A84EDC5
:101CE000140A84ED150ADFED360AD4F8400520EE1B
:101CF000200AD0ED060A20EE200AD0ED070A20EED9
:101D0000200AD0ED130AA06A80EE200ABDEEC00AB8
:101D100010EE105A10B1A9B201F02BFFE06A28B101
:101D2000A9B201B0BDE8304001F05CB901B030BDEE
:101D3000000000000000803B90ED150A704780ED28
:101D4000370A704790ED370A7047000011B9D0F894
:101D50004015496C1E4AC0F8E01081FB0232921017
:101D600002EBD27200EE101AC0F8E820B8EEC00AFA
:101D7000DFED140A20EE200A4FF4FA72BDEEC00A1D
:101D8000D0F8E010C0F8E82080ED390AC06A01F010
:101D900069B900000BD7233CD0F8E0007047D0F8B9
:101DA000E4007047D0F8E8007047000000007A4473
:101DB00001FF7F4700E87D4700007042CDCC8C3F9B
:101DC00000008047CDCCCC3E5EEA0F00C58D4806B2
:101DD000676666669A9999999999B93F5655555586
:101DE00090ED150A704780ED4C0A704790ED4C0A53
:101DF0007047D0F84005B0F848007047D0F840056B
:101E000090F84A0070470000000000000000000049
:101E1000002181604160C160016101214161704721
:101E200081B0C3688268012B09D901698A185B1ED9
:101E3000C3608260406992FBF0F001B0704704D14A
:101E4000426841694A430021C1608260406992FB57
:101E5000F0F001B07047407B7047416A002918BF1D
:101E600008477047816A002918BF08477047C16951
:101E70000847F0B40246106895681318506803EBE1
:101E80005004C00721D54D441FE0F0BC02F10C0006
:101E9000704713F8017B05F8017B491EF9D1A0B109
:101EA000B60813F8011B06F00306032E08BF13F84B
:101EB000016B01EB06214942801C294405D011F831
:101EC000016B05F8016B401EF9D1A342DDD013F878
:101ED000016B16F0030104BF13F8011BC91C300984
:101EE0000F28DAD113F8010B0F30D6E710B582B006
:101EF00002780024142A0ED8DFE802F019235B2FA1
:101F00004A595B5D5F660D0D0B292B2D393B435202
:101F100041000A005CD003291CBF0129072903D016
:101F20000022802101F029FE204602B010BD0A46A1
:101F3000032A4DD0012A49D101240170204602B064
:101F400010BD072918BF0D2942D00E2936E00E29F1
:101F500018E00F2916E0022914E0072918BF1029FC
:101F600036D0042918BF112932D0012926E01129C1
:101F700008E0122918BF07292AD014291EE01229C7
:101F800000E0042915D101240170204602B010BDE3
:101F90000A46132A07D101240170204602B010BD61
:101FA0000A46042A14D0072A12D0052A06E0062978
:101FB0000ED0072902E0082900E00929ABD101244D
:101FC0000170204602B010BD0A0001D00C2AA2D137
:101FD00001240170204602B010BD8168084701EB62
:101FE000410300EB830002827047B0F904007047A0
:101FF0002DE9F04705460F46A86869695FEA0208BF
:1020000090FBF1F40CD1384601F0CEFD68614743F6
:1020100000202861AF600021E9600120BDE8F08761
:102020003E1B304601F0C0FD8146204601F0BCFD5C
:102030008246384601F0B8FDD14528BFD1468145DA
:1020400088BF8146C5F8149009FB04F4AC606F604A
:102050002868084A08FB00F8A8FB02216869490AB9
:10206000491C464396FBF1F02861E9600120BDE878
:10207000F08700BF986E128301460020C96801B93D
:102080000120704700B581B0C36A01220BB19847A7
:102090000246104601B000BDC08870470021C160F3
:1020A000016170478183012202FA01F101837047C7
:1020B0008180704730B5044681B00125E1838D40B1
:1020C0006583C5EBC53101F082FDA5EBC531204626
:1020D00001B0BDE8304001F07CBDC180704701EB2C
:1020E000410300EB830082817047007870474069AC
:1020F0007047B0F90000704701B481B044F6E612B1
:10210000BDF90400ADF8000001460B4811FB00F0DA
:10211000BDF9061011FB02F2A0EB4200C01300F360
:102120000F00ADF8020010F5004F04BF0349ADF8F1
:102130000210009802B070471AB6FFFF0180FFFF3F
:1021400031B582B008B201F04BFD0190BDF9042019
:10215000BDF90830BDF90600BDF90A1013FB02F401
:1021600000FB1144E41304F30F04ADF8004013FB2B
:1021700000F0BDF900500A4CA54204BF094DADF86E
:10218000005011FB0200C01300F30F00ADF8020075
:10219000A04204BF0348ADF80200009803B030BD70
:1021A0000080FFFF0180FFFFF0B4B0F90430B0F908
:1021B0001450B0F91660B0F9062000244B430AB958
:1021C000002115E0514382688F1806D5002AC8BF48
:1021D000002906DD6FF0004703E0002A44BF002914
:1021E000104FC168B94203DB0169B942B8BF394633
:1021F00081600A46818BC78B0B4142FA07F1CB18ED
:102200009D4206DAEC1AA4182B46846018B2F0BC82
:102210007047B342BCBFF41A3346A418846018B2A6
:10222000F0BC70470100008002B481B00091BDF99C
:102230000430BDF9062013FB03F112FB021C0188D8
:102240004943614518D290F8B2104FEA1C6CACEBD0
:10225000010C5FFA8CFC00EB4C0080884343424346
:102260009913901303EB514302EB5042DB13D2134B
:10227000ADF80030ADF80220009802B0704711B5FB
:1022800083B008B201F0ACFC0190BDF90420BDF9A7
:102290000C30BDF90600BDF90E1013FB02F411FB62
:1022A000004411FB02F100FB1310C013E413ADF85E
:1022B0000200ADF80040009804B010BD70B481B0C9
:1022C00002B481B0B0F85030BDF90650BDF9042019
:1022D000018E5D436D424A436D005119AA1A01EB0C
:1022E000D17102EBD27249105210002948D5002A50
:1022F00017D5042480F83A408C1A651404EB953401
:10230000A41404EB930314140D1402EBD43201EB68
:10231000D53103EB6242A3EB61410C461D461646E4
:1023200075E02C14002D05EBD43414DC032180F867
:102330003A10AD1A691405EB9135AD1405EB930312
:10234000151402EBD53203EB6242A2EB64410C465A
:1023500015461E465BE0022280F83A204D1B6A14A7
:1023600005EB9235AD1405EB93030D1401EBD5315C
:10237000A3EB614101EB644214460D461E4646E064
:10238000002A16D4012480F83A408C1A651404EB14
:102390009534A41404EB9303141402EBD4320D14FB
:1023A00003EB624201EBD531A3EB614114461D46BC
:1023B0002CE02C14002D05EBD43414DC052280F81D
:1023C0003A204D1B6A1405EB9235AD1405EB9303CF
:1023D0000D1401EBD531A3EB614101EB64421C46C6
:1023E0000D46164613E0002180F83A10AD1A691424
:1023F00005EB9135AD1405EB9303151402EBD532C3
:1024000003EB6242A2EB64411C4615460E46C186B0
:10241000A0F84060C587848743868286B0F84E1056
:10242000012919D1B0F94830418EB0F85420002B61
:10243000CCBF5118891A4186B0F94A30818E002BE1
:10244000CCBF5118891A8186B0F94C30C18E002B4F
:10245000CCBF52188A1AC286816903B070BC084783
:102460002DE9F04F054685B0B5F928006B6EC0EB3D
:10247000C0329A42B8BF6A6604DBA0EBC030984213
:10248000A8BF68666E6EB5F81A01AB6E0641B5F965
:1024900028009A4236B2B8BFAA6604DBA0EBC0306F
:1024A0009842A8BFA866AA6EB5F81A01EB6D42FA69
:1024B00000F00FFA80FBB5F92600C0EBC0329A425B
:1024C000B8BFEA6504DBA0EBC0309842A8BFE8655E
:1024D0002B6EB5F926009A42B8BF2A6604DBA0EB42
:1024E000C0309842A8BF2866B5F81831EA6D8888D0
:1024F0002F6E049742FA03F4201A00B247FA03F34E
:10250000ADF80230BDF80270CB88FB1AB5F91E7029
:1025100003971BB20F890297B5F91AA0029FB5F96C
:102520001C90B5F922E0DDF80C801AFB04F4121BB4
:10253000B1F900407C4310FB092224141EFB042245
:1025400006FB1828B5F924200192AA8D8DF80020E9
:10255000B5F920C06C6E9DF80070B5F9062010FB2F
:102560000C404BFA07F4019F14FB02F407FB040430
:10257000BDF90200049F1AFB00F03F1A13FB097912
:10258000029FB1F90200784300141EFB0091A86E6F
:10259000DDF80C9013FB0C039DF800000BFB1919E0
:1025A00046FA00F00199A5F86C60A5F86EB010FB32
:1025B00002F2B5F920019A460028B5F9000001FBA6
:1025C00012AA54BF01274FF0FF3701F009FB00901A
:1025D0001BFB07F0BDF90010404210FB01F1BDF9F3
:1025E00002007E43490016FB00F009144000A1EBF5
:1025F000204105F13000FFF7D7FD95F8F01095F870
:102600000A212881491CC9B2914208BF002105EB6B
:102610004102B2F87030A5F80831A2F8700085F8D0
:10262000F010298840182880C5F85C806C66C5F8D1
:102630006090C5F868A0B5F9000005B0BDE8F08F5E
:1026400010B490F80A4190F80B1190F8F020D0F8EF
:102650000431611A07D100F1700131F912105A18D2
:10266000B0F908110DE08918A142ACBF0C1B0C4653
:1026700000F1700131F912105A1800F1700131F9AE
:102680001410511AB0F81C21C0F8041141FA02F3D9
:10269000C38010BC7047F0B490F82F200124012AA9
:1026A00008BFB1F900203DD0437BB0F90650828DC0
:1026B000468895FBF3F3AA189E1990F82830828576
:1026C000012B46802ED1B0F92A3043B9CA5E80F87A
:1026D000294000210173028010B2F0BC70475B1EDC
:1026E0004385002DB1F90060B0F9327052BFB51AC0
:1026F000951B4FF0FF342DB215FB03F393FBF7F35B
:1027000013FB04F3002D1BB208D4012280F82E2005
:102710000988CA1A028010B2F0BC704790F82E10D7
:1027200001B19A19028010B2F0BC704710B504468E
:10273000DFF828092061FFF76BFB0020A4F85800A0
:10274000A4F85A0020626062A062E0622065D4F8BA
:102750009C00C16BC4F8801081692163002184F85A
:102760003410A163E163A4F84010A4F84C10A4F85D
:102770004E1090ED000AD0ED070AB8EE400A20EEA8
:10278000200ABDEEC00A10EE101AA4F85C1090EDFD
:10279000090AD0ED070A80EE200ABDEEC00A10EE4D
:1027A000101AA4F85E1090ED000AD0ED0C0AB8EEF5
:1027B000400A20EE200ABDEEC00A10EE101AA4F85E
:1027C000601090ED000AD0ED0D0AB8EE400A20EE40
:1027D000200ABDEEC00A10EE100AA4F87400002012
:1027E00084F862006066A06684F86C002067D4F804
:1027F0009C0090F82010D4F89C0084F87610418C4E
:10280000A4F87810016CC4F88410416CC4F88810E6
:10281000806CC4F88C000020C4F89000C4F89400C8
:1028200010BD90F8621079B9002280F834208163DD
:10283000C163A0F84010A0F84C10A0F84E10C0F8EA
:102840009010C0F8941070470A2180F83410704737
:10285000002180F8341070472DE9F041054695F8C5
:1028600034002C69092800F2EF82DFE810F00A003A
:102870004800ED02ED02ED02A000CB004501710120
:1028800011026A68002082F824000021E86801F043
:10289000F3F901200021A5F84A00A963E963A5F82E
:1028A0004010A5F84810A5F84C10A5F84E1085F872
:1028B0006C102868FFF799FBC0EB00118800DFF867
:1028C000A03780FB03639910002201EBD1712046F1
:1028D000FFF78EFBD5F880104FF47A722046FFF791
:1028E00087FB012085F834006868B0F9101000EE0D
:1028F000101AB8EEC00A85ED240ABDE8F081204622
:10290000FFF78EFA00EE100AB8EEC00A85ED1C0A39
:10291000284600F0D1FA06462046FFF7ADFB002816
:1029200000F09282B5F84E00401C012EA5F84E0032
:1029300005D0B5F8741080B2814280F08582286895
:10294000FFF753FBC0EB00118800DFF8142780FB72
:102950000232921002EBD27200EE102AD5F89C00DF
:10296000B8EEC00A85ED140A41F28832D0ED0A0AA9
:1029700060EE200AFDEEE00A10EE901AA5F858105D
:10298000D0ED0B0A20EE200ABDEEC00A10EE101AA0
:102990000020A5F85A10E863A5F840006864A5F87F
:1029A0004E0009B22046FFF723FB05204AE22046ED
:1029B000FFF736FA00EE100AB8EEC00A85ED1C0AE1
:1029C000284600F079FA06462046FFF755FB002816
:1029D00000F03A82B5F84E00401C012EA5F84E00DA
:1029E00005D0B5F8741080B2814280F02D820020AD
:1029F000E863A5F840006864A5F84800A5F84E0013
:102A000006201FE295ED1C0A284600F055FA2868BA
:102A1000FFF7EBFA00EB80025200DFF84406E96BA7
:102A2000B5F85C6082FB0030801000EBD0706A6803
:102A30004118E963A86BB2F90C30B5F84020C01812
:102A40006B6C521C97B25B1CBE42A863A5F8402079
:102A50006B6480F0F98192B291FBF2F1B5F84820F5
:102A6000A5F84810521AA5F84A2016B2002E44BF05
:102A7000324652420021E963A5F84010B5F86010D3
:102A8000994203DB12B2042A00F3DE8190FBF3F0DB
:102A9000A882DFED7E0AB5F9480095F8761000EEC1
:102AA000100AB8EEC00A01EE101A60EE200AB8EE65
:102AB000411A60EE810AC5ED060A2868FFF795FA0B
:102AC000C0EB00118800DFF89825B5F9581080FB9D
:102AD0000232921002EBD27200EE102A0022A5F808
:102AE0004E20B8EEC00A85ED1C0A41F2883220461D
:102AF000FFF77EFA0720A5E12046FFF791F900EEE7
:102B0000100AB8EEC00A85ED1C0A284600F0D4F978
:102B100006462046FFF7B0FA002800F09581B5F888
:102B20004E00401C012EA5F84E0005D0B5F87410DB
:102B300080B2814280F088810020A863E863A5F814
:102B400040006864A5F84800A5F84E00082079E127
:102B500095ED1C0A284600F0AFF92868FFF745FA02
:102B600000EB80025200DFF8F804E96BB5F85C4036
:102B700082FB0030801000EBD0706A684118E96376
:102B8000A86BB2F90C30B5F84020C0186B6C521C21
:102B900096B25B1CB442A863A5F840206B6480F039
:102BA000538192B291FBF2F1B5F84820A5F8481094
:102BB000521AA5F84A2014B2002C44BF22465242B1
:102BC0000021E963A5F84010B5F86010994203DBD5
:102BD00012B2042A00F3388190FBF3F0E882DFEDB3
:102BE0002B0AB5F9480095F87610B5F9162000EED5
:102BF000100AB5F91400B8EEC00A01EE101A60EE22
:102C0000200AB8EE411A20EE810A00EE900AB5F9CA
:102C10001600B5F9141085ED070A01EE100AF8EE5A
:102C2000E00AB8EEC11A70EEC10A95ED061AE8681E
:102C300031EE400A80EE800ADFED840AB4EE600ACD
:102C4000F1EE10FA48BFB0EE600A85ED080A95ED86
:102C5000060AD5ED070A30EE600A9FED7D1A20EED8
:102C6000010A85ED090A8A42D5ED070A30EE200AED
:102C700085ED090AB2BF00220022B5F9781000F0F4
:102C8000FFFF0020A5F84E000920DBE09CC4203F98
:102C9000B5F84E00401CA5F84E002868FFF7A5F9CE
:102CA00000EB80025000DFF8B83395F87610D5EDD0
:102CB000091A80FB03439B1000EE101A03EBD37339
:102CC000F8EE400A01EE103A9FEDD60AB8EEC11AAE
:102CD00021EE001A21EE201AB4EE611AB5F84E105A
:102CE000F1EE10FA06DAB5F8740000EB4000884205
:102CF00080F2AA80D5F89C00AE68D0ED001AB3EE41
:102D00000E2A01EE101AB8EE411AF8EE611A81EEA1
:102D1000211AF6EE001AC1EE811A61EE821AC5ED93
:102D20000C1A85ED0A1A102195ED082A21EE022AC7
:102D300062EE211A21EE800A20EE200A85ED0B2A90
:102D400085ED190AC0EE010A90ED001AB8EE411A9D
:102D5000C0EE810AC5ED1A0A10274FF000080F20B7
:102D600047F6FF725FF0010303FA00F401EE104A28
:102D7000B8EEC11A21EE001ABDEEC11A11EE104ACA
:102D8000944204DA41B202E0BCF1100FECD01FFA19
:102D900087FCBCF1100F0ED103FA00FC01EE10CA43
:102DA000B8EEC11A21EE201ABDEEC11A11EE108A3A
:102DB0009045B8BF47B2401E1FFA81FCE4D5BCF174
:102DC000100F07D089B23046FFF76CF921B23046B8
:102DD000FFF76EF9B8B2102808D0B9B23046FFF745
:102DE00069F90FFA88F13046FFF777F9B5F97810ED
:102DF000304600F093FFB5F87810494209B23046EA
:102E000000F08EFF304600F08DFF0446B5F87800E4
:102E100044432146304600F0DAFE64422146304603
:102E200000F0D7FE012085F862000121E86800F07B
:102E300023FF2868FFF7D9F80146E868002200F070
:102E40001FFF0A2085F83400BDE8F0810AD7233C33
:102E5000AE47213F10B5044694F86200A8B96068F7
:102E6000002180F82410E06800F006FF6068B0F9E7
:102E70001010E068002200F003FFE068BDE8104099
:102E80004FF47A62002100F0FBBE10BD002180F8F3
:102E90006210704790ED140A00F021B90B207047C2
:102EA00090F8340070470146002091F834100A2948
:102EB00008BF01207047000030B5044681B00025EE
:102EC0002DED048BD4F89C00D0ED0E8A2068B0EE76
:102ED000408AFFF78AF8C0EB00118900604A94ED40
:102EE000221AD4ED210A81FB0232921002EBD27237
:102EF00000EE102AB8EEC09A38EE490AB5EE401A34
:102F000060EE800AF1EE10FA08BF9FED520A09D078
:102F1000D4ED251A70EE611A94ED240A01EE810AAF
:102F200070EE800AB4F8780084ED240A014601EEC0
:102F3000101AB8EE411AB4EE601AB0EE600AF1EE63
:102F400010FA48BFB0EE410A404201EE100AB8EE56
:102F5000C11AF4EE410AF1EE10FA48BFB0EE410A90
:102F600070EEC00A94ED231AE068BDEEC00A60EE70
:102F7000810A10EE101AC4ED250A002209B200F0F1
:102F80007FFE28EE280AB4EE409A94F96C00F1EE28
:102F900010FA1CD4B4EE489AF1EE10FA0AD4B0EE4E
:102FA000000A30EE680A20EE080AB4EE409AF1EE0C
:102FB00010FA0CD5401C41B21429A4BF14200125DD
:102FC00084F86C002846BDEC048B01B030BD0020B5
:102FD00084F86C002846BDEC048B01B030BD80F84D
:102FE00076107047A0F87810704780ED0C0A704793
:102FF00090ED0C0A70470000D0F89C1090ED0B0A81
:1030000090ED261ADFED140A60EE200A60EE810AC8
:1030100091ED130A91ED141A20EE010A80EE800A58
:10302000704700009CC4203FD0F89C1090ED080A27
:1030300090ED261ADFED080A60EE200A60EE810AA4
:1030400091ED130A91ED141A20EE010A80EE800A28
:103050007047000000000000CB151E35480C002012
:1030600067666666C0F88010704780ED260A704774
:1030700090F86200704701460020896801B901207C
:103080007047014600200A780B2A04D109200870F5
:10309000002088800120704730B5044681B0154675
:1030A00004F13000FFF704F8294604F1300001B0C4
:1030B000BDE83040FFF711B8B0F90600704770B5B1
:1030C00004460D46164604F1300000F02BFE00FBCE
:1030D00005F104F1300000F027FE268070BD2DEDD3
:1030E000010A009801B07047C11768B14840401A02
:1030F000B0FA80F29040D21CC907C2F5846241EA5E
:10310000025202EBD0214005704790F81C1169B9BA
:103110000022012180F81D2180F81C11D0F8200127
:10312000016841F0200101600220704701207047D2
:10313000B0B581EA030C0CF0004C40F2FF7515EAC3
:1031400011541DBF15EA1357AC42AF4239E0E419E0
:1031500023EA455343F48013C90241F0004141EA98
:10316000505EC7021100A7FB020200284FF00000CA
:10317000EEFB01204FF00001E3FB072118BF42F0F6
:103180000102401800214941E3FB0E01A4F58064CF
:103190000F0302D252004041494154F101046CDD59
:1031A000470872F1004250F1000051EB0451A1F5C3
:1031B00080115CBF41EA0C01B0BD4CEA0551002012
:1031C000B0BD05EA1357AC4214BFAF4241E050EA2C
:1031D000410E1CBF52EA430E02E061460020B0BD22
:1031E00024423C441BD15FEA070EF6D0090302BF1C
:1031F00001460020AEF1140EB1FA81F7AEEB0704E0
:1032000001FA07FE0C37C7F1200100FA07F7C840A2
:103210004EEA000E23EA455343F48013A2E733F04D
:103220000043B3FA83F704BFB2FA82FE77440B3F40
:10323000E41BB7F1200E2FBF02FA0EF3BB40C7F11B
:10324000200E22FA0EFE38BF43EA0E03BA40641C79
:1032500082E750EA410E14BF52EA430E6FF00001BC
:103260004FF4001717EB430F8ABF194617EB410FB6
:10327000B5E74CEA05510020B0BDD4F10104B4F12A
:1032800020070FDAC4F12007520828BF42F00102DC
:1032900010FA07F501FA07F7E1BF2A43E040384387
:1032A000E1400FE0352C98DCC7F1200452EA4002DF
:1032B00020FA07F218BF42F0010231FA07F0A140EC
:1032C0000A43002172F1004250F1000051EB0C0161
:1032D000B0BD00EB4100B0F932007047C1F30A53B2
:1032E00040F2FE329B1A14DDD3F120034FEAE17263
:1032F00008DDC90241EA505141F00040D840801831
:103300005040704703F2E13010B1D24382F00040E8
:103310007047002070470146002091F8582091F82E
:1033200049108A4228BF0120704710B5C46E0021A1
:10333000816081802046FEF758FE01462046BDE8A8
:103340001040002200F0F2BC014681B08A68DFF82C
:103350002C0602408A608868C20028D48A68DFF898
:103360002006DFF820C6024042F080528A60002327
:10337000DFF814261068E0FB0CC35B0C0093009888
:10338000A8B1009A521E0092009880B1009A521E75
:103390000092009858B1009A521E0092009800289E
:1033A00005D0009A521E009200980028E9D18A6840
:1033B000DFF8D805024042F000428A608868C00FFA
:1033C000FCD10A68DFF8B805D3071FD48A68024029
:1033D00042F001028A600A68D30717D48A68024063
:1033E00042F001028A600A68D3070FD48A6802405B
:1033F00042F001028A600A68D30707D48A68024053
:1034000042F001028A600A68D307DFD58A68024069
:1034100042F008028A608A68104040F0200088600C
:10342000CA68DFF86C05024042F40012CA6001B0BD
:10343000704730B481B002464FF47A7013685B086D
:103440005B0013605468DFF84C351C40546002F197
:1034500018031C6844F008041C601D6845F40065EE
:1034600043F8045B1C6844F008041C601D6845F4C4
:1034700000651D60536943F0010353614C6F94F87C
:10348000A130022B14D194F8A250012D04BF94F85E
:103490009B30032B13D1012414630324536943F09D
:1034A000010353611463B1F868305B1E536215E089
:1034B00091F8463093B994F89B30012B04D1B1F8C0
:1034C00068305B1E536209E0032B07D101231363AD
:1034D0000324536943F00103536114636FF08003C5
:1034E00013614B6F93F89C1061B9D06840F0800075
:1034F000D06001B030BC70470028F6D06FF4807106
:103500001161401E1169CB05F6D4D06840F08000EF
:10351000D06001B030BC7047426F438E90F86D10A0
:1035200080F83A109268B0F868105363491E838E91
:10353000936389B2C08ED0631164DFF85C04516874
:103540000140481E8041C043C00F7047F0B4426F35
:10355000838FB0F86840B2F89210E51AAFB2B94262
:1035600005D2042180F83A10B0F8681016E0C68F32
:103570002D049E1BED0BB6B2B54203D2B2F89410E7
:10358000591A0CE0C9188AB2A24208D34FF48072CB
:10359000A0F86A20B0F86820C1EB4201491E426FD2
:1035A0009268438E536389B2838E9363C08ED063D7
:1035B0001164DFF8E40351680140F0BC481E80410B
:1035C000C043C00F704770B4426F90F86D3002EB8B
:1035D0008304E56A2B68646C24689568DFF8B4237B
:1035E0006E6816406E6090F86C20102A0AD2C56D85
:1035F000026E5B19A418C365046690F86C20521C17
:1036000080F86C2000200880488070BC704730B47F
:10361000426F90F86D3002EB8304656C2B68946800
:10362000DFF8702365681540656090F86C20102AFB
:1036300007D2446E1B19436690F86C20521C80F828
:103640006C2000200880488030BC704770B481B086
:10365000416F8A6890F84710002944D102F118039D
:10366000CE4C1968214041F0600119600026116AB2
:1036700041F001011162116A21F0040111625663E7
:10368000416F91F89A1001290DD11E68C4490E406E
:1036900046F480561E60156A25F010051562116A01
:1036A00041F040010EE002290DD11E68BC490E40D8
:1036B00046F400561E60156A45F010051562116A41
:1036C00021F04001116253F8041F0C4044F07004D3
:1036D0001C60116A21F480711162116A21F4806109
:1036E0001162016EC1650FF26D1141600FF2A511FB
:1036F00041610FF2E511C160AA498160012180F8A2
:10370000471001B070BC7047416F8A6890F847104D
:10371000012900D0704770B402F1180381B0196814
:103720009E4C214041F060011960116A41F0010195
:103730001162416F91F89A10012903D1116A41F089
:10374000040104E0022903D1116A21F0040111628D
:10375000B0F86810490851631E6891490E4046F45C
:10376000C0461E60156A45F010051562416F91F85C
:103770009A10012903D1116A41F0400104E00229A5
:1037800003D1116A21F040011162B0F868104908B4
:10379000916353F8041F0C4044F060041C60116AEC
:1037A00041F480711162416F91F89A10012903D19F
:1037B000116A41F4806104E0022903D1116A21F405
:1037C00080611162B0F868104908D163764A774980
:1037D000416142607649C16072498160002180F890
:1037E000471001B070BC7047426FB0F86830926803
:1037F0005943090C02F11803418653F804CF684974
:1038000001EA0C0C4CF4E04CC3F800C0B0F868308E
:10381000B0F856105B1A1364B0F85810D163418E9B
:10382000516353685B490B4043F0700353600323BB
:1038300080F83A30526858490A40511E8941C943BC
:10384000028FC90F012A02D10023012103870846F4
:1038500070470000426F9368D3F804C04D4A02EAF3
:103860000C0CC3F804C0026E436F90F83A0003EBEF
:103870008003D3F844C0DCF80000101A4D4A90428F
:1038800003DD47F6FF72904200DB10460880488057
:1038900070470000416F896800224A636FF001029F
:1038A0000A610A69D307FCD54A6C42F400424A64B3
:1038B000416F91F89A20022A0DD1B1F88C30096A33
:1038C0008B61416FB1F88E20496A8A62406FB0F80F
:1038D0009010806A8162704770B481B0426F9368C3
:1038E000116852686FF001041C611D69EE07FCD578
:1038F0001C6101245C63B0F86840641F1C641C698F
:10390000E507FCD5DC6844F00104DC605C6C44F441
:1039100080645C645C6C44F400445C64446F94F8C0
:103920009A50022D19D1B4F88C50246A1B6A40F2C7
:103930005556334206D0A561436FB3F88E405B6A9B
:103940009C6105E0A562436FB3F88E405B6A9C62A0
:10395000436FB3F890409B6A9C62032480F83A401E
:103960008B680748034043F008038B609168084068
:1039700040F00800906001B070BC7047C0FFFF5F6E
:10398000C0FFFF7F47ACC5A7180D0020C0FFFF3F59
:10399000FFFFDF7F8FFFFFFD700000028CFFFEFF47
:1039A000FF8CFFFE5B3E000835BD000859AC0008E7
:1039B000B13D00080180FFFF416F89686FF001028F
:1039C0000A610B695FEAC37CFBD50A6100224A6386
:1039D0008A63CA63B0F86820521F0A640A69D30771
:1039E000FCD54A6C42F480624A644A6C42F400425C
:1039F0004A64426F92F89A30022B0ED1B2F88CC012
:103A0000126AC2F818C0426FB2F88E30526A9361DF
:103A1000426FB2F89030926A9361032380F83A3093
:103A2000086A40F480500862C86840F00100C8602D
:103A300070470000F0B5044681B0606F8568066885
:103A400047680020E0652066606684F86C00296A9B
:103A50003B48014029623B4860603B48A0618020B0
:103A6000A4F86A00042084F86D00204600F0A0F954
:103A70003648696801407029FBD1B168344801407B
:103A800041F00801B160B968084040F00800B86032
:103A900094F86C001028FBD3204600F0DEF90021DA
:103AA00084F86C1084F86D102A486060204600F09D
:103AB0007FF900BF94F86C001028FBD3204600F07B
:103AC000CCF9E06D244961600009E065206E0009D1
:103AD0002066606E000960662048A06105F118004C
:103AE000016821F008010160011D026822F40062F2
:103AF00002600B6823F008030B60B4F868206A6367
:103B0000B4F86820AA63B4F86820EA63026842F057
:103B100008020260036843F400630360086840F031
:103B20000800086040F25550296A014329620420C8
:103B300084F83A00002084F8700001B0F0BD00BFA6
:103B4000AAFAFFFFC7350008193500087000000207
:103B5000C0FFFF7F0F36000835BD00084D35000857
:103B600001EB410300EB8300C2817047A0F8101104
:103B70007047C1844942018570470346B3F802C0CB
:103B8000187841EA0C0C2CEA0202B3F804C041EAAE
:103B90000C010A285A80998002D122B90B2001E039
:103BA0000AB10A2018707047010048BF494201223B
:103BB0005FF00100C2F11F0300FA03F399423EBF18
:103BC000521CD3B2202BF5D3511E88407047C160E0
:103BD0007047016170470068012180F81E1170472D
:103BE000A0F500400004800D10F4407181B021D098
:103BF000B1F5807F2CD0B1F5007F05D0B1F5407FC5
:103C00000BD0009801B070471A49C2B231F81220A7
:103C1000ADF80220C0F1FF0023E01649C0F1FF0219
:103C2000D2B231F81220ADF80220C0B231F9100042
:103C3000404219E00F49C2B231F912205242C0F19C
:103C4000FF00ADF80220C0B231F9100040420BE095
:103C50000849C0F1FF02D2B231F912205242ADF848
:103C60000220C0B231F91000ADF80000009801B098
:103C7000704700BF9CB1000801700021C16070470F
:103C80002DE9F041064682B030780C4617460125F2
:103C9000B0B9304600F00AF9F18CB6F92820A142FB
:103CA000B8BF002594421EDB290030D007BB307816
:103CB000270401280CBF7760B7600020F06025E082
:103CC0007068C11300EB1140F18B0014A142A4BF36
:103CD000B6F92420944206DB318C8C42BCBFB6F985
:103CE0002210A142E2DA0025284602B0BDE8F081A8
:103CF0007480B18B084B07FB01F8A8FB0332510A13
:103D0000271A491C3F04F16097FBF1F0B061284687
:103D100002B0BDE8F08100BF986E128381827047C7
:103D2000C1827047408B704781607047134690F89E
:103D30002820002A00D07047F0B41A0012D1028B5C
:103D4000818002FB01F4C28AC18402EB82035B0022
:103D500094FBF3F3447B13FB04F30022C3808284BF
:103D6000F0BC7047028E114EC1845343028B02FB9C
:103D700001F4C28AA3FB0665B0F9066002EB820774
:103D80006B0A457B7F005B1C94FBF7F496FBF5F216
:103D9000838424B212B2A41A24049BB294FBF3F2DB
:103DA00055433604C5610662F0BC7047986E1283B5
:103DB00070B481B0416F8968002280F842206FF0B2
:103DC00001020A610B69DC07FCD50A61B0F86830B2
:103DD0005B084B63B0F868305B088B63B0F8683001
:103DE0005B08CB63B0F868305B1F0B640B69DC07C2
:103DF000FCD54B6C43F480634B644B6C43F4004341
:103E00004B64436F93F89A40022C1ED1B3F88C4058
:103E10001B6A0D6A40F2555635420BD09C61436FC8
:103E2000B3F88E405B6A9C61406FB0F89030806A56
:103E300083610AE09C62436FB3F88E405B6A9C62C8
:103E4000406FB0F89030806A83620A61C86840F0C1
:103E50000100C86001B070BC7047416F8968CA68D2
:103E600052085200CA60002390F8702080F8423057
:103E7000012A1AD04B6C23F480634B644A6C22F401
:103E800000424A64416F91F89A20022A0DD1B1F89C
:103E90008C30096A8B62416FB1F88E20496A8A6260
:103EA000406FB0F89010806A816270478068C113DB
:103EB00000EB11400014704710B5040015D0D4F881
:103EC000800028B9002184F87C10204601F03CF8DD
:103ED0002420C4F880002068016849084900016076
:103EE000204600F01DF8012801D1012010BDA06A74
:103EF00010B1204600F092FD2068416821F4904105
:103F000041602068816821F02A0181602068016891
:103F100041F0010101602046BDE8104000F0E2BD23
:103F2000F0B5044681B02168DFF8D00A0A68024083
:103F3000A06802432069024360690243E0690243CA
:103F4000606E02430A6000264A68E06822F440522C
:103F500002434A600025A369DFF8A42A91421CBFEE
:103F6000206A03438F68DFF89C0A07403B438B605D
:103F7000CB6A606A1B0940EA0313DFF88C0ACB6244
:103F8000814226D1DFF8840A036803F00303032B80
:103F900033D8DFE803F0026D5B820127E069B0F5FA
:103FA000004F40F0CC83082F00F2BA83DFE817F00F
:103FB0000900BA02F702B8033903B803B803B8031B
:103FC000760301F055FB0146606A002840F07282DA
:103FD0009DE2DFF83C0A814227D1DFF8300A03680E
:103FE00003F00C030C2B08D8DFE803F05507070794
:103FF0004207070730070707570010279142CDD126
:10400000082F00F2EF84DFE817F00900ED048900C3
:10401000ED04C500ED04ED04ED04FA0001F028FB09
:104020000146606A00283AD166E0DFF8E80981427B
:104030000ED1DFF8D809036813F030032BD0102B12
:1040400016D0202B02D0302B27D0D6E70227D5E779
:10405000DFF8C40981420DD1DFF8B009036813F01D
:10406000C00318D0402B03D0802BEFD0C02BEBE740
:104070000427C3E79142C0D1DFF89009036813F425
:10408000406308D0B3F5806FF2D0B3F5006FDDD098
:10409000B3F5406FD8E70027B0E70827AEE701285F
:1040A00008BF022029D0022808BF042025D00328F9
:1040B00008BF062021D0042808BF08201DD00528ED
:1040C00008BF0A2019D0062808BF0C2015D00728E1
:1040D00008BF102011D0082808BF20200DD00928C3
:1040E00008BF402009D00A2808BF802005D00B282F
:1040F00008BF4FF4807000D00120B1FBF0F0002821
:1041000000F07184626802EB42018842C0F06A8468
:104110001103814280F0BA8000F064BC606AB0B3E1
:10412000012808BFDFF8480AECD0022808BFDFF8F2
:10413000440AE7D0032808BFDFF83C0AE2D004288D
:1041400008BFDFF8380ADDD0052808BFDFF8300ADD
:10415000D8D0062808BFDFF82C0AD3D0072808BF1C
:10416000DFF8240ACED0082808BFDFF8200AC9D01B
:10417000092808BFDFF8180AC4D00A2808BFDFF8EA
:10418000140ABFD00B2808BF4FF22440BAD0DFF882
:10419000080AB7E701F03AFA0146606A68B30128F5
:1041A00008BF0220A9D0022808BF0420A5D00328F8
:1041B00008BF0620A1D0042808BF08209DD00528EC
:1041C00008BF0A2099D0062808BF0C2095D00728E0
:1041D00008BF102091D0082808BF20208DD00928C2
:1041E00008BF402089D00A2808BF802085D00B282E
:1041F00008BF4FF480703FF480AF01207DE7606A14
:10420000002840D0012808BF4FF480403FF47AAF27
:10421000022808BF4FF400503FF474AF032808BFD2
:1042200041F255503FF46EAF042808BF4FF4805060
:104230003FF468AF052808BF40F6CC403FF462AFBA
:10424000062808BF40F6AA203FF45CAF072808BF45
:104250004FF400603FF456AF082808BF4FF4806069
:104260003FF450AF092808BF4FF400703FF44AAF45
:104270000A2808BF4FF480703FF444AF0B2808BFF2
:1042800080203FF43FAF4FF400403BE7082F00F29F
:104290000B81DFE817F009000901450009018300DF
:1042A000090109010901BF0001F0E2F90146606A54
:1042B00060B3012808BF022029D0022808BF0420CB
:1042C00025D0032808BF062021D0042808BF0820D5
:1042D0001DD0052808BF0A2019D0062808BF0C20C9
:1042E00015D0072808BF102011D0082808BF2020AB
:1042F0000DD0092808BF402009D00A2808BF802017
:1043000005D00B2808BF4FF4807000D001206268F0
:10431000B1FBF0F6370E5008002110EB0620B9E093
:10432000606A002836D0012808BFDFF8706833D0F3
:10433000022808BFDFF868682ED0032808BFDFF81E
:10434000646829D0042808BFDFF85C6824D00528F9
:1043500008BFDFF858681FD0062808BFDFF850688C
:104360001AD0072808BFDFF84C6815D0082808BF06
:10437000DFF8446810D0092808BFDFF840680BD088
:104380000A2808BFDFF8386806D00B2808BFDFF816
:10439000086801D0DFF82C68002778E001F036F9D2
:1043A0000146606A60B3012808BF022029D00228B4
:1043B00008BF042025D0032808BF062021D00428E8
:1043C00008BF08201DD0052808BF0A2019D00628DC
:1043D00008BF0C2015D0072808BF102011D00828CE
:1043E00008BF20200DD0092808BF402009D00A2886
:1043F00008BF802005D00B2808BF4FF4807000D084
:1044000001206268B1FBF0F6370E5008002110EB76
:1044100006203FE0606A002836D0012808BF4FF42C
:10442000800633D0022808BF4FF400162ED0032890
:1044300008BFDFF8946729D0042808BF4FF480161E
:1044400024D0052808BFDFF884671FD0062808BFDE
:10445000DFF87C671AD0072808BF4FF4002615D074
:10446000082808BF4FF4802610D0092808BF4FF451
:1044700000360BD00A2808BF4FF4803606D00B2830
:1044800008BF4FF4004601D04FF40006002700217A
:1044900016EB52007941002301F020F90646A6F5FB
:1044A0004070DFF8301798E20125A6F54070DFF87C
:1044B000241792E2012808BF022029D0022808BF51
:1044C000042025D0032808BF062021D0042808BFD7
:1044D00008201DD0052808BF0A2019D0062808BFCB
:1044E0000C2015D0072808BF102011D0082808BFBD
:1044F00020200DD0092808BF402009D00A2808BF75
:10450000802005D00B2808BF4FF4807000D0012018
:104510006268B1FBF0F0510801EB4001B1FBF2F62B
:10452000B6B2FEE001F0B0F80146606A60B301285F
:1045300008BF022029D0022808BF042025D0032864
:1045400008BF062021D0042808BF08201DD0052858
:1045500008BF0A2019D0062808BF0C2015D007284C
:1045600008BF102011D0082808BF20200DD009282E
:1045700008BF402009D00A2808BF802005D00B289A
:1045800008BF4FF4807000D001206268B1FBF0F0EA
:10459000510801EB4001B1FBF2F6B6B2C1E0606A2E
:1045A000B0B3012808BFDFF8F00533D0022808BFF8
:1045B000DFF8BC052ED0032808BFDFF81C0629D081
:1045C000042808BFDFF8AC0524D0052808BFDFF8B1
:1045D0000C061FD0062808BFDFF89C051AD0072854
:1045E00008BFDFF8980515D0082808BFDFF8980540
:1045F00010D0092808BFDFF894050BD00A2808BF9F
:10460000DFF88C0506D00B2808BFDFF8880501D03D
:10461000DFF8AC05616800EB5100B0FBF1F6B6B213
:104620007FE000F0F3FF0146606A60B3012808BF35
:10463000022029D0022808BF042025D0032808BF63
:10464000062021D0042808BF08201DD0052808BF57
:104650000A2019D0062808BF0C2015D0072808BF4B
:10466000102011D0082808BF20200DD0092808BF2D
:10467000402009D00A2808BF802005D00B2808BF99
:104680004FF4807000D001206268B1FBF0F0510857
:1046900001EB4001B1FBF2F6B6B242E0606AB0B3A2
:1046A000012808BF4FF4004133D0022808BF4FF45F
:1046B00080412ED0032808BF42F6AA2129D0042821
:1046C00008BF4FF4005124D0052808BF41F69811C7
:1046D0001FD0062808BF41F254511AD0072808BF3E
:1046E0004FF4805115D0082808BF4FF4006110D056
:1046F000092808BF4FF480610BD00A2808BF4FF487
:10470000007106D00B2808BF4FF4807101D04FF420
:104710008031606801EB5001B1FBF0F6B6B200E009
:1047200001254FF6F071A6F11000884280F05A8101
:104730003140C6F3420001432068C16053E1082FB5
:1047400000F24681DFE817F00900450081004401CE
:10475000C700440144014401030100F089FF014600
:10476000606A60B3012808BF022029D0022808BF70
:10477000042025D0032808BF062021D0042808BF24
:1047800008201DD0052808BF0A2019D0062808BF18
:104790000C2015D0072808BF102011D0082808BF0A
:1047A00020200DD0092808BF402009D00A2808BFC2
:1047B000802005D00B2808BF4FF4807000D0012066
:1047C0006268B1FBF0F000EB5200B0FBF2F6B6B25B
:1047D000FFE000F059FF0146606A60B3012808BF9E
:1047E000022029D0022808BF042025D0032808BFB2
:1047F000062021D0042808BF08201DD0052808BFA6
:104800000A2019D0062808BF0C2015D0072808BF99
:10481000102011D0082808BF20200DD0092808BF7B
:10482000402009D00A2808BF802005D00B2808BFE7
:104830004FF4807000D001206268B1FBF0F000EB13
:104840005200B0FBF2F6B6B2C3E0606A00283FD077
:10485000012808BFDFF8181300F0B380022808BF52
:10486000DFF8101300F0AD80032808BFDFF808134D
:1048700000F0A780042808BFDFF8001300F0A18033
:10488000052808BFDFF8F81200F09B80062808BF53
:10489000DFF8F01200F09580072808BFDFF8E81273
:1048A00000F08F80082808BFDFF8E01200F0898050
:1048B000092808BFDFF8D81200F083800A2808BF53
:1048C000DFF8D0127DD00B2808BF4FF2244178D0FA
:1048D000DFF8C41275E000F099FE0146606A60B32B
:1048E000012808BF022029D0022808BF042025D0B3
:1048F000032808BF062021D0042808BF08201DD0A7
:10490000052808BF0A2019D0062808BF0C2015D09A
:10491000072808BF102011D0082808BF20200DD07C
:10492000092808BF402009D00A2808BF802005D0E8
:104930000B2808BF4FF4807000D001206268B1FBE3
:10494000F0F000EB5200B0FBF2F6B6B241E0606A64
:10495000A8B3012808BF4FF4804132D0022808BF15
:104960004FF400512DD0032808BF41F2555128D0F3
:10497000042808BF4FF4805123D0052808BF40F613
:10498000CC411ED0062808BF40F6AA2119D007281E
:1049900008BF4FF4006114D0082808BF4FF48061AD
:1049A0000FD0092808BF4FF400710AD00A2808BFA9
:1049B0004FF4807105D00B2808BF802101D04FF43F
:1049C0000041606801EB5001B1FBF0F6B6B200E0C7
:1049D0000125A6F110004FF6F071884202D221683D
:1049E000CE6000E001250120A4F86A00A4F8680068
:1049F0000020E066206701B02846F0BDF369FFCFD4
:104A000000800040FFF4FF11003801408810024090
:104A10000044004000480040004C004090F828103E
:104A2000CA0706D502685368C16A23F400330B43F2
:104A3000536090F828108A0706D502685368016B06
:104A400023F480330B43536090F828104A0706D5AF
:104A500002685368416B23F480230B43536090F842
:104A600028100A0706D502685368816B23F40043B7
:104A70000B43536090F82810CA0606D50268936865
:104A8000C16B23F480530B43936090F828108A067F
:104A900006D502689368016C23F400530B439360BE
:104AA00090F828104A0610D502685368416C23F428
:104AB00080130B435360416CB1F5801F05D15368DF
:104AC000816C23F4C0030B43536090F828100A064E
:104AD00006D501684A68C06C22F4002202434A608D
:104AE0007047000030B5044681B00020C4F888004B
:104AF00000F010FF0546206801680A0725D52068E8
:104B0000C169880221D400F005FF401BB0F1007F8D
:104B1000F5D305E000F0FEFE401BB0F1007F18D396
:104B20002068016821F4D07101602068816849081B
:104B3000490081602020C4F88000C4F8840000206F
:104B400084F87C0001B0032030BD206801684A076A
:104B500003D52068C1694802DCD52020C4F8800054
:104B6000C4F88400002084F87C0001B030BD00004F
:104B700000127A0000093D00AAB0280080841E00BF
:104B8000006A18005558140040420F0020A1070089
:104B900090D0030048E801000024F4000000127ADD
:104BA0000000093D00AAB0280080841E00006A1899
:104BB000005558140040420F0020A1070090D00378
:104BC0000048E801000024F40055150000CC0C005A
:104BD00000AA0A0000FD0F005461510000D430000B
:104BE000DFF8C00382B0816841F001018160816813
:104BF00001F0010100910099016841F080510160CC
:104C0000006800F0805000900098042002B000F08E
:104C100087BE10B586B069460022002300241CC15F
:104C20000CC10068B0F1A04F37D1DFF87C030168F8
:104C3000491C01600129DFF8740308D1016841F4BF
:104C400000510160026802F4005205920599016862
:104C500041F001010160026802F0010205920322A5
:104C60000599016841F0020101600521006800F02A
:104C700002000590059800910192029369464FF059
:104C8000904000F0B5FE0320019044F20202009231
:104C900002946946DFF8180326E0DFF8181388420B
:104CA00024D1DFF804030168491C01600129DFF801
:104CB000FC0208D1016841F400510160026802F46D
:104CC000005205920599016841F0010101604021FF
:104CD000006800F001000590032205980091019200
:104CE000029369464FF0904000F082FE06B010BD7E
:104CF00010B586B069460022002300241CC10CC1F7
:104D00000068DFF8B422904213D1DFF8A0020168F6
:104D100041F0010101600221006800F001000590EE
:104D20000322059800910192029369464FF090404A
:104D30002BE0DFF88822904213D1DFF8700201687F
:104D400041F0010101608021006800F00100059040
:104D50000322059800910192029369464FF090401A
:104D600013E09749884212D19048016841F002014E
:104D700001600121006800F00200059003220598FF
:104D80008B48009101920293694600F031FE06B013
:104D900010BD10B586B001A90022002300241CC15B
:104DA0000CC10068874A90421CD18048016841F4D8
:104DB00080310160026802F480320092032200997F
:104DC000016841F0010101601021006800F001005C
:104DD0000090009801910292039301A94FF0904036
:104DE00000F006FE06B010BD10B586B06946002280
:104DF000002300241CC10CC10068734A904212D1E8
:104E00006A48016841F0010101600E21006800F06C
:104E100001000590032205980091019202936946D2
:104E20004FF0904029E0694A904212D15F480168F2
:104E300041F001010160E021006800F001000590EF
:104E40000322059800910192029369464FF0904029
:104E500013E05F49884212D15448016841F00201D1
:104E600001600721006800F0020005900322059808
:104E70004F48009101920293694600F0B9FD06B0D7
:104E800010BD81B000685349884209D15248016879
:104E900041F400610160006800F400600090009837
:104EA00001B0704710B586B0694600220023002487
:104EB0001CC10CC10068474A904243D13B4801687D
:104EC00041F004010160026802F0040205920599B4
:104ED000016841F002010160026802F002020592DD
:104EE00002220599016841F0010101604FF400516F
:104EF000006800F0010005900598009104200490DE
:104F00000192029203926946344800F071FD02203A
:104F100004214FF40042019002900390049100920A
:104F20006946234800F064FD4FF4B8500090022118
:104F30000620019102910391049069464FF0904040
:104F400000F056FD06B010BD10B586B001A90022D4
:104F5000002300241CC10CC10068214A90421ED1CC
:104F60001248C16841F40031C1600222C16801F4F5
:104F7000003100910099016841F00201016018219F
:104F8000006800F002000090009801910720059051
:104F900002920393049301A9054800F029FD06B08D
:104FA00010BD000058100240381200204C10024082
:104FB00000040048000100500002014004020140CA
:104FC0000C020140000800500003014004030140AE
:104FD00008030140002C0140601002400008004816
:104FE000004400402DE9F041040082B000F08F81C0
:104FF0002078DFF8B866C1071BD5B068F16800F00B
:105000000C000C280CD101F0030103290AD06068C0
:10501000B0F5803F31D1306840F4803030603EE000
:105020000828F4D13168880303D56068002800F0AF
:105030006E812178880768D5B068F16800F00C00AF
:105040000C284CD101F0030102294AD0E068002865
:1050500078D0316841F48071316000F05BFC054626
:105060003068410500F1578100F054FC401B0328D3
:10507000F6D3032002B0BDE8F081B0F5A02F306870
:1050800006D140F480203060316841F4803105E081
:1050900020F480303060316821F480213160606814
:1050A00070B100F037FC054631688803C1D400F0C8
:1050B00031FC401B6528F7D3032002B0BDE8F08126
:1050C00000F028FC054630688103B2D500F022FCD0
:1050D000401B6528F7D3032002B0BDE8F081042807
:1050E000B4D13068410503D5E068002800F00F8195
:1050F0007168206921F0FE4141EA0061716004207D
:1051000000F060FD002840F002812078010740F1A6
:105110000A81606948B3D6F8941041F00101C6F8DD
:10512000941000F0F7FB0546D6F89400810700F1D3
:10513000FA8000F0EFFB401B0328F5D3032002B0F8
:10514000BDE8F081306820F48070306000F0E2FB50
:10515000054631684805D8D500F0DCFB401B032824
:10516000F7D3032002B0BDE8F081D6F894004008E0
:105170004000C6F8940000F0CDFB0546D6F8940038
:10518000810740F1D08000F0C5FB401B0328F5D318
:10519000032002B0BDE8F0810528D6F8900008D1C0
:1051A00040F00400C6F89000D6F8900040F00100EE
:1051B00007E040084000C6F89000D6F8900020F0C4
:1051C0000400C6F89000A06890B100F0A3FB074669
:1051D00041F28938D6F89000810700F1D78000F0BD
:1051E00099FBC01B4045F5D3032002B0BDE8F08118
:1051F00000F090FB4FEA000741F28938D6F89000A2
:10520000810740F1C38000F085FBC01B4045F5D30A
:10521000032002B0BDE8F08100F07CFB401B0328B6
:10522000C0F0CA80032002B0BDE8F081D6F8980033
:1052300040084000C6F8980000F06CFB4FEA0005FB
:10524000D6F89800810740F1BC8000F063FB401B5A
:105250000328F5D3032002B0BDE8F08100F05AFB2B
:10526000401B0328C0F0BF80032002B0BDE8F081DE
:1052700000F050FB001B0328C0F0DF80032002B0C9
:10528000BDE8F081F168DFF8300489088900F16039
:10529000F1680140F16000F03DFB04463068810197
:1052A00040F1CF8000F036FB001B0328F6D303202B
:1052B00002B0BDE8F081012829D0F068226A00F030
:1052C0000301914201BF00F0F001626A521EB1EB8E
:1052D000021F1CD1A26A00F4FE41B1EB022F02BFF3
:1052E00000F07841E26AB1EBC26F10D1226B520834
:1052F00000F4C001521EB1EB425F08D1616B490856
:1053000000F0C060491EB0EB416F00F09A800120B0
:1053100002B0BDE8F0817068216920F0FE4040EAEB
:1053200001607060F1E62078410734D5B06D00254A
:10533000C10009D4B06D40F08050B0650125B06D5A
:1053400000F0805000900098DFF870733968C8054D
:1053500013D4386840F48070386000F0DBFA80467F
:105360003968C80509D400F0D5FAA0EB0800032875
:10537000F6D3032002B0BDE8F081A06801287FF4D5
:105380000BAFD6F8900040F001001AE71DB1B06DE8
:1053900020F08050B0652178880612D5A0690028D9
:1053A0003FF444AFD6F8981041F00101C6F89810C8
:1053B00000F0B0FA4FEA0005D6F8980081077FF5B3
:1053C0002BAFE069E8B3B16801F00C010C293FF4A0
:1053D00072AF0228306820F0807030607FF452AFE6
:1053E00000F098FA0546316888013FF537AFF1685B
:1053F000DFF8CC02226B0140206A0143606A401E44
:1054000041EA0011A06A520841EA0021606B521E75
:10541000400841EA4251401E41EA4061E06A41EAE7
:10542000C061F160316841F080713160F06840F036
:105430008070F06000F06EFA0446306881017FF5FC
:1054400017AF002002B0BDE8F0812DE9F047044617
:105450000025002C884677D0DFF86872386800F0A5
:105460000F00404509D23968090948EA011139603D
:10547000386800F00F00404566D12168DFF82C62E3
:10548000C80740F18680606803282FD13068820108
:105490005AD5F268F068C0F30310401C02F0030212
:1054A000032A0CBFDFF82022DFF80822B2FBF0F25B
:1054B000F068C0F306204243F068C0F34160401C2E
:1054C0004000B2FBF0F0DFF8042290421FD3B26834
:1054D00012F0F00F03D0880719D5A068B8B9B168E9
:1054E00021F0F00141F08001B1600FE00228306846
:1054F00028D1810328D500F089F87449884206D361
:10550000B06820F0F00040F08000B060802541F2EB
:105510008939B1686068890840EA8101B16000F0AA
:10552000F9F98246B068616800F00C00B0EB810FB9
:105530002FD000F0EFF9A0EB0A004845F2D303208A
:10554000BDE8F0874105D6D40120BDE8F087802D65
:1055500003D1B06820F0F000B060396801F00F01AD
:1055600088452FD23868000948EA0010386041F2B7
:10557000893900F0CFF90546386800F00F00404542
:1055800020D000F0C7F9401B4845F5D30320BDE803
:10559000F08720688107DAD5400703D5B06840F46A
:1055A000E060B0602178080705D5B06820F460504D
:1055B00040F4E060B060B168A06821F0F001014300
:1055C000B160CAE72078410705D5B168E06821F4E9
:1055D000E0610143B1602078010706D5B068216918
:1055E00020F4605040EAC100B06000F00FF8B268EB
:1055F0003749C2F30312895C2D4A01F01F01C840EC
:1056000010600420BDE8F04700F0DCBA31490868BA
:1056100000F00C00042801D126487047086800F00B
:105620000C00082801D128487047086800F00C00D9
:105630000C2818D14A684868C0F30310401C02F0D7
:105640000302032A0CBF204A1A4AB2FBF0F2486850
:10565000C0F3062042434868C0F34160401C40004C
:10566000B2FBF0F0704700207047114800687047A7
:105670000F48184A006813681749C3F30222895C6F
:1056800001F01F01C84070470948124A00681368BA
:105690001149C3F3C222895C01F01F01C840704761
:1056A0000248016841F40021016070470010024087
:1056B000180D00200024F400FFFFEEFE00700040F3
:1056C0000C809F010020024000127A0001B4C40443
:1056D000F4BE0008081002405CC00008B3BBD9B19A
:1056E000B2F5803F7DD2022A1ED98C46B1FBF2F181
:1056F00002FB11C31B0443EA1043B3FBF2FC02FBA1
:105700001C3380B240EA0343B3FBF2F002FB1032D9
:1057100040EA0C4000237047022A05D98446B0FBBA
:10572000F2F002FB10C270474AB105D100F001024D
:1057300049085FEA3000704700220023704700F0FC
:1057400065BA0B000200002100207047904271EB07
:10575000030CF6D3B3F5803F2FD2F0B5B3FA83F73D
:10576000B1FA81F4A7F10F0E3D1B5340CEF1200694
:1057700002FA0EF2F3415340B5F10F0746D80F3C41
:105780002C444140C4F12006A040F1414140B1FB0E
:10579000F3F603FB1611A2FB0645001BA94102D23A
:1057A000761E8018594180EA010221FA0EF362FA4E
:1057B0000EF200215A403046F0BD30B4B1FBF3FC8C
:1057C00003FB1C11A2FB0C45001BA94103D2ACF149
:1057D000010C8018594130BC02460B46604600213E
:1057E0007047B2F1807F65D3F0B5B2FA82F7B1FAB3
:1057F00081F4C7F10F063D1B22FA06F307F1110EE3
:10580000F24120355A40B5F10F07B8D94140C4F1F3
:105810002006A040F1414140B1FBF3FC03FB1C1109
:10582000A2FB0C45001BA94103D2BCF1010C80185E
:1058300059410F2F12D30F3FC90341EA5041B1FB29
:10584000F3F603FB1611A2FB0645D4EBC030A941C9
:1058500002D2761E8018594146EACC3C07B341403B
:10586000C7F12006B840F1414140B1FBF3F603FB1C
:105870001611A2FB0645001BA94102D2761E801814
:10588000594180EA010221FA0EF3C7F1200462FABD
:105890000EF20CFA07F05A402CFA04F13043F0BD36
:1058A00080EA010221FA0EF3002162FA0EF260464C
:1058B0005A40F0BD8C46B1FBF2F102FB11C31B0252
:1058C00043EA1063B3FBF2FC02FB1C331B024CEAFD
:1058D000002043EA1063B3FBF2FC02FB1C331B0203
:1058E0004CEA002043EA1063B3FBF2FC02FB1C33DA
:1058F0001B024CEA002043EA1063B3FBF2FC02FBFC
:105900001C324CEA0020002370470068012180F817
:105910001F11704701480068704700BF0C0D002040
:105920002B4A13684FF6FF0100020B4000F4E060C1
:105930001843284908431060704730B4244B81B0A5
:105940001C68C4F30223C3F10704052C28BF0424F8
:105950001D1D072D34BF0023DB1E012505FA04F4AD
:10596000641E2140994005FA03F35B1E1A4011435F
:105970000901020004D41848815401B030BC7047BA
:10598000164802F00F02104400F8041C01B030BCAD
:105990007047010007D4012200F01F01104B8A401C
:1059A000400943F820207047401EB0F1807F01D3AA
:1059B000012070470B494860F02081F8130D00204A
:1059C0008860072008600020704700F00DB80000D4
:1059D0000CED00E00000FA0500E400E018ED00E046
:1059E00000E100E010E000E070470000010002006C
:1059F0002DE9F04F81B00F464FF0000E3C68694929
:105A0000694A6A4BDFF8A881002C4FF00F0900F0BB
:105A1000C6808246012000FA0EFC38681CEA0000AD
:105A200000F0B6807C68022C18BF122C12D14FEA0D
:105A3000DE040AEB84044FEA8E05266A05F01C0595
:105A400009FA05FB26EA0B06D7F810B00BFA05F5A4
:105A5000354325624FEA4E040325DAF8006097F8D3
:105A600004B0A540ED430BF0030B2E400BFA04FBF2
:105A70004BEA0606CAF800607E68012E18BF022EA7
:105A800004D0112E18BF122E40F01880DAF80860EA
:105A9000D7F80CB02E400BFA04FB4BEA0606CAF806
:105AA0000860DAF8046026EA0C0C7E68C6F300167B
:105AB00006FA0EF646EA0C06CAF80460DAF80C603C
:105AC0003540BE6806FA04F42C43CAF80C407C68E2
:105AD000E4005DD5D8F8004044F00104C8F8004067
