:020000040800F2
:100000001011002059B80008C5B80008F9AC000864
:10001000C9B80008CDB80008D1B800080000000039
:10002000000000000000000000000000D5B800083B
:10003000D9B8000800000000DDB8000859AD00087C
:10004000E1B80008E5B80008E9B80008EDB8000814
:10005000F1B80008F5B80008F9B80008FDB80008C4
:1000600001B9000805B9000809B900080DB9000870
:1000700011B9000815B9000819B900081DB9000820
:1000800021B90008000000003DAC000825B90008B7
:1000900029B900082DB9000831B9000835B90008A0
:1000A00065AC000857AC000839B900083DB9000834
:1000B00041B9000845B9000849B900084DB9000820
:1000C00051B9000855B9000859B900085DB90008D0
:1000D00061B9000865B9000899AC000869B9000861
:1000E0007DAD00086DB9000871B9000875B9000848
:1000F00079B900087DB9000881B900080000000046
:100100000000000085B900080000000089B900085F
:100110008DB900080000000091B9000895B90008E9
:1001200099B900089DB90008A1B90008A5B900084F
:10013000A9B900080000000000000000ADB90008E7
:10014000B1B90008B5B900080000000000000000C7
:10015000000000000000000000000000000000009F
:10016000000000000000000000000000B9B9000815
:10017000BDB9000800000000000000000000000001
:1001800000000000C1B900080000000000000000ED
:10019000000000000000000000000000000000005F
:1001A0000000000000000000C5B90008C9B900083F
:1001B000CDB90008D1B90008D5B900080000000089
:1001C00000000000D9B90008000000000000000095
:1001D000DDB90008E1B9000810B50446DE486063E7
:1001E00001F088FD002084F8300084F83A002046B1
:1001F00000F099F8002084F82001F7EE000AD4F806
:100200003C0190ED000A2069B8EE400A84ED100A26
:1002100080EE800A84ED0F0A01F08FFD00EE100AD7
:10022000D4F83C01B8EE400A84ED110AF6EE000A5B
:1002300090ED130A90ED091A60EE200AC0EE810AD3
:10024000FDEEE00A10EE901AA4F84810F0EE000A55
:1002500090ED060A90ED071A60EE200A60EE810A22
:1002600090ED130A80EE200A84ED130AF5EE000AE1
:10027000C16A216590ED0B0A60EE200AC4ED160AF2
:10028000C06A60650020E06520666066A06684F84C
:100290008C00C4F89000C4F8940084F89800C4F866
:1002A0009C00C4F8A000C4F8A400C4F8A800C4F8D6
:1002B000AC00C4F8B00084F83801204601F0D6F94B
:1002C0000020C4F8C800C4F8CC00C4F8D00084F8FA
:1002D000D400DFED9D0AD4F83C01DFF8EC2C816BF3
:1002E000C4F8D810416CC4F8DC1081FB02329210C3
:1002F00002EBD27200EE101AC4F8E420B8EEC00A85
:1003000020EE200A4FF4FA72BDEEC00A0021C4F8B4
:10031000E42084ED380AA4F82811C06BC4F82C013D
:1003200084F8301110BD002180F83B1080F8E810EF
:10033000A0F8141180F81611A0F81811C0F81C11BB
:10034000C0F83411704710B50446002194F83B0002
:10035000042808D1082184F83010002084F8E8002F
:100360000121084610BD94F83000C0B9206801F0A2
:10037000E6FC0020012184F83A0084F83010204681
:10038000FFF7D1FF002084F820010121606D206576
:10039000002084F88C0084F898000120208708460B
:1003A00010BD10B50446206801F0CEFC94F8300072
:1003B000062818BF072804D00A281CBF002084F88C
:1003C000300010BD30B5044681B094F83000401EB6
:1003D000072800F2B680DFE800F00404040422B429
:1003E000B43F206801F0B5FC90B1072184F83010CB
:1003F000E06801F0EDFC206801F061FD94ED490A30
:10040000DFED520A20EE200A204601F0D7FB93E0F0
:10041000204600F0EBFF84ED490A01B030BD2068B2
:1004200001F097FC002800F08C80072084F8300051
:100430000721E06801F0CCFC206801F040FD94ED5C
:10044000490ADFED420A20EE200A204601F0B6FB01
:10045000206DC4F824016FE094F83B00042870D0AC
:10046000206801F076FC00286BD094ED490ADFED9E
:10047000370A20EE200A204601F0A0FBD4F83C0108
:1004800094ED140A84ED490A9FED311AD0ED060A65
:10049000D0ED071A20EE811A21EE211AD0ED130AB1
:1004A000C1EE200A20EE800ABDEEC00A10EE100A4E
:1004B000451E206A2AB2002101F003FD206A2AB2FB
:1004C000012101F0FEFC206A2AB2022101F0F9FCB0
:1004D000206A2AB2032101F0F4FC206A2AB2042126
:1004E00001F0EFFC94F8E80001281BD1206901F02D
:1004F000EEFCC0EB00118800DFF8CC2A80FB023252
:10050000921002EBD27200EE102AB8EEC00ADFEDB4
:10051000110A60EE200AFDEEE00AC4ED380A20461A
:1005200001F0D0FA062084F830000721E06801F0DD
:100530004FFC206801F0C3FCDFF8F40D0188491C72
:10054000018001B030BD0000CDCCCC3E6666663F78
:1005500000008047CDCC4C3FEC0600202DE9F04F49
:1005600004460FF68C2081B000272DED048B066821
:1005700086B094F83000D4F83490092800F215853C
:10058000DFE810F0F4040A0054000A007D005E0168
:10059000F9041305EA02E60494ED140A204601F07A
:1005A00003F8012823D194F8300001280DD102214D
:1005B00084F83010484601F09DFBD4F83C01428E8F
:1005C0004EF66021484601F085FC94F8300003287F
:1005D0004FD1042184F83010484601F08BFBD4F849
:1005E0003C01828E218F484601F074FC41E0208F4F
:1005F0004EF6602188423CD12787204600F0F6FE67
:100600006FF0130084F8D400F6EE000A94F8980016
:10061000401C84F8980020EE200AC0B2032884ED24
:10062000140A26D3092084F8300022E094ED140A3D
:10063000204600F0B9FF484601F064FB484601F04F
:100640008DFCB0B1032084F83000F5EE000A94ED83
:10065000140A20EE200A6FF01300C4F8A870C4F842
:10066000AC70C4F8B07084ED140A84ED160A84F8F6
:10067000D400218F206801F077FC00F09ABC94ED43
:10068000140A204600F090FF278F484601F03AFBFD
:10069000204600F0ABFED4F8B000D4ED2A0A401C8E
:1006A000C4F8B00030EE800A606884ED2A0A01F0D8
:1006B00065FC00EE900A60684188384601EE101A29
:1006C000F8EE600AB8EE411A9FEDC20A60EE810AA8
:1006D00001EE100AB8EE411A60EE800A21EE000A1F
:1006E00094ED2B1AC4ED170A00EE201A84ED2B1A94
:1006F000484601F033FC002800F0298294ED2C0AD2
:1007000094F88C00D4ED2A0A94ED2B1AB8EE400A26
:1007100080EE800A04EB800184ED240AD4ED2C0ADB
:1007200081ED1B0AF8EE600A94F88C0004EB80015E
:10073000C1EE200AC1ED1F0A94F88C00401C84F819
:100740008C00C0B2042816D26FF0130084F8D400D5
:100750000020C4F8A800C4F8AC00C4F8B00094EDC0
:10076000140AD4ED160A30EE200A032084ED140A90
:1007700084F83000EBE1052084F830009FED968A84
:10078000002084F83A00484601F0B4FA64224EF69C
:100790006021484601F09EFB2146032091ED200A8E
:1007A000D1ED1F0A91ED1B1A30EE600AD1ED1C0A43
:1007B00070EEC10A091D80EE200A401E30EE088A44
:1007C000ECD1B0EE080AD4F83C1188EE000A84EDB2
:1007D000180A91F8400020BBD1ED0A0A30EE600AF9
:1007E000DFED7E0AB4EE600AF1EE10FA84ED180A2D
:1007F00003D5DFF8900D206605E0F6EE000A20EE46
:10080000200A84ED180ADFED760A94ED240A60EEE2
:10081000200A0020C4ED250AC4F8A400C4F8A000F2
:1008200095E10A2084F830000721E06801F0D0FA51
:10083000206801F044FB206801F086FA002786E179
:10084000204600F0D3FD94F83A0010B1022808D0F9
:1008500018E0DFED640AB4EE600AF1EE10FA11D58B
:100860000DE0D4ED250A278FB4EE600AF1EE10FA00
:1008700005D5D4F89C00401CC4F89C0002E0484612
:1008800001F07EFB484601F03DFA484601F066FB68
:10089000002800F05C8194F83A0018B1022810D0CA
:1008A00008D354E1012084F83A00484601F022FAC6
:1008B0000A2247E1022084F83A000020C4F89C0094
:1008C0003CE1002084F83A0094ED270AD4ED0F0AA9
:1008D000D4F8A00094ED291AB8EE400A20EE200AC0
:1008E000D4ED180A00EE201A401C142884ED291AB1
:1008F000C4F8A00040F02281062084F830000721CF
:10090000E06801F065FA206801F0D9FA206801F08A
:100910001BFA94ED280AD4ED290A6068B8EE400A63
:1009200080EE800A84ED190A01F028FB00EE100A1F
:10093000606894ED182A4188D4F83C01D4ED4B1A34
:1009400000EE901AB8EE400AF8EE600A20EE200A97
:100950009FED201A20EE010A84ED170A0022D0ED47
:10096000060A20EE200AD0ED070A20EE200AD0ED7C
:10097000130A80EE201A94ED190AD4ED360A20EEFF
:10098000210A62EE211A94ED0F2A80EE010A61EE2F
:10099000821A002760EE200A81EE811A4FF0100CB7
:1009A0001020102190460F2547F6FF734FF0010BE2
:1009B0000BFA05F601EE906AF8EEE11A61EE801A84
:1009C000FDEEE11A11EE906A9E4210DA4FFA85FCB4
:1009D0000DE000BF0000803700000000CDCC4C3E91
:1009E0009ED2213F0AD7233CBEF1100FE0D01FFA60
:1009F00080FEBEF1100F0FD10BFA05F201EE902A26
:100A0000F8EEE11A61EEA01AFDEEE11A11EE902A5D
:100A10009A42B8BF68B200BF1FFA81FEBEF1100F44
:100A20000ED10BFA05FE01EE90EAF8EEE11A61EE46
:100A3000811AFDEEE11A11EE908A9845B8BF69B2AD
:100A40006D1E1FFA8CFECFD5BEF1100F83460D46EA
:100A5000924609D0A0691FFA8CF101F095FAA069BD
:100A600031B201F097FA02E0092084F830001FFA51
:100A70008BF010280AD0E0691FFA8BF101F084FA9C
:100A8000E0690FFA8AF101F085FA02E0092084F8A2
:100A90003000A8B2102812D0A069A9B201F07CFAE7
:100AA000E069A9B201F078FAA0690FFA88F101F0C3
:100AB00086FAE0690FFA88F101F081FA02E0092074
:100AC00084F83000DFEDA00AD4F83C0190ED060A6E
:100AD00090ED071A60EE200A60EE810A90ED130A8D
:100AE00080EE800AD4ED140A20EE200ABDEEC00A82
:100AF00010EE100A461E206A32B2002101F0E1F920
:100B0000206A32B2012101F0DCF9206A32B20221FE
:100B100001F0D7F9206A32B2032101F0D2F9206A3C
:100B200032B2042101F0CDF9D4F83C01428E206AA2
:100B3000002101F046FA204600F0C4FF484601F0CB
:100B4000D9F864224EF66021484601F0C3F92068C6
:100B5000394601F009FA2CE2E06801F038FA001F8A
:100B60000F2800F22282DFE810F0100010001000C1
:100B7000E6012002200220022002200220022002A0
:100B800020022002200220021000A06A01F021FAB7
:100B900001F021FA0646A068006801F01FFA074636
:100BA000314601F03FFA0190A068B0F91010BDF98C
:100BB0000400091AA06901F069FAADF80800A068FC
:100BC000B0F91210BDF90600091AE06901F05EFAE9
:100BD000ADF80A000299606901F098FA8246314640
:100BE00001F0BFFA05462068294601F0D9FA80468F
:100BF000A06847600497A1680198C860A068C0F821
:100C000016A0A168D1F81A000390A168C1F81A5083
:100C1000A0680684606801F0B1F9ADF8140003A97A
:100C2000606A01F08FFBADF80000606A01F07AFCA9
:100C30002069694601F0A1FC94F83B00052800F208
:100C4000B981DFE810F006008300B7014901B70160
:100C50006101204600F016FD022884F8200122D10F
:100C6000206901F034F9C0EB00118800D64A80FBFE
:100C70000232921002EBD272C4F8E020206901F037
:100C800026F90146204600F077FF012084F83B005A
:100C9000204600F0EBFC06B01FFA88F0BDEC048B98
:100CA00001B0BDE8F08F012800F08481032821D134
:100CB00094ED390ABBEEEF0AFCEEC00AC4ED390A26
:100CC000204600F0FFFE062084F830000721E0688F
:100CD00001F07EF8206801F0F2F8DFF85406418850
:100CE000491C418006B01FFA88F0BDEC048B01B0AE
:100CF000BDE8F08F042840F05D8194ED470AB8EE1E
:100D0000400ADFEDB00A60EE200AFDEEE00AC4ED15
:100D1000380A204600F0D6FE062084F8300007216D
:100D2000E06801F055F8206801F0C9F8DFF8000626
:100D30008188491C818006B01FFA88F0BDEC048BC5
:100D400001B0BDE8F08F00BF00008047D4F83C013F
:100D5000A168D0ED060AB1F90C20D0ED071A9FED7D
:100D60009B1A20EE811A21EE211AD0ED130A00EE13
:100D7000102AC0EE810AB8EEC00A94ED2D1A606800
:100D800000EE201A84ED2D1A01F0F8F800EE100A9A
:100D900060684188A06800EE901AB8EE400AF8EE4C
:100DA000600A20EE200A9FED8A1A20EE010A84EDE7
:100DB000170ADFED880AB0F91610A06801EE101AC4
:100DC000B8EEC11A21EE000A94ED2E1A00EE201A98
:100DD00084ED2E1AB0F9181094ED171AD4F8C40047
:100DE00000EE101AB8EEC00A20EE010A94ED2F1A98
:100DF00042F2107100EE201A401C884284ED2F1A36
:100E0000C4F8C400C0F0D68000EE100AB8EE400A64
:100E1000D4ED2D0A80EE808AD4ED2E0AC0EE808AB1
:100E2000D4ED2F0A80EE809A204600F01FFC206946
:100E300001F04DF800EE100AB8EEC00AF2EE040A16
:100E400080EE200ADFED640A60EE209AD4ED180AE5
:100E5000D4ED191A40EEC88AD4ED110A20EE200A0A
:100E60009FED5E1A20EE011A21EE211A01EE089A7A
:100E700028EEA80A09EE090AB5EE400AF1EE10FACA
:100E800002DBB1EEC08A01E09FED558A9FED550A65
:100E900028EE000ADFED540A60EE200A80EEA90A6F
:100EA000E06A84ED1A0A02F052F8D4ED170A9FEDB9
:100EB0004F1A89EE880A80EE811A20EE010A84ED2D
:100EC000320A022084F83B0006B01FFA88F0BDEC1D
:100ED000048B01B0BDE8F08F484600F013FF484690
:100EE00001F03CF8002865D0606A00F0F0FF00EEE9
:100EF000100ABAEE670ABDEEC00A10EE101A09B267
:100F0000204600F039FE0BE0206A02F026F810B10E
:100F1000032084F83B00E06801F059F8062849D125
:100F2000042084F83B0006B01FFA88F0BDEC048B67
:100F300001B0BDE8F08F206800F0C1FF84F8307088
:100F400006B01FFA88F0BDEC048B01B0BDE8F08F4D
:100F5000E068072100F03CFF84F8307006B01FFA0B
:100F600088F0BDEC048B01B0BDE8F08FE06801F0C3
:100F70002EF8142819D1204600F062FA21680320C7
:100F800081F83A00D4ED2A0AD4F8B00040EE000A05
:100F9000C4ED2A0A401CC4F8B00006B01FFA88F05D
:100FA000BDEC048B01B0BDE8F08F2068314601F044
:100FB000F7F8804606B01FFA88F0BDEC048B01B04C
:100FC000BDE8F08FCDCC4C3F676666660000804779
:100FD0000000803746CD933700007042DB0FC940D8
:100FE0000000000071C49C3F00007A44D7B3DD3F8D
:100FF0000000000070B52DED048B044686B0656BD3
:10100000E06800F0E4FF94F83010062909D0C0F041
:101010000B81082963D0C0F0F68006B0BDEC048BCC
:1010200070BD0B2800F20081DFE810F00C00FE001C
:10103000FE00FE004900FE00FE00FE00FE00FE0075
:10104000FE00FB0094ED100AD4ED190A94ED181A75
:10105000E06820EE802A81EE022AF7EE002AF5EE03
:10106000001A32EEC22A22EE212AF5EE002A72EE92
:10107000222AB8EE003A32EE833A81EE201A03EECD
:10108000001A84ED331AB7EE001A31EE421AFDEE63
:10109000002A31EE221A02EE211A21EE001A21EE68
:1010A000000A20EE200A84ED340A032100F090FEAD
:1010B000206800F004FF06B0BDEC048B70BD082072
:1010C00084F830002046FFF72EF9012084F8200133
:1010D000204600F0CBFA06B0BDEC048B70BD94F84E
:1010E0003B00022840F0A080D4ED321A94ED1A2A79
:1010F00061EE821ADFEDD02A61EEA22A9FEDCF3A8F
:10110000B4F94830D4ED138AD4ED191A94ED109A3D
:1011100082EE838A21EEA82A02EE903A22EE092A74
:10112000F8EEE22AC2EE822A88EE023A94ED182AFC
:1011300061EE891AC2EE211A94ED332A9FEDCD0A91
:10114000DFEDCC0A9FEDCB1A002100200E2282EEAB
:10115000092ADFEDC93A9FEDC94A012303FA02F6D5
:1011600004EE906AF8EEE44A21EEA45AB4EE445A32
:10117000F1EE10FABEBF22EE241AB4EE441AF1EEDC
:1011800010FA12DAB4EE631AF1EE10FA0DD423EE6F
:10119000240AB4EE440AF1EE10FABEBF62EEA40ACD
:1011A000F4EE440AF1EE10FA23DB521E56B2012E81
:1011B000D4DAD4ED341A61EEA81AC1EE881A0E22E0
:1011C000C1EE891A03FA02F602EE106AB8EEC22ADC
:1011D00061EE822AF4EE442AF1EE10FA04DAF4EE1B
:1011E000632AF1EE10FA23D5521E56B2012EE9DA27
:1011F00027E052B201EE902AF8EEE11AFDEEE11A74
:1012000011EE901AD5E750B9E068032100F0E0FD37
:10121000002084F8300006B0BDEC048B70BD0B28B4
:1012200002D1E06801F09FFE06B0BDEC048B70BDFA
:1012300052B201EE902AF8EEE11AFDEEE11A11EE3B
:10124000900AFDEEC51A11EE902AADF80020BDEE11
:10125000C11A11EE102AADF80220BDEEC00A10EE40
:10126000102AADF80420BDEEE20A10EE102AADF807
:101270000620BDEEE00A10EE102AADF80820BDEE03
:10128000E40A10EE102AADF80A20BDEEC20A10EEF4
:10129000102AADF81000ADF80C20ADF80E1069461C
:1012A000606A00F047F894ED321A94ED100AD4ED1C
:1012B000110A606ADFEDB41A61EE211A61EEA01A1C
:1012C00020EE002AC1EE821AB5EE002A61EE821AE3
:1012D000FDEEE11A11EE902ADFEDAC1A21EE211A93
:1012E00061EE200A80EE800ABDEEC00A10EE101AF0
:1012F00012B209B201F042FE206900F06CFE06460F
:10130000206901F04BFE0146606A324601F049FE59
:10131000284600F0EFFCFA224EF66021284600F045
:10132000D9FD032084F83B0006B0BDEC048B70BDF2
:10133000000D0020024608885083012348889083CE
:101340008888D083C8881084088950844889D084CC
:1013500088891085C889A2F81801088AA2F81A019C
:1013600000209085B1F90CC0DFF8400990FBFCF03B
:1013700000B258B3B2F82CC000EBD070C0030CF12F
:10138000010C00145B00A2F82CC0F8B100EBD07087
:10139000C0030CF1010C00145B00A2F82CC0A8B132
:1013A00000EBD070C00300145B000CF1010C0028AE
:1013B000A2F82CC00AD000EBD070C00300145B0070
:1013C0000CF1010C0028A2F82CC0D3D15385B1F93F
:1013D0000C00B2F92A10DFF8D83810FB01F080FBBE
:1013E00003C31B1203EBD37393847047D0F83C11F3
:1013F000806891ED060A91ED071ADFED9B0A60EE19
:10140000200A60EE810A91ED130AB0F90010B0F9DC
:10141000020080EE200A00EE901AF8EEE00A01EEDB
:10142000100A60EEC00AB8EEC11A41EE400AB6EEEC
:10143000000A20EE800A70478104B53F0080D8443E
:10144000D0F83C118068D1ED060AB0F90020D1ED4A
:10145000071A9FED851A20EE811A00EE102A21EE60
:10146000211AD1ED130AB8EEC00AC0EE810A20EEAF
:10147000600A70470000000000FEFFC601FEFF4644
:101480000520704730B5044681B0E06A01F07DFC6C
:101490000025012808BF84F83051E06800F097FD6E
:1014A0000A2806D184F8305184F83050284601B01B
:1014B00030BD94F830000A281BD8DFE800F0060998
:1014C0000D11111115151506190094F8300180B190
:1014D0000125284601B030BD0225284601B030BDA7
:1014E0000325284601B030BD0425284601B030BD93
:1014F0000E25284601B030BD90ED180A01F061BDFF
:1015000090ED190A01F05DBD90ED1A0A01F059BD88
:1015100090ED170A01F055BD90F83B1004291CBF4F
:1015200090F830200A2A22D1002180F83B1080F860
:10153000E810A0F8141180F81611A0F81811C0F8DE
:101540001C11C0F8341180F82011DFF86827D0F89A
:10155000DC1081FB0232921002EBD272C0F8E42060
:1015600000214FF4FA72C0F8E42080F83010012115
:1015700080F830110021DFF824040180418081804F
:1015800070470000CDCCCC3DB0EDB749000005441C
:1015900010B50446206800F092FC002184F8301059
:1015A00084F8301110BD0000D0F83C210021D2EDAC
:1015B000060AD2ED071A9FED2C1A20EE811A21EEB1
:1015C000211AD2ED130A8268535EB2F90220C0EEEE
:1015D000810A01EE103AB8EEC11A01EE902A21EE0E
:1015E000601AF8EEE11A01EEE01AF6EE000A61EE7A
:1015F000200AF4EE400A028FF1EE10FA1DDB0AB168
:10160000521E028730EEC00ADFEDCC0AB4EE600A4B
:10161000F1EE10FA20D490F9D420521E53B213F1F7
:10162000130FB8BF6FF0130280F8D42090F9D400E4
:10163000002858BF0121084670474EF6602C30EE56
:10164000600A6245DFEDBD0ABCBF521C0287B4EEE2
:10165000600AF1EE10FADED590F8D420521C53B295
:10166000142BE1DB1422DFE7000080470021C0F8E3
:10167000B410C0F8B810C0F8BC10C0F8C010C0F862
:10168000C410704770B504462DED068BD4F83C01AC
:10169000A168D0ED060AB1F90C20D0ED071A9FED34
:1016A000BC1A20EE811A21EE211AD0ED130A00EEA9
:1016B000102AC0EE810AB8EEC00A94ED2D1A6068B7
:1016C00000EE201A84ED2D1A00F058FC616800EE3F
:1016D000100A488800EE900AB8EE400AF8EE600A58
:1016E00020EE200A9FEDAB1AA06820EE010A84EDDF
:1016F000170ADFEDA90AB0F91610A06801EE101A5A
:10170000B8EEC11A21EE000A94ED2E1A00EE201A4E
:1017100084ED2E1A0125B0F9181094ED171A2069DE
:1017200000EE101AB8EEC00A20EE010A94ED2F1A4E
:1017300000EE201A84ED2F1A00F0C9FB46F2676113
:1017400010FB01F1881400EBD07000B200EE100A1B
:10175000D4F8C400D4ED110A94ED301AB8EEC00AE2
:1017600042F2107100EE201A401C884284ED301ABB
:10177000C4F8C400C0F0DE8000EE100AB8EE400AE3
:10178000D4ED2D0AC0EE808AD4ED2E0AC0EE809AE8
:10179000D4ED2F0A80EE80AAD4ED300A80EE809A34
:1017A0002046FFF763FFB5EE409AF1EE10FA00F025
:1017B000C180206900F08BFBC0EB00118800DFF8CE
:1017C000F42480FB0232921002EBD27200EE102A57
:1017D000B8EEC00ABDEEC00A10EE106A9FEDB80A5E
:1017E00029EE008A94ED180A40EE689A94ED190AE1
:1017F00028EE000A00EE28AA29EEA90A0AEE0A0A33
:10180000B5EE400AF1EE10FA02DBF1EEC08A01E01B
:10181000DFEDD88AB4F8141104F1EC0000EB81007C
:10182000C0ED008A04F58070B4F8141100EB81005B
:1018300080ED008AB4F81401401CA4F8140180B2B1
:10184000052804D30020A4F8140184F8165194F854
:101850001621002A50D0D4F8DC0001F0B7FBDFF8E5
:101860005824DFF8583401F0D5FB01F0A9FCB04250
:1018700042DA052204F1EC0104F5807000F092F8E0
:101880009FEDC92AF0EE681AB0EE481A204600F023
:1018900057F8002894F8E8000ED050B9D4F8E010BA
:1018A000DFF81C04711881FB002000EBD070C4F835
:1018B000340184F8E8501FE0012815D19FEDD80AC3
:1018C00029EE000AD4ED110A80EE200A0021BCEEB8
:1018D000C00A84F8E81084ED470AA4F8181104251A
:1018E000BDEC068B284670BDB4F81801401CA4F866
:1018F000180180B204280FDA206A01F07EFC00286B
:1019000094F8E8000AD038B10021A4F81811022593
:10191000BDEC068B284670BD032508E050B1D4F815
:101920003411B14206D2206A01F071FC0225002078
:10193000A4F818012846BDEC068B70BDCDCC4C3EFA
:1019400001EE200AB7EE001A32EE011AF7EE002A75
:1019500021EE001A32EEC22A014622EE000A0020D1
:10196000B4EE610AF1EE10FA44BFF4EE411AF1EE62
:1019700010FA0BD59FEDC60A91ED111A80EE010AFF
:10198000B4EE600AF1EE10FA48BF01207047000083
:10199000000080470000803746CD9337000D0020BF
:1019A0000020704703460FF2443070B490EC021AE6
:1019B00090B202EE100A81B09FED6E0ADFED6D0A63
:1019C000B8EE422ADFED6B2A002458B3C5070AD5CA
:1019D00093ED000A30EE200AD1ED000A9FED653A42
:1019E00070EE830A0124400800F01C8003EB84059C
:1019F00001EB840695ED003A30EE030A641C96ED87
:101A0000003A03EB840570EE830A95ED003A01EB92
:101A1000840630EE030A641C96ED003A401E70EE18
:101A2000830AE3D180EE023A002094B2D4B392B29A
:101A3000D40710D5D3ED002A91ED004A72EEC33AD7
:101A4000F0EE614ADFED4B2A43EE844A43EEA32ACF
:101A5000F0EE641A0120520800F0248003EB8004A9
:101A600001EB8005D4ED003AD5ED004A401C73EE41
:101A7000C33AB0EE614A03EB800401EB800503EE4C
:101A8000A44AD4ED004A401C74EEC34A43EEA32A94
:101A9000D5ED003A04EEA34A521E44EEA42AF0EE1D
:101AA000441ADBD101B070BCC1EEA22A40EE620A3A
:101AB000F0EE621A80EE820AF0EE610A70470000D2
:101AC000DB0FC94030B581B004462DED028BD4F850
:101AD000E40094ED380A00EE900AB8EEC00AF8EE81
:101AE000600AC0EE200A9FED6B1A20EE818ADFEDBE
:101AF0006A0AB4EE608AF1EE10FA09DB00EB80109E
:101B000000EE100A84ED380AB8EEC00A9FED638A31
:101B1000F2EE040A20EE200A9FED411A80EE010A3F
:101B2000BDEEC00A10EE105A29B2204600F024F88B
:101B3000206A2AB2012101F079FB206A2AB202212F
:101B400001F074FB206A2AB2032101F06FFB206AC6
:101B50002AB2042101F06AFBBDEEC80A10EE100A99
:101B600082B2206ABDEC028B012101B0BDE8304099
:101B700000F027BA0000000000EE101AB8EEC00A0C
:101B8000DFED470A20EE200AB5EE400AF1EE10FA2A
:101B900048BFB1EE400ABDEEC00A10EE101A406A0E
:101BA00089B201F049BB0000CDCCCC3D00EE101A4B
:101BB000B8EE400A80ED110A7047000030B5F5EE2E
:101BC000000A044660EE200A81B0C4ED160A84EDD6
:101BD000140A84ED150ADFED330AD4F83C0120EE37
:101BE000200AD0ED060A20EE200AD0ED070A20EEEA
:101BF000200AD0ED130AA06A80EE200ABDEEC00ACA
:101C000010EE105A10B1A9B201F019FBE06A28B128
:101C1000A9B201B0BDE8304001F056B901B030BD05
:101C20000000704290ED150A704780ED360A70474B
:101C300090ED360A7047000011B9D0F83C11496C9C
:101C40001C4AC0F8DC1081FB0232921002EBD27207
:101C500000EE101AC0F8E420B8EEC00ADFED120A58
:101C600020EE200A4FF4FA72BDEEC00AD0F8DC1064
:101C7000C0F8E42080ED380AC06A01F065B9D0F8F8
:101C8000DC007047D0F8E0007047D0F8E4007047FF
:101C900017B7D13A00007A4401FF7F4700E87D473B
:101CA000CDCC8C3F00008047CDCCCC3E5EEA0F000F
:101CB000C58D4806676666669A9999999999B93F5C
:101CC0005655555590ED150A704780ED4B0A7047F3
:101CD00090ED4B0A7047D0F83C01B0F848007047CF
:101CE000D0F83C0190F84A00704700000000000066
:101CF00000000000002181604160C160016101219C
:101D00004161704781B0C3688268012B09D90169BC
:101D10008A185B1EC3608260406992FBF0F001B0DC
:101D2000704704D1426841694A430021C160826022
:101D3000406992FBF0F001B07047407B7047416A08
:101D4000002918BF08477047816A002918BF084753
:101D50007047C1690847F0B40246106895681318C7
:101D6000506803EB5004C00721D54D441FE0F0BC80
:101D700002F10C00704713F8017B05F8017B491E46
:101D8000F9D1A0B1B60813F8011B06F00306032E23
:101D900008BF13F8016B01EB06214942801C29445E
:101DA00005D011F8016B05F8016B401EF9D1A34273
:101DB000DDD013F8016B16F0030104BF13F8011B0B
:101DC000C91C30090F28DAD113F8010B0F30D6E700
:101DD00010B582B002780024142A0ED8DFE802F091
:101DE00019235B2F4A595B5D5F660D0D0B292B2D67
:101DF000393B435241000A005CD003291CBF012932
:101E0000072903D00022802101F01DFA204602B0EC
:101E100010BD0A46032A4DD0012A49D10124017080
:101E2000204602B010BD072918BF0D2942D00E2947
:101E300036E00E2918E00F2916E0022914E00729E0
:101E400018BF102936D0042918BF112932D0012912
:101E500026E0112908E0122918BF07292AD01429E1
:101E60001EE0122900E0042915D10124017020464A
:101E700002B010BD0A46132A07D101240170204682
:101E800002B010BD0A46042A14D0072A12D0052A2F
:101E900006E006290ED0072902E0082900E00929FA
:101EA000ABD101240170204602B010BD0A0001D060
:101EB0000C2AA2D101240170204602B010BD816815
:101EC000084701EB410300EB830002827047B0F941
:101ED000040070472DE9F04705460F46A868696978
:101EE0005FEA020890FBF1F40CD1384601F0C2F928
:101EF0006861474300202861AF600021E96001204C
:101F0000BDE8F0873E1B304601F0B4F9814620461B
:101F100001F0B0F98246384601F0ACF9D14528BF4E
:101F2000D146814588BF8146C5F8149009FB04F469
:101F3000AC606F602868084A08FB00F8A8FB022123
:101F40006869490A491C464396FBF1F02861E9603B
:101F50000120BDE8F08700BF986E12830146002083
:101F6000C96801B90120704700B581B0C36A012278
:101F70000BB198470246104601B000BDC0887047BB
:101F80000021C160016170478183012202FA01F1E1
:101F9000018370478180704730B5044681B00125C8
:101FA000E1838D406583C5EBC53101F076F9A5EB82
:101FB000C531204601B0BDE8304001F070B9C180A4
:101FC000704701EB410300EB83008281704700788A
:101FD000704740697047B0F90000704701B481B0A4
:101FE00044F6E612BDF90400ADF8000001460B48C6
:101FF00011FB00F0BDF9061011FB02F2A0EB42004C
:10200000C01300F30F00ADF8020010F5004F04BF3D
:102010000349ADF80210009802B070471AB6FFFFEE
:102020000180FFFF31B582B008B201F03FF90190A5
:10203000BDF90420BDF90830BDF90600BDF90A104C
:1020400013FB02F400FB1144E41304F30F04ADF896
:10205000004013FB00F0BDF900500A4CA54204BF3C
:10206000094DADF8005011FB0200C01300F30F0042
:10207000ADF80200A04204BF0348ADF8020000988A
:1020800003B030BD0080FFFF0180FFFFF0B4B0F966
:102090000430B0F91450B0F91660B0F906200024ED
:1020A0004B430AB9002115E0514382688F1806D5C9
:1020B000002AC8BF002906DD6FF0004703E0002AB0
:1020C00044BF0029104FC168B94203DB0169B9421E
:1020D000B8BF394681600A46818BC78B0B4142FAF3
:1020E00007F1CB189D4206DAEC1AA4182B4684603F
:1020F00018B2F0BC7047B342BCBFF41A3346A41800
:10210000846018B2F0BC70470100008002B481B056
:102110000091BDF90430BDF9062013FB03F112FB59
:10212000021C01884943614518D290F8B2104FEA69
:102130001C6CACEB010C5FFA8CFC00EB4C00808853
:10214000434342439913901303EB514302EB504234
:10215000DB13D213ADF80030ADF80220009802B0C6
:10216000704711B583B008B201F0A0F80190BDF935
:102170000420BDF90C30BDF90600BDF90E1013FBAB
:1021800002F411FB004411FB02F100FB1310C01319
:10219000E413ADF80200ADF80040009804B010BDA3
:1021A00070B481B002B481B0B0F85030BDF90650BF
:1021B000BDF90420018E5D436D424A436D00511903
:1021C000AA1A01EBD17102EBD27249105210002908
:1021D00048D5002A17D5042480F83A408C1A651493
:1021E00004EB9534A41404EB930314140D1402EBC4
:1021F000D43201EBD53103EB6242A3EB61410C46D3
:102200001D46164675E02C14002D05EBD43414DC65
:10221000032180F83A10AD1A691405EB9135AD141D
:1022200005EB9303151402EBD53203EB6242A2EBEC
:1022300064410C4615461E465BE0022280F83A20B7
:102240004D1B6A1405EB9235AD1405EB93030D1489
:1022500001EBD531A3EB614101EB644214460D461D
:102260001E4646E0002A16D4012480F83A408C1A13
:10227000651404EB9534A41404EB9303141402EBDB
:10228000D4320D1403EB624201EBD531A3EB614173
:1022900014461D462CE02C14002D05EBD43414DC20
:1022A000052280F83A204D1B6A1405EB9235AD14D7
:1022B00005EB93030D1401EBD531A3EB614101EB69
:1022C00064421C460D46164613E0002180F83A1081
:1022D000AD1A691405EB9135AD1405EB9303151494
:1022E00002EBD53203EB6242A2EB64411C46154679
:1022F0000E46C186A0F84060C587848743868286E3
:10230000B0F84E10012919D1B0F94830418EB0F81B
:102310005420002BCCBF5118891A4186B0F94A309D
:10232000818E002BCCBF5118891A8186B0F94C30B0
:10233000C18E002BCCBF52188A1AC286816903B0A5
:1023400070BC08472DE9F04F054685B0B5F9280067
:102350006B6EC0EBC0329A42B8BF6A6604DBA0EB7A
:10236000C0309842A8BF68666E6EB5F81A01AB6EB1
:102370000641B5F928009A4236B2B8BFAA6604DB16
:10238000A0EBC0309842A8BFA866AA6EB5F81A01A3
:10239000EB6D42FA00F00FFA80FBB5F92600C0EBB6
:1023A000C0329A42B8BFEA6504DBA0EBC030984265
:1023B000A8BFE8652B6EB5F926009A42B8BF2A6619
:1023C00004DBA0EBC0309842A8BF2866B5F81831EE
:1023D000EA6D88882F6E049742FA03F4201A00B23F
:1023E00047FA03F3ADF80230BDF80270CB88FB1A50
:1023F000B5F91E7003971BB20F890297B5F91AA0A1
:10240000029FB5F91C90B5F922E0DDF80C801AFBAB
:1024100004F4121BB1F900407C4310FB0922241480
:102420001EFB042206FB1828B5F924200192AA8D70
:102430008DF80020B5F920C06C6E9DF80070B5F9DC
:10244000062010FB0C404BFA07F4019F14FB02F42A
:1024500007FB0404BDF90200049F1AFB00F03F1AB9
:1024600013FB0979029FB1F90200784300141EFBA7
:102470000091A86EDDF80C9013FB0C039DF8000092
:102480000BFB191946FA00F00199A5F86C60A5F844
:102490006EB010FB02F2B5F920019A460028B5F99A
:1024A000000001FB12AA54BF01274FF0FF3700F0D4
:1024B000FDFE00901BFB07F0BDF90010404210FB31
:1024C00001F1BDF902007E43490016FB00F009143A
:1024D0004000A1EB204105F13000FFF7D7FD95F852
:1024E000F01095F80A212881491CC9B2914208BF11
:1024F000002105EB4102B2F87030A5F80831A2F8CE
:10250000700085F8F010298840182880C5F85C8094
:102510006C66C5F86090C5F868A0B5F9000005B014
:10252000BDE8F08F10B490F80A4190F80B1190F8C4
:10253000F020D0F80431611A07D100F1700131F9AF
:1025400012105A18B0F908110DE08918A142ACBF59
:102550000C1B0C4600F1700131F912105A1800F1F1
:10256000700131F91410511AB0F81C21C0F804118F
:1025700041FA02F3C38010BC7047F0B490F82F20EA
:102580000124012A08BFB1F900203DD0437BB0F9F6
:102590000650828D468895FBF3F3AA189E1990F891
:1025A00028308285012B46802ED1B0F92A3043B9DC
:1025B000CA5E80F8294000210173028010B2F0BC8D
:1025C00070475B1E4385002DB1F90060B0F9327091
:1025D00052BFB51A951B4FF0FF342DB215FB03F314
:1025E00093FBF7F313FB04F3002D1BB208D4012275
:1025F00080F82E200988CA1A028010B2F0BC7047F9
:1026000090F82E1001B19A19028010B2F0BC7047F8
:1026100010B50446DFF828092061FFF76BFB0020A6
:10262000A4F85800A4F85A0020626062A062E06238
:102630002065D4F89C00C16BC4F8801081692163C7
:10264000002184F83410A163E163A4F84010A4F8D9
:102650004C10A4F84E1090ED000AD0ED070AB8EE29
:10266000400A20EE200ABDEEC00A10EE101AA4F8AF
:102670005C1090ED090AD0ED070A80EE200ABDEE4D
:10268000C00A10EE101AA4F85E1090ED000AD0ED0A
:102690000C0AB8EE400A20EE200ABDEEC00A10EE89
:1026A000101AA4F8601090ED000AD0ED0D0AB8EEF3
:1026B000400A20EE200ABDEEC00A10EE100AA4F86F
:1026C0007400002084F862006066A06684F86C00E4
:1026D0002067D4F89C0090F82010D4F89C0084F86F
:1026E0007610418CA4F87810016CC4F88410416C09
:1026F000C4F88810806CC4F88C000020C4F89000E6
:10270000C4F8940010BD90F8621079B9002280F8E6
:1027100034208163C163A0F84010A0F84C10A0F8E9
:102720004E10C0F89010C0F8941070470A2180F83D
:1027300034107047002180F8341070472DE9F041C3
:10274000054695F834002C69092800F2EF82DFE88D
:1027500010F00A004800ED02ED02ED02A000CB00EF
:102760004501710111026A68002082F824000021ED
:10277000E86800F0E7FD01200021A5F84A00A96300
:10278000E963A5F84010A5F84810A5F84C10A5F885
:102790004E1085F86C102868FFF799FBC0EB00110C
:1027A0008800DFF8A03780FB03639910002201EB5B
:1027B000D1712046FFF78EFBD5F880104FF47A7266
:1027C0002046FFF787FB012085F834006868B0F9E0
:1027D000101000EE101AB8EEC00A85ED240ABDE80C
:1027E000F0812046FFF78EFA00EE100AB8EEC00A1C
:1027F00085ED1C0A284600F0D1FA06462046FFF770
:10280000ADFB002800F09282B5F84E00401C012E6E
:10281000A5F84E0005D0B5F8741080B2814280F062
:1028200085822868FFF753FBC0EB00118800DFF8B2
:10283000142780FB0232921002EBD27200EE102AB3
:10284000D5F89C00B8EEC00A85ED140A41F2883232
:10285000D0ED0A0A60EE200AFDEEE00A10EE901AB2
:10286000A5F85810D0ED0B0A20EE200ABDEEC00AE4
:1028700010EE101A0020A5F85A10E863A5F84000E1
:102880006864A5F84E0009B22046FFF723FB052037
:102890004AE22046FFF736FA00EE100AB8EEC00A08
:1028A00085ED1C0A284600F079FA06462046FFF717
:1028B00055FB002800F03A82B5F84E00401C012E6E
:1028C000A5F84E0005D0B5F8741080B2814280F0B2
:1028D0002D820020E863A5F840006864A5F8480050
:1028E000A5F84E0006201FE295ED1C0A284600F0D0
:1028F00055FA2868FFF7EBFA00EB80025200DFF888
:102900004406E96BB5F85C6082FB0030801000EB98
:10291000D0706A684118E963A86BB2F90C30B5F859
:102920004020C0186B6C521C97B25B1CBE42A8635F
:10293000A5F840206B6480F0F98192B291FBF2F12E
:10294000B5F84820A5F84810521AA5F84A2016B242
:10295000002E44BF324652420021E963A5F84010E0
:10296000B5F86010994203DB12B2042A00F3DE814D
:1029700090FBF3F0A882DFED7E0AB5F9480095F8E8
:10298000761000EE100AB8EEC00A01EE101A60EEE2
:10299000200AB8EE411A60EE810AC5ED060A2868E1
:1029A000FFF795FAC0EB00118800DFF89825B5F91C
:1029B000581080FB0232921002EBD27200EE102A05
:1029C0000022A5F84E20B8EEC00A85ED1C0A41F29F
:1029D00088322046FFF77EFA0720A5E12046FFF760
:1029E00091F900EE100AB8EEC00A85ED1C0A2846DF
:1029F00000F0D4F906462046FFF7B0FA002800F0B0
:102A00009581B5F84E00401C012EA5F84E0005D06A
:102A1000B5F8741080B2814280F088810020A863EC
:102A2000E863A5F840006864A5F84800A5F84E00E2
:102A3000082079E195ED1C0A284600F0AFF92868D6
:102A4000FFF745FA00EB80025200DFF8F804E96B6B
:102A5000B5F85C4082FB0030801000EBD0706A68F3
:102A60004118E963A86BB2F90C30B5F84020C018E2
:102A70006B6C521C96B25B1CB442A863A5F8402054
:102A80006B6480F0538192B291FBF2F1B5F848206B
:102A9000A5F84810521AA5F84A2014B2002C44BFD9
:102AA000224652420021E963A5F84010B5F86010B3
:102AB000994203DB12B2042A00F3388190FBF3F051
:102AC000E882DFED2B0AB5F9480095F87610B5F9E4
:102AD000162000EE100AB5F91400B8EEC00A01EE97
:102AE000101A60EE200AB8EE411A20EE810A00EEBC
:102AF000900AB5F91600B5F9141085ED070A01EE34
:102B0000100AF8EEE00AB8EEC11A70EEC10A95EDAF
:102B1000061AE86831EE400A80EE800ADFED840A8A
:102B2000B4EE600AF1EE10FA48BFB0EE600A85ED2F
:102B3000080A95ED060AD5ED070A30EE600A9FED0A
:102B40007D1A20EE010A85ED090A8A42D5ED070AB1
:102B500030EE200A85ED090AB2BF00220022B5F945
:102B6000781000F0F3FB0020A5F84E000920DBE010
:102B70009CC4203FB5F84E00401CA5F84E002868C4
:102B8000FFF7A5F900EB80025000DFF8B83395F8A5
:102B90007610D5ED091A80FB03439B1000EE101A46
:102BA00003EBD373F8EE400A01EE103A9FEDD60A1C
:102BB000B8EEC11A21EE001A21EE201AB4EE611A05
:102BC000B5F84E10F1EE10FA06DAB5F8740000EB25
:102BD0004000884280F2AA80D5F89C00AE68D0ED13
:102BE000001AB3EE0E2A01EE101AB8EE411AF8EEF2
:102BF000611A81EE211AF6EE001AC1EE811A61EE19
:102C0000821AC5ED0C1A85ED0A1A102195ED082AD5
:102C100021EE022A62EE211A21EE800A20EE200A1D
:102C200085ED0B2A85ED190AC0EE010A90ED001A18
:102C3000B8EE411AC0EE810AC5ED1A0A10274FF00E
:102C400000080F2047F6FF725FF0010303FA00F45B
:102C500001EE104AB8EEC11A21EE001ABDEEC11AFB
:102C600011EE104A944204DA41B202E0BCF1100FB6
:102C7000ECD01FFA87FCBCF1100F0ED103FA00FC58
:102C800001EE10CAB8EEC11A21EE201ABDEEC11A2B
:102C900011EE108A9045B8BF47B2401E1FFA81FC62
:102CA000E4D5BCF1100F07D089B23046FFF76CF9BC
:102CB00021B23046FFF76EF9B8B2102808D0B9B289
:102CC0003046FFF769F90FFA88F13046FFF777F9D8
:102CD000B5F97810304600F087FBB5F87810494216
:102CE00009B2304600F082FB304600F081FB04461A
:102CF000B5F8780044432146304600F0CEFA6442ED
:102D00002146304600F0CBFA012085F8620001210F
:102D1000E86800F017FB2868FFF7D9F80146E86873
:102D2000002200F013FB0A2085F83400BDE8F08192
:102D30000AD7233CAE47213F10B5044694F8620001
:102D4000A8B96068002180F82410E06800F0FAFA61
:102D50006068B0F91010E068002200F0F7FAE0684F
:102D6000BDE810404FF47A62002100F0EFBA10BDC8
:102D7000002180F86210704790ED140A00F021B92C
:102D80000B20704790F8340070470146002091F8FE
:102D900034100A2908BF01207047000030B50446EE
:102DA00081B000252DED048BD4F89C00D0ED0E8A67
:102DB0002068B0EE408AFFF78AF8C0EB0011890066
:102DC000604A94ED221AD4ED210A81FB023292105E
:102DD00002EBD27200EE102AB8EEC09A38EE490A21
:102DE000B5EE401A60EE800AF1EE10FA08BF9FEDD2
:102DF000520A09D0D4ED251A70EE611A94ED240A16
:102E000001EE810A70EE800AB4F8780084ED240A9D
:102E1000014601EE101AB8EE411AB4EE601AB0EE97
:102E2000600AF1EE10FA48BFB0EE410A404201EEEE
:102E3000100AB8EEC11AF4EE410AF1EE10FA48BFDA
:102E4000B0EE410A70EEC00A94ED231AE068BDEEC0
:102E5000C00A60EE810A10EE101AC4ED250A0022A5
:102E600009B200F073FA28EE280AB4EE409A94F9F9
:102E70006C00F1EE10FA1CD4B4EE489AF1EE10FAA0
:102E80000AD4B0EE000A30EE680A20EE080AB4EE6A
:102E9000409AF1EE10FA0CD5401C41B21429A4BF9F
:102EA0001420012584F86C002846BDEC048B01B089
:102EB00030BD002084F86C002846BDEC048B01B0C6
:102EC00030BD80F876107047A0F87810704780ED1C
:102ED0000C0A704790ED0C0A70470000D0F89C1067
:102EE00090ED0B0A90ED261ADFED140A60EE200A31
:102EF00060EE810A91ED130A91ED141A20EE010A99
:102F000080EE800A704700009CC4203FD0F89C10DF
:102F100090ED080A90ED261ADFED080A60EE200A0F
:102F200060EE810A91ED130A91ED141A20EE010A68
:102F300080EE800A7047000000000000CB151E35AF
:102F40004408002067666666C0F88010704780ED10
:102F5000260A704790F86200704701460020896891
:102F600001B901207047014600200A780B2A04D1DC
:102F700009200870002088800120704730B5044681
:102F800081B0154604F13000FFF704F8294604F13A
:102F9000300001B0BDE83040FFF711B8B0F90600CD
:102FA000704770B504460D46164604F1300000F037
:102FB0001FFA00FB05F104F1300000F01BFA268037
:102FC00070BD2DED010A009801B07047C11768B1BE
:102FD0004840401AB0FA80F29040D21CC907C2F5AE
:102FE000846241EA025202EBD0214005704790F81A
:102FF0001C1169B90022012180F81D2180F81C11E3
:10300000D0F82001016841F02001016002207047E2
:1030100001207047B0B581EA030C0CF0004C40F27F
:10302000FF7515EA11541DBF15EA1357AC42AF42A4
:1030300039E0E41923EA455343F48013C90241F00F
:10304000004141EA505EC7021100A7FB02020028BE
:103050004FF00000EEFB01204FF00001E3FB0721E1
:1030600018BF42F00102401800214941E3FB0E0164
:10307000A4F580640F0302D252004041494154F14B
:1030800001046CDD470872F1004250F1000051EB81
:103090000451A1F580115CBF41EA0C01B0BD4CEABE
:1030A00005510020B0BD05EA1357AC4214BFAF4232
:1030B00041E050EA410E1CBF52EA430E02E0614675
:1030C0000020B0BD24423C441BD15FEA070EF6D07D
:1030D000090302BF01460020AEF1140EB1FA81F7D8
:1030E000AEEB070401FA07FE0C37C7F1200100FA26
:1030F00007F7C8404EEA000E23EA455343F4801315
:10310000A2E733F00043B3FA83F704BFB2FA82FEBA
:1031100077440B3FE41BB7F1200E2FBF02FA0EF3EA
:10312000BB40C7F1200E22FA0EFE38BF43EA0E0361
:10313000BA40641C82E750EA410E14BF52EA430EC3
:103140006FF000014FF4001717EB430F8ABF1946C9
:1031500017EB410FB5E74CEA05510020B0BDD4F1A3
:103160000104B4F120070FDAC4F12007520828BF88
:1031700042F0010210FA07F501FA07F7E1BF2A430E
:10318000E0403843E1400FE0352C98DCC7F12004E3
:1031900052EA400220FA07F218BF42F0010231FA67
:1031A00007F0A1400A43002172F1004250F10000F3
:1031B00051EB0C01B0BD00EB4100B0F9320070479B
:1031C000C1F30A5340F2FE329B1A14DDD3F12003FF
:1031D0004FEAE17208DDC90241EA505141F0004076
:1031E000D84080185040704703F2E13010B1D2430C
:1031F00082F000407047002070470146002091F89F
:10320000582091F849108A4228BF0120704710B514
:10321000C46E0021816081802046FEF758FE014681
:103220002046BDE81040002200F0E6B801EB410363
:1032300000EB8300C2817047A0F810117047C18471
:103240004942018570470346B3F802C0187841EA45
:103250000C0C2CEA0202B3F804C041EA0C010A2863
:103260005A80998002D122B90B2001E00AB10A20CC
:1032700018707047010048BF494201225FF0010009
:10328000C2F11F0300FA03F399423EBF521CD3B2AE
:10329000202BF5D3511E88407047C16070470161F3
:1032A00070470068012180F81E117047A0F50040AA
:1032B0000004800D10F4407181B021D0B1F5807F01
:1032C0002CD0B1F5007F05D0B1F5407F0BD0009830
:1032D00001B070471A49C2B231F81220ADF802208D
:1032E000C0F1FF0023E01649C0F1FF02D2B231F86D
:1032F0001220ADF80220C0B231F91000404219E0AE
:103300000F49C2B231F912205242C0F1FF00ADF8AC
:103310000220C0B231F9100040420BE00849C0F170
:10332000FF02D2B231F912205242ADF80220C0B2EF
:1033300031F91000ADF80000009801B0704700BFEF
:103340003CAA000801700021C16070472DE9F041DE
:10335000064682B030780C4617460125B0B9304693
:1033600000F08CF8F18CB6F92820A142B8BF0025F6
:1033700094421EDB290030D007BB30782704012897
:103380000CBF7760B7600020F06025E07068C11363
:1033900000EB1140F18B0014A142A4BFB6F9242028
:1033A000944206DB318C8C42BCBFB6F92210A1429C
:1033B000E2DA0025284602B0BDE8F0817480B18BC6
:1033C000084B07FB01F8A8FB0332510A271A491CD6
:1033D0003F04F16097FBF1F0B061284602B0BDE810
:1033E000F08100BF986E128381827047C18270475E
:1033F000408B704781607047134690F82820002A60
:1034000000D07047F0B41A0012D1028B818002FB09
:1034100001F4C28AC18402EB82035B0094FBF3F3E4
:10342000447B13FB04F30022C3808284F0BC70470A
:10343000028E114EC1845343028B02FB01F4C28AF7
:10344000A3FB0665B0F9066002EB82076B0A457BB9
:103450007F005B1C94FBF7F496FBF5F2838424B2A7
:1034600012B2A41A24049BB294FBF3F2554336041F
:10347000C5610662F0BC7047986E12838068C11304
:1034800000EB11400014704710B5040015D0D4F8BB
:10349000800028B9002184F87C10204600F0ADFFA0
:1034A0002420C4F8800020680168490849000160B0
:1034B000204600F01DF8012801D1012010BDA06AAE
:1034C00010B1204600F092FD2068416821F490413F
:1034D00041602068816821F02A01816020680168CC
:1034E00041F0010101602046BDE8104000F0E2BD5E
:1034F000F0B5044681B02168DFF8D00A0A680240BE
:10350000A06802432069024360690243E069024304
:10351000606E02430A6000264A68E06822F4405266
:1035200002434A600025A369DFF8A42A91421CBF28
:10353000206A03438F68DFF89C0A07403B438B6097
:10354000CB6A606A1B0940EA0313DFF88C0ACB627E
:10355000814226D1DFF8840A036803F00303032BBA
:1035600033D8DFE803F0026D5B820127E069B0F534
:10357000004F40F0CC83082F00F2BA83DFE817F049
:103580000900BA02F702B8033903B803B803B80355
:10359000760301F0B9FA0146606A002840F07282B1
:1035A0009DE2DFF83C0A814227D1DFF8300A036848
:1035B00003F00C030C2B08D8DFE803F055070707CE
:1035C0004207070730070707570010279142CDD160
:1035D000082F00F2EF84DFE817F00900ED048900FE
:1035E000ED04C500ED04ED04ED04FA0001F08CFAE1
:1035F0000146606A00283AD166E0DFF8E8098142B6
:103600000ED1DFF8D809036813F030032BD0102B4C
:1036100016D0202B02D0302B27D0D6E70227D5E7B3
:10362000DFF8C40981420DD1DFF8B009036813F057
:10363000C00318D0402B03D0802BEFD0C02BEBE77A
:103640000427C3E79142C0D1DFF89009036813F45F
:10365000406308D0B3F5806FF2D0B3F5006FDDD0D2
:10366000B3F5406FD8E70027B0E70827AEE7012899
:1036700008BF022029D0022808BF042025D0032833
:1036800008BF062021D0042808BF08201DD0052827
:1036900008BF0A2019D0062808BF0C2015D007281B
:1036A00008BF102011D0082808BF20200DD00928FD
:1036B00008BF402009D00A2808BF802005D00B2869
:1036C00008BF4FF4807000D00120B1FBF0F000285B
:1036D00000F07184626802EB42018842C0F06A84A3
:1036E0001103814280F0BA8000F064BC606AB0B31C
:1036F000012808BFDFF8480AECD0022808BFDFF82D
:10370000440AE7D0032808BFDFF83C0AE2D00428C7
:1037100008BFDFF8380ADDD0052808BFDFF8300A17
:10372000D8D0062808BFDFF82C0AD3D0072808BF56
:10373000DFF8240ACED0082808BFDFF8200AC9D055
:10374000092808BFDFF8180AC4D00A2808BFDFF824
:10375000140ABFD00B2808BF4FF22440BAD0DFF8BC
:10376000080AB7E701F09EF90146606A68B30128CC
:1037700008BF0220A9D0022808BF0420A5D0032832
:1037800008BF0620A1D0042808BF08209DD0052826
:1037900008BF0A2099D0062808BF0C2095D007281A
:1037A00008BF102091D0082808BF20208DD00928FC
:1037B00008BF402089D00A2808BF802085D00B2868
:1037C00008BF4FF480703FF480AF01207DE7606A4E
:1037D000002840D0012808BF4FF480403FF47AAF62
:1037E000022808BF4FF400503FF474AF032808BF0D
:1037F00041F255503FF46EAF042808BF4FF480509B
:103800003FF468AF052808BF40F6CC403FF462AFF4
:10381000062808BF40F6AA203FF45CAF072808BF7F
:103820004FF400603FF456AF082808BF4FF48060A3
:103830003FF450AF092808BF4FF400703FF44AAF7F
:103840000A2808BF4FF480703FF444AF0B2808BF2C
:1038500080203FF43FAF4FF400403BE7082F00F2D9
:103860000B81DFE817F00900090145000901830019
:10387000090109010901BF0001F046F90146606A2A
:1038800060B3012808BF022029D0022808BF042005
:1038900025D0032808BF062021D0042808BF08200F
:1038A0001DD0052808BF0A2019D0062808BF0C2003
:1038B00015D0072808BF102011D0082808BF2020E5
:1038C0000DD0092808BF402009D00A2808BF802051
:1038D00005D00B2808BF4FF4807000D0012062682B
:1038E000B1FBF0F6370E5008002110EB0620B9E0CE
:1038F000606A002836D0012808BFDFF8706833D02E
:10390000022808BFDFF868682ED0032808BFDFF858
:10391000646829D0042808BFDFF85C6824D0052833
:1039200008BFDFF858681FD0062808BFDFF85068C6
:103930001AD0072808BFDFF84C6815D0082808BF40
:10394000DFF8446810D0092808BFDFF840680BD0C2
:103950000A2808BFDFF8386806D00B2808BFDFF850
:10396000086801D0DFF82C68002778E001F09AF8A9
:103970000146606A60B3012808BF022029D00228EE
:1039800008BF042025D0032808BF062021D0042822
:1039900008BF08201DD0052808BF0A2019D0062816
:1039A00008BF0C2015D0072808BF102011D0082808
:1039B00008BF20200DD0092808BF402009D00A28C0
:1039C00008BF802005D00B2808BF4FF4807000D0BE
:1039D00001206268B1FBF0F6370E5008002110EBB1
:1039E00006203FE0606A002836D0012808BF4FF467
:1039F000800633D0022808BF4FF400162ED00328CB
:103A000008BFDFF8946729D0042808BF4FF4801658
:103A100024D0052808BFDFF884671FD0062808BF18
:103A2000DFF87C671AD0072808BF4FF4002615D0AE
:103A3000082808BF4FF4802610D0092808BF4FF48B
:103A400000360BD00A2808BF4FF4803606D00B286A
:103A500008BF4FF4004601D04FF4000600270021B4
:103A600016EB52007941002301F084F80646A6F5D2
:103A70004070DFF8301798E20125A6F54070DFF8B6
:103A8000241792E2012808BF022029D0022808BF8B
:103A9000042025D0032808BF062021D0042808BF11
:103AA00008201DD0052808BF0A2019D0062808BF05
:103AB0000C2015D0072808BF102011D0082808BFF7
:103AC00020200DD0092808BF402009D00A2808BFAF
:103AD000802005D00B2808BF4FF4807000D0012053
:103AE0006268B1FBF0F0510801EB4001B1FBF2F666
:103AF000B6B2FEE001F014F80146606A60B3012836
:103B000008BF022029D0022808BF042025D003289E
:103B100008BF062021D0042808BF08201DD0052892
:103B200008BF0A2019D0062808BF0C2015D0072886
:103B300008BF102011D0082808BF20200DD0092868
:103B400008BF402009D00A2808BF802005D00B28D4
:103B500008BF4FF4807000D001206268B1FBF0F024
:103B6000510801EB4001B1FBF2F6B6B2C1E0606A68
:103B7000B0B3012808BFDFF8F00533D0022808BF32
:103B8000DFF8BC052ED0032808BFDFF81C0629D0BB
:103B9000042808BFDFF8AC0524D0052808BFDFF8EB
:103BA0000C061FD0062808BFDFF89C051AD007288E
:103BB00008BFDFF8980515D0082808BFDFF898057A
:103BC00010D0092808BFDFF894050BD00A2808BFD9
:103BD000DFF88C0506D00B2808BFDFF8880501D078
:103BE000DFF8AC05616800EB5100B0FBF1F6B6B24E
:103BF0007FE000F057FF0146606A60B3012808BF0C
:103C0000022029D0022808BF042025D0032808BF9D
:103C1000062021D0042808BF08201DD0052808BF91
:103C20000A2019D0062808BF0C2015D0072808BF85
:103C3000102011D0082808BF20200DD0092808BF67
:103C4000402009D00A2808BF802005D00B2808BFD3
:103C50004FF4807000D001206268B1FBF0F0510891
:103C600001EB4001B1FBF2F6B6B242E0606AB0B3DC
:103C7000012808BF4FF4004133D0022808BF4FF499
:103C800080412ED0032808BF42F6AA2129D004285B
:103C900008BF4FF4005124D0052808BF41F6981101
:103CA0001FD0062808BF41F254511AD0072808BF78
:103CB0004FF4805115D0082808BF4FF4006110D090
:103CC000092808BF4FF480610BD00A2808BF4FF4C1
:103CD000007106D00B2808BF4FF4807101D04FF45B
:103CE0008031606801EB5001B1FBF0F6B6B200E044
:103CF00001254FF6F071A6F11000884280F05A813C
:103D00003140C6F3420001432068C16053E1082FEF
:103D100000F24681DFE817F0090045008100440108
:103D2000C700440144014401030100F0EDFE0146D7
:103D3000606A60B3012808BF022029D0022808BFAA
:103D4000042025D0032808BF062021D0042808BF5E
:103D500008201DD0052808BF0A2019D0062808BF52
:103D60000C2015D0072808BF102011D0082808BF44
:103D700020200DD0092808BF402009D00A2808BFFC
:103D8000802005D00B2808BF4FF4807000D00120A0
:103D90006268B1FBF0F000EB5200B0FBF2F6B6B295
:103DA000FFE000F0BDFE0146606A60B3012808BF75
:103DB000022029D0022808BF042025D0032808BFEC
:103DC000062021D0042808BF08201DD0052808BFE0
:103DD0000A2019D0062808BF0C2015D0072808BFD4
:103DE000102011D0082808BF20200DD0092808BFB6
:103DF000402009D00A2808BF802005D00B2808BF22
:103E00004FF4807000D001206268B1FBF0F000EB4D
:103E10005200B0FBF2F6B6B2C3E0606A00283FD0B1
:103E2000012808BFDFF8181300F0B380022808BF8C
:103E3000DFF8101300F0AD80032808BFDFF8081387
:103E400000F0A780042808BFDFF8001300F0A1806D
:103E5000052808BFDFF8F81200F09B80062808BF8D
:103E6000DFF8F01200F09580072808BFDFF8E812AD
:103E700000F08F80082808BFDFF8E01200F089808A
:103E8000092808BFDFF8D81200F083800A2808BF8D
:103E9000DFF8D0127DD00B2808BF4FF2244178D034
:103EA000DFF8C41275E000F0FDFD0146606A60B302
:103EB000012808BF022029D0022808BF042025D0ED
:103EC000032808BF062021D0042808BF08201DD0E1
:103ED000052808BF0A2019D0062808BF0C2015D0D5
:103EE000072808BF102011D0082808BF20200DD0B7
:103EF000092808BF402009D00A2808BF802005D023
:103F00000B2808BF4FF4807000D001206268B1FB1D
:103F1000F0F000EB5200B0FBF2F6B6B241E0606A9E
:103F2000A8B3012808BF4FF4804132D0022808BF4F
:103F30004FF400512DD0032808BF41F2555128D02D
:103F4000042808BF4FF4805123D0052808BF40F64D
:103F5000CC411ED0062808BF40F6AA2119D0072858
:103F600008BF4FF4006114D0082808BF4FF48061E7
:103F70000FD0092808BF4FF400710AD00A2808BFE3
:103F80004FF4807105D00B2808BF802101D04FF479
:103F90000041606801EB5001B1FBF0F6B6B200E001
:103FA0000125A6F110004FF6F071884202D2216877
:103FB000CE6000E001250120A4F86A00A4F86800A2
:103FC0000020E066206701B02846F0BDF369FFCF0E
:103FD00000800040FFF4FF110038014088100240CB
:103FE0000044004000480040004C004090F8281079
:103FF000CA0706D502685368C16A23F400330B432D
:10400000536090F828108A0706D502685368016B40
:1040100023F480330B43536090F828104A0706D5E9
:1040200002685368416B23F480230B43536090F87C
:1040300028100A0706D502685368816B23F40043F1
:104040000B43536090F82810CA0606D5026893689F
:10405000C16B23F480530B43936090F828108A06B9
:1040600006D502689368016C23F400530B439360F8
:1040700090F828104A0610D502685368416C23F462
:1040800080130B435360416CB1F5801F05D1536819
:10409000816C23F4C0030B43536090F828100A0688
:1040A00006D501684A68C06C22F4002202434A60C7
:1040B0007047000030B5044681B00020C4F8880085
:1040C00000F074FE0546206801680A0725D52068BF
:1040D000C169880221D400F069FE401BB0F1007F65
:1040E000F5D305E000F062FE401BB0F1007F18D36D
:1040F0002068016821F4D071016020688168490856
:10410000490081602020C4F88000C4F884000020A9
:1041100084F87C0001B0032030BD206801684A07A4
:1041200003D52068C1694802DCD52020C4F880008E
:10413000C4F88400002084F87C0001B030BD000089
:1041400000127A0000093D00AAB0280080841E00F9
:10415000006A18005558140040420F0020A10700C3
:1041600090D0030048E801000024F4000000127A17
:104170000000093D00AAB0280080841E00006A18D3
:10418000005558140040420F0020A1070090D003B2
:104190000048E801000024F40055150000CC0C0094
:1041A00000AA0A0000FD0F005461510000D4300045
:1041B000DFF8A40282B0816841F00101816081686A
:1041C00001F0010100910099016841F08051016006
:1041D000006800F0805000900098042002B000F0C9
:1041E000EBBD10B586B069460022002300241CC137
:1041F0000CC10068B0F1A04F31D198480168491C4A
:1042000001600129964808D1016841F4005101601C
:10421000026802F4005205920599016841F001011B
:104220000160026802F0010205920322059901680B
:1042300041F0020101600221006800F002000590D7
:10424000059800910192029369464FF0904000F06A
:104250001BFE4FF4006203200092019045E081496B
:10426000884247D17D480168491C016001297C488A
:1042700008D1016841F400510160026802F4005263
:1042800005920599016841F001010160026802F0A0
:10429000010205920599016841F00401016002687C
:1042A00002F00402059203220599016841F002011F
:1042B00001608021006800F00200059005980091DF
:1042C0000192029369464FF0904000F0DDFD3020EE
:1042D00003210090019102946946634800F0D4FDE7
:1042E0004FF40060032100900191029469465F48F9
:1042F00000F0CAFD06B010BD10B586B001A90022BD
:10430000002300241CC10CC10068594A90421CD1F2
:104310005348016841F480310160026802F4803240
:10432000009203220099016841F00101016010210F
:10433000006800F001000090009801910292039340
:1043400001A94FF0904000F09FFD06B010BD10B5E0
:1043500086B001A90022002300241CC10CC1006802
:10436000444A904221D13E48416941F40061416193
:104370001222416901F4006100910099016841F045
:10438000010101604FF40061006800F0010000903D
:10439000009801910120039002920C200590049353
:1043A00001A94FF0904000F06FFD06B010BD10B5B0
:1043B00086B001A90022002300241CC10CC10068A2
:1043C0002C4A904217D12648016841F00101016052
:1043D0004FF4E061006800F00100009002220098B4
:1043E00001910620059002920392049201A94FF0D8
:1043F000904000F049FD06B010BD10B586B001A98F
:104400000022002300241CC10CC100681A4A9042FB
:104410001FD11348C16841F40031C1600222C16854
:1044200001F4003100910099016841F0010101603F
:104430000C21006800F00100009000980191072015
:10444000059002920393049301A94FF0904000F06D
:104450001BFD06B010BD000058100240080D0020E2
:104460004C100240000100500008004800040048C1
:1044700000080050002C0140004400402DE9F041AC
:10448000040082B000F08F812078DFF8B866C107A1
:104490001BD5B068F16800F00C000C280CD101F0BD
:1044A000030103290AD06068B0F5803F31D130683C
:1044B00040F4803030603EE00828F4D13168880351
:1044C00003D56068002800F06E812178880768D5E0
:1044D000B068F16800F00C000C284CD101F0030129
:1044E00002294AD0E068002878D0316841F4807110
:1044F000316000F05BFC05463068410500F15781F2
:1045000000F054FC401B0328F6D3032002B0BDE8A2
:10451000F081B0F5A02F306806D140F480203060E3
:10452000316841F4803105E020F48030306031683A
:1045300021F480213160606870B100F037FC0546DD
:1045400031688803C1D400F031FC401B6528F7D3E3
:10455000032002B0BDE8F08100F028FC0546306879
:104560008103B2D500F022FC401B6528F7D303205D
:1045700002B0BDE8F0810428B4D13068410503D50C
:10458000E068002800F00F817168206921F0FE4189
:1045900041EA00617160042000F068FD002840F0ED
:1045A00002812078010740F10A81606948B3D6F89A
:1045B000941041F00101C6F8941000F0F7FB054695
:1045C000D6F89400810700F1FA8000F0EFFB401B61
:1045D0000328F5D3032002B0BDE8F081306820F451
:1045E0008070306000F0E2FB054631684805D8D5A0
:1045F00000F0DCFB401B0328F7D3032002B0BDE82A
:10460000F081D6F8940040084000C6F8940000F00D
:10461000CDFB0546D6F89400810740F1D08000F02C
:10462000C5FB401B0328F5D3032002B0BDE8F08191
:104630000528D6F8900008D140F00400C6F8900094
:10464000D6F8900040F0010007E040084000C6F8AE
:104650009000D6F8900020F00400C6F89000A06802
:1046600090B100F0A3FB074641F28938D6F89000DC
:10467000810700F1D78000F099FBC01B4045F5D3BE
:10468000032002B0BDE8F08100F090FB4FEA000784
:1046900041F28938D6F89000810740F1C38000F0DC
:1046A00085FBC01B4045F5D3032002B0BDE8F08177
:1046B00000F07CFB401B0328C0F0CA80032002B03E
:1046C000BDE8F081D6F8980040084000C6F8980090
:1046D00000F06CFB4FEA0005D6F89800810740F126
:1046E000BC8000F063FB401B0328F5D3032002B01D
:1046F000BDE8F08100F05AFB401B0328C0F0BF80EA
:10470000032002B0BDE8F08100F050FB001B03283D
:10471000C0F0DF80032002B0BDE8F081F168DFF86F
:10472000300489088900F160F1680140F16000F00F
:104730003DFB04463068810140F1CF8000F036FB3C
:10474000001B0328F6D3032002B0BDE8F081012846
:1047500029D0F068226A00F00301914201BF00F005
:10476000F001626A521EB1EB021F1CD1A26A00F472
:10477000FE41B1EB022F02BF00F07841E26AB1EBDB
:10478000C26F10D1226B520800F4C001521EB1EB6F
:10479000425F08D1616B490800F0C060491EB0EB70
:1047A000416F00F09A80012002B0BDE8F08170688E
:1047B000216920F0FE4040EA01607060F1E6207857
:1047C000410734D5B06D0025C10009D4B06D40F06B
:1047D0008050B0650125B06D00F0805000900098C9
:1047E000DFF870733968C80513D4386840F48070F6
:1047F000386000F0DBFA80463968C80509D400F05B
:10480000D5FAA0EB08000328F6D3032002B0BDE8D8
:10481000F081A06801287FF40BAFD6F8900040F03B
:1048200001001AE71DB1B06D20F08050B06521780D
:10483000880612D5A06900283FF444AFD6F8981036
:1048400041F00101C6F8981000F0B0FA4FEA0005F7
:10485000D6F8980081077FF52BAFE069E8B3B1681F
:1048600001F00C010C293FF472AF0228306820F0EF
:10487000807030607FF452AF00F098FA05463168DE
:1048800088013FF537AFF168DFF8CC02226B0140B9
:10489000206A0143606A401E41EA0011A06A520882
:1048A00041EA0021606B521E400841EA4251401E1D
:1048B00041EA4061E06A41EAC061F160316841F07B
:1048C00080713160F06840F08070F06000F06EFA46
:1048D0000446306881017FF517AF002002B0BDE8C3
:1048E000F0812DE9F04704460025002C884677D05A
:1048F000DFF86872386800F00F00404509D2396867
:10490000090948EA01113960386800F00F00404594
:1049100066D12168DFF82C62C80740F186806068A4
:1049200003282FD1306882015AD5F268F068C0F3AD
:104930000310401C02F00302032A0CBFDFF8202200
:10494000DFF80822B2FBF0F2F068C0F30620424321
:10495000F068C0F34160401C4000B2FBF0F0DFF8AB
:10496000042290421FD3B26812F0F00F03D08807E0
:1049700019D5A068B8B9B16821F0F00141F0800103
:10498000B1600FE00228306828D1810328D500F0FB
:1049900089F87449884206D3B06820F0F00040F0EE
:1049A0008000B060802541F28939B168606889086B
:1049B00040EA8101B16000F0F9F98246B0686168AF
:1049C00000F00C00B0EB810F2FD000F0EFF9A0EB5E
:1049D0000A004845F2D30320BDE8F0874105D6D44C
:1049E0000120BDE8F087802D03D1B06820F0F000F1
:1049F000B060396801F00F0188452FD2386800098E
:104A000048EA0010386041F2893900F0CFF90546D4
:104A1000386800F00F00404520D000F0C7F9401B77
:104A20004845F5D30320BDE8F08720688107DAD533
:104A3000400703D5B06840F4E060B0602178080713
:104A400005D5B06820F4605040F4E060B060B16813
:104A5000A06821F0F0010143B160CAE72078410766
:104A600005D5B168E06821F4E0610143B1602078C8
:104A7000010706D5B068216920F4605040EAC10002
:104A8000B06000F00FF8B2683749C2F30312895CD6
:104A90002D4A01F01F01C84010600420BDE8F04716
:104AA00000F0E4BA3149086800F00C00042801D194
:104AB00026487047086800F00C00082801D12848F3
:104AC0007047086800F00C000C2818D14A68486844
:104AD000C0F30310401C02F00302032A0CBF204A5B
:104AE0001A4AB2FBF0F24868C0F306204243486815
:104AF000C0F34160401C4000B2FBF0F07047002062
:104B000070471148006870470F48184A00681368DA
:104B10001749C3F30222895C01F01F01C8407047A6
:104B20000948124A006813681149C3F3C222895C1C
:104B300001F01F01C84070470248016841F400219C
:104B40000160704700100240140900200024F400A6
:104B5000FFFFEEFE007000400C809F01002002402D
:104B600000366E0101B4C40424B7000808100240E6
:104B70008CB80008B3BBD9B1B2F5803F7DD2022A10
:104B80001ED98C46B1FBF2F102FB11C31B0443EAB0
:104B90001043B3FBF2FC02FB1C3380B240EA034338
:104BA000B3FBF2F002FB103240EA0C4000237047E6
:104BB000022A05D98446B0FBF2F002FB10C270470E
:104BC0004AB105D100F0010249085FEA30007047A0
:104BD00000220023704700F06DBA0B000200002194
:104BE00000207047904271EB030CF6D3B3F5803F81
:104BF0002FD2F0B5B3FA83F7B1FA81F4A7F10F0E13
:104C00003D1B5340CEF1200602FA0EF2F341534011
:104C1000B5F10F0746D80F3C2C444140C4F12006A3
:104C2000A040F1414140B1FBF3F603FB1611A2FB9A
:104C30000645001BA94102D2761E8018594180EA20
:104C4000010221FA0EF362FA0EF200215A403046B8
:104C5000F0BD30B4B1FBF3FC03FB1C11A2FB0C450F
:104C6000001BA94103D2ACF1010C8018594130BCA2
:104C700002460B46604600217047B2F1807F65D343
:104C8000F0B5B2FA82F7B1FA81F4C7F10F063D1B15
:104C900022FA06F307F1110EF24120355A40B5F120
:104CA0000F07B8D94140C4F12006A040F14141406E
:104CB000B1FBF3FC03FB1C11A2FB0C45001BA9413B
:104CC00003D2BCF1010C801859410F2F12D30F3FB2
:104CD000C90341EA5041B1FBF3F603FB1611A2FBF5
:104CE0000645D4EBC030A94102D2761E8018594146
:104CF00046EACC3C07B34140C7F12006B840F14139
:104D00004140B1FBF3F603FB1611A2FB0645001B65
:104D1000A94102D2761E8018594180EA010221FA87
:104D20000EF3C7F1200462FA0EF20CFA07F05A40B3
:104D30002CFA04F13043F0BD80EA010221FA0EF3AF
:104D4000002162FA0EF260465A40F0BD8C46B1FB7B
:104D5000F2F102FB11C31B0243EA1063B3FBF2FC46
:104D600002FB1C331B024CEA002043EA1063B3FB36
:104D7000F2FC02FB1C331B024CEA002043EA1063E6
:104D8000B3FBF2FC02FB1C331B024CEA002043EA9B
:104D90001063B3FBF2FC02FB1C324CEA0020002340
:104DA00070470068012180F81F11704701480068B2
:104DB000704700BF080900202B4A13684FF6FF0117
:104DC00000020B4000F4E0601843284908431060DB
:104DD000704730B4244B81B01C68C4F30223C3F184
:104DE0000704052C28BF04241D1D072D34BF0023F4
:104DF000DB1E012505FA04F4641E2140994005FAE2
:104E000003F35B1E1A4011430901020004D4184841
:104E1000815401B030BC7047164802F00F021044B4
:104E200000F8041C01B030BC7047010007D4012217
:104E300000F01F01104B8A40400943F820207047C2
:104E4000401EB0F1807F01D3012070470B494860BC
:104E5000F02081F8130D00208860072008600020F2
:104E6000704700F00DB800000CED00E00000FA05FE
:104E700000E400E018ED00E000E100E010E000E0F8
:104E800070470000010002002DE9F04F81B00F468D
:104E90004FF0000E3C686D496D4A6E4BDFF8B881EB
:104EA000002C4FF00F0900F0C6808246012000FA66
:104EB0000EFC38681CEA000000F0B6807C68022C0A
:104EC00018BF122C12D14FEADE040AEB84044FEA19
:104ED0008E05266A05F01C0509FA05FB26EA0B0675
:104EE000D7F810B00BFA05F5354325624FEA4E04AA
:104EF0000325DAF8006097F804B0A540ED430BF005
:104F0000030B2E400BFA04FB4BEA0606CAF80060BE
:104F10007E68012E18BF022E04D0112E18BF122E4B
:104F200040F01880DAF80860D7F80CB02E400BFA81
:104F300004FB4BEA0606CAF80860DAF8046026EAC1
:104F40000C0C7E68C6F3001606FA0EF646EA0C064E
:104F5000CAF80460DAF80C603540BE6806FA04F45A
:104F60002C43CAF80C407C68E4005DD5D8F80040BA
:104F700044F00104C8F800404FEA9E0CD8F80050F5
:104F800005F001050095BAF1904F009C53F82C6094
:104F90004FEA8E0404F00C0409FA04F526EA05052C
:104FA00008BF002618D0924508BF012614D02B4E0A
:104FB000B24508BF02260FD0294EB24508BF0326CE
:104FC0000AD0284EB24508BF042605D0264EB24569
:104FD0000CBF0526062600BF06FA04F42C4343F84E
:104FE0002C406FEA000C0C687D680CEA0404EE03A8
:104FF00048BF04430C604C687D680CEA0404AE03AF
:1050000048BF04434C608C687D680CEA0404EE02DF
:1050100048BF04438C60CC687D680CEA0404AD0290
:1050200048BF0443C1F80C400EF1010E386830FA55
:105030000EF07FF43BAF01B0BDE8F08F81B0002AE5
:1050400014BF8161816201B070470000000401401B
:1050500000040048080001406010024000080048B9
:10506000000C0048001000480014004870B50F4EB6
:105070000446B0680025A8B14FF47A71B1FBF0F096
:105080000B490A68B2FBF0F0FFF7DAFE50B9102CBA
:1050900008D2002221464FF0FF30FFF79AFE7460DD
:1050A000284670BD0125284670BD00BF08090020B4
:1050B0001409002070470000CB0D143003F00403E6
:1050C0001818090D01F01F0103684FF0070C0CFAC6
:1050D00001FC23EA0C0302FA01F119430160704755
:1050E00030B581B000250446009514B9012001B007
:1050F00030BDE06D28B92046FFF773F8256684F8C7
:10510000585021688868800004D58A68DFF8D40187
:1051100002408A6021688868C00028D48A68DFF865
:10512000C801DFF8C831024042F080528A60002294
:10513000DFF8BC110868E0FB0332520C00920098C3
:10514000A8B10099491E0091009880B10099491EAC
:105150000091009858B10099491E009100980028CC
:1051600005D00099491E009100980028E9D12068D7
:105170008168C90008D4E16D41F01001E1650125A5
:10518000216E41F0010121668168E26DD30600F1D4
:10519000A080490700F19D80E16D21F4807141F00C
:1051A0000201E1658068C0070FD4DFF84811086884
:1051B000D1F800211043C00707D4D1F8002360685C
:1051C00022F47C120243C1F80023607FE26B94F862
:1051D000241042EA4032E0680243A06802430129F9
:1051E00042EA014203D1A06A401E42EA4042E06A1C
:1051F00020B1216B00F47870084302432168DFF886
:10520000F800CB6803401A43CA6021680A69606BE2
:1052100022F0406202430A6121688A688868520766
:1052200042D4000740D4CA68DFF8D00094F8383080
:105230000240207F42EA803242EA4302CA6020698B
:105240000028206801690CD041F480310161216897
:10525000D1F8C0202069920B40EA8232C1F8C02008
:1052600009E021F4803101612068D0F8C010890B79
:105270008903C0F8C01094F8400001280FD12168BC
:105280000A69606C6FF38A020243A06C0243E06C0F
:105290000243206D024342F001020A6104E02068EB
:1052A0000169490849000161606901282068016BB2
:1052B00005D1226A0909521E42EA011101E00909D9
:1052C00009010163E06D20F0020040F00100E0659B
:1052D00004E0E06D40F01000E0650125284601B0D3
:1052E00030BD0000C0FFFF5FC0FFFF7F47ACC5A718
:1052F00014090020080000500740F0FFFDBFFFFF29
:10530000F0B581B0044600250E46009594F858107B
:10531000012908BF022000F0BE81012084F8580056
:1053200020688168490700F1AD817268316893098E
:10533000303003F00C03181802F01F0207681F2317
:105340009340C1F384619F4301FA02F23A43026041
:10535000206882688168520700F1B180090700F176
:10536000AE80B2683168B2F1004F14D1CA0D14306A
:1053700002F004021018090D0368072701F01F014D
:1053800007FA01F123EA010101602068426942F055
:105390000042426106E0FFF78FFE2068416921F07C
:1053A000004141612068C1683269042A31D000F1AE
:1053B00060073368DFF8A40507EB8207C9083A687D
:1053C00049000240706903F0F84301F006011343FD
:1053D0008840034343F000433B6021683269B06971
:1053E000603101EB82010B6823F080731843086081
:1053F000307F2168326901280CBF4FF00070002017
:10540000603101EB82010B6823F0007318430860E0
:1054100055E050F8601F016832685303C1F384619E
:105420000EBFC2F3846292FAA2F2B2FA82F2914201
:1054300003D1016821F0004101602068603050F81C
:10544000041F016832685303C1F384610EBFC2F3C5
:10545000846292FAA2F2B2FA82F2914203D1016816
:1054600021F0004101602068603050F8081F016899
:1054700032685303C1F384610EBFC2F3846292FAAF
:10548000A2F2B2FA82F2914203D1016821F0004106
:1054900001602068603050F80C1F016832685303C7
:1054A000C1F384610EBFC2F3846292FAA2F2B2FA2F
:1054B00082F2914203D1016821F00041016021682C
:1054C0008868C00774D4F2683368D1F8B070C3F349
:1054D00012008743DFF8880402F01802D04003402E
:1054E0003B43C1F8B030F068DFF8781488425FD1F0
:1054F000306841030EBFC0F3846190FAA0F1B1FAA5
:1055000081F1491C01F01F010A2925D2410304D170
:10551000C0F384610A4608460BE090FAA0F1B1FAA4
:1055200081F290FAA0F190FAA0F0B1FA81F1B0FA0C
:1055300080F0521C491C9206012301F01F01401CFF
:1055400002F0F84203FA01F100F01F00114300EBF2
:10555000400041EA005127E0410304D1C0F38461D7
:105560000A4608460BE090FAA0F190FAA0F290FAF1
:10557000A0F0B1FA81F1B2FA82F2B0FA80F0491CDF
:10558000521C401C8906012302F01F0200F01F007C
:1055900001F0F84103FA02F20A38114300EB40002F
:1055A00041EA005141F00071B2682068FFF784FDC4
:1055B0003268DFF8B403024269D0DFF89C03DFF8F9
:1055C000AC3301689A421CBFDFF8A4339A4201F061
:1055D000E07133D10B0231D42268B2F1A04F56D121
:1055E000036823F0E073194341F4000101600022D5
:1055F000DFF88003DFF880330168E1FB0332520CEF
:1056000002EB4206B6000096009800283FD00099B1
:10561000491E00910098002839D00099491E009138
:105620000098A0B30099491E0091009878B30099A2
:10563000491E009100980028E9D128E0DFF83C33AA
:105640009A420DD1CA0122D42268144B9A421ED02C
:10565000036823F0E073194341F08071016016E0A4
:10566000DFF81C63B24212D14A0210D422680B4BFD
:105670009A420CD0036823F0E073194341F480018F
:10568000016004E0E06D40F02000E06501250020AD
:1056900084F85800284601B0F0BD00000001005019
:1056A000F0B481B090F85820012A08BF022000F021
:1056B0004F81012380F8583002689468936864072A
:1056C00000F1FA801B0700F1F7800C68DFF8B432B4
:1056D0004D689C4265D1B5F5000F28D0B5F5400F57
:1056E0000CD0B5F1807F2BD0B5F1A07F0CD0B5F1F7
:1056F000C07F2ED0B5F1E07F0CD033E08C6824F071
:105700007C7444F4400408E08C6824F07C7444F019
:10571000A07402E08C6844F0E07402F10C05DFF83C
:1057200068222E681640234033432B6021E002F1AB
:105730000C03DFF854221C68144044F4000417E002
:1057400002F10C03DFF840221C68144044F080741E
:105750000EE002F10C03DFF830221C68144044F024
:10576000C07405E002F10C03DFF81C221C68144031
:105770001C6003681C6A8A6924F4E04414431C62B8
:105780008023C26D22F48032C265026813600A7BF6
:10579000012A0268536814BF23F0800343F080039A
:1057A00089E0B5F5000F39D0B5F5400F0BD0B5F154
:1057B000807F33D0B5F1A07F05D0B5F1C07F2DD06B
:1057C000B5F1E07F3ED1DFF8C4518B68AC4212D115
:1057D0005C030EBFC3F3846393FAA3F3B3FA83F3BA
:1057E000D2F8A040012503F01F0305FA03F3234379
:1057F000C2F8A03038E05C030EBFC3F3846393FAB1
:10580000A3F3B3FA83F3D2F8A440012503F01F03F6
:1058100005FA03F32343C2F8A43025E002F10C0398
:1058200004F00105C4F3015205EBC50602EB860244
:1058300003EB8203564A1F6822409743554A14409F
:105840003C4310E002F10C0304F00105C4F30152E3
:1058500005EBC50602EB860203EB82034C4A1F6888
:10586000144027EA04041C600A68484B9A4211D18C
:10587000C36D23F40033C3654FF4807203681A606C
:105880000A7B012A0268536814BF23F4807343F42F
:10589000807310E0C26D22F48022C2654FF4007361
:1058A000026813600A7B012A026853680CBF43F444
:1058B000007323F4007353600A68324B04689A4201
:1058C00010D10D69E368DB085B0003F0060305FAFD
:1058D00003F34D69E168C908490001F0060105FAC2
:1058E00001F123E0E36803F01803182B0B690AD0D9
:1058F000E568ED086E0006F00606C6F1040606F03F
:105900001F06F34000E09B00E568496905F01805B3
:10591000182D0AD0E468E408650005F00605C5F115
:10592000040505F01F05E94000E089000468920CB9
:1059300004F1200502F00C025219146804F0F0245E
:1059400044EA034421431160002180F858100020EC
:1059500001B0F0BC704700000803005000F0FF03E6
:10596000FFFF070000007F4000000880000021C307
:105970001000C0901409002047ACC5A7000052C712
:10598000000084CB0000C07DFFFF3F82FFFF1700B7
:10599000FFFFC77DFFFF870170B582B0436A90F8B3
:1059A0002C2053F82240036A53F8226082294FF0DA
:1059B000FF3500F2EF83DFE811F0830089009000EB
:1059C00097009E00AE00BC00CA00D100D500DC00EC
:1059D000E300EA00F300FA00010108012201ED03EF
:1059E000ED0356013C01ED03ED03ED03700177017A
:1059F0007E0185018C019301A301A701ED03B00194
:105A0000BA01BE01C701CB01A301A701D401D8018E
:105A1000E101E501EE01F201ED03ED03FB011102ED
:105A200027023A0252026A02ED03ED03ED03ED0391
:105A3000ED03ED0382028C029602A502EA00B40295
:105A4000CA02ED03ED03ED03ED03ED03ED03ED03FA
:105A5000ED03ED03ED03ED03ED03ED03ED03ED03C6
:105A6000ED03ED03ED03ED03ED03ED03ED03ED03B6
:105A7000E002ED03ED03ED03ED03ED03ED03ED03B4
:105A8000ED03ED03ED030203060325032F033903A2
:105A900043034D031503B500C300E003ED03E40326
:105AA000E803570361036D03780383038C039703B3
:105AB000A203AD03B703BF03C703CF03EC03D703B0
:105AC00000F070FB0546284602B070BDA06A00F0E9
:105AD0006CFB0546284602B070BDA06AFCF777FA59
