:020000040800F2
:10000000A811002089A80008DFF800F06111001095
:10001000DFF800F057110010DFF800F09502001033
:10002000DFF800F0DD010010DFF800F053110010E0
:10003000DFF800F055020010DFF800F0F5020010C4
:10004000DFF800F087110010DFF800F05D110010FC
:10005000DFF800F0C9100010DFF800F013130010F3
:1000600030B5DFF8D44781B00120A060DFF8CC07BD
:100070002060256800F0A8F885421CBF20688047F2
:10008000DFF8BC070021016041600FF24D01816083
:100090000021C1600161416101B030BD30B5DFF8C0
:1000A000984781B00120A060DFF8900720602568A4
:1000B00000F08AF885421CBF20688047DFF880077F
:1000C0000021016041600FF24D0181600021C1609B
:1000D0000161416101B030BD00B5DFF85C0781B05E
:1000E00001218160DFF85C27DFF85C17016001689F
:1000F00091421CBF00688047DFF84407002101607F
:10010000416081600FF23531C160002101614161C0
:1001100001B000BD00B5DFF8200781B0012181608A
:10012000DFF82027DFF820170160016891421CBF2B
:1001300000688047DFF808070021016041608160A6
:10014000C16001610FF20901416101B000BD000011
:1001500000B5DFF8E40681B001218160DFF8E42614
:10016000DFF8E4160160016891421CBF0068804717
:10017000DFF8CC06002101600FF2DD214160002193
:100180008160C1600161416101B000BD00B5DFF86F
:10019000A80681B001218160DFF8A826DFF8A81643
:1001A0000160016891421CBF00688047DFF890063B
:1001B0000FF26D210160002141608160C160016129
:1001C000416101B000BD0000F0B5A0B0002300A95E
:1001D0004FF0FF3222FA03F404F0010441F8044B1B
:1001E0005B1C22FA03F404F0010441F8044B5B1C8D
:1001F00022FA03F404F0010441F8044B5B1C22FAD8
:1002000003F45B1C04F00104202B41F8044BE1D300
:100210000021DFF8382600AB9D6FDC6F5E6FAD0705
:1002200005EBC47505EB46751E6F05EB0675DE6EB6
:1002300005EBC6659E6E05EB86655E6E05EB466555
:100240001E6E05EB0665DE6D05EBC6559E6D05EB76
:1002500086555E6D05EB46551E6D05EB0655DE6C4D
:1002600005EBC6459E6C05EB86455E6C05EB464589
:100270001E6C05EB0645DE6B05EBC6359E6B05EB8C
:1002800086355E6B05EB46351E6B05EB0635DE6A83
:1002900005EBC6259E6A05EB86255E6A05EB4625BD
:1002A0001E6A05EB0625DE6905EBC6159E6905EBA2
:1002B00086155E6905EB46151E6905EB0615DE68B9
:1002C00005EBC6059E6805EB86055E6805EB4605F1
:1002D000009E7519C1F11F0620FA06F707F0010606
:1002E000744000940226009C6C4004F001045C60A1
:1002F00002AC009F22FA06FC0CEA0707A6F1010CEB
:1003000025FA0CFE8EEA070707F0010744F8047B84
:10031000761C009F22FA06FC0CEA0707A6F1010CE6
:1003200025FA0CFE8EEA070707F0010744F8047B64
:10033000761C009F22FA06FC0CEA0707A6F1010CC6
:1003400025FA0CFE8EEA0707761C07F00107202E1F
:1003500044F8047BCDD3491C2029FFF45DAF996F8D
:10036000D86F890701EBC070596F00EB4170196FAE
:1003700000EB0170D96E00EBC160996E00EB8160FB
:10038000596E00EB4160196E00EB0160D96D00EB16
:10039000C150996D00EB8150596D00EB4150196DC2
:1003A00000EB0150D96C00EBC140996C00EB81402F
:1003B000596C00EB4140196C00EB0140D96B00EB2C
:1003C000C130996B00EB8130596B00EB4130196BF8
:1003D00000EB0130D96A00EBC120996A00EB812063
:1003E000596A00EB4120196A00EB0120D96900EB42
:1003F000C110996900EB8110596900EB411019692E
:1004000000EB0110D96800EBC100996800EB810096
:10041000596800EB41000099081820B0F0BD0000B9
:10042000DFF81C0400210160DFF810144160002196
:100430008160C1600161416170470000DFF8000424
:1004400000210160DFF80814416000218160C16073
:100450000161416170470000DFF8E403DFF8F41345
:100460000160002141608160C160016141617047AC
:10047000DFF8E4231178002903BF111D0123137055
:100480000021C1F80C010846704700002DE9F04139
:100490000446DFF8AC63D4F80C5130680F4680474F
:1004A00070688047284601F061FD804601F06EFDCE
:1004B000C4F808802760B0688047F0688047002053
:1004C0002071A073E07384F8BC00A4F8E80084F8FD
:1004D000EA00A4F8EC00C4F8F000C4F8080184F8BD
:1004E000F40070688047B068804770698047706822
:1004F000804730688047288800EE100AB8EE400A2E
:1005000084ED050AF7EE000A80EE800A84ED040A05
:100510002068006901F021FE00EE100AB8EE400AE2
:1005200084ED060AF6EE000A95ED0E0A95ED041A22
:1005300060EE200AC0EE810AFDEEE00A10EE900A9D
:10054000A083B0EE001AD5ED010A60EE810A95EDA8
:10055000021A60EE810A80EE200A84ED080AF5EEA8
:10056000000AA86960620A2195ED060A20EE200AB9
:1005700084ED0B0ADFEDAC0AA869A06200202063BD
:100580006063A063E06384F860006066A06684F83E
:100590006C0020676067A067E067C4F88000C4F85B
:1005A0008400C4F88800C4F88C00C4F89000C4F833
:1005B0009400C4F89800C4F89C00C4F8A000C4F8E3
:1005C000A40084F8A800686AC4F8AC00286BC4F8DA
:1005D000B00090FBF1F0C4F8B8004FF4FA70C4F822
:1005E000B800002095ED0C0AA4F8FC00B8EEC00A93
:1005F00020EE200ABDEEC00A84ED2D0AA86AC4F8D8
:100600000001002084F80401BDE8F08110B5044623
:100610000020E17B042906D108202071002084F805
:10062000BC00012010BD2179F9B92068006801F0F3
:1006300031FE012020710020A073E07384F8BC001B
:10064000A4F8E80084F8EA00A4F8EC00C4F8F0008C
:10065000C4F8080184F8F400A06A6062002084F8FD
:10066000600084F86C000120A08110BD10B5044624
:100670002068006801F013FE2079062818BF0728BB
:1006800003D00A281CBF0020207110BD000000000C
:1006900030B5044681B02079D4F80C51401E0728AB
:1006A00000F2BF80DFE800F00404040425BDBD446F
:1006B0002068006801F0ECFDA0B10720207107213F
:1006C0002068C06801F00EFE2068006801F0ABFDF4
:1006D00094ED3E0ADFED550A20EE200A204601F097
:1006E000B3FB99E0204601F02BF884ED3E0A01B0FF
:1006F00030BD2068006801F0CBFD002800F091803B
:100700000720207107212068C06801F0EBFD2068F8
:10071000006801F088FD94ED3E0ADFED440A20EE0A
:10072000200A204601F090FB606AC4F8F80073E0EC
:10073000E07B042875D02068006801F0A9FD00283E
:100740006FD094ED3E0ADFED390A20EE200A2046F4
:1007500001F07AFB606AC4F8F800DFED350A95ED28
:10076000010A20EE200AD5ED020A20EE200AD5ED7E
:100770000E0A80EE200AD4ED090A20EE200ABDEE12
:10078000C00A10EE100A451E2068006A2AB2002135
:1007900002F037FA2068006A2AB2012102F031FA29
:1007A0002068006A2AB2022102F02BFA2068006A4F
:1007B0002AB2032102F025FA2068006A2AB2042135
:1007C00002F01FFA94F8BC00012816D120680069D5
:1007D00001F072FC00EE100AB8EEC00AF1EE080A51
:1007E00020EE200ADFED130A20EE200ABDEEC00A3B
:1007F00084ED2D0A204601F0A9FA06202071072178
:100800002068C06801F06EFD2068006801F00BFDF3
:1008100040F6B830A4F8FC00DFF89C0B4188491C76
:10082000418001B030BD0000CDCCCC3E6666663F55
:1008300000008047CDCC4C3F0030024061000008F2
:10084000B40000200AC34C3033BB55AAB71DC10405
:100850009D0000088D0100085C0400202DE9F04F88
:1008600081B0064600242DED048B3079D6F80C813A
:10087000D6F80890401E082886B000F27885DFE898
:1008800010F009004C00090074006001760576053F
:10089000DF02690596ED090A304601F007F80128E4
:1008A0001DD1307901280BD102203071484601F06A
:1008B0006DFBB8F81E204EF66021484601F083FB20
:1008C000307903284AD104203071484601F05EFB9C
:1008D000B8F82020B189484601F075FB3EE0B089A8
:1008E0004EF66021884239D1B481304600F028FFAD
:1008F0006FF0130086F8A800F6EE000A96F86C0078
:10090000401C86F86C0020EE200AC0B2032886ED59
:10091000090A23D30920307120E096ED090A3046F8
:1009200000F0C4FF484601F03AFB484601F08EFB58
:10093000A0B103203071F5EE000AF4676FF01300E8
:1009400096ED090AC6F8804020EE200AC6F88440D9
:1009500086ED090A86ED0B0A86F8A8003068B18991
:10096000006801F0A1FC00F009BD96ED090A3046CF
:1009700000F09CFFB489484601F011FB304600F0BE
:10098000DFFED6F88400D6ED1F0AD6F80C71401CA5
:1009900030EE800AC6F8840086ED1F0A3068406891
:1009A000FFF742FB00EE900AF8EE600A97ED031A9B
:1009B0009FEDBB0A60EE810A01EE104AB8EE411AC3
:1009C00060EE800A21EE000A96ED201AC6ED0C0AB0
:1009D00000EE201A86ED201A484601F037FB002869
:1009E00000F0208296ED210A96F86000D6ED1F0AED
:1009F00096ED201AB8EE400A80EE800A06EB8000E1
:100A000086ED190AD6ED210A80ED100AF8EE600A8B
:100A100096F8600006EB8000C1EE200AC0ED140AD3
:100A200096F86000401C86F86000C0B2042814D21A
:100A30006FF0130086F8A8000020F067C6F8800069
:100A4000C6F8840096ED090AD6ED0B0A30EE200AAE
:100A5000032086ED090A3071E4E1052030710020A1
:100A6000B073484601F092FA64224EF6602148467F
:100A700001F0A9FA96ED111AD6ED151A96ED142A81
:100A8000D6ED102A31EEC22A71EE622A96ED120AD4
:100A9000D6ED160A82EE222ADFED822A70EEE11AE6
:100AA00030EE411A32EE222A81EE811AD6ED171A63
:100AB00071EEE00AD6ED131A31EEC00A32EE011AD9
:100AC00080EE800A31EE000AF0EE080A80EE200A7D
:100AD00086ED0D0A98F82C0010BBD8ED050A30EE13
:100AE000600ADFEDD30AB4EE600AF1EE10FA86ED8B
:100AF0000D0A03D5DFF8980D706305E0F6EE000AE5
:100B000020EE200A86ED0D0ADFEDCA0A96ED190ADD
:100B100020EE200A002086ED1A0AB067706781E196
:100B20000A20307107213068C06801F0DBFB3068B3
:100B3000006801F078FB3068006801F0B0FB002429
:100B400070E1304600F0FCFDB07B10B1022808D007
:100B500016E0DFEDB90AB4EE600AF1EE10FA0FD537
:100B60000BE0D6ED1A0AB489B4EE600AF1EE10FA81
:100B700003D5306F401C306702E0484601F06CFA44
:100B8000484601F00CFA484601F060FA002800F0EF
:100B90004981B07B18B102280DD007D342E1012072
:100BA000B073484601F0F2F90A2236E10220B07330
:100BB000002030672DE10020B07396ED1C0AD6EDC1
:100BC000040A706F96ED1E1AB8EE400A20EE200A55
:100BD000D6ED0D0A00EE201A401C142886ED1E1AD0
:100BE000706740F016810620307107213068C068B8
:100BF00001F078FB3068006801F015FB0020A6F8D2
:100C0000FC0000243068006801F049FB96ED1D0AE5
:100C1000D6ED1E0AD6F80C71B8EE400A80EE800AB6
:100C200086ED0E0AA24630684068FFF7FDF900EE37
:100C3000900AF8EE600A97ED031A9FED190A60EE2C
:100C4000810A20EE800A86ED0C0A1021D8ED010AF7
:100C500096ED0D2A96ED0E1AD6ED2B1A20EE200AEF
:100C6000D8ED020A20EE200AD8ED0E0A80EE200A06
:100C7000D6ED400A21EE201A62EE200A96ED042AF3
:100C800081EE001A60EE820A61EE211A80EE800A7F
:100C900010270D46A3460F2047F6FF72012305E0FB
:100CA0000000803700000000102910D103FA00FC7A
:100CB00000EE90CAF8EEE00A60EE810AFDEEE00A6E
:100CC000CDED000ADDF800C09445B8BF41B2BFB217
:100CD000102F0ED103FA00FC00EE90CAF8EEE00AE5
:100CE00060EEA10AFDEEE00A10EE90AA9245B8BFB0
:100CF00047B2ADB2102D0ED103FA00FC00EE90CA3F
:100D0000F8EEE00A60EE800AFDEEE00A10EE90BA1E
:100D10009345B8BF45B2401E89B2C5D510290AD047
:100D20003068806901F0DFFF30680099806909B29E
:100D300001F0C9FF01E009203071BFB2102F0BD0C4
:100D40003068C069394601F0CEFF3068C0690FFADB
:100D50008AF101F0B8FF01E009203071ADB2102D29
:100D600016D030688069294601F0C5FF3068C06937
:100D7000294601F0C0FF306880690FFA8BF101F05D
:100D8000A4FF3068C0690FFA8BF101F09EFF01E00B
:100D900009203071DFED290A98ED010A20EE200AC2
:100DA000D8ED020A20EE200AD8ED0E0A80EE200AC5
:100DB000D6ED090A20EE200ABDEEC00A10EE100A98
:100DC000471E3068006A3AB2002101F01AFF30680D
:100DD000006A3AB2012101F014FF3068006A3AB2A9
:100DE000022101F00EFF3068006A3AB2032101F0DF
:100DF00008FF3068006A3AB2042101F002FF30684F
:100E0000B8F81E20006A214601F0EFFE304600F0DF
:100E10009DFF484601F0BAF864224EF6602148462C
:100E200001F0D1F830680068214601F03DFAA5E2F2
:100E3000CDCC4C3E9ED2213F0AD7233C00008047B8
:100E40003068C068FFF7E0F8001F022805D9C01E0F
:100E500000F074820FF264508BE23068806A01F017
:100E600080FFFFF7D5F8044630688068006800907E
:100E7000FFF7DEF882462146FFF7CEF80090306893
:100E80008168BDF90020B1F910108069891AFFF757
:100E9000C7F8ADF8040030688168BDF90220B1F9E7
:100EA0001210C069891AFFF7BBF8ADF80600306868
:100EB0000199406902F01AF801902146FFF7BCF849
:100EC0000546306800682946FFF7BAF807463068DB
:100ED0008068C0F804A0CDF810A031688968009837
:100EE000C860316889680198C1F816003068806868
:100EF000D0F81A00039030688068C0F81A50306843
:100F00008068048430684068FFF78EF8ADF81400FC
:100F100003A93068406AFFF797F8ADF80800306819
:100F2000406AFFF795F83068006902A9FFF78CF86E
:100F3000F07B052800F22382DFE810F006009B001A
:100F400021026B01B5019C01304600F01DFD022815
:100F500086F8F40038D13068006901F0ADF800EB94
:100F600040014800C6F8B400062190FBF1F000B241
:100F700000EE100AB8EEC00ADFEDBD0A20EE200A2E
:100F8000B5EE400AF1EE10FA3068406A48BFB1EEA3
:100F9000400ABDEEC00A10EE101A89B202F0F7FC4A
:100FA0000120F07306B00020C6F88800C6F88C0057
:100FB000C6F89000C6F89400C6F89800B8B2BDEC28
:100FC000048B01B0BDE8F08F012800F0D881032820
:100FD00023D196ED2E0ABBEEEF0ABCEEC00A86EDD9
:100FE0002E0A304600F0B2FE06203071072130682C
:100FF000C06801F077F93068006801F014F900204A
:10100000A6F8FC00EC488188491C818006B0B8B283
:10101000BDEC048B01B0BDE8F08F042840F0AF8137
:1010200096ED3C0AB8EE400ADFEDD80A20EE200A21
:10103000BDEEC00A86ED2D0A304600F087FE062080
:10104000307107213068C06801F04CF930680068E1
:1010500001F0E9F840F6B830A6F8FC00D648C1889F
:10106000491CC18006B0B8B2BDEC048B01B0BDE82C
:10107000F08F3068D8ED010A8068D6F80C41B0F9DD
:101080000C009FEDC31A60EE810A98ED021A60EE23
:10109000810A98ED0E1A00EE100AC1EE200AB8EE91
:1010A000C00A96ED221A00EE201A86ED221A306848
:1010B0004068FEF7B9FF00EE900AF8EE600A94ED82
:1010C000031A9FEDB40A60EE810A20EE800A86EDD5
:1010D0000C0ADFEDB10A30688068B0F9160001EE45
:1010E000100AB8EEC11A21EE000A96ED231A00EE9E
:1010F000201A86ED231A42F21071306896ED0C1A10
:101100008068B0F9180000EE100AB8EEC00A20EEB0
:10111000010AD6F8980096ED241A00EE201A401C19
:10112000884286ED241AC6F89800C0F0288100EEA7
:10113000100A0020C6F89400C6F89800B8EE400ADD
:10114000D6ED220AC6F8880080EE808AD6ED230A02
:10115000C6F88C00C0EE808AD6ED240AC6F890004E
:1011600080EE809A3068006900F0A6FF00EE100A59
:10117000B8EEC00AF2EE040A80EE200ADFED870A1C
:1011800060EE209AD6ED0D0A40EEC88AD6ED060A2A
:1011900020EE200ADFED820A20EE200AD6ED0E0AAC
:1011A00020EE200A00EE089A28EEA80A09EE090AA5
:1011B000B5EE400AF1EE10FA04DB02F0EDFBB0EE02
:1011C000408A01E09FED778A9FED770A28EE000ABA
:1011D000DFED760A20EE200A80EE290A86ED0F0A5E
:1011E0003068C06A03F097FAD6ED0C0A9FED701ACA
:1011F00089EE880AC0EE810A20EE200A06B086ED4C
:10120000270A0220F073B8B2BDEC048B01B0BDE830
:10121000F08F484600F0C3FE484600F017FF002854
:1012200000F0AD803068406A00F046FF00EE100A22
:10123000BAEE670ABDEEC00A10EE100A00B200EE68
:10124000100AB8EEC00ADFED0A0A20EE200AB5EE59
:10125000400AF1EE10FA3068406A48BFB1EE400A29
:10126000BDEEC00A10EE101A89B202F090FB0EE03B
:10127000CDCC8C3F3068006A01F0B1FC08B103208E
:10128000F0733068C068FEF7BFFE062877D10420EF
:10129000F07306B0484900200870B8B2BDEC048B6A
:1012A00001B0BDE8F08F3068C06A03F037FA00285B
:1012B00065D13068406A00F0FFFE80463068406AC1
:1012C00002F053FB00EE100AB8EEC08A00EE108A5E
:1012D000B8EEC00AF1EE080A20EE200A10EE100A5D
:1012E00003F020FA0446D6F89C000D4603F01AFAE3
:1012F000DFF8402BDFF8383B03F038FA22462B4664
:1013000003F006FB02D22C49012008709FED290A48
:10131000B4EE408AF1EE10FA31D527480078012862
:101320002DD13068C0680022202101F03FF806B0BE
:10133000B8B2BDEC048B01B0BDE8F08F3068006836
:1013400000F071FF347106B0B8B2BDEC048B01B08F
:10135000BDE8F08F3068C068072100F0C3FF34712A
:1013600006B0B8B2BDEC048B01B0BDE8F08F0FF24F
:101370005000016830680068FEF762FE074606B05C
:10138000B8B2BDEC048B01B0BDE8F08FCDCC4C3FC2
:10139000000080470000803746CD93370000704240
:1013A000DB0FC9400000000071C49C3F00007A447C
:1013B000D7B3DD3FA52BDD4C880D002000000000D9
:1013C0000000000070B586B004462068A568C068BB
:1013D000FEF71AFE2179062908D0C0F0AF8108294E
:1013E00000F08280C0F09A8106B070BD0B2800F238
:1013F000A581DFE810F00C00A301A301A3015900AF
:10140000A301A301A301A301A301A3019F01B4F8B8
:10141000FC0040B1401EA4F8FC002068006800F009
:101420002EFF06B070BD94ED050AD4ED0E0A94EDC2
:101430000D1A20EE802A81EE022AF7EE002AF5EE40
:10144000001A32EEC22A22EE212AF5EE002A72EEAE
:10145000222AB8EE003A72EE832AC1EE200A42EE4A
:10146000800AC4ED280AF7EE000A70EEC20ABDEE4B
:10147000001A70EE810A94ED050A42EE210A60EE30
:10148000800A20EE800AD4ED0E0A20EE200A84EDB8
:10149000290A03212068C06800F024FF2068006842
:1014A00000F0C1FE06B070BD0820207106B000201B
:1014B000E07384F8BC00A4F8E80084F8EA00A4F81B
:1014C000EC00C4F8F000C4F80801012084F8F4002E
:1014D0000020C4F88800C4F88C00C4F89000C4F858
:1014E0009400C4F8980070BDE07B022840F026818B
:1014F000D4ED272A94ED0F3A62EE832A9FEDA43AA9
:1015000062EE832A9FEDA33AC2EE832ADFEDA21A90
:101510009FEDA12A9FEDA01A9FED9F0ADFED9E0A85
:101520000E209FEDD94A9FEDD93A012101FA00F230
:10153000D4ED054A94ED0E5A94ED0D6A03EE902A0F
:1015400065EE245AF8EEE33AC6EE255A65EEA35A44
:10155000F4EE435AF1EE10FA32DA94ED281A81EEE5
:10156000241A21EE231AB4EE431AF1EE10FA27DA08
:10157000B4EE441AF1EE10FA22D4D4ED081A65EE56
:10158000211A61EEA44AC2EEA41A61EEA31AF4EE87
:10159000431AF1EE10FA13DAB4F91C2002EE102A05
:1015A000B8EEC22A82EE242A22EE232AB4EE432A7F
:1015B000F1EE10FA04DA00EE100AB8EEC00A03E009
:1015C000401E40B20128B1DA5FF00E0094ED295AB6
:1015D00094ED086A01FA00F225EE065A04EE902A0C
:1015E00085EE225A94ED056AF8EEE44A85EE065A35
:1015F00025EE245AB4EE435AF1EE10FA04DAB4EEB2
:10160000445AF1EE10FA04D5401E40B20128DDDA4A
:1016100003E000EE900AF8EEE00AFDEEE52A12EE95
:10162000900AADF80000BDEEC11A11EE100AADF837
:101630000200BDEEE11A11EE100AADF80400BDEE95
:10164000C51A11EE100AADF80600BDEEC21A11EE71
:10165000100AADF80800BDEEE31A11EE100AADF85D
:101660000A00BDEEE41A11EE100AADF80C00BDEE52
:10167000C00A10EE100AADF80E00BDEEE00A10EE42
:10168000100AADF8100000A92068406A01F086FE3B
:1016900094ED271A94ED050AD4ED060A2068406AF5
:1016A000DFEDB51A61EE211A61EEA01A20EE002AD4
:1016B000C1EE821AB5EE002A61EE821AFDEEE11A41
:1016C00011EE902ADFEDAD1A21EE211A61EE200A0B
:1016D00080EE800ABDEEC00A10EE101A12B209B2F6
:1016E00002F020F920680069FEF792FC06462068A7
:1016F000006900F0E4FC01462068406A324602F0CE
:1017000020F9284600F042FCFA224EF660212846D5
:1017100000F059FC0320E07306B070BD40B92068AA
:10172000C068032100F0DEFD0020207106B070BD0E
:101730000B2803D12068C06800F04FFE06B070BDD2
:10174000D0F80C11006891ED010A8068DFED8C0A79
:1017500020EE200AD1ED020A20EE200AD1ED0E0A79
:10176000B0F90010B0F9020080EE800A00EE901A85
:10177000F8EEE00A01EE100A60EEC00AB8EEC11AF7
:1017800041EE400AB6EE000A20EE800A70470000E3
:101790008104B53F0080D844000000000520704758
:1017A00030B5044681B02068C06A02F0D0FE002542
:1017B000012808BF84F804512068C068FEF724FCA3
:1017C0000A2804BF84F80451257120790A281BD8FF
:1017D000DFE800F006090D111111151515061900A5
:1017E00094F8040180B10125284601B030BD0225DE
:1017F000284601B030BD0325284601B030BD042580
:10180000284601B030BD0E25284601B030BD90ED10
:101810000D0A03F094B890ED0E0A03F090B890ED25
:101820000F0A03F08CB890ED0C0A03F088B8C17B66
:1018300004291CBF01790A291CD10021C17380F839
:10184000BC10A0F8E81080F8EA10A0F8EC10C0F87E
:10185000F010C0F8081180F8F4100A22D0F8B01087
:1018600091FBF2F1C0F8B8104FF4FA71C0F8B8105B
:1018700000210171012180F804110021DFF8B80670
:1018800041808180C180704700FEFFC601FEFF4697
:10189000CDCCCC3D10B504462068006800F0C3FCF8
:1018A0000020207184F8040110BD00009FED341A5F
:1018B00001460020D1F80C21D2ED010A60EE810A28
:1018C00092ED021A60EE810A92ED0E1A0A68926891
:1018D000135EB2F90220C1EE200A01EE103AB8EE12
:1018E000C11A01EE902A21EE601AF8EEE11A01EE1B
:1018F000E01AF6EE000A61EE200AF4EE400A8A8948
:10190000F1EE10FA1EDB0AB1521E8A8130EEC00AD7
:10191000DFED1C0AB4EE600AF1EE10FA21D491F862
:10192000A820521E81F8A82052B212F1130F03DA38
:101930006FF0130281F8A82091F9A810002958BF70
:10194000012070474EF6602330EE600A9A42DFEDC8
:101950000D0ABCBF521C8A81B4EE600AF1EE10FA87
:10196000DDD591F8A820521C81F8A82052B2142A83
:10197000E2DB1422DEE70000B0EDB74900000544C9
:1019800000008047CDCC4C3E70B504462DED068B53
:10199000D4F80C012168D0ED010A8968D4F80C61F3
:1019A000B1F90C109FEDE21A60EE810A90ED021A77
:1019B00060EE810A90ED0E1A00EE101AC1EE200AB8
:1019C000B8EEC00A94ED221A00EE201A84ED221A15
:1019D000012520684068FEF727FB00EE100AB8EEEC
:1019E000400AD6ED030A20EE200ADFEDD20A20EEEF
:1019F000200A84ED0C0ADFEDD00A20688068B0F977
:101A0000160001EE100AB8EEC11A21EE000A94ED9C
:101A1000231A00EE201A84ED231A206894ED0C1A84
:101A20008068B0F9180000EE100AB8EEC00A20EE87
:101A3000010A94ED241A00EE201A84ED241A20687D
:101A4000006900F039FB00EE100AB8EEC00AD4EDD0
:101A5000060AD4F8980020EE200AF2EE040A80EE7E
:101A6000200AD4ED250A42F2107130EE200A401C03
:101A7000884284ED250AC4F89800C0F0548100EE35
:101A8000100AB8EE400AD4ED220A80EE809AD4ED16
:101A9000230A80EE80AAD4ED240AC0EE809AD4ED09
:101AA000250A80EE808AB5EE408A0020F1EE10FA19
:101AB000C4F88800C4F88C00C4F89000C4F89400FE
:101AC000C4F8980000F02F812068006900F0F4FA53
:101AD00000EE100AB8EEC00AF1EE080A20EE200A65
:101AE000BDEEC00A10EE106A9FED940A68EE008AFF
:101AF00094ED0D0A00EE49AA94ED0E0A28EE800A34
:101B000040EE099A2AEE0A0A09EEA90AB5EE400A41
:101B1000F1EE10FA04DB01F03FFFB0EE409A01E075
:101B20009FED879AB4F8E80004EB800080ED309ACE
:101B3000B4F8E80004EB8000C0ED358AB4F8E800A2
:101B4000401CA4F8E80080B2052804D30020A4F8C3
:101B5000E80084F8EA5094F8EA00002800F0CB800E
:101B6000D4F8B00002F0F0FEDFF8C822DFF8CC3382
:101B700002F0FCFD02F0FAFEB04280F2BC809FED64
:101B8000702A04F1D401B1EE043AD1ED001A91EDBE
:101B9000011AD1ED020A91ED030AD1ED042A31EECA
:101BA000822A32EE012A32EE202A32EE002A32EE6A
:101BB000222A04F1C00082EE033A71EEC31A31EE1C
:101BC000431A70EEC30A30EE430A72EEC32A90ED58
:101BD000005ADFED5B5A9FED5A6A90ED013A41EEF3
:101BE000855A01EEA16AD0ED023A41EE035A01EEA8
:101BF000016A90ED034A40EEA35A00EEA06AD0EDD0
:101C0000044A40EE045A00EE006A9FED4D0A35EE9C
:101C1000000A30EE030A30EE230A42EEA45A02EE26
:101C2000A26A30EE040AC5EE869A30EE240A02EE6D
:101C3000690AF1EE040A80EE20AA08EEA9AA1AEEBB
:101C4000100A02F06FFD4FF04C42DFF8F43202F060
:101C50008DFD02F0A9FE00EE100AB4EE490AF1EE85
:101C600010FA2BD51AEE100A02F05CFD4FF01A4262
:101C7000DFF8D03202F07AFD02F096FE00EE100A94
:101C8000B4EE409AF1EE10FA18D59FED2E0AD4ED7D
:101C9000060A80EE200AB4EE690AF1EE10FA0DD5BC
:101CA00094F8BC0038B9D4F8B4003018032190FB84
:101CB000F1F0C4F8080184F8BC501CE094F8BC00B2
:101CC000012810D19FED200A28EE000AD4ED060A63
:101CD00080EE200A0020BCEEC00A84F8BC00042577
:101CE00084ED3C0A1DE0B4F8EC00401CA4F8EC00C4
:101CF00080B2042808DA2068006AFEF7ADF90028EF
:101D000094F8BC0002D050B9032509E058B1D4F8CA
:101D10000801B04207D22068006A00F08FFF022558
:101D20000020A4F8EC00BDEC068B284670BD000036
:101D3000000080470000803746CD9337DB0FC94055
:101D40000000000017B7D13A0000704230B581B0F2
:101D500004462DED028BD4F8B80094ED2D0AB8EEB0
:101D6000C00AF1EE080A01EE100AC0EE200AB8EE31
:101D7000411A80EE010A9FED6A1A20EE018A9FED5A
:101D8000690AB4EE408AF1EE10FA0DDB00EB801028
:101D900000EE100A84ED2D0AB8EEC00AF1EE080A32
:101DA000C0EE200A9FED608ABDEEE00A10EE105AE8
:101DB0002DB200EE105AB8EEC00ADFED5C0A20EE3C
:101DC000200AB5EE400AF1EE10FA2068406A48BFDA
:101DD000B1EE400ABDEEC00A10EE101A89B201F051
:101DE000D6FD2068006A2A46012100F004FF206821
:101DF000006A2A46022100F0FEFE2068006A2A4698
:101E0000032100F0F8FE2068006A2A46042100F051
:101E1000F2FE2068006ABDEEC80ABDEC028B10EE2F
:101E2000102A01B0BDE8304092B2012100F0DDBEC1
:101E30009999E93F9A99999900EE101AB8EE400ADB
:101E400080ED060A7047000030B581B00368D0F815
:101E50000C119A6ADC6A80ED090AF5EE000A60EE60
:101E6000200AC0ED0B0A80ED0A0ADFED310A20EEF0
:101E7000200AD1ED010A20EE200AD1ED020A20EE5F
:101E8000200AD1ED0E0A80EE200ABDEEC00A10EE47
:101E9000105A1AB1A9B2104601F00DF834B1A9B226
:101EA000204601B0BDE8304002F0E6BB01B030BDD5
:101EB00090ED0A0A704780ED2B0A704790ED2B0ACF
:101EC000704700000268D26A11B9D0F80C11096B92
:101ED000C0F8B0100A23D0F8B01090ED2C0A91FB96
:101EE000F3F1C0F8B810B8EEC00A4FF4FA71C0F8B8
:101EF000B810DFED100A20EE200ABDEEC00AD0F8BF
:101F0000B01080ED2D0A104602F002BCD0F8B000EF
:101F10007047D0F8B4007047D0F8B80070470000A0
:101F200000007A4401FF7F4700E87D47CDCC8C3F1D
:101F300000008047CDCCCC3E880D00209999B93F58
:101F4000CCCCEC3F9999F13F90ED0A0A704780EDB7
:101F5000400A704790ED400A7047D0F80C01808E1F
:101F60007047D0F80C0190F836007047354A137866
:101F7000042B014607D2C3EBC30C02EB8C005B1CA5
:101F8000001D137000E00020416100E000BF00214F
:101F9000016041608160C160012101617047836817
:101FA0000268012B04D9C1685B1E8A18836005E0B2
:101FB00004D1426801694A430021816002600069DE
:101FC00092FBF0F070472DE9F84F05460E46286861
:101FD00029696F69140090FBF1F808D1304600F0D0
:101FE0003FF8286146432E600020A86025E0A6EB5C
:101FF0000809484600F034F88246404600F030F8C0
:102000008346304600F02CF8DA4528BFDA46824590
:1020100088BF8246C5F810A00AFB08F028606E60F1
:102020003888094A4443A4FB02212869490A491C0B
:1020300000FB09F2A96092FBF1F0E8600120BDE825
:10204000F28F0000240B0020986E128301460020BE
:10205000896801B90120704700218160C160704723
:10206000010048BF494201220120C2F11F0300FACA
:1020700003F38B4203D3521CD3B2202BF5D3511E52
:1020800088407047084A1378032B014609D29C46C2
:102090002C2010FB0CFC02EB0C005B1C001D1370D1
:1020A00000E0002041627047AC090020011D0A6A6F
:1020B0001378CB7709680847B0F91C007047B0F96E
:1020C0001E0070474269104700F1080100228A761D
:1020D00009680847F8B504460F46606A86792269A0
:1020E00020469047012508B9304626E000217A5E57
:1020F00094F822001300636A5F8848BF52421FFAB7
:1021000082FC67459F8838BF012192B2BA42B4F978
:1021100020201B8938BF0121170048BF524292B2CC
:10212000934200D319B1B04204DA401C02E0B0423D
:10213000B8BF0020C1B2B14200D1002584F822000E
:102140002846F2BDB0F91C10406AB0F90220C1EB7C
:10215000C13191FBF2F000B2704790F82300704754
:1021600080F823107047F0B4024610689568131881
:10217000506803EB5004C00721D54D441FE0F0BC6C
:1021800002F10C00704713F8017B05F8017B491E32
:10219000F9D1A0B1B60813F8011B06F00306032E0F
:1021A00008BF13F8016B01EB06214942801C29444A
:1021B00005D011F8016B05F8016B401EF9D1A3425F
:1021C000DDD013F8016B16F0030104BF13F8011BF7
:1021D000C91C30090F28DAD113F8010B0F30D6E7EC
:1021E000064A01461078002803BF101D0123137012
:1021F0000020C1660021016470470000AC0A002085
:1022000038B500F150044DF6B451E5692A884A43C7
:10221000920B00232280237341688847002020838B
:10222000A888608331BD002180F85C10C168084730
:10223000002180F85C100169084770B5044600254C
:1022400008000CD104F15C0620463570E16888472F
:102250003069418871803169488870B909E0012985
:102260000BD104F15C01488830B1401E488080B237
:1022700018B96169204688470125284670BD0121AB
:1022800080F85C1081690847826B1047C26910476B
:10229000C16B0847416C002918BF08477047816C23
:1022A000002918BF0847704780B5C36C01220BB1E5
:1022B00098470246104602BD06490A78022A06D20D
:1022C00002EB42000844521C001D0A7070470020B7
:1022D00070470000640D0020002101704170817082
:1022E0007047000018B40246084613780021122BEC
:1022F0000DD8DFE803F0212748334346484A4C4FC6
:102300000C0C0A2D2F313D3F4100040046D003281C
:102310001CBF0128072846D0507840F0800050703C
:102320000A2B907840F0800090705078507037D130
:10233000002838D10B2035E00446032C2ED0012C88
:102340002AD12BE0072818BF0D2827D00E281FE020
:102350000E2814E00F2812E0022810E0072818BF0A
:1023600010281BD0042818BF112817D001280FE00F
:10237000112804E0122802E0042800E0052802D118
:102380000CE006280AD0072802E0082800E0092807
:10239000BDD103E0040001D00C2CB8D1012101E033
:1023A00008B10A201070084612BC704710B40346EA
:1023B0005C7818780C435C709C78214399700A28EB
:1023C000597821EA02025A7002D122B90B2001E0A9
:1023D0000AB10A20187010BC7047014600200A7824
:1023E0000B2A04D109200870002088700120704752
:1023F00001468878497840EA01407047DFF800F0EC
:102400002511001030B5DFF8C84481B00120A0606C
:10241000DFF8C0042060256800F0A4F885421CBFE6
:1024200020688047DFF8B0040021016041600FF2AE
:102430004D0181600021C1600161416101B030BD89
:1024400030B5DFF88C4481B00120A060DFF884044F
:102450002060256800F086F885421CBF2068804710
:10246000DFF874040021016041600FF24D018160CA
:102470000021C1600161416101B030BD00B5DFF8EC
:10248000500481B001218160DFF85024DFF850143E
:102490000160016891421CBF00688047DFF8380482
:1024A00000210160416081600FF22531C16000218F
:1024B0000161416101B000BD00B5DFF8140481B0D5
:1024C00001218160DFF81424DFF814140160016831
:1024D00091421CBF00688047DFF8FC0300210160C7
:1024E00041608160C16001610FF20901416101B089
:1024F00000BD000000B5DFF8D80381B00121816084
:10250000DFF8D823DFF8D8130160016891421CBFBF
:1025100000688047DFF8C003002101600FF2C92185
:10252000416000218160C1600161416101B000BD75
:1025300000B5E74881B001218160E84AE8490160BF
:10254000016891421CBF00688047E3480FF269218F
:102550000160002141608160C1600161416101B0A1
:1025600000BD0000F0B5A0B0002300A94FF0FF327D
:1025700022FA03F404F0010441F8044B5B1C22FA34
:1025800003F404F0010441F8044B5B1C22FA03F449
:1025900004F0010441F8044B5B1C22FA03F45B1CB9
:1025A00004F00104202B41F8044BE1D30021CD4A73
:1025B00000AB9D6FDC6F5E6FAD0705EBC47505EB7F
:1025C00046751E6F05EB0675DE6E05EBC6659E6EE5
:1025D00005EB86655E6E05EB46651E6E05EB0665D2
:1025E000DE6D05EBC6559E6D05EB86555E6D05EB04
:1025F00046551E6D05EB0655DE6C05EBC6459E6C1B
:1026000005EB86455E6C05EB46451E6C05EB064505
:10261000DE6B05EBC6359E6B05EB86355E6B05EB19
:1026200046351E6B05EB0635DE6A05EBC6259E6A50
:1026300005EB86255E6A05EB46251E6A05EB062539
:10264000DE6905EBC6159E6905EB86155E6905EB2F
:1026500046151E6905EB0615DE6805EBC6059E6886
:1026600005EB86055E6805EB4605009E7519C1F110
:102670001F0620FA06F707F00106744000940226B0
:10268000009C6C4004F001045C6002AC009F22FAE4
:1026900006FC0CEA0707A6F1010C25FA0CFE8EEAEF
:1026A000070707F0010744F8047B761C009F22FA15
:1026B00006FC0CEA0707A6F1010C25FA0CFE8EEACF
:1026C000070707F0010744F8047B761C009F22FAF5
:1026D00006FC0CEA0707A6F1010C25FA0CFE8EEAAF
:1026E0000707761C07F00107202E44F8047BCDD3A2
:1026F000491C2029FFF45DAF996FD86F890701EB62
:10270000C070596F00EB4170196F00EB0170D96E0A
:1027100000EBC160996E00EB8160596E00EB416087
:10272000196E00EB0160D96D00EBC150996D00EBA3
:102730008150596D00EB4150196D00EB0150D96C7F
:1027400000EBC140996C00EB8140596C00EB4140BB
:10275000196C00EB0140D96B00EBC130996B00EBB9
:102760008130596B00EB4130196B00EB0130D96AB5
:1027700000EBC120996A00EB8120596A00EB4120EF
:10278000196A00EB0120D96900EBC110996900EBCF
:102790008110596900EB4110196900EB0110D968EB
:1027A00000EBC100996800EB8100596800EB410023
:1027B0000099081820B0F0BD474800210160454944
:1027C000416000218160C16001614161704700008A
:1027D0004148002101604449416000218160C1609D
:1027E00001614161704700003B48404901600021A0
:1027F00041608160C1600161416170473C4A11786C
:10280000002903BF111D012313700021C1F890009E
:10281000084670472DE9F04F83462F4CDBF8905067
:102820006E6881B02068884691469A468047606805
:102830008047CBF80080CBF804900027A068804741
:10284000E0688047CBF878A00A98CBF880006068F1
:102850008047A06880478BF884708BF8857060692A
:10286000804760688047206880470BF116000EE0C3
:10287000318820F8021C7F1C71880180FFB2B1886A
:10288000418000F10A01C0F806100C30B6680EB1A4
:10289000082FEDD307EB47010BEB81010020086106
:1028A0006421688AABF86800288AABF86C000020C5
:1028B000CBF8700028888BF8747048434FF47A7115
:1028C000B0FBF1F08BF88D0001B0BDE8F08F000097
:1028D00000300240052400089C0000200AC34C3050
:1028E00033BB55AAB71DC104412400083125000897
:1028F000140900202DE9F04381B004460020D4F8EB
:102900000490D4F8008084F88500C4F88800A0748E
:1029100084F87C0084F884000D46D4F89060258209
:102920004846FFF7D1FB0021404600F02BFA7088A3
:1029300010FB05F109B24846FFF7C4FB0022002155
:10294000404604F1140700F021FAB8883A8810FBD9
:1029500005F109B2404600F019FA78883A8810FB70
:1029600005F109B2484602F0D5F838883188484365
:102970004FF47A71B0FBF1F0401C2081B868E06040
:1029800001B0002084F88C00BDE8F0832DE9F04F01
:10299000044681B0E668D4F890503088ADF8000065
:1029A00001272089002800F0C280401E2081287D58
:1029B000002800F0B980A07C002840F0B58094F891
:1029C0008500002840F0AD8094F88C0094F88D10BC
:1029D000401C84F88C00C0B2814207D2A06FFFF780
:1029E0000DFD002084F87C0084F88C00A06F00F0BE
:1029F000C0FF70B194F87C007F280ED2401C84F890
:102A00007C00A06FFFF758FBD4F8881001FA80F023
:102A100001E084F87C00C4F8880094F87C0094F805
:102A20008D10B0EB510F40F07F80A06FFFF744FB9B
:102A30008046B8F1000F46BFC0F100090FFA89F9CE
:102A4000C146B4F91000012808DBB8F1010F08DA1B
:102A5000002084F87C00C4F8880065E0B8F1000F1D
:102A6000F6D568891FFA89F1884205D2A06F00F077
:102A700084FF84F8857057E0A889884254D2606842
:102A800002F0B4F8A06F4FF0000A00F07BFFD346CD
:102A900009E0B06868B1B6F904B0E0600646A07C11
:102AA000401C8A46A074B6F9020048451FDAB16896
:102AB00011B90020208137E08246A07CB6F904B02D
:102AC000E160401C0E46A074B6F9020048450EDADB
:102AD000B1680029EDD08246B6F904B0A07CE1606F
:102AE0000E46401CA074B6F902104945D1DBB6F978
:102AF0000400B6F90210A0EB0B0000FB08F0A1EBFC
:102B00000A0190FBF1F00BEB00012068002209B2F2
:102B100000F03CF904F16800E06027810620A07411
:102B200002E0A06F00F029FF2089002853D1E0685F
:102B30000028287D40D0C0B1A07C68B9D4F88000BE
:102B4000FFF771FBD4F8800084F88470FFF797FBDF
:102B5000002084F87C0008E0012806D1D4F8800029
:102B6000FFF766FB002084F88400B088218ABDF856
:102B7000008010FB01F12068424609B200F006F91E
:102B80007088218ABDF8002010FB01F1606809B24D
:102B900001F0C0FF288800FB08F04FF47A71B0FB09
:102BA000F1F0401C208101B0B068E060A07C401CC6
:102BB000A0743846BDE8F08F00281CBFA07C042814
:102BC00008D0072807D10020A074208101B0384622
:102BD000BDE8F08F0027384601B0BDE8F08FC0682F
:102BE000002100B901210846704701EB410300EBC9
:102BF00083008282704701EB410300EB8300C282B5
:102C0000704701EB410300EB83000283704701EB47
:102C1000410200EB8200808A704701EB410200EB29
:102C20008200B0F91600704701EB410200EB820010
:102C3000B0F91800704790F87400704710B54468F8
:102C40000021C16001812046FFF736FA0146204687
:102C5000BDE81040002201F05DBF0000084A137873
:102C6000082B014607D203EBC30C02EB8C005B1C64
:102C7000001D137000E00020C16100210162704757
:102C80001C020020C1690A880280C2695188418003
:102C900000214160C1698A68C1698260CA68C169EE
:102CA000C2600A8AC16902824A8AC16942828A88EC
:102CB000C1698282CA88C169C2828A8AC169028363
:102CC000CA8A42837047018070474180704700E0A4
:102CD00002E0B0F900007047B0F9020070474160AF
:102CE0007047808A70470183012202FA01F18182D4
:102CF0007047C08A704701228A404183C282C2EB7A
:102D0000C231A2EBC2328160C2607047C1607047BD
:102D10008160704741827047018270473E4A014698
:102D20001078002803BF101D0123137000200162DA
:102D30007047036A016142610022997B0170B3F917
:102D4000101009044160B3F9121042800904816037
:102D5000C2608261598981839989C18370474161C9
:102D60007047406970470178012903D1006900214B
:102D7000FFF7B5BF70474068FFE7C11300EB114094
:102D80000014704701700021C1607047F8B5076AF0
:102D9000047801230D46B4B98668B0F91EE04FEA05
:102DA000E63C06EB1C46B0F81CC03614AC45B8BF78
:102DB0000023714519DB5BB3E2B92D04012C0CBF74
:102DC0004560856013E04668B7F802C03614AC452C
:102DD000A4BFB7F908E0714507DBB7F804C0654543
:102DE000BCBFB7F906C08C45E6DA002310E000212D
:102DF000C1600CE04180AD1B3988084F4A43A2FBFB
:102E00000774610A491CC1602D0495FBF1F18161D1
:102E10001846F2BD00000000840C0020986E12835A
:102E200070B504462078E16800280CBFA568656885
:102E3000012904D9A069491E4519E16005E004D1C2
:102E4000B4F9025000202D04E060E81305EB1046B1
:102E50002178361401290CD16069FFF72DF9361A53
:102E6000206931B2FDF7DCF8064600046560A06019
:102E700000E0A560304670BD006AB0F910007047F0
:102E8000006A40887047006AB0F908007047014640
:102E900000200A78012A04BFC8600120704781B071
:102EA000006AB0F91210ADF80010808AADF8020087
:102EB000009801B0704781834942C183704710B5C3
:102EC00004466069FFF7F8F80004606010BD000078
:102ED000054A01461078002803BF101D0123137016
:102EE0000020016070470000800D002013B40091A5
:102EF0000068BDF90420BDF90610048812FB02F336
:102F000011FB013364439C4215D2841C90F8B0003D
:102F10001B0E1B1ADBB234F81300424341439313D8
:102F2000881302EB534201EB5041D213C913ADF8A1
:102F30000020ADF80210009816BC704730B5DFF8DD
:102F4000244681B00120A060DFF81C0620602568BF
:102F500000F0A8F885421CBF20688047DFF80C0607
:102F60000021016041600FF24D0181600021C160CC
:102F70000161416101B030BD30B5DFF8E84581B095
:102F80000120A060DFF8E0052060256800F08AF8E5
:102F900085421CBF20688047DFF8D0050021016012
:102FA00041600FF24D0181600021C160016141610A
:102FB00001B030BD00B5DFF8AC0581B00121816002
:102FC000DFF8AC25DFF8AC150160016891421CBF49
:102FD00000688047DFF8940500210160416081604E
:102FE0000FF23131C16000210161416101B000BDCA
:102FF00000B5DFF8700581B001218160DFF8702530
:10300000DFF870150160016891421CBF00688047BD
:10301000DFF858050021016041608160C1600161F5
:103020000FF20901416101B000BD000000B5DFF8F9
:10303000340581B001218160DFF83425DFF83415D3
:103040000160016891421CBF00688047DFF81C05E1
:10305000002101600FF2D521416000218160C16033
:103060000161416101B000BD00B5DFF8F80481B035
:1030700001218160DFF8F824DFF8F81401600168AD
:1030800091421CBF00688047DFF8E0040FF26D2119
:103090000160002141608160C1600161416101B056
:1030A00000BD0000F0B5A0B0002300A94FF0FF3232
:1030B00022FA03F404F0010441F8044B5B1C22FAE9
:1030C00003F404F0010441F8044B5B1C22FA03F4FE
:1030D00004F0010441F8044B5B1C22FA03F45B1C6E
:1030E00004F00104202B41F8044BE1D30021DFF868
:1030F000882400AB9D6FDC6F5E6FAD0705EBC47578
:1031000005EB46751E6F05EB0675DE6E05EBC665B5
:103110009E6E05EB86655E6E05EB46651E6E05EBE5
:103120000665DE6D05EBC6559E6D05EB86555E6D3D
:1031300005EB46551E6D05EB0655DE6C05EBC645E9
:103140009E6C05EB86455E6C05EB46451E6C05EBFB
:103150000645DE6B05EBC6359E6B05EB86355E6B73
:1031600005EB46351E6B05EB0635DE6A05EBC6251D
:103170009E6A05EB86255E6A05EB46251E6A05EB11
:103180000625DE6905EBC6159E6905EB86155E69A9
:1031900005EB46151E6905EB0615DE6805EBC60551
:1031A0009E6805EB86055E6805EB4605009E751971
:1031B000C1F11F0620FA06F707F0010674400094DB
:1031C0000226009C6C4004F001045C6002AC009F8D
:1031D00022FA06FC0CEA0707A6F1010C25FA0CFE00
:1031E0008EEA070707F0010744F8047B761C009F6E
:1031F00022FA06FC0CEA0707A6F1010C25FA0CFEE0
:103200008EEA070707F0010744F8047B761C009F4D
:1032100022FA06FC0CEA0707A6F1010C25FA0CFEBF
:103220008EEA0707761C07F00107202E44F8047B7E
:10323000CDD3491C2029FFF45DAF996FD86F890762
:1032400001EBC070596F00EB4170196F00EB01701A
:10325000D96E00EBC160996E00EB8160596E00EB96
:103260004160196E00EB0160D96D00EBC150996DA2
:1032700000EB8150596D00EB4150196D00EB01508E
:10328000D96C00EBC140996C00EB8140596C00EBAC
:103290004140196C00EB0140D96B00EBC130996BD8
:1032A00000EB8130596B00EB4130196B00EB0130C2
:1032B000D96A00EBC120996A00EB8120596A00EBC2
:1032C0004120196A00EB0120D96900EBC11099690E
:1032D00000EB8110596900EB4110196900EB0110F6
:1032E000D96800EBC100996800EB8100596800EBD8
:1032F00041000099081820B0F0BD00009B48002153
:1033000001609949416000218160C16001614161B2
:1033100070470000954800210160984941600021F4
:103320008160C16001614161704700008F4894492C
:103330000160002141608160C160016141617047AD
:1033400030B581B00D46FEF79DFE04468D480178EC
:10335000002903BF011D0122027000210FF2352058
:10336000C1F8D050A16220600FF2E50060600FF25A
:103370003940A0608448E0600FF21D2020610FF208
:10338000C1506061A06AD0F8D0001030FFF766FC31
:10339000A16A4861204601B030BD0000806A0A88F9
:1033A000028000234A8842808A888280CA88C2803C
:1033B0000A8902814A8982818A89C281CA89A0F8E0
:1033C000C6200A8A4382A0F8C8200122B1F90CC0A5
:1033D000DFF8B83193FBFCF31BB25BB3B0F812C05B
:1033E00003EBD373DB030CF1010C1B145200A0F8A8
:1033F00012C0FBB103EBD373DB030CF1010C1B1404
:103400005200A0F812C0ABB103EBD373DB031B1463
:1034100052000CF1010C002BA0F812C00AD003EBF3
:10342000D373DB031B1452000CF1010C002BA0F82A
:1034300012C0D3D10282B1F90C10B0F9102011FBE7
:1034400002F142F6BE0291FBF2F1418170470000A9
:103450002DE9F043804683B0D8F828600FF2493058
:10346000D6F8D050414F01904FF0010948480090E4
:10347000386880472888308068887080A888B08045
:1034800078688047E888F080288930816889B08131
:10349000A889F081E88EA6F8C600288FA6F8C80093
:1034A000B868804795F8300086F8AE00012086F8AD
:1034B000BC00F86880470020708278688047B5F9C2
:1034C0000C10324890FBF1F4B868804724B234B352
:1034D00004EBD470C403708A401C24144FEA4909D9
:1034E0007082E4B104EBD471CC03401C24144FEA85
:1034F000490970829CB104EBD471CC032414401CA4
:10350000002C4FEA4909708209D004EBD471CC0336
:103510002414401C002C4FEA49097082D8D17869E4
:103520008047A6F81090B5F90C00B6F9101010FB02
:1035300001F042F6BE0190FBF1F070814046019926
:103540008847786880477069009988470020A8F804
:10355000200038688047E88DA6F8CC0003B0BDE8AD
:10356000F0830000003002403D2F0008CC00002016
:103570000AC34C3033BB55AAB71DC104792F0008CC
:10358000693000084C060020850E00105EEA0F002E
:10359000852C0008704700002DE9F2470146002401
:1035A0008B6AD3F8D00090F828502046012D4FF0B8
:1035B000000EA046A146A4460246064635DB15F09D
:1035C000030A0AD0F6B203EB4607761CB7F92C7053
:1035D000BAF1010A0EFA87FEF4D1AF0825D0F6B28F
:1035E00003EB460A761CBAF92CA00EFA8AFA5FFAA7
:1035F00086FE03EB4E060EF1010EB6F92C600AFAB8
:1036000086F65FFA8EFE03EB4E0ABAF92CA006FA94
:103610008AFA0EF10106F6B203EB460E761CBEF9ED
:103620002CE07F1E0AFA8EFED9D10026012D9EFBCA
:10363000F5FE3BDB15F0030A0CD0F6B203EB4607B0
:10364000761CB7F92C70A7EB0E07BAF1010A07FB3D
:103650000744F2D1AF0829D0F6B203EB460A761C34
:10366000BAF92CA0AAEB0E0A0AFB0A44F6B203EB45
:10367000460A761CBAF92CA0AAEB0E0A0AFB0A44E9
:10368000F6B203EB460A761CBAF92CA0AAEB0E0A96
:103690000AFB0A44F6B203EB460A761CBAF92CA0E0
:1036A000AAEB0E0A7F1E0AFB0A44D5D10EFB0EF6CA
:1036B00094FBF5F4B51106EB5565D3F8D060768D23
:1036C000ED117543AC424C6A648904FB0EF4B8BF3B
:1036D0004FF0010C04EB84056C00E51304EB15447A
:1036E00091F82350241494FBF5F4009D2C808C83D6
:1036F00083F8ADC093F8BC50012D33D18D6AD5F855
:10370000D050AE8E002C48BF6442B44223DAB3F9E5
:103710002880B3F92A6018FB08F816FB06884E6A61
:10372000B6F90260C4EBC43494FBF6F495F8336048
:1037300095F832506643771106EB9766B61106FB93
:1037400004F94FEA691409EB9464A41105FB14947D
:103750004445B8BF012283F8B120C3F8B480C3F850
:10376000B89000E0012293F8B040CCB193F8AD409E
:10377000002C18BF002A11D193F8AF20521C83F8F7
:10378000AF20D2B2896AD1F8D01091F831108A42B4
:1037900006D383F8AF0001B0BDE8F08783F8AF002F
:1037A000012001B0BDE8F087002130B5846AA16135
:1037B000E161216261620183C18384F8AE1084F803
:1037C000AF1084F8B01084F8B110C4F8B410C4F885
:1037D000B810C4F8C01084F8CA1084F8CB1081B0B7
:1037E000856AD5F8D00090F82800012804DB410054
:1037F00005F12C0001F0FEF9002085F8AC00A5F8D9
:10380000C40001B06069BDE830400021FFF767BA2D
:10381000F0B40A46846A94F8CB50D4F8D030002132
:10382000012D94F8CA5008BFB0F91C20012D37D0E3
:10383000B0F91C5012FB05F7012F3CDB002D44BFF3
:103840006D422DB2002A48BF524293F82C6012B24A
:1038500016FB02F6F71006EB177693F82D7017FBA0
:1038600002F2D71002EB177294F8AD703603120310
:10387000012F1ED1B4F8CC701FFA85FC674518D211
:10388000B5EB224FA4BF3614AE4212DB94F8AE2043
:10389000521C84F8AE20D2B293F830309A420AD348
:1038A000012184F8B010002280F822200846F0BCE4
:1038B000704784F8AE10F0BC08467047806AB0F9D3
:1038C000281081B0ADF80010408DADF802000098CE
:1038D00001B07047806AB0F8C610826981B042FAC0
:1038E00001F3ADF80030C06940FA01F2ADF80220F2
:1038F000009801B07047806A43880B80C0881080B0
:103900007047806A4180C280704770B5866A70696E
:103910000C461546FFF7DBF920807069FFF7D8F9F0
:10392000288070BD30B5856A686981B01446FFF79C
:10393000CAF96869214601B0BDE83040FFF7C5B952
:10394000704770B504460D46A06A40691646FFF7F9
:10395000D0F900FB05F1A06A4069FFF7C0F92683A2
:1039600070BD806AD0F8B8007047806AD0F8B400A3
:103970007047806A90F8AD007047806A012180F836
:10398000CA107047806A012180F8CB107047806AA6
:10399000A0F8CC1070470000B5EEC00AF1EE10FAA6
:1039A00002D4B1EEC00A70476FF0004C00EE10CAAE
:1039B000AFF300807047000030B5DFF82C4D81B0C8
:1039C0000120A060DFF8240D2060256800F0A8F831
:1039D00085421CBF20688047DFF8140D002101607C
:1039E00041600FF24D0181600021C16001614161C0
:1039F00001B030BD30B5DFF8F04C81B00120A060DF
:103A0000DFF8E80C2060256800F08AF885421CBFCA
:103A100020688047DFF8D80C0021016041600FF278
:103A20004D0181600021C1600161416101B030BD83
:103A300000B5DFF8B40C81B001218160DFF8B42C4F
:103A4000DFF8B41C0160016891421CBF0068804728
:103A5000DFF89C0C00210160416081600FF235317C
:103A6000C16000210161416101B000BD00B5DFF816
:103A7000780C81B001218160DFF8782CDFF8781CA8
:103A80000160016891421CBF00688047DFF8600C4C
:103A90000021016041608160C16001610FF2090194
:103AA000416101B000BD000000B5DFF83C0C81B001
:103AB00001218160DFF83C2CDFF83C1C01600168CB
:103AC00091421CBF00688047DFF8240C0021016090
:103AD0000FF2DD21416000218160C160016141611F
:103AE00001B000BD00B5DFF8000C81B0012181609C
:103AF000DFF8002CDFF8001C0160016891421CBF58
:103B000000688047DFF8E80B0FF26D2101600021AB
:103B100041608160C1600161416101B000BD000090
:103B2000F0B5A0B0002300A94FF0FF3222FA03F451
:103B300004F0010441F8044B5B1C22FA03F404F086
:103B4000010441F8044B5B1C22FA03F404F0010465
:103B500041F8044B5B1C22FA03F45B1C04F00104E3
:103B6000202B41F8044BE1D30021DFF8942B00AB6C
:103B70009D6FDC6F5E6FAD0705EBC47505EB467599
:103B80001E6F05EB0675DE6E05EBC6659E6E05EBDA
:103B900086655E6E05EB46651E6E05EB0665DE6DA1
:103BA00005EBC6559E6D05EB86555E6D05EB4655DE
:103BB0001E6D05EB0655DE6C05EBC6459E6C05EBF0
:103BC00086455E6C05EB46451E6C05EB0645DE6BD7
:103BD00005EBC6359E6B05EB86355E6B05EB463512
:103BE0001E6B05EB0635DE6A05EBC6259E6A05EB06
:103BF00086255E6A05EB46251E6A05EB0625DE690D
:103C000005EBC6159E6905EB86155E6905EB461545
:103C10001E6905EB0615DE6805EBC6059E6805EB1B
:103C200086055E6805EB4605009E7519C1F11F0605
:103C300020FA06F707F00106744000940226009C63
:103C40006C4004F001045C6002AC009F22FA06FCA8
:103C50000CEA0707A6F1010C25FA0CFE8EEA07070D
:103C600007F0010744F8047B761C009F22FA06FC4B
:103C70000CEA0707A6F1010C25FA0CFE8EEA0707ED
:103C800007F0010744F8047B761C009F22FA06FC2B
:103C90000CEA0707A6F1010C25FA0CFE8EEA0707CD
:103CA000761C07F00107202E44F8047BCDD3491C75
:103CB0002029FFF45DAF996FD86F890701EBC070C1
:103CC000596F00EB4170196F00EB0170D96E00EB7A
:103CD000C160996E00EB8160596E00EB4160196E16
:103CE00000EB0160D96D00EBC150996D00EB815084
:103CF000596D00EB4150196D00EB0150D96C00EB90
:103D0000C140996C00EB8140596C00EB4140196C4B
:103D100000EB0140D96B00EBC130996B00EB8130B7
:103D2000596B00EB4130196B00EB0130D96A00EBA5
:103D3000C120996A00EB8120596A00EB4120196A81
:103D400000EB0120D96900EBC110996900EB8110EB
:103D5000596900EB4110196900EB0110D96800EBBB
:103D6000C100996800EB8100596800EB410000999F
:103D7000081820B0F0BD0000DFF8740900210160D0
:103D8000DFF86819416000218160C1600161416113
:103D900070470000DFF8580900210160DFF864195E
:103DA000416000218160C160016141617047000094
:103DB000DFF83C09DFF850190160002141608160A3
:103DC000C160016141617047DFF840291178002925
:103DD00003BF111D012313700021C1F89C00084688
:103DE0007047F0B5044681B0D4F89C600D4630466B
:103DF000FEF7BCF80746FEF7C9F82761DFF8F07850
:103E000038688047786880470020A4F85800A4F8F4
:103E10005A0020626062A062E0622065B06AC4F865
:103E20008000B8688047F868804770682063002089
:103E300084F83400A063E063A4F84000A4F84C00C8
:103E4000A4F84E0078688047B8688047308896EDBF
:103E5000020A00EE900AF8EE600A60EE800AFDEEBB
:103E6000E00A10EE900AA4F85C00D6ED040A80EE99
:103E7000800ABDEEC00A10EE100AA4F85E00D6ED6E
:103E8000070A308800EE100AB8EE400A20EE200A39
:103E9000BDEEC00A10EE100AA4F86000D6ED080AC4
:103EA000308800EE100AB8EE400A20EE200ABDEE7F
:103EB000C00A10EE100AA4F8740078698047786888
:103EC0008047386880472868206001B06868606073
:103ED000A868A060E868E060002084F8620060667E
:103EE000A06684F86C002067307B84F87600F08947
:103EF000A4F87800F06AC4F88400306BC4F8880035
:103F0000706BC4F88C000020C4F89000C4F89400D2
:103F1000F0BD90F8621071B980F834108163C1630C
:103F2000A0F84010A0F84C10A0F84E10C0F8901067
:103F3000C0F8941070470A2180F8341070470021AF
:103F400080F83410704700002DE9F041044694F8E1
:103F50003400D4F89C602569092800F2C882DFE8A3
:103F600010F00A004200C602C602C6029500C00058
:103F70002D015901F0016168002081F82400002121
:103F8000E068FEF7FFFE0020A063E063A4F84000B5
:103F9000A4F84800A4F84C00A4F84E000120A4F8AE
:103FA0004A00002084F86C002068FEF785F800EBDA
:103FB0004001002249002846FEF705F8D4F8801099
:103FC0004FF47A722846FDF7FEFF012084F8340092
:103FD0006068B0F9100000EE100AB8EEC00A84ED77
:103FE000240ABDE8F0812846FDF7D9FF00EE100A4B
:103FF000B8EEC00A84ED1C0A204600F0B0FA07466D
:104000002846FEF723F8002800F07182B4F84E002D
:10401000401C012FA4F84E0005D0B4F8741080B2F3
:10402000814280F064822068FEF746F800EE100AB4
:10403000B8EEC00AF1EE080A20EE200A84ED140A58
:1040400041F28832D6ED050A20EE200ABDEEC00A04
:1040500010EE100AA4F8580094ED140AD6ED060AE2
:1040600020EE200ABDEEC00A10EE100AA4F85A0095
:104070000020E063A4F840006064A4F84E002846E5
:10408000B4F95A10FDF79FFF05202EE22846FDF7F0
:1040900086FF00EE100AB8EEC00A84ED1C0A204626
:1040A00000F05DFA06462846FDF7D0FF002800F034
:1040B0001E82B4F84E00401C012EA4F84E0005D01C
:1040C000B4F8741080B2814280F011820020E06365
:1040D000A4F840006064A4F84800A4F84E0006204C
:1040E00003E294ED1C0A204600F039FA2068FDF73F
:1040F000E3FFE16B01FA80F06168E063B1F90C1055
:10410000A06B4018A063B4F84000B4F85C10401CE9
:10411000A4F84000606C401C6064B4F84000814228
:1041200080F0E581E16BB4F8602091FBF0F0B4F829
:104130004810A4F84800091AA4F84A1009B2002946
:1041400048BF49420020E063A4F84000606C82420E
:10415000A4BF09B2052980F2CA81A16B91FBF0F0DE
:10416000A082DFEDE40AB4F9480000EE100AB8EED0
:10417000C00A94F8760020EE200A00EE900AF8EECD
:10418000600A20EE200A84ED060A2068FDF794FFFD
:1041900000EE100A0020B8EEC00AF1EE080AA4F8FA
:1041A0004E0020EE200AB4F9581084ED1C0A41F2AA
:1041B00088322846FDF707FF072096E12846FDF7DD
:1041C000EEFE00EE100AB8EEC00A84ED1C0A20468E
:1041D00000F0C5F906462846FDF738FF002800F034
:1041E0008681B4F84E00401C012EA4F84E0005D084
:1041F000B4F8741080B2814280F079810020A0630D
:10420000E063A4F840006064A4F84800A4F84E00FD
:1042100008206AE194ED1C0A204600F0A0F920680D
:10422000FDF74AFFE16B01FA80F06168E063B1F9E4
:104230000C10A06B4018A063B4F84000B4F85C10F8
:10424000401CA4F84000606C401C6064B4F840005E
:10425000814280F04C81E16BB4F8602091FBF0F07A
:10426000B4F84810A4F84800091AA4F84A1009B292
:10427000002948BF49420020E063A4F84000606C78
:104280008242A4BF09B2052980F23181A16B91FB62
:10429000F0F0E0829FED970AB4F9480000EE900A32
:1042A000F8EEE00A94F8760020EE800A00EE900A1C
:1042B000B4F91400F8EE600A20EE200A00EE900A2D
:1042C000B4F9160084ED070A01EE100AF8EEE00AD0
:1042D000B8EEC11A70EEC10A94ED061A31EE400A2A
:1042E00080EE800ADFED840AB4EE600A84ED080AED
:1042F000F1EE10FA48BFC4ED080A94ED060AD4EDB9
:10430000070AB4F91410B4F91620E06830EE600A18
:10431000DFEDE90A20EE200A84ED090A8A42D4ED95
:10432000070A30EE200A84ED090AB2BF00220022FB
:10433000B4F97810FEF72AFD0020A4F84E000920F9
:10434000D3E0B4F84E00401CA4F84E002068FDF7FE
:10435000B3FE00EE900A94F876009FED660AF8EE40
:10436000E00A01EE100A60EE800AB8EE411A60EE33
:10437000810A94ED091AF4EE410AF1EE10FA08DA16
:10438000B4F87400B4F84E1000EB4000884280F29C
:10439000AE803088A56800EE900AB4F84E0001EEB9
:1043A000100AF8EE600AB8EE411A81EE201A84ED88
:1043B0000A1AF6EE001A81EE811AF3EE0E1A21EEB9
:1043C000211A84ED0C1A94ED0A1AD4ED081A94F807
:1043D000760021EE211A84ED0B1A1021D4ED0C1A6F
:1043E00021EE211A21EE000A01EE100AB8EE411A60
:1043F00020EE010A84ED190A102694ED0A1A80EEC7
:10440000010A80EE200A84ED1A0A00270F2047F6E1
:10441000FF72012301E0102910D103FA00FC00EE25
:1044200010CAB8EEC00AD4ED190A20EE200ABDEE7B
:10443000C00A10EE108A9045B8BF41B2B6B2102E35
:1044400010D103FA00F700EE107AB8EEC00AD4EDEE
:104450001A0A20EE200ABDEEC00A10EE107A97422A
:10446000B8BF46B2401E89B2D5D5102907D028461C
:10447000FEF739FC0FFA88F12846FEF724FCB6B2A5
:10448000102E07D031462846FEF735FC39B22846B3
:10449000FEF71BFCB4F978102846FEF73DFCB4F893
:1044A0007800414209B22846FEF734FC2846FEF760
:1044B00020FCB4F8781000FB01F631462846FEF7E0
:1044C00027FC71422846FEF721FC012084F8620097
:1044D0000121E068FEF756FC2068FDF7EDFD01467E
:1044E000E0680022FEF752FC0A2084F83400BDE8A0
:1044F000F08100009CC4203F0AD7233C10B504463D
:1045000094F86200A8B9616881F824000021E0688D
:10451000FEF738FC6068B0F91010E0680022FEF782
:1045200035FCE068BDE810404FF47A620021FEF7E8
:104530002DBC10BD002180F86210704790ED140A68
:1045400000F0FDB90B20704790F83400704790F8E8
:10455000340000210A2808BF01210846704730B501
:10456000044681B000252DED048BD4F89C00D0EDDD
:10457000098A2068B0EE408AFDF79EFD00EB4001FD
:10458000480000EE100A94ED221AB8EEC09AB5EE7B
:10459000401A38EE490AD4ED210AF1EE10FA60EE25
:1045A000800A08BFC4F890500BD0D4ED251A70EEE5
:1045B000611A94ED240A01EE810A84ED240A70EE5A
:1045C000800AB4F8780001EE100AB8EE411AB4EE91
:1045D000601AB0EE600AF1EE10FA48BFB0EE410A80
:1045E000404201EE100AB8EEC11AF4EE410AF1EEB3
:1045F00010FA48BFB0EE410A70EEC00A94ED231ADB
:10460000E068BDEEC00A60EE810A10EE101AC4ED3B
:10461000250A002209B2FEF7B9FB28EE280AB4EEFB
:10462000409AF1EE10FA15D4B4EE489AF1EE10FA71
:104630000AD4B0EE000A30EE680A20EE080AB4EEA2
:10464000409AF1EE10FA05D594F86C00401C84F8FD
:104650006C0001E084F86C5094F96C00142803DBC2
:10466000142084F86C000125BDEC048B284601B0B1
:1046700030BD80F876107047A0F87810704780ED54
:104680000C0A704790ED0C0A7047000090ED0B0A81
:10469000D0F89C1091ED0F1ADFED180A20EE200AD9
:1046A000D0ED260A20EE200AD1ED0E0A60EE810A36
:1046B00080EE200A70470000AE47213F90ED080AC7
:1046C000D0F89C1091ED0F1ADFED0C0A20EE200AB5
:1046D000D0ED260A20EE200AD1ED0E0A60EE810A06
:1046E00080EE200A7047000000300240B93900080F
:1046F000840000200AC34C3033BB55AACB151E35AD
:10470000B71DC104F5390008E53A0008D8070020B4
:10471000C0F88010704780ED260A704790F862005C
:1047200070470000C0F3C75181B1FF2906D0C11006
:10473000400721F0E04101F16051704741020CBF98
:1047400040F4E0016FF000410020704700F00041AC
:1047500000020AD0B0FA80FC00FA0CF001F16051BE
:10476000A1EB0C5101EBD02140057047B0B581EAB7
:10477000030C0CF0004C40F2FF7515EA11541DBFFC
:1047800015EA1357AC42AF4239E0E41923EA455326
:1047900043F48013C90241F0004141EA505EC70270
:1047A0001100A7FB020200284FF00000EEFB0120E1
:1047B0004FF00001E3FB072118BF42F0010240184F
:1047C00000214941E3FB0E01A4F580640F0302D2EE
:1047D00052004041494154F101046CDD470872F137
:1047E000004250F1000051EB0451A1F580115CBF73
:1047F00041EA0C01B0BD4CEA05510020B0BD05EA0C
:104800001357AC4214BFAF4241E050EA410E1CBF07
:1048100052EA430E02E061460020B0BD24423C440F
:104820001BD15FEA070EF6D0090302BF0146002044
:10483000AEF1140EB1FA81F7AEEB070401FA07FEF0
:104840000C37C7F1200100FA07F7C8404EEA000E06
:1048500023EA455343F48013A2E733F00043B3FA4D
:1048600083F704BFB2FA82FE77440B3FE41BB7F133
:10487000200E2FBF02FA0EF3BB40C7F1200E22FA22
:104880000EFE38BF43EA0E03BA40641C82E750EACA
:10489000410E14BF52EA430E6FF000014FF40017AF
:1048A00017EB430F8ABF194617EB410FB5E74CEAE8
:1048B00005510020B0BDD4F10104B4F120070FDA96
:1048C000C4F12007520828BF42F0010210FA07F590
:1048D00001FA07F7E1BF2A43E0403843E1400FE027
:1048E000352C98DCC7F1200452EA400220FA07F286
:1048F00018BF42F0010231FA07F0A1400A4300213B
:1049000072F1004250F1000051EB0C01B0BD00000B
:104910004FF4001C1CEB410F94BF1CEB430F09E04C
:1049200041EA030C50EA4C0C52EA0C0C03D29942B7
:1049300008BF9042704714BF8B42824270472DEDF2
:10494000010A009801B07047C11768B14840401A89
:10495000B0FA80F29040D21CC907C2F5846241EAE5
:10496000025202EBD021400570470000C1F30A5308
:1049700040F2FE329B1A14DDD3F120034FEAE172BC
:1049800008DDC90241EA505141F00040D84080188A
:104990005040704703F2E13010B1D24382F0004042
:1049A000704700207047000001F000428B1AA3F10D
:1049B0006051B1F5801F0ADBB1F17F6F1FD242EA6F
:1049C000C102C10071F1004142EB507070470B15FC
:1049D000C3F10903212B10D2890241EA90518002D0
:1049E0000128494141F0004121FA03F0C3F12003BD
:1049F000994071F1004150417047100070476FF0CD
:104A0000000013EB103F5CBF000E42EAC05070473D
:104A100010B50C46FDF736FB5F4A1178002903BF3D
:104A2000111D0123137000214C6181620FF21D01E1
:104A300041600FF21D0181605849C1600FF24101D0
:104A400001610FF2BD01416110BD000000BF00BF58
:104A5000816A0022028342838283C283028480F8B7
:104A600022200A604A600A810A820A734A73806AB5
:104A700042695088C88100208874C874704700005B
:104A800030B400F12402536814681A89012A1BD932
:104A90005D681A6855195D60EA1305EB12452D141F
:104AA000C5836289B0F91E50554305EB850490F823
:104AB000235064002D0494FBF5F20A800988818359
:104AC0001889411E198117E014D1B3F90A200A8010
:104AD00082836289B1F9001002EB82040904640048
:104AE00091FBF4F190F8234011FB04F1C183002005
:104AF000188101E0808B0880587B30BC7047000033
:104B0000826A11820A4690F82330018392FBF3F205
:104B100042837047F0B4134600F1240254681768CA
:104B20006669227BAABB0D041A0010D181837A89A1
:104B300002EB82035B0095FBF3F390F8235013FB29
:104B400005F3C383002020816181F0BC7047328867
:104B50005343134AA3FB02C6730A5B1C23819BB217
:104B60007A8990F8236002EB82077F0095FBF7F5C6
:104B7000B0F91E7097FBF6F22DB212B2AD1A2D04E9
:104B800095FBF3F2564326606181B0F91E000004E4
:104B90006060F0BC70470000080D00202713001073
:104BA000986E12830246012001290BD1936A197372
:104BB000936AD3F814C0BCF9021019B958730020D5
:104BC00082F82200704701460022896A91F80CC0E1
:104BD00000230020BCF1010F497B08BF01220129FD
:104BE00008BF01235A4018BF01207047806A012185
:104BF000C1747047002200F001B8000000B500BF8A
:104C0000130096469446103928BFA0E80C50FAD8F5
:104C10005FEA417C28BF0CC048BF40F8042BC9079D
:104C200028BF20F8022B48BF00F8012B00BD000070
:104C300038B50D46FDF7D4FADFF8E01C04460878D5
:104C4000002803BF081D01220A70002021460564C8
:104C50002067DFF8CC0C2060A87B01F0F9FC0FF294
:104C600071006060DFF8BC0CA060DFF8BC0CE06095
:104C7000DFF8B80C2061DFF8B80C6061DFF8B40C25
:104C8000A061DFF8B40C2062DFF8B00C6062DFF8DE
:104C9000B00CA062DFF8AC0CE062DFF8AC0C206373
:104CA000DFF8A80C6063DFF8A80CA063DFF8A40CA1
:104CB000E061DFF8A40CE063DFF8A00C6064DFF8CB
:104CC000A00CA064DFF89C0CE064204632BD00001C
:104CD0002DE9F84F074607F160009AB0016903918A
:104CE000D1F84090D9F8301009F1800ADAF8244060
:104CF000DAF82850DAF82C60DAF830B0DAF83480D4
:104D0000059199F8091001290CBF002101210170BA
:104D1000C06801880398490881820121DFF8480CA6
:104D2000026842F040020260D9F8040001F01BFE64
:104D300001214FF4FC0001F016FE0598DFF82C1C51
:104D4000884206D101214FF4006001F015FE0020D9
:104D500006E001214FF4005001F00EFE4FF08050AC
:104D600001F0DAFD012001F07FFC0598394600F0E2
:104D7000FFFD684601F07EFE94BBB9F81400009078
:104D800003218DF804106946D9F8100001F03AFEAD
:104D9000B9F81410D9F8100001F077FEB9F81C002A
:104DA000009003218DF804106946D9F8180001F02D
:104DB00029FEB9F81C10D9F8180001F066FEB9F800
:104DC0002400009003218DF804106946D9F82000D2
:104DD00001F018FEB9F82410D9F8200001F055FEB2
:104DE00009F13007388A01F024F901469AF80E20BB
:104DF000F86801F05EFEB88B01F01BF901469AF8E5
:104E00000F20B86901F055FE388D01F012F9014606
:104E10009AF81020786A01F04CFE684601F02AFEEC
:104E20000020ADF80600032102208DF804008DF863
:104E300005106946388A0090F86801F0E3FDB88BE8
:104E400000906946B86901F0DDFD388D0090694633
:104E5000786A01F0D7FD398AF86801F016FEB98B3F
:104E6000B86901F012FE398D786A01F00EFE09F181
:104E70005C073878012839D1388901F0DAF8014621
:104E80009AF81120786801F014FEB88A01F0D1F880
:104E900001469AF81220386901F00BFE388C01F0B7
:104EA000C8F801469AF81320F86901F002FE388923
:104EB00000906946786801F0A5FDB88A00906946BF
:104EC000386901F09FFD388C00906946F86901F05F
:104ED00099FD3989786801F0D8FDB98A386901F0FF
:104EE000D4FD398CF86901F0D0FD25E0022823D1EA
:104EF00001208DF80400694638890090786801F037
:104F000081FDB88A00906946386901F07BFD388CD4
:104F100000906946F86901F075FD3989786801F0FB
:104F2000B4FDB98A386901F0B0FD398CF86901F037
:104F3000ACFD02208DF804009AF80010012918D168
:104F4000BAF80C0001F075F801469AF81420DAF866
:104F5000080001F0AEFDBAF80C0000906946DAF8DE
:104F6000080001F04FFDBAF80C10DAF8080001F063
:104F70008CFD9AF81600012818D1BAF8200001F02B
:104F800058F801469AF81520DAF81C0001F091FD56
:104F9000BAF8200000906946DAF81C0001F032FDF2
:104FA000BAF82010DAF81C0001F06FFD0598DFF860
:104FB000BC19884207BF012101200121022001F014
:104FC0008BFD002C00F081800121012001F0D4FC38
:104FD00003208DF804006946A08B0090A06901F0C1
:104FE00011FDA18BA06901F050FD208D0090694654
:104FF000606A01F007FD218D606A01F046FD2079AD
:10500000012809D1218A00916946E06801F0FAFC83
:10501000218AE06801F039FD208E00906946E06A3F
:1050200001F0F0FC218EE06A01F02FFDA0681390E2
:1050300004F138076169149113A9206801F058FD43
:105040007A6B396B206801F05EFD2068012101F068
:105050006DFD388B00906946786901F0D3FC398B7F
:10506000786901F012FDB88C00906946386A01F049
:10507000C9FCB98C386A01F008FD3878012809D1DB
:10508000B98900916946B86801F0BCFCB989B86873
:1050900001F0FBFCB88D00906946B86A01F0B2FCE3
:1050A000B98DB86A01F0F1FC7868139039691491F0
:1050B00013A9606B01F01CFD7A6B396B606B01F01A
:1050C00022FD606B012101F031FD002D6FD0012127
:1050D000012001F051FC03208DF804006946A88BE3
:1050E0000090A86901F08EFCA98BA86901F0CDFCA5
:1050F000287901280AD1298A00916946E86801F0D7
:1051000081FC298AE86801F0C0FC0DE0A86840280D
:1051100003D1BAF83810002004E0502804D1BAF8BE
:105120003810102000F056FF0020ADF8100002E00B
:10513000BDF81000401CADF81000BDF81000B0F52F
:105140007A7FF5D3A97F012915D102208DF80400BB
:105150006946288D0090686A01F054FC288D00F0A3
:1051600068FF014695F82A20686A01F0A2FC298DA3
:10517000686A01F08AFCA86813900022696914919A
:10518000286A159005F12C000168179116924FF4CA
:105190008031189113A940681990286801F0D4FC57
:1051A0002868012101F0E5FC286801F0F4FC002EDC
:1051B00052D00121012001F0DFFB03208DF8040013
:1051C0006946B08B0090B06901F01CFCB18BB069EE
:1051D00001F05BFC3079012809D1318A00916946E0
:1051E000F06801F00FFC318AF06801F04EFCB07FEE
:1051F000012815D102218DF804106946308D0090E8
:10520000706A01F0FFFB308D00F013FF014696F845
:105210002A20706A01F04DFC318D706A01F035FC76
:10522000B0681390002271691491306A159006F1EC
:105230002C000168179116924FF48031189113A930
:1052400040681990306801F07FFC3068012101F05E
:1052500090FC306801F09FFCBBF1000F68D0012189
:10526000012001F089FB03208DF804006946BBF89A
:105270001C000090DBF8180001F0C4FBBBF81C1008
:10528000DBF8180001F001FC9BF8040001280DD1A7
:10529000BBF8101000916946DBF80C0001F0B2FB7E
:1052A000BBF81010DBF80C0001F0EFFB9BF81E00C0
:1052B00001281BD102218DF804106946BBF8280093
:1052C0000090DBF8240001F09DFBBBF8280000F003
:1052D000B0FE01469BF82A20DBF8240001F0E9FB30
:1052E000BBF82810DBF8240001F0CFFBDBF8080046
:1052F00013900022DBF814101491DBF820001590B5
:105300000BF12C000168179116924FF4803118911F
:1053100013A940681990DBF8000001F015FCDBF8D8
:105320000000012101F025FCDBF8000001F033FC56
:10533000B8F1000F00F087800121012001F01CFB73
:1053400003208DF804006946B8F81C000090D8F8D6
:10535000180001F057FBB8F81C10D8F8180001F03D
:1053600094FB98F8040001280ED1B8F810100091B1
:105370006946D8F80C0001F045FBB8F81010D8F8D1
:105380000C0001F082FB0EE0D8F80800402803D1A1
:10539000BAF83A10002004E0502804D1BAF83A10C4
:1053A000102000F017FE0020ADF8100002E0BDF85C
:1053B0001000401CADF81000BDF81000B0F57A7F69
:1053C000F5D398F81E1001291BD102208DF8040096
:1053D0006946B8F828000090D8F8240001F012FBC4
:1053E000B8F8280000F025FE014698F82A20D8F8E1
:1053F000240001F05EFBB8F82810D8F8240001F072
:1054000044FBD8F8080013900022D8F81410149127
:10541000D8F82000159008F12C0001681791169219
:105420004FF48031189113A940681990D8F8000002
:1054300001F08AFBD8F80000012101F09AFBD8F8AE
:10544000000001F0A8FB99F80900012805D14FF0F0
:10545000A045DFF8F04B122604E0DFF8EC5BDFF844
:10546000EC4B2F260398DFF8E82B05630020039907
:105470004C6305999142039908BF24200887284668
:1054800001F094FB204601F091FB99F809000128F6
:1054900046D1DAF83C00A84218BFA04240D0B0F193
:1054A000A04F1CBFDFF89C1B884218D101214FF090
:1054B000805001F058FADAF83C0001F077FB06A8BA
:1054C00001F0EAFB00200690D9F80010079108903F
:1054D00009908DF8280006A94FF0A0401EE0DFF8E3
:1054E000687BB8421CBFDFF8641B884218D10121D9
:1054F0004FF0005001F037FADAF83C0001F056FBAB
:1055000006A801F0C9FB00200690D9F80010079109
:10551000089009908DF8280006A9384601F092FB02
:1055200006A801F0B9FB00200690D9F800100791F9
:10553000089009908DF8280006A9284601F082FB02
:105540000121284601F0C8FB0121204601F0C4FBDF
:105550000021284601F0B5FB284601F0ADFB2846A6
:1055600001F0B7FB0128FAD00021204601F0A9FB89
:10557000204601F0A1FB204601F0ABFB0128FAD048
:1055800099F80900012817D1DAF83C00A84218BFA1
:10559000A04211D0012101F09FFBDAF83C0000216C
:1055A00001F08FFBDAF83C0001F086FBDAF83C00F2
:1055B00001F08FFB0128F9D002208DF809000021AD
:1055C00001208DF80B008DF80A108DF8086002A8F4
:1055D00001F0BDFB0121284601F065FB01212046B9
:1055E00001F061FB99F8090001281DD1DAF83C00AF
:1055F000A84218BFA04217D0012101F054FB0BA80C
:1056000001F015FB00200B9000210D900C910E91E4
:105610001091119120200F9001218DF848100BA9B5
:10562000DAF83C0001F0E8FA0BA801F000FB0020DA
:1056300000210B900C910D900E9110911191202052
:1056400001210F908DF8481028460BA901F0D4FADB
:105650000BA9204601F0D0FA039899F8163099F872
:105660000F60028FE86C000A072142EA0020092E31
:1056700040F040070EDDA6F10A00D5F818C000EB97
:10568000400E01FA0EF02CEA000003FA0EF3034379
:10569000AB610DE030000BD006EB460CD5F814E002
:1056A00001FA0CF02EEA000003FA0CF303436B61DD
:1056B00027F4F85040EA06230398036299F81E3055
:1056C00099F81770E66C360A42EA0626092F46F06A
:1056D00040060EDDA7F10A00D4F818C000EB400E1A
:1056E00001FA0EF02CEA000003FA0EF30343A36163
:1056F0000DE038000BD007EB470CD4F814E001FAAA
:105700000CF02EEA000003FA0CF30343636126F465
:10571000F856039846EA0726466299F8263099F823
:105720001F60E06C000A42EA0022092E42F04002AB
:105730000DDDA6F10A00A76900EB400C01FA0CF0A0
:1057400027EA000003FA0CF30343A3610CE03000E6
:105750000AD006EB4607D4F814C001FA07F02CEA89
:105760000000BB400343636122F4F852039842EA0D
:105770000622826299F80F3099F81620E06C092B06
:105780000ADD0A3BA66903EB430301FA03F08643F3
:105790009A403243A2610AE0180008D003EB4303A9
:1057A000666901FA03F086439A403243626199F8D0
:1057B0001E2099F81730E86C092B0ADD0A3BAE6908
:1057C00003EB430301FA03F086439A403243AA6194
:1057D0000AE0180008D003EB43036E6901FA03F0F6
:1057E00086439A4032436A6199F8260099F81F204F
:1057F000EB6C092A0ADD0A3AAB6902EB42029140DE
:1058000023EA010190400143A9610AE0130008D096
:1058100002EB42026B69914023EA0101904001438F
:105820006961DAF8240028B10399086A886103984D
:10583000416AC1610121284601F05BFA012120463D
:1058400001F057FA0398008FE96C090A40EA012138
:1058500021F4F85141F04001E964E16C090A40EAA1
:10586000012020F4F85040F04000E0640021A868D6
:1058700040F00800A860A06840F00800A06005980B
:1058800001F087FC05994FF6FF7008640020059928
:1058900008640821059801F07CFC4021284601F0AD
:1058A00039FA0028F9D04021204601F033FA0028C7
:1058B000F9D04021284601F034FA4021204601F079
:1058C00030FA01224021284601F01CFAD9F83000B4
:1058D000264988420BD118218DF808100420012197
:1058E0008DF809008DF80A108DF80B100AE02B20B6
:1058F0008DF80800042101208DF809108DF80A00A8
:105900008DF80B0002A801F022FA03983A3000212A
:10591000417001701BB0BDE8F08F0000980B0020B3
:10592000BF0D0010E5050010355F0008595E000846
:10593000F15B0008015E00085D07001069080010B7
:1059400079090010930A0010A50B0010B70C001085
:10595000395F0008595F0008AF5F00085560000814
:10596000CF6100086763000814100240002C01405A
:105970002DE9F84F8AB00446086F06904FF6FF787D
:10598000056C204601F01AFA07A801F0D8FA287A27
:105990004044ADF81C0005F12A062020ADF81E0099
:1059A00005F15C070698818A08914FF48070ADF884
:1059B000240007A93078ADF82600204601F07DFAD2
:1059C00001A801F0A0FB6020019001210698ADF82C
:1059D0000810818A49080391F089ADF81000308BD6
:1059E000ADF814003878012809D10421ADF80A1067
:1059F0007888ADF812007889ADF8160002E0002131
:105A0000ADF80A1001A9204601F0B1FA708BADF88B
:105A10001000B08CADF814003978012905D1B8898F
:105A2000ADF81200F88AADF8160001A9204601F081
:105A3000D9FAF08CADF81000308EADF8140039783A
:105A4000012905D1388BADF81200788CADF816001D
:105A500001A9204601F0FBFA702000210190ADF869
:105A60001010ADF81410CDF80C8001A9204601F0FB
:105A700021FB0821204601F07EFB0821204601F091
:105A80007EFB0821204601F07EFB0821204601F024
:105A900080FB7021204601F0BBFB4FF4C001204683
:105AA00001F0BCFB95F88000B5F828A0002701287C
:105AB00095F8A20006BF05F18001D1F804B04FF4BB
:105AC000005B8DF800008021204601F095FB01224B
:105AD0008021204601F07DFB05F180014FF0000898
