:020000040800F2
:1000000040110020619A00084D9A00084F9A00089C
:10001000519A0008539A0008559A00080000000001
:10002000000000000000000000000000579A0008D7
:10003000599A0008000000005B9A00085D9A0008C9
:100040007D9A0008819A0008859A0008899A00081C
:100050008D9A0008919A0008959A0008999A0008CC
:100060009D9A0008A19A0008A59A0008A99A00087C
:10007000AD9A0008B19A0008B59A0008B99A00082C
:10008000BD9A0008C19A000879970008C59A00082F
:10009000C99A0008CD9A0008D19A0008D59A00089C
:1000A000D99A0008DD9A0008E19A0008E59A00084C
:1000B000E99A0008ED9A0008F19A0008F59A0008FC
:1000C000F99A0008FD9A0008019B0008059B0008AA
:1000D000099B00080D9B0008119B0008CF970008A2
:1000E000159B0008199B00081D9B0008219B000818
:1000F00099970008259B0008299B00082D9B000864
:10010000319B0008359B0008399B00083D9B000887
:10011000419B0008459B0008499B00084D9B000837
:10012000519B0008559B0008599B00085D9B0008E7
:10013000619B0008659B0008699B00086D9B000897
:10014000719B0008759B0008799B00087D9B000847
:10015000819B0008859B0008A9970008899B0008DF
:100160008D9B0008919B0008959B0008999B0008B7
:100170009D9B0008A19B0008A59B0008A99B000867
:10018000AD9B0008B19B000830B5DFF8D44781B0C3
:100190000120A060DFF8CC072060256800F0A8F8F7
:1001A00085421CBF20688047DFF8BC070021016042
:1001B00041600FF24D0181600021C1600161416128
:1001C00001B030BD30B5DFF8984781B00120A060A4
:1001D000DFF890072060256800F08AF885421CBF90
:1001E00020688047DFF880070021016041600FF23E
:1001F0004D0181600021C1600161416101B030BDEC
:1002000000B5DFF85C0781B001218160DFF85C2771
:10021000DFF85C170160016891421CBF00688047ED
:10022000DFF8440700210160416081600FF2353141
:10023000C16000210161416101B000BD00B5DFF87E
:10024000200781B001218160DFF82027DFF8201727
:100250000160016891421CBF00688047DFF8080711
:100260000021016041608160C16001610FF20901FC
:10027000416101B000BD000000B5DFF8E40681B0C7
:1002800001218160DFF8E426DFF8E41601600168EF
:1002900091421CBF00688047DFF8CC060021016056
:1002A0000FF2DD21416000218160C1600161416187
:1002B00001B000BD00B5DFF8A80681B00121816062
:1002C000DFF8A826DFF8A8160160016891421CBF7C
:1002D00000688047DFF890060FF26D210160002171
:1002E00041608160C1600161416101B000BD0000F9
:1002F000F0B5A0B0002300A94FF0FF3222FA03F4BA
:1003000004F0010441F8044B5B1C22FA03F404F0EE
:10031000010441F8044B5B1C22FA03F404F00104CD
:1003200041F8044B5B1C22FA03F45B1C04F001044B
:10033000202B41F8044BE1D30021DFF8382600AB35
:100340009D6FDC6F5E6FAD0705EBC47505EB467501
:100350001E6F05EB0675DE6E05EBC6659E6E05EB42
:1003600086655E6E05EB46651E6E05EB0665DE6D09
:1003700005EBC6559E6D05EB86555E6D05EB465546
:100380001E6D05EB0655DE6C05EBC6459E6C05EB58
:1003900086455E6C05EB46451E6C05EB0645DE6B3F
:1003A00005EBC6359E6B05EB86355E6B05EB46357A
:1003B0001E6B05EB0635DE6A05EBC6259E6A05EB6E
:1003C00086255E6A05EB46251E6A05EB0625DE6975
:1003D00005EBC6159E6905EB86155E6905EB4615AE
:1003E0001E6905EB0615DE6805EBC6059E6805EB84
:1003F00086055E6805EB4605009E7519C1F11F066E
:1004000020FA06F707F00106744000940226009CCB
:100410006C4004F001045C6002AC009F22FA06FC10
:100420000CEA0707A6F1010C25FA0CFE8EEA070775
:1004300007F0010744F8047B761C009F22FA06FCB3
:100440000CEA0707A6F1010C25FA0CFE8EEA070755
:1004500007F0010744F8047B761C009F22FA06FC93
:100460000CEA0707A6F1010C25FA0CFE8EEA070735
:10047000761C07F00107202E44F8047BCDD3491CDD
:100480002029FFF45DAF996FD86F890701EBC07029
:10049000596F00EB4170196F00EB0170D96E00EBE2
:1004A000C160996E00EB8160596E00EB4160196E7E
:1004B00000EB0160D96D00EBC150996D00EB8150EC
:1004C000596D00EB4150196D00EB0150D96C00EBF8
:1004D000C140996C00EB8140596C00EB4140196CB4
:1004E00000EB0140D96B00EBC130996B00EB813020
:1004F000596B00EB4130196B00EB0130D96A00EB0E
:10050000C120996A00EB8120596A00EB4120196AE9
:1005100000EB0120D96900EBC110996900EB811053
:10052000596900EB4110196900EB0110D96800EB23
:10053000C100996800EB8100596800EB4100009907
:10054000081820B0F0BD0000DFF81C040021016095
:10055000DFF81014416000218160C16001614161D8
:1005600070470000DFF8000400210160DFF8081484
:10057000416000218160C1600161416170470000FC
:10058000DFF8E403DFF8F4130160002141608160CB
:10059000C160016141617047DFF8E42311780029EF
:1005A00003BF111D012313700021C1F80C0108467F
:1005B000704700002DE9F0410446DFF8AC63D4F841
:1005C0000C5130680F46804770688047284601F01C
:1005D00015FD804601F02CFDC4F808802760B06846
:1005E0008047F068804700202071A073E07384F892
:1005F000BC00A4F8E80084F8EA00A4F8EC00C4F811
:10060000F000C4F8080184F8F40070688047B0680E
:1006100080477069804770688047306880472888C5
:1006200000EE100AB8EE400A84ED050AF7EE000A63
:1006300080EE800A84ED040A2068006901F0DDFD87
:1006400000EE100AB8EE400A84ED060AF6EE000A43
:1006500095ED0E0A95ED041A60EE200AC0EE810AAF
:10066000FDEEE00A10EE900AA083B0EE001AD5ED80
:10067000010A60EE810A95ED021A60EE810A80EEB1
:10068000200A84ED080AF5EE000AA86960620A21D2
:1006900095ED060A20EE200A84ED0B0ADFEDAC0A88
:1006A000A869A062002020636063A063E06384F80F
:1006B00060006066A06684F86C0020676067A067D1
:1006C000E067C4F88000C4F88400C4F88800C4F867
:1006D0008C00C4F89000C4F89400C4F89800C4F8E2
:1006E0009C00C4F8A000C4F8A40084F8A800686ABC
:1006F000C4F8AC00286BC4F8B00090FBF1F0C4F86B
:10070000B8004FF4FA70C4F8B800002095ED0C0A58
:10071000A4F8FC00B8EEC00A20EE200ABDEEC00A24
:1007200084ED2D0AA86AC4F80001002084F80401B1
:10073000BDE8F08110B504460020E17B042906D114
:1007400008202071002084F8BC00012010BD217910
:10075000F9B92068006801F08CFE012020710020AA
:10076000A073E07384F8BC00A4F8E80084F8EA0001
:10077000A4F8EC00C4F8F000C4F8080184F8F40010
:10078000A06A6062002084F8600084F86C00012098
:10079000A08110BD10B504462068006801F06EFE0F
:1007A0002079062818BF072803D00A281CBF00207C
:1007B000207110BD0000000030B5044681B02079E2
:1007C000D4F80C51401E072800F2BF80DFE800F08B
:1007D0000404040425BDBD442068006801F047FE00
:1007E000A0B10720207107212068C06801F06CFECD
:1007F0002068006801F006FE94ED3E0ADFED550A20
:1008000020EE200A204601F065FB99E0204600F02A
:10081000E1FF84ED3E0A01B030BD2068006801F0C0
:1008200026FE002800F09180072020710721206813
:10083000C06801F049FE2068006801F0E3FD94ED16
:100840003E0ADFED440A20EE200A204601F042FB7A
:10085000606AC4F8F80073E0E07B042875D0206873
:10086000006801F004FE00286FD094ED3E0ADFED31
:10087000390A20EE200A204601F02CFB606AC4F8F9
:10088000F800DFED350A95ED010A20EE200AD5EDDE
:10089000020A20EE200AD5ED0E0A80EE200AD4EDE1
:1008A000090A20EE200ABDEEC00A10EE100A451E0D
:1008B0002068006A2AB2002102F028F82068006A45
:1008C0002AB2012102F022F82068006A2AB202212D
:1008D00002F01CF82068006A2AB2032102F016F820
:1008E0002068006A2AB2042102F010F894F8BC00D3
:1008F000012816D12068006901F02FFC00EE100AD3
:10090000B8EEC00AF1EE080A20EE200ADFED130A65
:1009100020EE200ABDEEC00A84ED2D0A204601F02B
:100920005FFA0620207107212068C06801F0CCFD25
:100930002068006801F066FD40F6B830A4F8FC00BD
:10094000DFF88C0E4188491C418001B030BD0000A9
:10095000CDCCCC3E6666663F00008047CDCC4C3F98
:100960000030024089010008480000200AC34C30D2
:1009700033BB55AAB71DC104C5010008B502000864
:10098000100400202DE9F04F81B0044600272DED22
:10099000048B2079D4F80C81D4F80890401E0828E4
:1009A00086B000F22D85DFE810F009004C00090048
:1009B000740060012B052B05DF021E0594ED090A6A
:1009C000204600F0BBFF01281DD1207901280BD162
:1009D00002202071484601F02BFBB8F81E204EF68D
:1009E0006021484601F03DFB207903284AD10420CC
:1009F0002071484601F01CFBB8F82020A189484628
:100A000001F02FFB3EE0A0894EF66021884239D1EB
:100A1000A781204600F0DEFE6FF0130084F8A800E6
:100A2000F6EE000A94F86C00401C84F86C0020EE8E
:100A3000200AC0B2032884ED090A23D309202071BB
:100A400020E094ED090A204600F078FF484601F0C6
:100A5000F7FA484601F049FBA0B103202071F5EEFA
:100A6000000A94ED090A20EE200A6FF01300E767F0
:100A7000C4F88070C4F8847084ED090A84ED0B0A10
:100A800084F8A8002068A189006801F0FCFC00F04F
:100A9000BEBC94ED090A204600F050FFA7894846E5
:100AA00001F0CEFA204600F095FED4F88400D4ED93
:100AB0001F0AD4F80C51401C30EE800AC4F88400A0
:100AC00084ED1F0A2068406801F068FF00EE900A7C
:100AD000F8EE600A95ED031A9FEDBB0A60EE810AFD
:100AE00001EE107AB8EE411A60EE800A21EE000A9B
:100AF00094ED201AC4ED0C0A00EE201A84ED201AA1
:100B0000484601F0F2FA002800F0208294ED210A14
:100B100094F86000D4ED1F0A94ED201AB8EE400A54
:100B200080EE800A04EB800084ED190AD4ED210ADE
:100B300080ED100AF8EE600A94F8600004EB800083
:100B4000C1EE200AC0ED140A94F86000401C84F83D
:100B50006000C0B2042814D26FF0130084F8A8001B
:100B60000020E067C4F88000C4F8840094ED090A0E
:100B7000D4ED0B0A30EE200A032084ED090A20711F
:100B8000E4E1052020710020A073484601F050FAEE
:100B900064224EF66021484601F063FA94ED111A82
:100BA000D4ED151A94ED142AD4ED102A31EEC22A90
:100BB00071EE622A94ED120AD4ED160A82EE222A10
:100BC000DFED822A70EEE11A30EE411A32EE222A6F
:100BD00081EE811AD4ED171A71EEE00AD4ED131AE2
:100BE00031EEC00A32EE011A80EE800A31EE000AC0
:100BF000F0EE080A80EE200A84ED0D0A98F82C0029
:100C000010BBD8ED050A30EE600ADFEDD30AB4EE72
:100C1000600AF1EE10FA84ED0D0A03D5DFF8EC0D51
:100C2000606305E0F6EE000A20EE200A84ED0D0A6E
:100C3000DFEDCA0A94ED190A20EE200A002084EDA7
:100C40001A0AA067606781E10A20207107212068E5
:100C5000C06801F039FC2068006801F0D3FB20680F
:100C6000006801F00BFC002770E1204600F0B2FDA7
:100C7000A07B10B1022808D016E0DFEDB90AB4EE6F
:100C8000600AF1EE10FA0FD50BE0D4ED1A0AA7892D
:100C9000B4EE600AF1EE10FA03D5206F401C206715
:100CA00002E0484601F027FA484601F0C9F94846F3
:100CB00001F01BFA002800F04981A07B18B102283E
:100CC0000DD007D342E10120A073484601F0B0F9EE
:100CD0000A2236E10220A073002020672DE10020C7
:100CE000A07394ED1C0AD4ED040A606F94ED1E1AF3
:100CF000B8EE400A20EE200AD4ED0D0A00EE201ACC
:100D0000401C142884ED1E1A606740F016810620EE
:100D1000207107212068C06801F0D6FB20680068B8
:100D200001F070FB0020A4F8FC0000272068006898
:100D300001F0A4FB94ED1D0AD4ED1E0AD4F80C5169
:100D4000B8EE400A80EE800A84ED0E0ABA462068AA
:100D5000406801F023FE00EE900AF8EE600A95ED7F
:100D6000031A9FED190A60EE810A20EE800A84EDD5
:100D70000C0A1021D8ED010A94ED0D2A94ED0E1AFB
:100D8000D4ED2B1A20EE200AD8ED020A20EE200A1C
:100D9000D8ED0E0A80EE200AD4ED400A21EE201A8A
:100DA00062EE200A94ED042A81EE001A60EE820AB7
:100DB00061EE211A80EE800A10250E46BB460F20F8
:100DC00047F6FF72012305E00000803700000000B5
:100DD000102910D103FA00FC00EE90CAF8EEE00AE8
:100DE00060EE810AFDEEE00ACDED000ADDF800C0FC
:100DF0009445B8BF41B2ADB2102D0ED103FA00FC3C
:100E000000EE90CAF8EEE00A60EEA10AFDEEE00AFC
:100E100010EE90AA9245B8BF45B2B6B2102E0ED1D0
:100E200003FA00FC00EE90CAF8EEE00A60EE800AD9
:100E3000FDEEE00A10EE90BA9345B8BF46B2401EF0
:100E400089B2C5D510290AD02068806901F02EFE2C
:100E500020680099806909B201F0DBFD01E00920FA
:100E60002071ADB2102D0BD02068C069294601F069
:100E70001DFE2068C0690FFA8AF101F0CAFD01E089
:100E800009202071B6B2102E16D020688069314634
:100E900001F014FE2068C069314601F00FFE2068A1
:100EA00080690FFA8BF101F0B6FD2068C0690FFA76
:100EB0008BF101F0B0FD01E009202071DFED290A7E
:100EC00098ED010A20EE200AD8ED020A20EE200A51
:100ED000D8ED0E0A80EE200AD4ED090A20EE200A91
:100EE000BDEEC00A10EE100A451E2068006A2AB244
:100EF000002101F00BFD2068006A2AB2012101F0F7
:100F000005FD2068006A2AB2022101F0FFFC20687A
:100F1000006A2AB2032101F0F9FC2068006A2AB2B3
:100F2000042101F0F3FC2068B8F81E20006A39465D
:100F300001F0E0FC204600F053FF484601F078F84D
:100F400064224EF66021484601F08BF82068006864
:100F5000394601F098FA5AE2CDCC4C3E9ED2213F60
:100F60000AD7233C000080472068C06801F021FBBD
:100F7000001F022805D9C01E00F029820FF2CC40C4
:100F800040E22068806A01F0D3FD01F0E3F80746F3
:100F9000206880680068009001F07CFE8246394637
:100FA00001F097FE009020688168BDF90020B1F93A
:100FB00010108069891A01F03AFDADF8040020682C
:100FC0008168BDF90220B1F91210C069891A01F0D7
:100FD0002EFDADF8060020680199406902F02CF85A
:100FE0000190394601F0ACFE0646206800683146A3
:100FF00001F03DF9054620688068C0F804A0CDF8EE
:1010000010A0216889680098C860216889680198E3
:10101000C1F8160020688068D0F81A000390206894
:101020008068C0F81A60206880680784206840687B
:1010300001F0B4FCADF8140003A92068406A01F087
:101040009AF8ADF808002068406A02F078FA206843
:10105000006902A901F08FF8E07B052800F2D88131
:10106000DFE810F006009D00D6016D01D6019B015E
:10107000204600F0D3FC022884F8F40038D1206820
:10108000006901F06AF800EB40014800C4F8B400C0
:10109000062190FBF1F000B200EE100AB8EEC00A93
:1010A000DFEDDF0A20EE200AB5EE400AF1EE10FA7D
:1010B0002068406A48BFB1EE400ABDEEC00A10EE9B
:1010C000101A89B202F052FB0120E07306B0002032
:1010D000C4F88800C4F88C00C4F89000C4F89400E8
:1010E000C4F89800A8B2BDEC048B01B0BDE8F08F45
:1010F000012800F08D81032824D194ED2E0ABBEE47
:10110000EF0ABCEEC00A84ED2E0A204600F068FE0D
:101110000620207107212068C06801F0D5F92068F9
:10112000006801F06FF90020A4F8FC00DFF8A006C9
:101130008188491C818006B0A8B2BDEC048B01B047
:10114000BDE8F08F042840F0638194ED3C0AB8EECE
:10115000400ADFEDB40A20EE200ABDEEC00A84ED9D
:101160002D0A204600F03CFE062020710721206851
:10117000C06801F0A9F92068006801F043F940F661
:10118000B830A4F8FC00DFF84806C188491CC180CB
:1011900006B0A8B2BDEC048B01B0BDE8F08F2068AA
:1011A000D8ED010A8068D4F80C61B0F90C009FED0D
:1011B0009E1A60EE810A98ED021A60EE810A98ED9F
:1011C0000E1A00EE100AC1EE200AB8EEC00A94ED25
:1011D000221A00EE201A84ED221A2068406801F0DD
:1011E000DDFB00EE900AF8EE600A96ED031A9FED23
:1011F0008F0A60EE810A20EE800A84ED0C0ADFED92
:101200008C0A20688068B0F9160001EE100AB8EE6A
:10121000C11A21EE000A94ED231A00EE201A84ED83
:10122000231A42F21071206894ED0C1A8068B0F90C
:10123000180000EE100AB8EEC00A20EE010AD4F839
:10124000980094ED241A00EE201A401C884284ED88
:10125000241AC4F89800C0F0DB8000EE100A0020C9
:10126000C4F89400C4F89800B8EE400AD4ED220AFD
:10127000C4F8880080EE808AD4ED230AC4F88C007C
:10128000C0EE808AD4ED240AC4F8900080EE809AE3
:101290002068006900F061FF00EE100AB8EEC00A95
:1012A000F2EE040A80EE200ADFED620A60EE209A78
:1012B000D4ED0D0A40EEC88AD4ED060A20EE200ACD
:1012C000DFED5D0A20EE200AD4ED0E0A20EE200AA2
:1012D00000EE089A28EEA80A09EE090AB5EE400ABF
:1012E000F1EE10FA04DB02F045FAB0EE408A01E0BC
:1012F0009FED528A9FED520A28EE000ADFED510A57
:1013000020EE200A80EE290A84ED0F0A2068C06AC8
:1013100003F0EDF8D4ED0C0A9FED4B1A89EE880A24
:10132000C0EE810A20EE200A06B084ED270A0220D2
:10133000E073A8B2BDEC048B01B0BDE8F08F484665
:1013400000F07EFE484600F0D0FE002860D0206805
:10135000406A00F002FF00EE100ABAEE670ABDEE26
:10136000C00A10EE100A00B200EE100AB8EEC00A71
:10137000DFED2B0A20EE200AB5EE400AF1EE10FA5E
:101380002068406A48BFB1EE400ABDEEC00A10EEC8
:10139000101A89B202F0EAF90CE02068006A01F044
:1013A000A3FA08B10320E0732068C06801F001F9D6
:1013B00006282DD10420E07306B0DFF814140020B5
:1013C0000870A8B2BDEC048B01B0BDE8F08F2068B6
:1013D000006801F017F806B02771A8B2BDEC048BC5
:1013E00001B0BDE8F08F2068C068072101F06CF8FB
:1013F00006B02771A8B2BDEC048B01B0BDE8F08F38
:101400000FF24C0001682068006800F030FF0546CC
:1014100006B0A8B2BDEC048B01B0BDE8F08F0000AF
:10142000CDCC8C3FCDCC4C3F0000804700008037B6
:1014300046CD933700007042DB0FC940000000002A
:1014400071C49C3F00007A44D7B3DD3F0000000028
:101450000000000070B586B004462068A568C0682A
:1014600001F0A7F82179062908D0C0F0AF8108293A
:1014700000F08280C0F09A8106B070BD0B2800F2A7
:10148000A581DFE810F00C00A301A301A30159001E
:10149000A301A301A301A301A301A3019F01B4F828
:1014A000FC0040B1401EA4F8FC002068006800F079
:1014B000D5FF06B070BD94ED050AD4ED0E0A94ED8B
:1014C0000D1A20EE802A81EE022AF7EE002AF5EEB0
:1014D000001A32EEC22A22EE212AF5EE002A72EE1E
:1014E000222AB8EE003A72EE832AC1EE200A42EEBA
:1014F000800AC4ED280AF7EE000A70EEC20ABDEEBB
:10150000001A70EE810A94ED050A42EE210A60EE9F
:10151000800A20EE800AD4ED0E0A20EE200A84ED27
:10152000290A03212068C06800F0CEFF2068006807
:1015300000F068FF06B070BD0820207106B00020E2
:10154000E07384F8BC00A4F8E80084F8EA00A4F88A
:10155000EC00C4F8F000C4F80801012084F8F4009D
:101560000020C4F88800C4F88C00C4F89000C4F8C7
:101570009400C4F8980070BDE07B022840F02681FA
:10158000D4ED272A94ED0F3A62EE832A9FEDA53A17
:1015900062EE832A9FEDA43AC2EE832ADFEDA31AFE
:1015A0009FEDA22A9FEDA11A9FEDA00ADFED9F0AF1
:1015B0000E209FEDDA4A9FEDDA3A012101FA00F29E
:1015C000D4ED054A94ED0E5A94ED0D6A03EE902A7F
:1015D00065EE245AF8EEE33AC6EE255A65EEA35AB4
:1015E000F4EE435AF1EE10FA32DA94ED281A81EE55
:1015F000241A21EE231AB4EE431AF1EE10FA27DA78
:10160000B4EE441AF1EE10FA22D4D4ED081A65EEC5
:10161000211A61EEA44AC2EEA41A61EEA31AF4EEF6
:10162000431AF1EE10FA13DAB4F91C2002EE102A74
:10163000B8EEC22A82EE242A22EE232AB4EE432AEE
:10164000F1EE10FA04DA00EE100AB8EEC00A03E078
:10165000401E40B20128B1DA5FF00E0094ED295A25
:1016600094ED086A01FA00F225EE065A04EE902A7B
:1016700085EE225A94ED056AF8EEE44A85EE065AA4
:1016800025EE245AB4EE435AF1EE10FA04DAB4EE21
:10169000445AF1EE10FA04D5401E40B20128DDDABA
:1016A00003E000EE900AF8EEE00AFDEEE52A12EE05
:1016B000900AADF80000BDEEC11A11EE100AADF8A7
:1016C0000200BDEEE11A11EE100AADF80400BDEE05
:1016D000C51A11EE100AADF80600BDEEC21A11EEE1
:1016E000100AADF80800BDEEE31A11EE100AADF8CD
:1016F0000A00BDEEE41A11EE100AADF80C00BDEEC2
:10170000C00A10EE100AADF80E00BDEEE00A10EEB1
:10171000100AADF8100000A92068406A01F0E0FC52
:1017200094ED271A94ED050AD4ED060A2068406A64
:10173000DFEDB51A61EE211A61EEA01A20EE002A43
:10174000C1EE821AB5EE002A61EE821AFDEEE11AB0
:1017500011EE902ADFEDAE1A21EE211A61EE200A79
:1017600080EE800ABDEEC00A10EE101A12B209B265
:1017700001F0C4FF2068006900F0ECFC0646206818
:10178000006900F0EDFC01462068406A324601F035
:10179000C7FF284600F04CFCFA224EF6602128468E
:1017A00000F05FFC0320E07306B070BD40B9206814
:1017B000C068032100F088FE0020207106B070BDD3
:1017C0000B2803D12068C06800F0F5FE06B070BD9C
:1017D000240D0020D0F80C11006891ED010A8068FA
:1017E000DFED8C0A20EE200AD1ED020A20EE200A5D
:1017F000D1ED0E0AB0F90010B0F9020080EE800AB7
:1018000000EE901AF8EEE00A01EE100A60EEC00A4F
:10181000B8EEC11A41EE400AB6EE000A20EE800A88
:10182000704700008104B53F0080D84400000000EC
:101830000520704730B5044681B02068C06A02F0C8
:1018400072FD0025012808BF84F804512068C06893
:1018500000F0AFFE0A2804BF84F8045125712079F6
:101860000A281BD8DFE800F006090D111111151523
:101870001506190094F8040180B10125284601B02D
:1018800030BD0225284601B030BD0325284601B0F1
:1018900030BD0425284601B030BD0E25284601B0D4
:1018A00030BD90ED0D0A01F0B3BA90ED0E0A01F0D3
:1018B000AFBA90ED0F0A01F0ABBA90ED0C0A01F04F
:1018C000A7BAC17B04291CBF01790A291CD10021B8
:1018D000C17380F8BC10A0F8E81080F8EA10A0F8F6
:1018E000EC10C0F8F010C0F8081180F8F4100A22CB
:1018F000D0F8B01091FBF2F1C0F8B8104FF4FA71C3
:10190000C0F8B81000210171012180F804110021F4
:10191000DFF8B00641808180C180704700FEFFC6BD
:1019200001FEFF4610B504462068006800F06AFD1D
:101930000020207184F8040110BD00009FED351ACD
:1019400001460020D1F80C21D2ED010A60EE810A97
:1019500092ED021A60EE810A92ED0E1A0A68926800
:10196000135EB2F90220C1EE200A01EE103AB8EE81
:10197000C11A01EE902A21EE601AF8EEE11A01EE8A
:10198000E01AF6EE000A61EE200AF4EE400A8A89B7
:10199000F1EE10FA1EDB0AB1521E8A8130EEC00A47
:1019A000DFED1D0AB4EE600AF1EE10FA21D491F8D1
:1019B000A820521E81F8A82052B212F1130F03DAA8
:1019C0006FF0130281F8A82091F9A810002958BFE0
:1019D000012070474EF6602330EE600A9A42DFED38
:1019E0000E0ABCBF521C8A81B4EE600AF1EE10FAF6
:1019F000DDD591F8A820521C81F8A82052B2142AF3
:101A0000E2DB1422DEE70000B0EDB749CDCCCC3DDF
:101A10000000054400008047CDCC4C3E70B5044624
:101A20002DED068BD4F80C012168D0ED010A8968F0
:101A3000D4F80C61B1F90C109FEDE21A60EE810A46
:101A400090ED021A60EE810A90ED0E1A00EE101A67
:101A5000C1EE200AB8EEC00A94ED221A00EE201A58
:101A600084ED221A01252068406800F097FF00EEFF
:101A7000100AB8EE400AD6ED030A20EE200ADFED88
:101A8000D20A20EE200A84ED0C0ADFEDD00A20688D
:101A90008068B0F9160001EE100AB8EEC11A21EE06
:101AA000000A94ED231A00EE201A84ED231A206810
:101AB00094ED0C1A8068B0F9180000EE100AB8EE28
:101AC000C00A20EE010A94ED241A00EE201A84EDDB
:101AD000241A2068006900F040FB00EE100AB8EEFE
:101AE000C00AD4ED060AD4F8980020EE200AF2EEDF
:101AF000040A80EE200AD4ED250A42F2107130EE7D
:101B0000200A401C884284ED250AC4F89800C0F0E1
:101B1000548100EE100AB8EE400AD4ED220A80EE9D
:101B2000809AD4ED230A80EE80AAD4ED240AC0EE78
:101B3000809AD4ED250A80EE808AB5EE408A002096
:101B4000F1EE10FAC4F88800C4F88C00C4F89000D4
:101B5000C4F89400C4F8980000F02F812068006950
:101B600000F0FBFA00EE100AB8EEC00AF1EE080A27
:101B700020EE200ABDEEC00A10EE106A9FED940A16
:101B800068EE008A94ED0D0A00EE49AA94ED0E0A63
:101B900028EE800A40EE099A2AEE0A0A09EEA90AFE
:101BA000B5EE400AF1EE10FA04DB01F0E3FDB0EE11
:101BB000409A01E09FED879AB4F8E80004EB8000BA
:101BC00080ED309AB4F8E80004EB8000C0ED358A6F
:101BD000B4F8E800401CA4F8E80080B2052804D35B
:101BE0000020A4F8E80084F8EA5094F8EA000028FD
:101BF00000F0CB80D4F8B00002F080FCDFF8C823FE
:101C0000DFF8C83302F090FC02F060FDB04280F2D1
:101C1000BC809FED702A04F1D401B1EE043AD1EDFD
:101C2000001A91ED011AD1ED020A91ED030AD1EDEE
:101C3000042A31EE822A32EE012A32EE202A32EED6
:101C4000002A32EE222A04F1C00082EE033A71EE3D
:101C5000C31A31EE431A70EEC30A30EE430A72EE35
:101C6000C32A90ED005ADFED5B5A9FED5A6A90ED62
:101C7000013A41EE855A01EEA16AD0ED023A41EEF9
:101C8000035A01EE016A90ED034A40EEA35A00EEBA
:101C9000A06AD0ED044A40EE045A00EE006A9FEDBF
:101CA0004D0A35EE000A30EE030A30EE230A42EE0A
:101CB000A45A02EEA26A30EE040AC5EE869A30EE0D
:101CC000240A02EE690AF1EE040A80EE20AA08EE68
:101CD000A9AA1AEE100A02F01FFD4FF04C42DFF8DD
:101CE000F03202F021FC02F03FFD00EE100AB4EEEB
:101CF000490AF1EE10FA2BD51AEE100A02F00CFD8B
:101D00004FF01A42DFF8CC3202F00EFC02F02CFD4C
:101D100000EE100AB4EE409AF1EE10FA18D59FEDDD
:101D20002E0AD4ED060A80EE200AB4EE690AF1EE1E
:101D300010FA0DD594F8BC0038B9D4F8B4003018B6
:101D4000032190FBF1F0C4F8080184F8BC501CE0BA
:101D500094F8BC00012810D19FED200A28EE000A5B
:101D6000D4ED060A80EE200A0020BCEEC00A84F8FA
:101D7000BC00042584ED3C0A1DE0B4F8EC00401CD6
:101D8000A4F8EC0080B2042808DA2068006A00F0A9
:101D9000DAFD002894F8BC0002D050B9032509E010
:101DA00058B1D4F80801B04207D22068006A00F0A8
:101DB000D4FD02250020A4F8EC00BDEC068B2846DB
:101DC00070BD0000000080470000803746CD93378B
:101DD000DB0FC9400000000017B7D13A0000704285
:101DE00030B581B004462DED028BD4F8B80094EDE7
:101DF0002D0AB8EEC00AF1EE080A01EE100AC0EE94
:101E0000200AB8EE411A80EE010A9FED681A20EE12
:101E1000018A9FED670AB4EE408AF1EE10FA0DDBFD
:101E200000EB801000EE100A84ED2D0AB8EEC00A17
:101E3000F1EE080AC0EE200A9FED5E8ABDEEE00AD0
:101E400010EE105A2DB200EE105AB8EEC00ADFEDB7
:101E50005A0A20EE200AB5EE400AF1EE10FA206888
:101E6000406A48BFB1EE400ABDEEC00A10EE101A3B
:101E700089B201F07BFC2068006A2A46012100F04B
:101E80003FFD2068006A2A46022100F039FD2068E3
:101E9000006A2A46032100F033FD2068006A2A46C2
:101EA000042100F02DFD2068006ABDEEC80ABDECDB
:101EB000028B10EE102A01B0BDE8304092B2012131
:101EC00000F018BD00EE101AB8EE400A80ED060AC8
:101ED0007047000030B581B00368D0F80C119A6AE1
:101EE000DC6A80ED090AF5EE000A60EE200AC0ED1A
:101EF0000B0A80ED0A0ADFED310A20EE200AD1ED4F
:101F0000010A20EE200AD1ED020A20EE200AD1EDCE
:101F10000E0A80EE200ABDEEC00A10EE105A1AB169
:101F2000A9B2104600F0AAFE34B1A9B2204601B011
:101F3000BDE8304002F08CBA01B030BD90ED0A0A25
:101F4000704780ED2B0A704790ED2B0A7047000018
:101F50000268D26A11B9D0F80C11096BC0F8B01040
:101F60000A23D0F8B01090ED2C0A91FBF3F1C0F8E1
:101F7000B810B8EEC00A4FF4FA71C0F8B810DFED2F
:101F8000100A20EE200ABDEEC00AD0F8B01080ED95
:101F90002D0A104602F0A8BAD0F8B0007047D0F869
:101FA000B4007047D0F8B8007047000000007A44D1
:101FB00001FF7F4700E87D47CDCC8C3F0000804784
:101FC000CDCCCC3E240D00209A9999999999B93F8E
:101FD000CCCCEC3F9999F13F90ED0A0A704780ED27
:101FE000400A704790ED400A7047D0F80C01808E8F
:101FF0007047D0F80C0190F8360070470B4A137800
:10200000042B07D2C3EBC30102EB81015B1C091D4A
:10201000137000E00021486100200860486088607B
:10202000C86001200861084670470000D80A0020F7
:102030000021016041608160C16001210161704740
:1020400082680168022A03D3C3685918521E05E04A
:10205000012A04D141680269514300228260016073
:102060003FE02DE9F84F04460D4620682169676975
:10207000160090FBF1F808D1284600F040F82061E6
:10208000684320600020A06027E0A5EB08094846CF
:1020900000F035F88246404600F031F88346284685
:1020A00000F02DF8DA4501D2824501E0DA46834599
:1020B00088BF8246C4F810A00AFB08F02060656063
:1020C0004FF47A7138887043B0FBF1F0401C2169FD
:1020D000A06001FB09F191FBF0F0E0600120BDE898
:1020E000F28F006991FBF0F070478068002100B921
:1020F00001210846704700218160C16070470028B7
:1021000048BF404201210122C1F11F0302FA03F33B
:10211000834203D3491CC9B22029F5D3481E02FAD1
:1021200000F07047074A1378032B06D22C2111FBCD
:1021300003215B1C091D137000E000214862084662
:102140007047000060090020011D0A6A1278CA77F2
:1021500009680847B0F918007047B0F91C007047CB
:10216000B0F91E0070474269104700F108010022D3
:102170008A7609680847C2681047F8B500F110046C
:102180000F4661698E79226839469047012508B962
:10219000304623E0002163697A5E5F88A07C002AD4
:1021A00048BF524292B297429F881B8938BF012193
:1021B000BA42B4F9102038BF0121002A48BF524268
:1021C00092B2934200D319B1B04204DA401C02E04B
:1021D000B042B8BF0020C0B2B04200D10025A07408
:1021E0002846F2BDB0F91C10406AB0F90200C1EBFC
:1021F000C13191FBF0F000B2704790F823007047B6
:1022000080F8231070470000064A1178002903BFA8
:10221000111D012313700021C866002008640846C0
:1022200070470000600A002038B5C56E29884DF659
:10223000B45200F150045143890B218000212173D5
:102240004168884700202083A888608331BD38B565
:1022500082680C4600F150059047B4F90000B4F9CB
:1022600002106882A9824042401AE88231BD7BB4E4
:1022700000F15001BDF904200B88C46E248853433B
:10228000BDF906206243524255005A19EB1A02EB7F
:10229000D27203EBD37352105B10002A48D5002B87
:1022A00017D504244C80D41AC56E2D88661404EB0F
:1022B0009634AD08A41414FA85F51C1403EBD4333A
:1022C000141402EBD432A5EB6246026B05EB6343B8
:1022D00076E02C14012D05EBD43414DA03224A8065
:1022E000EA1AC56E2D88561402EB9632AD08921488
:1022F00012FA85F51A1403EBD23205EB6243C26A77
:10230000A3EB64465CE002234B80531BC56E2D8813
:102310005E1403EB9633AD089B1413FA85F5131482
:1023200002EBD332A5EB6246826A06EB644347E0D8
:10233000002B17D401244C80D41AC56E2D88661446
:1023400004EB9634AD08A41414FA85F51C1403EBC1
:10235000D433141402EBD432A5EB6246426A05EB87
:1023600063432DE02C14012D05EBD43414DA05233E
:102370004B80531BC56E2D885E1403EB9633AD085E
:102380009B1413FA85F5131402EBD332A5EB6246C6
:10239000426B06EB644313E000224A80EA1AC56EE2
:1023A0002D88561402EB9632AD08921412FA85F578
:1023B0001A1403EBD23205EB6243026AA3EB6446C4
:1023C000CB808D800E810B8B012B18D1B1F912506F
:1023D0008B884C8B012DACBFE3181B1B8B80B1F994
:1023E0001450CB88012DACBFE3181B1BCB80B1F977
:1023F00016500B89012DACBFE3181B1B0B8103B0DA
:1024000070BC1047002180F85C10C16808470021AB
:1024100080F85C1001690847F8B5044604F15005DE
:10242000002659B904F15C073E70E16888473869B5
:102430004088E8813869408870B907E001290BD1EC
:10244000E88940B1401EE88180B228B904F10C014E
:1024500020468968884701263046F2BD012180F870
:102460005C1081690847826B1047C2691047C16BD5
:102470000847416C0A0018BF08477047816C0A0082
:1024800018BF0847704718B402460120D36C1C00DF
:1024900002D0104614BC184712BC704706490A788F
:1024A000022A06D202EB42004018521C001D0A709C
:1024B0007047002070470000F40C002000210170DC
:1024C000417081707047000010B404780023122C12
:1024D0000DD8DFE804F021264732424547494B4EEC
:1024E0000C0C0A2C2E303C3E4000002944D003291D
:1024F0001CBF0129072944D0417841F08001417077
:102500000A2C817841F0800181704178417035D189
:10251000002936D10B2133E003292DD0012929D1FF
:102520002AE0072918BF0D2926D00E291FE00E2901
:1025300014E00F2912E0022910E0072918BF102922
:102540001AD0042918BF112916D001290FE011292A
:1025500004E0122902E0042900E0052902D10BE081
:10256000062909D0072902E0082900E00929BED17F
:1025700002E009B10C29BAD1012301E009B10A2115
:10258000017013E010B4447803780C4344708478ED
:1025900021438170417891430A2B417002D129B9BE
:1025A0000B2101E011B10A2101700B4610BC184645
:1025B000704700787047027800210B2A04D1092166
:1025C00001700021817001210846704781784078B0
:1025D00041EA004070470000054A1178002903BF16
:1025E000111D012313700021C1F8900008467047A7
:1025F000C808002070B4D0F890406568016042605F
:1026000000F1680100260B61039A8A610E774E770C
:1026100000F116020EE02B8822F8023C761C6B8833
:102620001380F6B2AB88538002F10A03C2F8063079
:102630000C32AD680DB1082EEDD306EB460300EB6E
:10264000830300221A616423628A0A80228A8A80B4
:1026500000228A6022885A434FF47A73B2FBF3F265
:1026600080F88D200E7370BC70472DE9F04700F1A3
:102670007C05071D6E69D0F80090D7F800808A4667
:1026800000F11404A7F80CA000206872E860B87389
:10269000287028724046FFF768FD0021484600F088
:1026A00058FA708810FB0AF109B24046FFF75BFD4B
:1026B00000220021484600F050FAA088228810FB32
:1026C0000AF109B2484600F048FA6088228810FBF7
:1026D0000AF109B2404602F062F920883188484385
:1026E0004FF47A71B0FBF1F0401CB880A068B8607C
:1026F00000202874BDE8F0872DE9F14F061D00F198
:102700007C04B768656982B03888ADF804004FF082
:102710000108B088002800F09980401EB080287D14
:10272000002800F09080B07B002840F08C80607A18
:10273000002840F08580207C617C401C2074C0B261
:10274000814205D2706F00F0E6FF002020702074F7
:10275000706F00F0FDFF58B120787F280AD2401C2E
:102760002070706FFFF7F9FCE16801FA80F000E07B
:102770002070E0602078617CB0EB510F63D1706F06
:10278000FFF7EBFC8146B9F1000F44BF404200B2B5
:102790000090B6F90C00012806DBB9F1010F06DA4A
:1027A00000202070E0604EE0B9F1000FF8D50099EC
:1027B000688989B2884205D2706F00F0CDFF84F835
:1027C000098040E00099A88989B288423BD23068EC
:1027D00002F047F9706F4FF0000A00F0C2FFD346D5
:1027E00007E08246B07BB7F904B0B160401C0F46E9
:1027F000B073B7F902000099884205DAB968002978
:10280000EFD10020B0801EE0B7F90400B7F9021044
:10281000A0EB0B0000FB09F0A1EB0A0190FBF1F02B
:102820000BEB000102980068002209B200F095F954
:10283000A6F8048002986830B0600620B07302E009
:10284000706F00F089FFB088002849D1B068002877
:10285000287D38D098B1B07B50B96068FFF7D2FDC1
:10286000606884F80880FFF7F9FD0020207006E01A
:10287000012804D16068FFF7CAFD00202072B888E3
:10288000B189BDF8044010FB01F1029800682246AE
:1028900009B200F062F97888B189BDF8042010FB14
:1028A00001F1306809B202F07AF8288860434FF4E9
:1028B0007A71B0FBF1F0401CB080B868B060B07BBA
:1028C000401CB0730CE000281CBFB07B042805D06E
:1028D000072805D10020B073B08001E04FF0000858
:1028E000404603B0BDE8F08FC068002100B9012167
:1028F0000846704701EB410300EB8300828270477A
:1029000001EB410300EB8300C282704701EB4103FE
:1029100000EB83000283704701EB410200EB820071
:10292000808A704701EB410200EB8200B0F916008B
:10293000704701EB410200EB8200B0F918007047CC
:1029400090F874007047827CD0F89000007A0021E3
:10295000824228BF01210846704710B54468002113
:10296000C16001812046FFF7F8FB01462046BDE823
:102970001040002202F013B8054A1178002903BF65
:10298000111D0123137000214861084670470000A3
:10299000680C00200268104781680847C0897047AA
:1029A000C189406940884843000C70473C4A13780D
:1029B000082B07D203EBC30102EB81015B1C091D4D
:1029C000137000E00021C8610020086208467047CB
:1029D000C16909880180C16949884180002141603D
:1029E000C16989688160C169C968C160C169098AB2
:1029F0000182C169498A4182C16989888182C1692C
:102A0000C988C182C169898A0183C169C98A418330
:102A10007047018070474180704700E002E0B0F9E4
:102A200000007047B0F90200704741607047F0B491
:102A30000022855EB0F91030B0F91240B0F90260A2
:102A40004D430EB9426015E0714346688F1906D5B3
:102A5000012EA8BF012906DB6FF0004703E0002E1E
:102A600044BF00290F4F8168B942A5BFC1688F429A
:102A700041604760018B466845FA01F7418B46FA91
:102A800001F5E9198B4202DA5A1A194603E0A1420C
:102A9000BCBF621A21469219426008B2F0BC70476E
:102AA000D001002001000080808A7047018301224C
:102AB00002FA01F181827047C08A70474183012286
:102AC0008A40C2EBC2318160C282A2EBC231C160D6
:102AD0007047C160704781607047418270470182D2
:102AE00070470000054A1178002903BF111D01231A
:102AF000137000210862084670470000200C002077
:102B0000036A01614261997B0170B3F910100904F5
:102B10004160B3F912100904816000214180C16055
:102B20008161598981839989C18370474161704767
:102B3000406970470178012903D100690021FFF73E
:102B400074BF70474068FFE7C11300EB11400014E9
:102B5000704701700021C1607047F0B41346066AE7
:102B6000057801220C46B5B987684FEAE73C07EBC8
:102B70001C47B0F81CC03F14A445B0F91EC0B8BF34
:102B80000022614519DB5AB3E3B92104012D0CBFC2
:102B90004160816013E04768B6F802C03F14A44565
:102BA000A4BFB6F908C0614507DBB6F804C06445A8
:102BB000BCBFB6F906C08C45E6DA002210E0002161
:102BC000C1600CE04180318859434FF47A73B1FB06
:102BD000F3F1491CC160E31B1B0493FBF1F181611C
:102BE000F0BC1046704770B5044620780028E068B5
:102BF0000CBFA5686568022803D3A1694D19401E62
:102C000005E0012804D1B4F9020005040020E060C9
:102C1000E81305EB10400614207801280CD16069F8
:102C2000FFF79BFA311A206909B2FFF700FF064649
:102C300030046560A06000E0A560304670BD006AA9
:102C4000B0F910007047006A40887047006AB0F918
:102C50000800704702780021012A04BFC1600121E9
:102C600008467047006AB0F9121081B0ADF8001044
:102C7000808AADF80200009801B070478183494214
:102C8000C183704710B504466069FFF766FA000417
:102C9000606010BD01B481B02649BDF90400ADF8F3
:102CA000000044F6E61210FB01F0BDF9061011FB1E
:102CB00002F1A0EB4100C01300F30F00ADF80200D9
:102CC00010F5004F04BF1C48ADF80200009802B098
:102CD000704731B582B008B200F051F80190BDF9EB
:102CE0000420BDF90830BDF90600BDF90A1013FB38
:102CF00002F400FB1144E41304F30F04ADF80040A8
:102D000013FB00F0BDF900500C4CA54204BF0A4D66
:102D1000ADF8005011FB0200C01300F30F00ADF836
:102D20000200A04204BF0448ADF80200009803B0BE
:102D300030BD00001AB6FFFF0180FFFF0080FFFFDB
:102D400011B583B008B200F01AF80190BDF9042063
:102D5000BDF90C30BDF90600BDF90E1013FB02F4ED
:102D600011FB004411FB02F100FB1310C013E4132C
:102D7000ADF80200ADF80040009804B010BDA0F519
:102D800000400004810D11F4407081B021D0B0F5F5
:102D9000807F2DD0B0F5007F03D0B0F5407F0AD002
:102DA00035E00FF27800CAB230F81220ADF80220F8
:102DB000C1F1FF0126E00FF26400C1F1FF02D2B2BF
:102DC00030F81220ADF80220C9B230F911004042AB
:102DD0001BE00FF24800CAB230F912205242C1F192
:102DE000FF01ADF80220C9B230F9110040420CE0F9
:102DF0000FF22800C1F1FF02D2B230F91220524284
:102E0000ADF80220C9B230F91100ADF8000001E0C0
:102E10002DED010A009801B0704700000000C900C4
:102E200092015B022403ED03B6047F0548061107F7
:102E3000D907A2086A09330AFB0AC40B8C0C540D8B
:102E40001C0EE30EAB0F72103A110112C8128F1351
:102E500055141C15E215A8166E173318F918BE196B
:102E6000821A471B0B1CCF1C931D571E1A1FDD1FF8
:102E70009F2061212322E522A62367242825E82517
:102E8000A82667272628E528A329612A1F2BDC2BE3
:102E9000992C552D112ECC2E872F4130FB30B5317A
:102EA0006E322633DF3396344D350436BA366F37FB
:102EB0002438D9388C39403AF23AA53B563C073D84
:102EC000B83D683E173FC53F73402141CE417A422D
:102ED0002543D0437A442445CD4575461C47C34716
:102EE00069480F49B449584AFB4A9D4B3F4CE04C56
:102EF000814D204EBF4E5D4FFB4F97503351CE5109
:102F0000685202539B533254C9546055F5558A5642
:102F10001D57B0574258D3586459F359825A0F5B22
:102F20009C5B285CB35C3E5DC75D4F5ED75E5D5FBA
:102F3000E35F6860EB606E61F0617162F162706323
:102F4000EE636C64E8646365DD655666CF6646676C
:102F5000BC673268A66819698B69FD696D6ADC6AAD
:102F60004A6BB76B236C8E6CF86C616DC96D306EFB
:102F7000966EFB6E5E6FC16F22708370E27040715F
:102F80009D71F9715472AE7207735E73B5730A74F2
:102F90005F74B27404755575A575F37541768D76B9
:102FA000D87622776B77B377FA773F788478C778CB
:102FB00009794A798979C879057A417A7C7AB67A29
:102FC000EE7A267B5C7B917BC57BF87B297C597CE8
:102FD000887CB67CE37C0E7D397D627D897DB07D09
:102FE000D57DFA7D1D7E3E7E5F7E7E7E9C7EB97E97
:102FF000D57EEF7E097F217F377F4D7F617F747F94
:10300000867F977FA67FB47FC17FCD7FD87FE17F0A
:10301000E97FF07FF57FF97FFD7FFE7F054A11781C
:10302000002903BF111D0123137000210860084609
:10303000704700001C0D002013B400910168BDF919
:103040000420BDF906000C8812FB02F310FB0033CC
:1030500064439C4215D291F8B0401B0E1B1BDBB29F
:1030600001EB430149884A4348439313811302EB20
:10307000534200EB5140D213C013ADF80020ADF81D
:103080000200009816BC704738B50D46FFF74AF8A5
:10309000044654480178002903BF011D0122027033
:1030A00000210FF24910C1F8D050A16220600FF248
:1030B000A10060600FF2E140A0600FF23510E06007
:1030C0000FF2293020610FF24D606061A06AD0F8E4
:1030D000D0001030FFF76AFCA16A4861204632BD7B
:1030E00010B4806A0A8802804A8842808A88828076
:1030F000CA88C2800A8902814A8982818A89C281FA
:1031000000F1C602CB8913800B8A53800122002371
:103110004382B1F90C40344B93FBF4F31BB207E04C
:10312000448A03EBD373DB03641C1B1452004482F8
:10313000002BF5D10282B1F90C10B0F9102011FB6F
:1031400002F142F6BE0291FBF2F1418110BC7047E0
:10315000F8B50446A66AD6F8D0502888308006F123
:10316000AE0768887080A888B080E888F0802889D9
:1031700030816889B081A889F08105F13000C1886B
:103180003983018979830021007838700120B87370
:103190007182B5F90C20144991FBF2F109B207E0F4
:1031A000728A01EBD171C903521C0914400072826A
:1031B0000029F5D13082B6F91010B5F90C0010FBDA
:1031C00001F042F6BE0190FBF1F07081204600F064
:1031D000E3F97069FFF7FCFB00202084E88DF88399
:1031E000F1BD0000000600205EEA0F0070470000FD
:1031F0002DE9F04F814689B0D9F82850B5F90E3045
:10320000286AC3EBC3368642B8BF304604DBA3EB63
:10321000C3378742A8BF384605F1C60228628246F6
:1032200054884AFA04F000B20390686A8642B8BF34
:10323000304604DBA3EBC3378742A8BF384640FAC9
:1032400004F368621BB20293B5F90C30AF69C3EBAB
:10325000C336BE42B8BFAE6104DBA3EBC334BC428D
:10326000A8BFAC61EF69BE42B8BF374604DBA3EB31
:10327000C333BB42A8BF1F46EF611388AF698A887A
:1032800047FA03F8A8EB02020FFA82FBEA6942FA56
:1032900003F6ADF80660BDF80630CE889B1B1BB266
:1032A0000793B5F90860B5F904300696B5F902C080
:1032B000B5F900E00C8905941EFB08F6A046B1F9AB
:1032C0000040BE1B069F04FB08F41BFB0C66241485
:1032D00017FB0466B5F90A40039F049407FB1366C5
:1032E000B5F906806C8AADF804401BFB08A7B9F954
:1032F0001E40DDF808A00097BDF80470DDF800B0AE
:10330000B1F902104AFA07F707FB04FA049F07FB1A
:103310000AB7BDF906A01EFB0AFEA2EB0E02DDF8FD
:103320001CE00EFB0C22DDF814E0DDF818C001FBF8
:103330000EF109141CFB0121029A02FB131A0799D2
:10334000BDF8042001FB0800039941FA02F3049A36
:1033500003FB04F102FB110803982885002C029856
:10336000688554BF01244FF0FF34B9F91800FFF706
:1033700006FD00900298BDF90010BDF9022010FB77
:1033800004F0404210FB01F003996143400011FB3F
:1033900002F100144900A0EB2141D9F8280040694E
:1033A000FFF745FBD9F82820D2F8D04094F8284000
:1033B00002F1AC010B785B1CDBB2A34208BF002317
:1033C00002EB4302948D0C8390850B7009B0B9F821
:1033D00018104018A9F81800AE612F62C5F81CA09B
:1033E000C5F82480B9F91800BDE8F08F2DE9F04F39
:1033F00000F11C040025E368D3F8D00090F828E021
:103400000027B8464046BEF1010F4646C446024674
:1034100008DB03F12C09F24639F902BBBAF1010AC3
:103420005D44F9D1BEF1010F95FBFEF50BDB03F115
:103430002C09F24639F902BBABEB050BBAF1010AD4
:103440000BFB0B77F6D105FB05F997FBFEF74FEA6F
:10345000A91E09EB5E6ED3F8D090B9F82A904FEA16
:10346000EE1E09FB0EFE7745A7687F89B8BF4FF0B7
:10347000010C6F4307EB87056F00FD1307EB154742
:10348000E5793F1497FBF5F70F8003F1AD01278035
:1034900081F800C003F1B40C9CF80850012D34D120
:1034A000E568D5F8D05005F1320E002FBEF8025075
:1034B00048BF7F42AF4222DA2833A66833F9008042
:1034C000B3F90230B6F9026018FB08F813FB038861
:1034D000C7EBC73393FBF6F39EF801605E437711A9
:1034E00006EB9766B6115E43731106EB93639EF885
:1034F00000709B1107FB13634345B8BF01220A719B
:10350000CCF80080CCF8046000E00122CB789BB1BD
:103510000B78002B18BF002A0DD18A78521C8A70B4
:10352000D2B2E368D3F8D03093F831309A4203D363
:103530008870BDE8F08F88700120BDE8F08FF0B48E
:10354000846AD4F8D02012F8286F577804F1AC01BF
:10355000F71B0D784B6908D104EB4504B4F92C40F6
:1035600003FA84F3B1F918400DE07F19B742A8BF00
:10357000BF1B04EB450504EB4704B5F92C50B4F927
:103580002C4003FA85F3528A1B1B43FA02F4C483CE
:103590004B61F0BC7047000038B5816A01F114043A
:1035A00000226260A260E26022610283C283002383
:1035B00001F1AE02137053709370D37041F8B43FB1
:1035C0004B60CB608B75CB75856AD5F8D00090F8D1
:1035D0002800012804DB410005F12C0001F046FA27
:1035E00005F1AC000021017001832068BDE8344082
:1035F000FFF71BBAF0B400F11C020020D468D4F825
:10360000D06004F1AD039D7F012D5D7F08BF115E89
:10361000012D37D0155E11FB05FCBCF1010F38DB25
:10362000002D44BF6D422DB2002948BF494216F813
:103630002C7F09B217FB01F74FEAE70C07EB1C7769
:1036400096F801C01CFB01F14FEAE10C01EB1C7183
:1036500093F800C03F030903BCF1010F18D1B4F87F
:10366000CC401FFA85FC644512D2B5EB214FA4BFB4
:103670003F14AF420CDB5978491C5970C9B23479F8
:10368000A14206D30120D87000219171F0BC70478F
:103690005870F0BC7047806AB0F9281081B0ADF85E
:1036A0000010408DADF802000EE0806AB0F8C61040
:1036B00050F8182F81B042FA01F3ADF8003040689D
:1036C00040FA01F2ADF80220009801B07047806A1C
:1036D00043880B80C08810807047806A4180C28018
:1036E000704770B5866A70690C461546FFF795F904
:1036F00020807069FFF792F9288070BD38B5856A1F
:1037000068691446FFF785F968692146BDE83440C9
:10371000FFF781B97047806A40690021FFF785B9DA
:1037200070B504460D46A06A40691646FFF7C4F915
:1037300000FB05F1A06A4069FFF777F9268370BDA9
:10374000806AD0F8B8007047806AD0F8B40070473B
:10375000806A90F8AD007047806A012180F8CA1035
:103760007047806A012180F8CB107047806AA0F80A
:10377000CC107047B5EEC00AF1EE10FA02D4B1EEEB
:10378000C00A70476FF0004C00EE10CA01F072B929
:1037900030B5DFF82C4D81B00120A060DFF8240D9A
:1037A0002060256800F0A8F885421CBF206880478B
:1037B000DFF8140D0021016041600FF24D018160BE
:1037C0000021C1600161416101B030BD30B5DFF859
:1037D000F04C81B00120A060DFF8E80C2060256883
:1037E00000F08AF885421CBF20688047DFF8D80CBB
:1037F0000021016041600FF24D0181600021C16034
:103800000161416101B030BD00B5DFF8B40C81B099
:1038100001218160DFF8B42CDFF8B41C016001687D
:1038200091421CBF00688047DFF89C0C00210160BA
:10383000416081600FF23531C16000210161416159
:1038400001B000BD00B5DFF8780C81B001218160C6
:10385000DFF8782CDFF8781C0160016891421CBF0A
:1038600000688047DFF8600C0021016041608160E2
:10387000C16001610FF20901416101B000BD0000AA
:1038800000B5DFF83C0C81B001218160DFF83C2CF1
:10389000DFF83C1C0160016891421CBF0068804752
:1038A000DFF8240C002101600FF2DD2141600021CE
:1038B0008160C1600161416101B000BD00B5DFF808
:1038C000000C81B001218160DFF8002CDFF8001CC2
:1038D0000160016891421CBF00688047DFF8E80B77
:1038E0000FF26D210160002141608160C1600161C2
:1038F000416101B000BD0000F0B5A0B0002300A9F7
:103900004FF0FF3222FA03F404F0010441F8044BB3
:103910005B1C22FA03F404F0010441F8044B5B1C25
:1039200022FA03F404F0010441F8044B5B1C22FA70
:1039300003F45B1C04F00104202B41F8044BE1D399
:103940000021DFF8942B00AB9D6FDC6F5E6FAD073D
:1039500005EBC47505EB46751E6F05EB0675DE6E4F
:1039600005EBC6659E6E05EB86655E6E05EB4665EE
:103970001E6E05EB0665DE6D05EBC6559E6D05EB0F
:1039800086555E6D05EB46551E6D05EB0655DE6CE6
:1039900005EBC6459E6C05EB86455E6C05EB464522
:1039A0001E6C05EB0645DE6B05EBC6359E6B05EB25
:1039B00086355E6B05EB46351E6B05EB0635DE6A1C
:1039C00005EBC6259E6A05EB86255E6A05EB462556
:1039D0001E6A05EB0625DE6905EBC6159E6905EB3B
:1039E00086155E6905EB46151E6905EB0615DE6852
:1039F00005EBC6059E6805EB86055E6805EB46058A
:103A0000009E7519C1F11F0620FA06F707F001069E
:103A1000744000940226009C6C4004F001045C6039
:103A200002AC009F22FA06FC0CEA0707A6F1010C83
:103A300025FA0CFE8EEA070707F0010744F8047B1D
:103A4000761C009F22FA06FC0CEA0707A6F1010C7F
:103A500025FA0CFE8EEA070707F0010744F8047BFD
:103A6000761C009F22FA06FC0CEA0707A6F1010C5F
:103A700025FA0CFE8EEA0707761C07F00107202EB8
:103A800044F8047BCDD3491C2029FFF45DAF996F26
:103A9000D86F890701EBC070596F00EB4170196F47
:103AA00000EB0170D96E00EBC160996E00EB816094
:103AB000596E00EB4160196E00EB0160D96D00EBAF
:103AC000C150996D00EB8150596D00EB4150196D5B
:103AD00000EB0150D96C00EBC140996C00EB8140C8
:103AE000596C00EB4140196C00EB0140D96B00EBC5
:103AF000C130996B00EB8130596B00EB4130196B91
:103B000000EB0130D96A00EBC120996A00EB8120FB
:103B1000596A00EB4120196A00EB0120D96900EBDA
:103B2000C110996900EB8110596900EB41101969C6
:103B300000EB0110D96800EBC100996800EB81002F
:103B4000596800EB41000099081820B0F0BD000052
:103B5000DFF8740900210160DFF868194160002175
:103B60008160C1600161416170470000DFF8580960
:103B700000210160DFF86419416000218160C160AB
:103B80000161416170470000DFF83C09DFF850191E
:103B90000160002141608160C16001614161704745
:103BA000DFF840291178002903BF111D012313708C
:103BB0000021C1F89C0008467047F0B5044681B06A
:103BC000D4F89C600D463046FEF718FA0746FEF71B
:103BD0002FFA2761DFF8F0783868804778688047E7
:103BE0000020A4F85800A4F85A0020626062A06285
:103BF000E0622065B06AC4F88000B8688047F86861
:103C0000804770682063002084F83400A063E0637C
:103C1000A4F84000A4F84C00A4F84E00786880474F
:103C2000B8688047308896ED020A00EE900AF8EEF8
:103C3000600A60EE800AFDEEE00A10EE900AA4F839
:103C40005C00D6ED040A80EE800ABDEEC00A10EEDC
:103C5000100AA4F85E00D6ED070A308800EE100ABC
:103C6000B8EE400A20EE200ABDEEC00A10EE100A9F
:103C7000A4F86000D6ED080A308800EE100AB8EE0D
:103C8000400A20EE200ABDEEC00A10EE100AA4F889
:103C9000740078698047786880473868804728686A
:103CA000206001B068686060A868A060E868E060B3
:103CB000002084F862006066A06684F86C002067CB
:103CC000307B84F87600F089A4F87800F06AC4F8B4
:103CD0008400306BC4F88800706BC4F88C0000203E
:103CE000C4F89000C4F89400F0BD90F8621071B967
:103CF00080F834108163C163A0F84010A0F84C1024
:103D0000A0F84E10C0F89010C0F8941070470A2127
:103D100080F834107047002180F83410704700009C
:103D20002DE9F041044694F83400D4F89C602569EC
:103D3000092800F2C882DFE810F00A004200C6023B
:103D4000C602C6029500C0002D015901F00161684C
:103D5000002081F824000021E068FEF7FAFE002030
:103D6000A063E063A4F84000A4F84800A4F84C0065
:103D7000A4F84E000120A4F84A00002084F86C004A
:103D80002068FEF7EAF900EB4001002249002846CE
:103D9000FEF767F9D4F880104FF47A722846FEF7E0
:103DA00060F9012084F834006068B0F9100000EE7A
:103DB000100AB8EEC00A84ED240ABDE8F081284656
:103DC000FEF73EF900EE100AB8EEC00A84ED1C0AB8
:103DD000204600F0B0FA07462846FEF786F900288C
:103DE00000F07182B4F84E00401C012FA4F84E0080
:103DF00005D0B4F8741080B2814280F064822068EB
:103E0000FEF7ABF900EE100AB8EEC00AF1EE080AB0
:103E100020EE200A84ED140A41F28832D6ED050A1C
:103E200020EE200ABDEEC00A10EE100AA4F85800D9
:103E300094ED140AD6ED060A20EE200ABDEEC00A63
:103E400010EE100AA4F85A000020E063A4F8400025
:103E50006064A4F84E002846B4F95A10FEF701F940
:103E600005202EE22846FEF7EBF800EE100AB8EE29
:103E7000C00A84ED1C0A204600F05DFA064628467A
:103E8000FEF733F9002800F01E82B4F84E00401C03
:103E9000012EA4F84E0005D0B4F8741080B281420F
:103EA00080F011820020E063A4F840006064A4F870
:103EB0004800A4F84E00062003E294ED1C0A2046B8
:103EC00000F039FA2068FEF748F9E16B01FA80F05A
:103ED0006168E063B1F90C10A06B4018A063B4F8FE
:103EE0004000B4F85C10401CA4F84000606C401C1A
:103EF0006064B4F84000814280F0E581E16BB4F881
:103F0000602091FBF0F0B4F84810A4F84800091ABA
:103F1000A4F84A1009B2002948BF49420020E063D2
:103F2000A4F84000606C8242A4BF09B2052980F267
:103F3000CA81A16B91FBF0F0A082DFEDE40AB4F935
:103F4000480000EE100AB8EEC00A94F8760020EEA1
:103F5000200A00EE900AF8EE600A20EE200A84EDB6
:103F6000060A2068FEF7F9F800EE100A0020B8EE05
:103F7000C00AF1EE080AA4F84E0020EE200AB4F9B7
:103F8000581084ED1C0A41F288322846FEF769F881
:103F9000072096E12846FEF753F800EE100AB8EE27
:103FA000C00A84ED1C0A204600F0C5F906462846E2
:103FB000FEF79BF8002800F08681B4F84E00401C04
:103FC000012EA4F84E0005D0B4F8741080B28142DE
:103FD00080F079810020A063E063A4F84000606471
:103FE000A4F84800A4F84E0008206AE194ED1C0AE9
:103FF000204600F0A0F92068FEF7AFF8E16B01FA67
:1040000080F06168E063B1F90C10A06B4018A06308
:10401000B4F84000B4F85C10401CA4F84000606C98
:10402000401C6064B4F84000814280F04C81E16B38
:10403000B4F8602091FBF0F0B4F84810A4F8480000
:10404000091AA4F84A1009B2002948BF49420020C1
:10405000E063A4F84000606C8242A4BF09B2052965
:1040600080F23181A16B91FBF0F0E0829FED970A25
:10407000B4F9480000EE900AF8EEE00A94F87600F1
:1040800020EE800A00EE900AB4F91400F8EE600AFF
:1040900020EE200A00EE900AB4F9160084ED070A1B
:1040A00001EE100AF8EEE00AB8EEC11A70EEC10A8D
:1040B00094ED061A31EE400A80EE800ADFED840AA4
:1040C000B4EE600A84ED080AF1EE10FA48BFC4EDC0
:1040D000080A94ED060AD4ED070AB4F91410B4F9ED
:1040E0001620E06830EE600ADFEDE90A20EE200AD3
:1040F00084ED090A8A42D4ED070A30EE200A84EDE5
:10410000090AB2BF00220022B4F97810FEF725FD9B
:104110000020A4F84E000920D3E0B4F84E00401C63
:10412000A4F84E002068FEF718F800EE900A94F804
:1041300076009FED660AF8EEE00A01EE100A60EEE6
:10414000800AB8EE411A60EE810A94ED091AF4EE85
:10415000410AF1EE10FA08DAB4F87400B4F84E101F
:1041600000EB4000884280F2AE803088A56800EE07
:10417000900AB4F84E0001EE100AF8EE600AB8EEAC
:10418000411A81EE201A84ED0A1AF6EE001A81EE29
:10419000811AF3EE0E1A21EE211A84ED0C1A94ED19
:1041A0000A1AD4ED081A94F8760021EE211A84ED4B
:1041B0000B1A1021D4ED0C1A21EE211A21EE000A5F
:1041C00001EE100AB8EE411A20EE010A84ED190A38
:1041D000102694ED0A1A80EE010A80EE200A84ED82
:1041E0001A0A00270F2047F6FF72012301E0102969
:1041F00010D103FA00FC00EE10CAB8EEC00AD4EDEC
:10420000190A20EE200ABDEEC00A10EE108A904571
:10421000B8BF41B2B6B2102E10D103FA00F700EECB
:10422000107AB8EEC00AD4ED1A0A20EE200ABDEECC
:10423000C00A10EE107A9742B8BF46B2401E89B24B
:10424000D5D5102907D02846FEF730FC0FFA88F1A3
:104250002846FEF7DEFBB6B2102E07D031462846C0
:10426000FEF72CFC39B22846FEF7D5FBB4F97810DE
:104270002846FEF734FCB4F87800414209B22846DB
:10428000FEF72BFC2846FEF717FCB4F8781000FB6D
:1042900001F631462846FEF71EFC71422846FEF71D
:1042A00018FC012084F862000121E068FEF751FC4F
:1042B0002068FDF752FF0146E0680022FEF74DFC42
:1042C0000A2084F83400BDE8F08100009CC4203F3F
:1042D0000AD7233C10B5044694F86200A8B9616877
:1042E00081F824000021E068FEF733FC6068B0F933
:1042F0001010E0680022FEF730FCE068BDE81040D6
:104300004FF47A620021FEF728BC10BD002180F82E
:104310006210704790ED140AFEF77ABD0B207047CB
:1043200090F83400704790F8340000210A2808BF44
:1043300001210846704730B5044681B000252DEDB7
:10434000048BD4F89C00D0ED098A2068B0EE408A36
:10435000FDF703FF00EB4001480000EE100A94ED6A
:10436000221AB8EEC09AB5EE401A38EE490AD4EDDA
:10437000210AF1EE10FA60EE800A08BFC4F89050EE
:104380000BD0D4ED251A70EE611A94ED240A01EEDB
:10439000810A84ED240A70EE800AB4F8780001EEF8
:1043A000100AB8EE411AB4EE601AB0EE600AF1EEEF
:1043B00010FA48BFB0EE410A404201EE100AB8EED2
:1043C000C11AF4EE410AF1EE10FA48BFB0EE410A0C
:1043D00070EEC00A94ED231AE068BDEEC00A60EEEC
:1043E000810A10EE101AC4ED250A002209B2FEF768
:1043F000B4FB28EE280AB4EE409AF1EE10FA15D478
:10440000B4EE489AF1EE10FA0AD4B0EE000A30EE9B
:10441000680A20EE080AB4EE409AF1EE10FA05D5CB
:1044200094F86C00401C84F86C0001E084F86C5037
:1044300094F96C00142803DB142084F86C00012527
:10444000BDEC048B284601B030BD80F87610704773
:10445000A0F87810704780ED0C0A704790ED0C0AB8
:104460007047000090ED0B0AD0F89C1091ED0F1AE8
:10447000DFED180A20EE200AD0ED260A20EE200AF1
:10448000D1ED0E0A60EE810A80EE200A704700002E
:10449000AE47213F90ED080AD0F89C1091ED0F1A1D
:1044A000DFED0C0A20EE200AD0ED260A20EE200ACD
:1044B000D1ED0E0A60EE810A80EE200A70470000FE
:1044C0000030024091370008300000200AC34C3011
:1044D00033BB55AACB151E35B71DC104CD37000817
:1044E000BD3800088C070020C0F88010704780EDB0
:1044F000260A704790F8620070470000010040F102
:104500000780F446404200F003F851F00041604754
:1045100009D0B0FA80F18840C91CC1F58461090551
:1045200001EBD02140057047B0B581EA030C0CF0D7
:10453000004C40F2FF7515EA11541DBF15EA1357E0
:10454000AC42AF4239E0E41923EA455343F4801307
:10455000C90241F0004141EA505EC7021100A7FBC9
:10456000020200284FF00000EEFB01204FF0000196
:10457000E3FB072118BF42F0010240180021494126
:10458000E3FB0E01A4F580640F0302D25200404108
:10459000494154F101046CDD470872F1004250F1C9
:1045A000000051EB0451A1F580115CBF41EA0C0100
:1045B000B0BD4CEA05510020B0BD05EA1357AC422E
:1045C00014BFAF4241E050EA410E1CBF52EA430E15
:1045D00002E061460020B0BD24423C441BD15FEAAA
:1045E000070EF6D0090302BF01460020AEF1140EFB
:1045F000B1FA81F7AEEB070401FA07FE0C37C7F1F9
:10460000200100FA07F7C8404EEA000E23EA45539E
:1046100043F48013A2E733F00043B3FA83F704BFF7
:10462000B2FA82FE77440B3FE41BB7F1200E2FBF96
:1046300002FA0EF3BB40C7F1200E22FA0EFE38BF7D
:1046400043EA0E03BA40641C82E750EA410E14BFED
:1046500052EA430E6FF000014FF4001717EB430FBF
:104660008ABF194617EB410FB5E74CEA0551002008
:10467000B0BDD4F10104B4F120070FDAC4F1200772
:10468000520828BF42F0010210FA07F501FA07F7B5
:10469000E1BF2A43E0403843E1400FE0352C98DC8D
:1046A000C7F1200452EA400220FA07F218BF42F094
:1046B000010231FA07F0A1400A43002172F10042E1
:1046C00050F1000051EB0C01B0BD0000F446400D6C
:1046D00040EAC120490006D200F00EF8004248BF6F
:1046E0006FF00040604700F007F84FF0004188424B
:1046F0008CBF08464042604740F00040490DA1F59C
:104700008061491C05D4D1F11F0154BFC840C017B6
:1047100070474FF0000070475FF0FF0C1CEAD0516B
:1047200014BF614506E0C110400721F0E04101F1EE
:104730006051704779B900F0004100020AD0B0FA28
:1047400080FC00FA0CF001F16051A1EB0C5101EB7F
:10475000D0214005704741020CBF40F4E0016FF0EA
:1047600000010020704700004FEAF17CBCF1E04CF2
:104770002CBFBCF5001F11E05FEA4C0C34BFBCF14C
:104780007F5F2EE05FEA9C0C4FEA0C1C4FEA3C0C6A
:10479000C10071F100414CEB50707047C90241EA11
:1047A0005051C00218BF41F0010141F000414FEAF1
:1047B0006C50C0F10900212810D240EACC7CCCF129
:1047C000200C11FA0CF070F10040CCF1200C21FA11
:1047D0000CF00CF0004C40EB0C0070474FEACC7032
:1047E0007047490011F5001F04D84FEACC10FF3084
:1047F000C0057047C817704710B50C46FDF792FC0E
:104800000C490A78002A03BF0A1D01230B700022FD
:104810000FF225015461416082620FF22101816033
:104820000FF24901C1600FF2E50101610FF2591168
:10483000416110BD880C002000BF00BF816A00F1FB
:1048400018020023138053809380D38013819372C6
:104850000B604B600B810B820B734B73806A40695A
:104860004088C8818B74CB7470470000F0B4846AB0
:10487000E27C0125012A00F1180308BFB1F90020EC
:104880003FD0228ADE88B2182282B3F90660DF7A2E
:104890005A8896FBF7F6B2185A80227B012A2ED14D
:1048A000B4F90E2022B98A5E65730020987228E060
:1048B000A2F1010CA4F80EC0806AB3F90670B4F935
:1048C0001020B1F900604069B0F90200002F52BF1A
:1048D000B71A971B4FF0FF353FB217FB0CFC9CFB40
:1048E000F0F010FB05F0002F00B204D40122A274F6
:1048F00009880A1A05E0A17C19B1821901E0B4F90E
:1049000010201A8010B2F0BC7047000030B4826AE8
:10491000148900F11803406A022C19D354681568F1
:104920002C195460E51304EB15442414DC804089F1
:10493000B3F90640604300EB80046000DC7A240495
:1049400090FBF4F00880088898801089401E13E0DE
:10495000012C13D1B2F90A400C809C804089B1F936
:10496000001000EB80040904600091FBF0F0D97A9C
:1049700010FB01F0D8800020108101E098880880A9
:1049800030BC507B7047000000F11802806A018241
:104990000846D37A118090FBF3F050807047F0B452
:1049A000846A466A656900F11803207B90BB08049D
:1049B0007AB99980728902EB82056A0090FBF2F065
:1049C000DA7A10FB02F0D880618100202081F0BCEF
:1049D00070472D886A434FF47A75B2FBF5F2521C8A
:1049E000228192B27689DD7A06EB86077E0090FB03
:1049F000F6F0B3F9066096FBF5F600B236B2801B0E
:104A0000000490FBF2F0684320606181B3F9060076
:104A100000046060F0BC7047012201290BD1836A59
:104A20001973816A4B69B3F9023023B94A730021C3
:104A300080F82210002210467047806A90F80CC05F
:104A4000002200231146BCF1010F407B08BF012268
:104A5000012808BF012393EA020018BF012108467C
:104A60007047806A0121C17470470000002200F085
:104A700007B800001FB500F01DF8212101601FBD1F
:104A800000B500BF130096469446103928BFA0E831
:104A90000C50FAD85FEA417C28BF0CC048BF40F8F0
:104AA000042BC90728BF20F8022B48BF00F8012BB0
:104AB00000BD0000014800F003B800009C00002089
:104AC0007047000038B50D46FDF79EFB0446DFF841
:104AD000A40D0178002903BF011D012202700021ED
:104AE0000FF6A9408D62216720602146A87A01F067
:104AF000E3F80FF2710060600FF2F960A0600FF64A
:104B00003510E0600FF6A90020610FF221606061AE
:104B10000FF64500A0610FF6851020620FF6E91030
:104B200060620FF66520A0620FF6CD20E0620FF6FE
:104B3000413020630FF6B93060630FF6C940A063BF
:104B40000FF6E940E0610FF64150E0630FF6E150E7
:104B50006064DFF8240DA064DFF8200DE0642046D7
:104B600032BD00002DE9F0438DB0074607F150003B
:104B7000F96E3C6F0988A56ADFF8049D4908A18297
:104B80004FF00108697901290CBF0021012101744E
:104B900005F12C06DFF8EC0C016841F4805101604E
:104BA0004FF48070012101F0E9F841464FF40070A4
:104BB00001F0E4F8414640F2FF1001F0CDF8404624
:104BC00001F086F830684845414606D1012001F0E1
:104BD000D5F8DFF8200E206207E0022001F0CEF8C1
:104BE000DFF8140E20624FF003083068394600F0F9
:104BF00084F900A801F02BF9288A009000A903206D
:104C00008DF8040005F1580700208DF80700E868CA
:104C100001F0E4F8298AE86801F022F9288B009075
:104C200000A903208DF80400686901F0D7F8298BEA
:104C3000686901F015F9288C009000A903208DF80F
:104C40000400E86901F0CAF8298CE86901F008F964
:104C5000308A00F025FE0146F068424601F01EF958
:104C6000B08B00F01DFE0146B069424601F016F916
:104C7000308D00F015FE0146706A424601F00EF9D3
:104C80000020ADF8060000A902208DF804008DF880
:104C90000500308A0090F06801F0A0F8B08B009019
:104CA00000A9B06901F09AF8308D009000A9706AEF
:104CB00001F094F8318AF06801F0D2F8B18BB06954
:104CC00001F0CEF8318D706A01F0CAF83878012809
:104CD00036D1388900F0E4FD01467868424601F09B
:104CE000DDF8B88A00F0DCFD01463869424601F083
:104CF000D5F8388C00F0D4FD0146F869424601F041
:104D0000CDF83889009000A9786801F067F8B88A72
:104D1000009000A9386901F061F8388C009000A972
:104D2000F86901F05BF83989786801F099F8B98A77
:104D3000386901F095F8398CF86901F091F825E0AF
:104D4000022823D101208DF8040000A938890090A1
:104D5000786801F043F8B88A009000A9386901F03A
:104D60003DF8388C009000A9F86901F037F83989CE
:104D7000786801F075F8B98A386901F071F8398CF2
:104D8000F86901F06DF802208DF8040005F17C0748
:104D9000387888B1388900F083FD0146786842464A
:104DA00001F07CF83889009000A9786801F016F8C5
:104DB0003989786801F054F83068DFF8C08DDFF881
:104DC000C07D484507BF012101200121022001F0DB
:104DD00079F812208DF8080002208DF809000020D3
:104DE0008DF80A0001208DF80B0002A801F07BF875
:104DF000306848450CBF19202C208DF80800002091
:104E00008DF809008DF80A0001208DF80B0002A82A
:104E100001F069F80121404601F0D6F80121384639
:104E200001F0D2F86879012809D1002003902868A0
:104E3000049000200590069003A801F0B7F807A899
:104E400001F0AAF800200790ADF820000A9007A909
:104E50004FF400600B9001208DF83000404601F0C7
:104E60007BF807A9384601F077F80121404601F0A8
:104E7000E8F80121384601F0E4F8AB7CE97A012238
:104E8000404601F0B5F8AB7EE97C0122404601F0D6
:104E9000AFF895F82230E97E0122404601F0A8F8EB
:104EA000AB7CE97A0122384601F0A2F8AB7EE97CBE
:104EB0000122384601F09CF895F82230E97E012263
:104EC000384601F095F80421404601F0CEF8012261
:104ED00040F20741404601F0BDF830684845D8F837
:104EE000080020F47C100CBF40F4801140F4F01155
:104EF000E061A1610DB0BDE8F0832DE9F04F8A4675
:104F00008DB0DAF87060D6F828B0814601F0B2F8BA
:104F100009A801F083F90BF104074FF48078387881
:104F2000401EADF824000BF126042020ADF8260029
:104F300009A9B08A0A90ADF82C800BF158052078A9
:104F40008DF82E00484601F036F900A801F05EFA0F
:104F50006020ADF800000120ADF80200B08A4008E2
:104F60000290E089ADF80C00208BADF81000287895
:104F7000012809D10420ADF804006888ADF80E00BE
:104F80006889ADF8120002E00020ADF8040000A925
:104F9000484601F058F9608BADF80C00A08CADF8D4
:104FA00010002878012805D1A889ADF80E00E88AFC
:104FB000ADF8120000A9484601F078F9E08CADF890
:104FC0000C00208EADF810002878012805D1288B20
:104FD000ADF80E00688CADF8120000A9484601F04B
:104FE0009BF97020ADF8000000A90020ADF80C007E
:104FF000ADF81000DAF87000808A401F0290484631
:1050000001F0C1F90821484601F038FA0821484664
:1050100001F03BFA0821484601F03FFA08214846D2
:1050200001F042FA05A801F067FA4FF40060ADF80C
:105030001400ADF818804FF48060ADF81600388C7D
:105040004008ADF81A000BF17C00017891B14FF4E3
:105050008051ADF81C1080214088ADF81E00002062
:10506000ADF82000484601F06DFA01228021484643
:1050700001F056FA05A9484601F030FA10214846D9
:1050800001F064FA0621484601F06EFA0121484613
:1050900001F04EFA3879022810D17879012804BF3E
:1050A000207803280DD10120A9F8300001214846BD
:1050B00001F03EFA0320A9F8300002E078780128D8
:1050C00004D1B08A411E484601F0B1F80DB0BDE8E8
:1050D000F08F00B583B00121012000F046FE4FF0B3
:1050E000804000F0C7FF00A801F098F80020009071
:1050F00000A9012001900020ADF808004FF0804089
:1051000001F059F820214FF0804001F024FA0121EC
:105110004FF0804001F08DF84FF0804000F0AAFF82
:105120000021012000F021FE03B000BDF8B50646C5
:105130000020356FAF6AFC6A28606860A860E87577
:105140004EF6AA21208C084020840FF2AD10B060EA
:10515000F87AC003E860F87CC0032861304600F0AC
:1051600027F904E0A089C0075CBF1020E875E87D3E
:105170001028F7D30020E8750FF2AD10B060F87E6C
:10518000C003E860F87EC0032861304600F010F9E3
:1051900004E0A089C0075CBF1020E875E87D0828FE
:1051A000F7D32868C00828606868C0086860A868E5
:1051B000C008A8600FF23D00B0604FF2F770218B7D
:1051C00001402183A18B0840A083A88A6063A88A3C
:1051D000A063A88AE06340F60800218B0143218385
:1051E000A18B0843A08340F25551208C08432084B2
:1051F000F1BD000010B4026F146A002323609375A0
:1052000090F85200052874D8DFE800F0234C4C03D6
:105210000323DFF8740A00681368A3EB4003DFF888
:105220006C0A8342B8BF034604DBB3F5004FA8BF46
:1052300047F6FF730B80DFF8583A1B685268A2EB01
:105240004302824251DBB2F5004F51DB47F6FF705B
:105250004BE0DFF8340A00685368A3EB4003DFF843
:105260002C0A8342B8BF034604DBB3F5004FA8BF46
:1052700047F6FF734B80DFF8183A1B689268C2EB61
:105280004302B1F90230D21AB2F5004FA8BF47F677
:10529000FF7001DA824202DA088010BC70470A808F
:1052A00010BC7047DFF8E00900681368A3EB400307
:1052B000DFF8D8098342B8BF034604DBB3F5004FDB
:1052C000A8BF47F6FF730B80DFF8C4391B689268EC
:1052D000C2EB4302B1F90030D21AB2F5004FA8BFB9
:1052E00047F6FF7001DA824202DA488010BC70474C
:1052F0004A8010BC70470000006F026A00211160F4
:105300008175C17D10290ED20168DFF87C291268F1
:1053100051180160DFF8782941681268511841601E
:10532000C17D491CC1757047006F026A0021116080
:105330008175C17D08290DD28168DFF84C2912687A
:105340005118DFF84C298160126851188160C17DC5
:10535000491CC1757047000038B5006F846AE56A62
:105360000121284601F0EDF800206863A863E86396
:105370000121284601F0DEF80028F9D00121284655
:1053800001F0C3F814F8580F022810D12189606881
:10539000012200F07EFDA18A2069012200F079FD42
:1053A000218CE069BDE83840012200F072BD31BDBA
:1053B00038B5006F856ADFF8C407EC6A016821F030
:1053C0000C010160DFF8B807016821F00C010160F1
:1053D0002046012101F0B5F801220121204601F00B
:1053E0009FF80121204601F090F815F8580F022887
:1053F0001FD168682989228C40F255531A4209D07E
:10540000012200F046FDA98A2869012200F041FD31
:10541000012208E0002200F03CFDA98A2869002250
:1054200000F037FD0022298CE869BDE8384000F023
:1054300030BD31BD38B5006F856AEC6A00220121AC
:10544000204601F06DF8208C4FF6AA2108402084F8
:105450000121204601F06EF810B9A089C007F7D5E8
:105460000021204601F051F815F8580F02280ED1FE
:1054700029896868002200F00CFDA98A28690022A9
:1054800000F007FD298CE869002200F002FD208C65
:1054900040F255510843208431BD0000F0B400F1C2
:1054A0005001543048F6FF76C469A26AD36A9D8BD6
:1054B00035409D839D8B45F4E0459D830688A58AF4
:1054C000B2F828C0AF1BBFB2BC4538BF691E1AD3A3
:1054D000C988711A7F0089B28F4202D2518D711A28
:1054E00011E00CEB060189B2A9420CD39D8B48F662
:1054F000FF7635409D839D8B45F4C0459D83A58AED
:10550000C1EB4501491E29E1F0B400F150045430CB
:1055100048F6FF76C369996ACA6A958B35409583C8
:10552000958B45F4E0459583E4889D8A0F8D2E1B6D
:10553000B6B2B74238BF6C1E1CD3B0F800C0A4EBA3
:105540000C0C76001FFA8CFC664502D24D8D641B54
:1055500010E03C19A4B2AC420CD3958B48F6FF7610
:1055600035409583958B45F4C04595839D8AC4EB62
:105570004504641ECD7AED03DD60A4B2C97EC90383
:1055800019611464F2E00000F0B400F150015430ED
:1055900048F6FF76C469A26AD36A9D8B35409D8325
:1055A0009D8B45F4E0459D83CE88A58AB2F828C03E
:1055B000AF1BBFB2BC4538BF691E1AD30989711A27
:1055C0007F0089B28F4202D2518D711A11E00CEB2B
:1055D000060189B2A9420CD39D8B48F6FF7635406F
:1055E0009D839D8B45F4C0459D83A58AC1EB4501F4
:1055F000491ED57AB3E00000F0B400F150015430F8
:1056000048F6FF76C469A26AD36A9D8B35409D83B4
:105610009D8B45F4E0459D830E89A58AB2F828C08C
:10562000AF1BBFB2BC4538BF691E1AD3C988711AF7
:105630007F0089B28F4202D2518D711A11E00CEBBA
:10564000060189B2A9420CD39D8B48F6FF763540FE
:105650009D839D8B45F4C0459D83A58AC1EB450183
:10566000491ED57AED03E56089B2D27C7BE000006B
:10567000F0B400F15004543048F6FF76C369996ADB
:10568000CA6A958B35409583958B45F4E0459583A3
:1056900024899D8A0F8D2E1BB6B2B74238BF6C1E6F
:1056A0001CD3B0F800C0A4EB0C0C76001FFA8CFCE5
:1056B000664502D24D8D641B10E03C19A4B2AC4289
:1056C0000CD3958B48F6FF7635409583958B45F442
:1056D000C04595839D8AC4EB4504641ECD7AED03D5
:1056E000DD60A4B2C97CC903196114643EE0000006
:1056F000F0B400F15001543048F6FF76C469A26A54
:10570000D36A9D8B35409D839D8B45F4E0459D83F9
:105710000688A58AB2F828C0AF1BBFB2BC4538BF07
:10572000691E1AD30989711A7F0089B28F4202D289
:10573000518D711A11E00CEB060189B2A9420CD30C
:105740009D8B48F6FF7635409D839D8B45F4C04583
:105750009D83A58AC1EB4501491E00BFD57CED03A1
:10576000E56089B2D27ED20322611964C1698A6A76
:10577000D26A03885363438893638088D063897DAA
:10578000F0BC481E8041C043C00F704770B4026F28
:10579000946A00F15001E06A01239375DFF8DC336D
:1057A0001D6805F00C05082D05D11C6804F00C04DB
:1057B0000C2CFAD10FE0002DE6880CD1456AB542D9
:1057C000FCD31C6804F00C04082C04D11C6804F001
:1057D0000C040C2CFAD1D4699C60D569DFF8B44470
:1057E0002560058C45F48055058490699860906922
:1057F0002060D06898631069206301F1100070BCCC
:105800007047000010B5DD4C61630221204600F0B6
:105810002CFCDFF884140120086020688007FCD588
:105820002046BDE8104000F0D8BB000002B49DF84F
:1058300000209DF80110DFF8640407230A2A0CDB1E
:105840000A3AD0F800C002EB420293402CEA03036C
:1058500091401943016001B07047D0F804C002EBD9
:10586000420293402CEA030391401943416001B086
:1058700070470000C80B0020FD590008D95A0008E5
:105880000000014030380240006F806AC16A0A8A15
:105890000020120603D54FF67F7240200A8270471F
:1058A000022824D0042824D0082824D0102824D06A
:1058B000202824D0402824D0802824D0B0F5807F10
:1058C00023D0B0F5007F22D0B0F5806F21D0B0F5A5
:1058D000006F20D0B0F5805F1FD0B0F5005F1ED004
:1058E000B0F5804F1DD0B0F5004F1CD01DE0012059
:1058F000704702207047032070470420704705203E
:10590000704706207047072070470820704709201D
:1059100070470A2070470B2070470C2070470D20FD
:1059200070470E2070470F2070470020704700001E
:105930002DE9F041044604F15005266FB76A687CF2
:10594000D7F82C80002845D160220021404600F085
:1059500067FD01220021404600F0AEFD002200213B
:10596000404600F0ADFD0021404600F081FD97F873
:10597000580001280CD110220421404600F050FDAF
:1059800000220421404600F097FD042204210DE08E
:1059900002280ED120220421404600F041FD0122C0
:1059A0000421404600F088FD00220421404600F01A
:1059B00087FD70220821404600F032FD00220821B8
:1059C000404600F079FD00220821404600F078FDB5
:1059D000706830600FF27910A0600FF2A910A0611A
:1059E0000FF2F9102061AE48E06001206874BDE854
:1059F000F081000030042042308420422DE9F04143
:105A0000044604F15005276FBE6A687CD6F82C80E6
:105A100001285FD160220021404600F001FD0122F3
:105A20000021404600F048FD96F85800012802D1B8
:105A30000422002103E0022804D100220021404674
:105A400000F03EFDB88A4108404600F011FD60229A
:105A50000421404600F0E4FC01220421404600F00D
:105A60002BFD96F85800012802D10422042103E0FE
:105A7000022804D100220421404600F021FDB88A0A
:105A80004108404600F0F6FC60220821404600F044
:105A9000C7FC01220821404600F00EFD96F8580090
:105AA000012808BF042202D0022804D100220821C4
:105AB000404600F005FDB88A4108404600F0DCFC95
:105AC0007848A0607848A061784820617448E06018
:105AD00000206874BDE8F08170B400F15402D3690D
