:020000040800F2
:10000000801100203D9F0008DFF800F04913001028
:10001000DFF800F03B130010DFF800F03B0A00109F
:10002000DFF800F0E50F0010DFF800F045130010D6
:10003000DFF800F0FD090010DFF800F0A90A001059
:10004000DFF800F07D100010DFF800F04113001021
:10005000DFF800F0810F0010DFF800F02713001028
:1000600030B5DFF8D44781B00120A060DFF8CC07BD
:100070002060256800F0A8F885421CBF20688047F2
:10008000DFF8BC070021016041600FF24D01816083
:100090000021C1600161416101B030BD30B5DFF8C0
:1000A000984781B00120A060DFF8900720602568A4
:1000B00000F08AF885421CBF20688047DFF880077F
:1000C0000021016041600FF24D0181600021C1609B
:1000D0000161416101B030BD00B5DFF85C0781B05E
:1000E00001218160DFF85C27DFF85C17016001689F
:1000F00091421CBF00688047DFF84407002101607F
:10010000416081600FF23531C160002101614161C0
:1001100001B000BD00B5DFF8200781B0012181608A
:10012000DFF82027DFF820170160016891421CBF2B
:1001300000688047DFF808070021016041608160A6
:10014000C16001610FF20901416101B000BD000011
:1001500000B5DFF8E40681B001218160DFF8E42614
:10016000DFF8E4160160016891421CBF0068804717
:10017000DFF8CC06002101600FF2DD214160002193
:100180008160C1600161416101B000BD00B5DFF86F
:10019000A80681B001218160DFF8A826DFF8A81643
:1001A0000160016891421CBF00688047DFF890063B
:1001B0000FF26D210160002141608160C160016129
:1001C000416101B000BD0000F0B5A0B0002300A95E
:1001D0004FF0FF3222FA03F404F0010441F8044B1B
:1001E0005B1C22FA03F404F0010441F8044B5B1C8D
:1001F00022FA03F404F0010441F8044B5B1C22FAD8
:1002000003F45B1C04F00104202B41F8044BE1D300
:100210000021DFF8382600AB9D6FDC6F5E6FAD0705
:1002200005EBC47505EB46751E6F05EB0675DE6EB6
:1002300005EBC6659E6E05EB86655E6E05EB466555
:100240001E6E05EB0665DE6D05EBC6559E6D05EB76
:1002500086555E6D05EB46551E6D05EB0655DE6C4D
:1002600005EBC6459E6C05EB86455E6C05EB464589
:100270001E6C05EB0645DE6B05EBC6359E6B05EB8C
:1002800086355E6B05EB46351E6B05EB0635DE6A83
:1002900005EBC6259E6A05EB86255E6A05EB4625BD
:1002A0001E6A05EB0625DE6905EBC6159E6905EBA2
:1002B00086155E6905EB46151E6905EB0615DE68B9
:1002C00005EBC6059E6805EB86055E6805EB4605F1
:1002D000009E7519C1F11F0620FA06F707F0010606
:1002E000744000940226009C6C4004F001045C60A1
:1002F00002AC009F22FA06FC0CEA0707A6F1010CEB
:1003000025FA0CFE8EEA070707F0010744F8047B84
:10031000761C009F22FA06FC0CEA0707A6F1010CE6
:1003200025FA0CFE8EEA070707F0010744F8047B64
:10033000761C009F22FA06FC0CEA0707A6F1010CC6
:1003400025FA0CFE8EEA0707761C07F00107202E1F
:1003500044F8047BCDD3491C2029FFF45DAF996F8D
:10036000D86F890701EBC070596F00EB4170196FAE
:1003700000EB0170D96E00EBC160996E00EB8160FB
:10038000596E00EB4160196E00EB0160D96D00EB16
:10039000C150996D00EB8150596D00EB4150196DC2
:1003A00000EB0150D96C00EBC140996C00EB81402F
:1003B000596C00EB4140196C00EB0140D96B00EB2C
:1003C000C130996B00EB8130596B00EB4130196BF8
:1003D00000EB0130D96A00EBC120996A00EB812063
:1003E000596A00EB4120196A00EB0120D96900EB42
:1003F000C110996900EB8110596900EB411019692E
:1004000000EB0110D96800EBC100996800EB810096
:10041000596800EB41000099081820B0F0BD0000B9
:10042000DFF81C0400210160DFF810144160002196
:100430008160C1600161416170470000DFF8000424
:1004400000210160DFF80814416000218160C16073
:100450000161416170470000DFF8E403DFF8F41345
:100460000160002141608160C160016141617047AC
:10047000DFF8E4231178002903BF111D0123137055
:100480000021C1F80C010846704700002DE9F04139
:100490000446DFF8AC63D4F80C5130680F4680474F
:1004A00070688047284601F015FD804601F02CFD5C
:1004B000C4F808802760B0688047F0688047002053
:1004C0002071A073E07384F8BC00A4F8E80084F8FD
:1004D000EA00A4F8EC00C4F8F000C4F8080184F8BD
:1004E000F40070688047B068804770698047706822
:1004F000804730688047288800EE100AB8EE400A2E
:1005000084ED050AF7EE000A80EE800A84ED040A05
:100510002068006901F0D8FD00EE100AB8EE400A2C
:1005200084ED060AF6EE000A95ED0E0A95ED041A22
:1005300060EE200AC0EE810AFDEEE00A10EE900A9D
:10054000A083B0EE001AD5ED010A60EE810A95EDA8
:10055000021A60EE810A80EE200A84ED080AF5EEA8
:10056000000AA86960620A2195ED060A20EE200AB9
:1005700084ED0B0ADFEDAC0AA869A06200202063BD
:100580006063A063E06384F860006066A06684F83E
:100590006C0020676067A067E067C4F88000C4F85B
:1005A0008400C4F88800C4F88C00C4F89000C4F833
:1005B0009400C4F89800C4F89C00C4F8A000C4F8E3
:1005C000A40084F8A800686AC4F8AC00286BC4F8DA
:1005D000B00090FBF1F0C4F8B8004FF4FA70C4F822
:1005E000B800002095ED0C0AA4F8FC00B8EEC00A93
:1005F00020EE200ABDEEC00A84ED2D0AA86AC4F8D8
:100600000001002084F80401BDE8F08110B5044623
:100610000020E17B042906D108202071002084F805
:10062000BC00012010BD2179F9B92068006801F0F3
:10063000ABFD012020710020A073E07384F8BC00A2
:10064000A4F8E80084F8EA00A4F8EC00C4F8F0008C
:10065000C4F8080184F8F400A06A6062002084F8FD
:10066000600084F86C000120A08110BD10B5044624
:100670002068006801F08DFD2079062818BF072842
:1006800003D00A281CBF0020207110BD000000000C
:1006900030B5044681B02079D4F80C51401E0728AB
:1006A00000F2BF80DFE800F00404040425BDBD446F
:1006B0002068006801F066FDA0B1072020710721C5
:1006C0002068C06801F08CFD2068006801F025FDFD
:1006D00094ED3E0ADFED550A20EE200A204601F097
:1006E00065FB99E0204600F0E1FF84ED3E0A01B091
:1006F00030BD2068006801F045FD002800F09180C1
:100700000720207107212068C06801F069FD20687A
:10071000006801F002FD94ED3E0ADFED440A20EE90
:10072000200A204601F042FB606AC4F8F80073E03A
:10073000E07B042875D02068006801F023FD0028C4
:100740006FD094ED3E0ADFED390A20EE200A2046F4
:1007500001F02CFB606AC4F8F800DFED350A95ED76
:10076000010A20EE200AD5ED020A20EE200AD5ED7E
:100770000E0A80EE200AD4ED090A20EE200ABDEE12
:10078000C00A10EE100A451E2068006A2AB2002135
:1007900001F04AFF2068006A2AB2012101F044FFFB
:1007A0002068006A2AB2022101F03EFF2068006A38
:1007B0002AB2032101F038FF2068006A2AB204211E
:1007C00001F032FF94F8BC00012816D120680069BE
:1007D00001F02CFC00EE100AB8EEC00AF1EE080A97
:1007E00020EE200ADFED130A20EE200ABDEEC00A3B
:1007F00084ED2D0A204601F05FFA062020710721C2
:100800002068C06801F0ECFC2068006801F085FCFD
:1008100040F6B830A4F8FC00DFF88C0E4188491C83
:10082000418001B030BD0000CDCCCC3E6666663F55
:1008300000008047CDCC4C3F0030024061000008F2
:10084000780000200AC34C3033BB55AAB71DC10441
:100850009D0000088D010008300400202DE9F04FB4
:1008600081B0044600272DED048B2079D4F80C814B
:10087000D4F80890401E082886B000F22D85DFE8E5
:1008800010F009004C000900740060012B052B05D5
:10089000DF021E0594ED090A204600F0BBFF012887
:1008A0001DD1207901280BD102202071484601F08A
:1008B0002BFBB8F81E204EF66021484601F03DFBA8
:1008C000207903284AD104202071484601F01CFBFE
:1008D000B8F82020A189484601F02FFB3EE0A0890E
:1008E0004EF66021884239D1A781204600F0DEFE15
:1008F0006FF0130084F8A800F6EE000A94F86C007C
:10090000401C84F86C0020EE200AC0B2032884ED5D
:10091000090A23D30920207120E094ED090A20461A
:1009200000F078FF484601F0F7FA484601F049FB2D
:10093000A0B103202071F5EE000A94ED090A20EE23
:10094000200A6FF01300E767C4F88070C4F8847061
:1009500084ED090A84ED0B0A84F8A8002068A189B7
:10096000006801F01BFC00F0BEBC94ED090A2046B3
:1009700000F050FFA789484601F0CEFA204600F06B
:1009800095FED4F88400D4ED1F0AD4F80C51401C15
:1009900030EE800AC4F8840084ED1F0A20684068A5
:1009A000FFF742FB00EE900AF8EE600A95ED031A9D
:1009B0009FEDBB0A60EE810A01EE107AB8EE411A93
:1009C00060EE800A21EE000A94ED201AC4ED0C0AB4
:1009D00000EE201A84ED201A484601F0F2FA0028B1
:1009E00000F0208294ED210A94F86000D4ED1F0AF3
:1009F00094ED201AB8EE400A80EE800A04EB8000E5
:100A000084ED190AD4ED210A80ED100AF8EE600A8F
:100A100094F8600004EB8000C1EE200AC0ED140AD7
:100A200094F86000401C84F86000C0B2042814D21E
:100A30006FF0130084F8A8000020E067C4F880007D
:100A4000C4F8840094ED090AD4ED0B0A30EE200AB4
:100A5000032084ED090A2071E4E1052020710020C3
:100A6000A073484601F050FA64224EF660214846D1
:100A700001F063FA94ED111AD4ED151A94ED142ACD
:100A8000D4ED102A31EEC22A71EE622A94ED120AD8
:100A9000D4ED160A82EE222ADFED822A70EEE11AE8
:100AA00030EE411A32EE222A81EE811AD4ED171A65
:100AB00071EEE00AD4ED131A31EEC00A32EE011ADB
:100AC00080EE800A31EE000AF0EE080A80EE200A7D
:100AD00084ED0D0A98F82C0010BBD8ED050A30EE15
:100AE000600ADFEDD30AB4EE600AF1EE10FA84ED8D
:100AF0000D0A03D5DFF8EC0D606305E0F6EE000AA1
:100B000020EE200A84ED0D0ADFEDCA0A94ED190AE1
:100B100020EE200A002084ED1A0AA067606781E1B8
:100B20000A20207107212068C06801F059FB206865
:100B3000006801F0F2FA2068006801F02AFB002743
:100B400070E1204600F0B2FDA07B10B1022808D071
:100B500016E0DFEDB90AB4EE600AF1EE10FA0FD537
:100B60000BE0D4ED1A0AA789B4EE600AF1EE10FA90
:100B700003D5206F401C206702E0484601F027FAA9
:100B8000484601F0C9F9484601F01BFA002800F078
:100B90004981A07B18B102280DD007D342E1012082
:100BA000A073484601F0B0F90A2236E10220A07392
:100BB000002020672DE10020A07394ED1C0AD4EDE5
:100BC000040A606F94ED1E1AB8EE400A20EE200A67
:100BD000D4ED0D0A00EE201A401C142884ED1E1AD4
:100BE000606740F016810620207107212068C068E8
:100BF00001F0F6FA2068006801F08FFA0020A4F8EE
:100C0000FC0000272068006801F0C3FA94ED1D0A7B
:100C1000D4ED1E0AD4F80C51B8EE400A80EE800ADA
:100C200084ED0E0ABA4620684068FFF7FDF900EE31
:100C3000900AF8EE600A95ED031A9FED190A60EE2E
:100C4000810A20EE800A84ED0C0A1021D8ED010AF9
:100C500094ED0D2A94ED0E1AD4ED2B1A20EE200AF5
:100C6000D8ED020A20EE200AD8ED0E0A80EE200A06
:100C7000D4ED400A21EE201A62EE200A94ED042AF7
:100C800081EE001A60EE820A61EE211A80EE800A7F
:100C900010250E46BB460F2047F6FF72012305E0E4
:100CA0000000803700000000102910D103FA00FC7A
:100CB00000EE90CAF8EEE00A60EE810AFDEEE00A6E
:100CC000CDED000ADDF800C09445B8BF41B2ADB229
:100CD000102D0ED103FA00FC00EE90CAF8EEE00AE7
:100CE00060EEA10AFDEEE00A10EE90AA9245B8BFB0
:100CF00045B2B6B2102E0ED103FA00FC00EE90CA37
:100D0000F8EEE00A60EE800AFDEEE00A10EE90BA1E
:100D10009345B8BF46B2401E89B2C5D510290AD046
:100D20002068806901F0F1FC20680099806909B2AF
:100D300001F0DBFC01E009202071ADB2102D0BD0D9
:100D40002068C069294601F0E0FC2068C0690FFAFC
:100D50008AF101F0CAFC01E009202071B6B2102E20
:100D600016D020688069314601F0D7FC2068C06940
:100D7000314601F0D2FC206880690FFA8BF101F056
:100D8000B6FC2068C0690FFA8BF101F0B0FC01E0FD
:100D900009202071DFED290A98ED010A20EE200AD2
:100DA000D8ED020A20EE200AD8ED0E0A80EE200AC5
:100DB000D4ED090A20EE200ABDEEC00A10EE100A9A
:100DC000451E2068006A2AB2002101F02DFC20682F
:100DD000006A2AB2012101F027FC2068006A2AB2C9
:100DE000022101F021FC2068006A2AB2032101F0EF
:100DF0001BFC2068006A2AB2042101F015FC20685F
:100E0000B8F81E20006A394601F002FC204600F0C6
:100E100053FF484601F078F864224EF660214846B8
:100E200001F08BF820680068394601F0B7F95AE202
:100E3000CDCC4C3E9ED2213F0AD7233C00008047B8
:100E40002068C068FFF7E0F8001F022805D9C01E1F
:100E500000F029820FF2CC4040E22068806A01F065
:100E600095FCFFF7D5F80746206880680068009079
:100E7000FFF7DEF882463946FFF7CEF8009020688B
:100E80008168BDF90020B1F910108069891AFFF757
:100E9000C7F8ADF8040020688168BDF90220B1F9F7
:100EA0001210C069891AFFF7BBF8ADF80600206878
:100EB0000199406901F02AFD01903946FFF7BCF81D
:100EC0000646206800683146FFF7BAF805462068F4
:100ED0008068C0F804A0CDF810A021688968009847
:100EE000C860216889680198C1F816002068806888
:100EF000D0F81A00039020688068C0F81A60206853
:100F00008068078420684068FFF78EF8ADF8140009
:100F100003A92068406AFFF797F8ADF80800206839
:100F2000406AFFF795F82068006902A9FFF78CF87E
:100F3000E07B052800F2D881DFE810F006009D0074
:100F4000D6016D01D6019B01204600F0D3FC02289A
:100F500084F8F40038D12068006901F067F800EBEC
:100F600040014800C4F8B400062190FBF1F000B243
:100F700000EE100AB8EEC00ADFEDDF0A20EE200A0C
:100F8000B5EE400AF1EE10FA2068406A48BFB1EEB3
:100F9000400ABDEEC00A10EE101A89B201F023FF1C
:100FA0000120E07306B00020C4F88800C4F88C006B
:100FB000C4F89000C4F89400C4F89800A8B2BDEC3E
:100FC000048B01B0BDE8F08F012800F08D8103286B
:100FD00024D194ED2E0ABBEEEF0ABCEEC00A84EDDC
:100FE0002E0A204600F068FE0620207107212068A6
:100FF000C06801F0F5F82068006801F08EF8002064
:10100000A4F8FC00DFF8A0068188491C818006B0A6
:10101000A8B2BDEC048B01B0BDE8F08F042840F00D
:10102000638194ED3C0AB8EE400ADFEDB40A20EE8D
:10103000200ABDEEC00A84ED2D0A204600F03CFED9
:101040000620207107212068C06801F0C9F82068D7
:10105000006801F062F840F6B830A4F8FC00DFF850
:101060004806C188491CC18006B0A8B2BDEC048BFB
:1010700001B0BDE8F08F2068D8ED010A8068D4F88F
:101080000C61B0F90C009FED9E1A60EE810A98ED9C
:10109000021A60EE810A98ED0E1A00EE100AC1EEF7
:1010A000200AB8EEC00A94ED221A00EE201A84ED50
:1010B000221A20684068FEF7B7FF00EE900AF8EEAB
:1010C000600A96ED031A9FED8F0A60EE810A20EE0A
:1010D000800A84ED0C0ADFED8C0A20688068B0F984
:1010E000160001EE100AB8EEC11A21EE000A94EDC6
:1010F000231A00EE201A84ED231A42F210712068A0
:1011000094ED0C1A8068B0F9180000EE100AB8EEE1
:10111000C00A20EE010AD4F8980094ED241A00EEDB
:10112000201A401C884284ED241AC4F89800C0F0AC
:10113000DB8000EE100A0020C4F89400C4F8980088
:10114000B8EE400AD4ED220AC4F8880080EE808A06
:10115000D4ED230AC4F88C00C0EE808AD4ED240AB2
:10116000C4F8900080EE809A2068006900F05EFF6D
:1011700000EE100AB8EEC00AF2EE040A80EE200A71
:10118000DFED620A60EE209AD4ED0D0A40EEC88AC7
:10119000D4ED060A20EE200ADFED5D0A20EE200ADB
:1011A000D4ED0E0A20EE200A00EE089A28EEA80AD6
:1011B00009EE090AB5EE400AF1EE10FA04DB01F07F
:1011C00017FEB0EE408A01E09FED528A9FED520A71
:1011D00028EE000ADFED510A20EE200A80EE290AEF
:1011E00084ED0F0A2068C06A02F0BFFCD4ED0C0A3F
:1011F0009FED4B1A89EE880AC0EE810A20EE200A84
:1012000006B084ED270A0220E073A8B2BDEC048B7F
:1012100001B0BDE8F08F484600F07EFE484600F081
:10122000D0FE002860D02068406A00F0FFFE00EE8B
:10123000100ABAEE670ABDEEC00A10EE100A00B23C
:1012400000EE100AB8EEC00ADFED2B0A20EE200AED
:10125000B5EE400AF1EE10FA2068406A48BFB1EEE0
:10126000400ABDEEC00A10EE101A89B201F0BBFDB3
:101270000CE02068006A01F0C5F908B10320E073B2
:101280002068C068FEF7C0FE06282DD10420E07358
:1012900006B0DFF8141400200870A8B2BDEC048B6F
:1012A00001B0BDE8F08F2068006800F036FF06B09E
:1012B0002771A8B2BDEC048B01B0BDE8F08F2068A7
:1012C000C068072100F08CFF06B02771A8B2BDEC02
:1012D000048B01B0BDE8F08F0FF24C00016820686C
:1012E0000068FEF7ADFE054606B0A8B2BDEC048B63
:1012F00001B0BDE8F08F0000CDCC8C3FCDCC4C3F91
:10130000000080470000803746CD933700007042D0
:10131000DB0FC9400000000071C49C3F00007A440C
:10132000D7B3DD3F000000000000000070B586B0BC
:1013300004462068A568C068FEF766FE2179062984
:1013400008D0C0F0AF81082900F08280C0F09A81F7
:1013500006B070BD0B2800F2A581DFE810F00C008C
:10136000A301A301A3015900A301A301A301A301A8
:10137000A301A3019F01B4F8FC0040B1401EA4F8F2
:10138000FC002068006800F0F4FE06B070BD94ED2B
:10139000050AD4ED0E0A94ED0D1A20EE802A81EE96
:1013A000022AF7EE002AF5EE001A32EEC22A22EEE9
:1013B000212AF5EE002A72EE222AB8EE003A72EEE9
:1013C000832AC1EE200A42EE800AC4ED280AF7EE15
:1013D000000A70EEC20ABDEE001A70EE810A94EDAA
:1013E000050A42EE210A60EE800A20EE800AD4ED62
:1013F0000E0A20EE200A84ED290A03212068C06825
:1014000000F0EEFE2068006800F087FE06B070BDB8
:101410000820207106B00020E07384F8BC00A4F816
:10142000E80084F8EA00A4F8EC00C4F8F000C4F87E
:101430000801012084F8F4000020C4F88800C4F8F2
:101440008C00C4F89000C4F89400C4F8980070BDF3
:10145000E07B022840F02681D4ED272A94ED0F3A54
:1014600062EE832A9FEDA53A62EE832A9FEDA43AAD
:10147000C2EE832ADFEDA31A9FEDA22A9FEDA11AE7
:101480009FEDA00ADFED9F0A0E209FEDDA4A9FED47
:10149000DA3A012101FA00F2D4ED054A94ED0E5A30
:1014A00094ED0D6A03EE902A65EE245AF8EEE33AC5
:1014B000C6EE255A65EEA35AF4EE435AF1EE10FA41
:1014C00032DA94ED281A81EE241A21EE231AB4EEB2
:1014D000431AF1EE10FA27DAB4EE441AF1EE10FADC
:1014E00022D4D4ED081A65EE211A61EEA44AC2EEA8
:1014F000A41A61EEA31AF4EE431AF1EE10FA13DA0D
:10150000B4F91C2002EE102AB8EEC22A82EE242A78
:1015100022EE232AB4EE432AF1EE10FA04DA00EEAA
:10152000100AB8EEC00A03E0401E40B20128B1DA4A
:101530005FF00E0094ED295A94ED086A01FA00F26A
:1015400025EE065A04EE902A85EE225A94ED056A9D
:10155000F8EEE44A85EE065A25EE245AB4EE435AD4
:10156000F1EE10FA04DAB4EE445AF1EE10FA04D5B2
:10157000401E40B20128DDDA03E000EE900AF8EEEA
:10158000E00AFDEEE52A12EE900AADF80000BDEE8D
:10159000C11A11EE100AADF80200BDEEE11A11EE0B
:1015A000100AADF80400BDEEC51A11EE100AADF830
:1015B0000600BDEEC21A11EE100AADF80800BDEE2D
:1015C000E31A11EE100AADF80A00BDEEE41A11EEAE
:1015D000100AADF80C00BDEEC00A10EE100AADF80E
:1015E0000E00BDEEE00A10EE100AADF8100000A9E2
:1015F0002068406A01F0DDF994ED271A94ED050AA0
:10160000D4ED060A2068406ADFEDB51A61EE211AB2
:1016100061EEA01A20EE002AC1EE821AB5EE002A71
:1016200061EE821AFDEEE11A11EE902ADFEDAE1A9C
:1016300021EE211A61EE200A80EE800ABDEEC00A7A
:1016400010EE101A12B209B201F09AFB206800697C
:10165000FEF7DEFC06462068006900F0EAFC014661
:101660002068406A324601F098FB284600F04CFCA6
:10167000FA224EF66021284600F05FFC0320E0735A
:1016800006B070BD40B92068C068032100F0A8FD15
:101690000020207106B070BD0B2803D12068C068FF
:1016A00000F013FE06B070BD5C0D0020D0F80C11E8
:1016B000006891ED010A8068DFED8C0A20EE200AB7
:1016C000D1ED020A20EE200AD1ED0E0AB0F9001089
:1016D000B0F9020080EE800A00EE901AF8EEE00AFF
:1016E00001EE100A60EEC00AB8EEC11A41EE400ADF
:1016F000B6EE000A20EE800A704700008104B53F74
:101700000080D844000000000520704730B5044632
:1017100081B02068C06A02F044F90025012808BFA2
:1017200084F804512068C068FEF76EFC0A2804BFE4
:1017300084F80451257120790A281BD8DFE800F0CD
:1017400006090D11111115151506190094F804015B
:1017500080B10125284601B030BD0225284601B0E0
:1017600030BD0325284601B030BD0425284601B010
:1017700030BD0E25284601B030BD90ED0D0A02F0B7
:10178000FAB990ED0E0A02F0F6B990ED0F0A02F0E8
:10179000F2B990ED0C0A02F0EEB9C17B04291CBF2E
:1017A00001790A291CD10021C17380F8BC10A0F86E
:1017B000E81080F8EA10A0F8EC10C0F8F010C0F8BB
:1017C000081180F8F4100A22D0F8B01091FBF2F161
:1017D000C0F8B8104FF4FA71C0F8B81000210171C8
:1017E000012180F804110021DFF8B00641808180DA
:1017F000C180704700FEFFC601FEFF4610B50446DB
:101800002068006800F089FC0020207184F8040141
:1018100010BD00009FED351A01460020D1F80C21C3
:10182000D2ED010A60EE810A92ED021A60EE810AA1
:1018300092ED0E1A0A689268135EB2F90220C1EEA8
:10184000200A01EE103AB8EEC11A01EE902A21EEFC
:10185000601AF8EEE11A01EEE01AF6EE000A61EE07
:10186000200AF4EE400A8A89F1EE10FA1EDB0AB172
:10187000521E8A8130EEC00ADFED1D0AB4EE600A06
:10188000F1EE10FA21D491F8A820521E81F8A82078
:1018900052B212F1130F03DA6FF0130281F8A8208D
:1018A00091F9A810002958BF012070474EF6602317
:1018B00030EE600A9A42DFED0E0ABCBF521C8A81EC
:1018C000B4EE600AF1EE10FADDD591F8A820521CB2
:1018D00081F8A82052B2142AE2DB1422DEE70000CD
:1018E000B0EDB749CDCCCC3D0000054400008047A9
:1018F000CDCC4C3E70B504462DED068BD4F80C01D2
:101900002168D0ED010A8968D4F80C61B1F90C1096
:101910009FEDE21A60EE810A90ED021A60EE810AF4
:1019200090ED0E1A00EE101AC1EE200AB8EEC00AB1
:1019300094ED221A00EE201A84ED221A0125206867
:101940004068FEF771FB00EE100AB8EE400AD6EDD3
:10195000030A20EE200ADFEDD20A20EE200A84EDF1
:101960000C0ADFEDD00A20688068B0F9160001EE9D
:10197000100AB8EEC11A21EE000A94ED231A00EE07
:10198000201A84ED231A206894ED0C1A8068B0F9AF
:10199000180000EE100AB8EEC00A20EE010A94ED1D
:1019A000241A00EE201A84ED241A2068006900F041
:1019B0003DFB00EE100AB8EEC00AD4ED060AD4F8DA
:1019C000980020EE200AF2EE040A80EE200AD4ED00
:1019D000250A42F2107130EE200A401C884284ED44
:1019E000250AC4F89800C0F0548100EE100AB8EE41
:1019F000400AD4ED220A80EE809AD4ED230A80EECC
:101A000080AAD4ED240AC0EE809AD4ED250A80EE97
:101A1000808AB5EE408A0020F1EE10FAC4F8880002
:101A2000C4F88C00C4F89000C4F89400C4F898007E
:101A300000F02F812068006900F0F8FA00EE100A2B
:101A4000B8EEC00AF1EE080A20EE200ABDEEC00A88
:101A500010EE106A9FED940A68EE008A94ED0D0A6C
:101A600000EE49AA94ED0E0A28EE800A40EE099A8B
:101A70002AEE0A0A09EEA90AB5EE400AF1EE10FABA
:101A800004DB01F0B5F9B0EE409A01E09FED879AD2
:101A9000B4F8E80004EB800080ED309AB4F8E80078
:101AA00004EB8000C0ED358AB4F8E800401CA4F8CF
:101AB000E80080B2052804D30020A4F8E80084F8E8
:101AC000EA5094F8EA00002800F0CB80D4F8B00087
:101AD00002F056F8DFF8C823DFF8C83302F066F8E2
:101AE00002F036F9B04280F2BC809FED702A04F11A
:101AF000D401B1EE043AD1ED001A91ED011AD1ED05
:101B0000020A91ED030AD1ED042A31EE822A32EE67
:101B1000012A32EE202A32EE002A32EE222A04F185
:101B2000C00082EE033A71EEC31A31EE431A70EE32
:101B3000C30A30EE430A72EEC32A90ED005ADFED7D
:101B40005B5A9FED5A6A90ED013A41EE855A01EEDB
:101B5000A16AD0ED023A41EE035A01EE016A90ED1E
:101B6000034A40EEA35A00EEA06AD0ED044A40EECC
:101B7000045A00EE006A9FED4D0A35EE000A30EE81
:101B8000030A30EE230A42EEA45A02EEA26A30EEB5
:101B9000040AC5EE869A30EE240A02EE690AF1EED6
:101BA000040A80EE20AA08EEA9AA1AEE100A02F092
:101BB000F5F84FF04C42DFF8F03201F0F7FF02F099
:101BC00015F900EE100AB4EE490AF1EE10FA2BD521
:101BD0001AEE100A02F0E2F84FF01A42DFF8CC32A7
:101BE00001F0E4FF02F002F900EE100AB4EE409AB0
:101BF000F1EE10FA18D59FED2E0AD4ED060A80EE0C
:101C0000200AB4EE690AF1EE10FA0DD594F8BC0082
:101C100038B9D4F8B4003018032190FBF1F0C4F8BF
:101C2000080184F8BC501CE094F8BC00012810D1D5
:101C30009FED200A28EE000AD4ED060A80EE200A65
:101C40000020BCEEC00A84F8BC00042584ED3C0AE8
:101C50001DE0B4F8EC00401CA4F8EC0080B20428AD
:101C600008DA2068006AFEF7F7F9002894F8BC004B
:101C700002D050B9032509E058B1D4F80801B042A8
:101C800007D22068006A00F0ECFC02250020A4F8CE
:101C9000EC00BDEC068B284670BD000000008047BC
:101CA0000000803746CD9337DB0FC94000000000AD
:101CB00017B7D13A0000704230B581B004462DED1F
:101CC000028BD4F8B80094ED2D0AB8EEC00AF1EEFC
:101CD000080A01EE100AC0EE200AB8EE411A80EEA2
:101CE000010A9FED681A20EE018A9FED670AB4EEA3
:101CF000408AF1EE10FA0DDB00EB801000EE100AC6
:101D000084ED2D0AB8EEC00AF1EE080AC0EE200AF2
:101D10009FED5E8ABDEEE00A10EE105A2DB200EE85
:101D2000105AB8EEC00ADFED5A0A20EE200AB5EECE
:101D3000400AF1EE10FA2068406A48BFB1EE400A4E
:101D4000BDEEC00A10EE101A89B201F04CF82068FE
:101D5000006A2A46012100F061FC2068006A2A46D8
:101D6000022100F05BFC2068006A2A46032100F093
:101D700055FC2068006A2A46042100F04FFC2068C8
:101D8000006ABDEEC80ABDEC028B10EE102A01B04D
:101D9000BDE8304092B2012100F03ABC00EE101ACA
:101DA000B8EE400A80ED060A7047000030B581B0F9
:101DB0000368D0F80C119A6ADC6A80ED090AF5EE26
:101DC000000A60EE200AC0ED0B0A80ED0A0ADFED82
:101DD000310A20EE200AD1ED010A20EE200AD1EDD1
:101DE000020A20EE200AD1ED0E0A80EE200ABDEE96
:101DF000C00A10EE105A1AB1A9B2104600F06CFDDC
:101E000034B1A9B2204601B0BDE8304001F05EBE59
:101E100001B030BD90ED0A0A704780ED2B0A704783
:101E200090ED2B0A704700000268D26A11B9D0F811
:101E30000C11096BC0F8B0100A23D0F8B01090ED67
:101E40002C0A91FBF3F1C0F8B810B8EEC00A4FF4B9
:101E5000FA71C0F8B810DFED100A20EE200ABDEECE
:101E6000C00AD0F8B01080ED2D0A104601F07ABEFD
:101E7000D0F8B0007047D0F8B4007047D0F8B80080
:101E80007047000000007A4401FF7F4700E87D476B
:101E9000CDCC8C3F00008047CDCCCC3E5C0D0020EB
:101EA0009A9999999999B93FCCCCEC3F9999F13F7E
:101EB00090ED0A0A704780ED400A704790ED400AA5
:101EC0007047D0F80C01808E7047D0F80C0190F864
:101ED000360070470B4A1378042B07D2C3EBC301BB
:101EE00002EB81015B1C091D137000E000214861B9
:101EF0000020086048608860C860012008610846CA
:101F000070470000F80A00200021016041608160F4
:101F1000C16001210161704782680168022A03D310
:101F2000C3685918521E05E0012A04D141680269AC
:101F300051430022826001603FE02DE9F84F0446E2
:101F40000D46206821696769160090FBF1F808D1F9
:101F5000284600F040F82061684320600020A0601F
:101F600027E0A5EB0809484600F035F882464046D0
:101F700000F031F88346284600F02DF8DA4501D20A
:101F8000824501E0DA46834588BF8246C4F810A046
:101F90000AFB08F0206065604FF47A71388870435E
:101FA000B0FBF1F0401C2169A06001FB09F191FB3D
:101FB000F0F0E0600120BDE8F28F006991FBF0F0E5
:101FC00070478068002100B9012108467047002150
:101FD0008160C1607047002848BF40420121012252
:101FE000C1F11F0302FA03F3834203D3491CC9B2B0
:101FF0002029F5D3481E02FA00F07047074A1378EB
:10200000032B06D22C2111FB03215B1C091D13702D
:1020100000E0002148620846704700008009002067
:10202000011D0A6A1278CA7709680847B0F91C00CE
:102030007047B0F91E0070474269104700F108016F
:1020400000228A7609680847F8B500F110040F46A7
:1020500061698E79226839469047012508B9304672
:1020600023E0002163697A5E5F88A07C002A48BF74
:10207000524292B297429F881B8938BF0121BA42CF
:10208000B4F9102038BF0121002A48BF524292B251
:10209000934200D319B1B04204DA401C02E0B042CE
:1020A000B8BF0020C0B2B04200D10025A0742846BD
:1020B000F2BDB0F91C10406AB0F90200C1EBC131A9
:1020C00091FBF0F000B2704790F82300704780F861
:1020D00023107047064A1178002903BF111D012300
:1020E00013700021C866002008640846704700008D
:1020F000800A002038B5C56E29884DF6B45200F12B
:1021000050045143890B2180002121734168884785
:1021100000202083A888608331BD002180F85C10F6
:10212000C1680847002180F85C1001690847F8B5CC
:10213000044604F15005002659B904F15C073E70CD
:10214000E168884738694088E8813869408870B913
:1021500007E001290BD1E88940B1401EE88180B237
:1021600028B904F10C0120468968884701263046C9
:10217000F2BD012180F85C1081690847826B10472D
:10218000C2691047C16B0847416C0A0018BF084775
:102190007047816C0A0018BF0847704718B40246A0
:1021A0000120D36C1C0002D0104614BC184712BC8E
:1021B0007047000006490A78022A06D202EB420064
:1021C0004018521C001D0A70704700207047000024
:1021D000380D0020002101704170817070470000AF
:1021E00010B404780023122C0DD8DFE804F0212667
:1021F0004732424547494B4E0C0C0A2C2E303C3E90
:102200004000002944D003291CBF0129072944D0DC
:10221000417841F0800141700A2C817841F08001C1
:1022200081704178417035D1002936D10B2133E0DE
:1022300003292DD0012929D12AE0072918BF0D290A
:1022400026D00E291FE00E2914E00F2912E00229E2
:1022500010E0072918BF10291AD0042918BF112926
:1022600016D001290FE0112904E0122902E0042907
:1022700000E0052902D10BE0062909D0072902E078
:10228000082900E00929BED102E009B10C29BAD120
:10229000012301E009B10A21017013E010B4447870
:1022A00003780C43447084782143817041789143D2
:1022B0000A2B417002D129B90B2101E011B10A2189
:1022C00001700B4610BC18467047027800210B2A9B
:1022D00004D1092101700021817001210846704755
:1022E0008178407841EA004070470000DFF800F054
:1022F000D90F0010054A1178002903BF111D0123D1
:1023000013700021C1F8900008467047E8080020CB
:1023100070B4D0F8904065680160426000F16801D7
:1023200000260B61039A8A610E774E7700F1160240
:102330000EE02B8822F8023C761C6B881380F6B2E4
:10234000AB88538002F10A03C2F806300C32AD6844
:102350000DB1082EEDD306EB460300EB83030022FC
:102360001A616423628A0A80228A8A8000228A6033
:1023700022885A434FF47A73B2FBF3F280F88D202F
:102380000E7370BC70472DE9F04700F17C05071D06
:102390006E69D0F80090D7F800808A4600F11404E6
:1023A000A7F80CA000206872E860B8732870287243
:1023B0004046FFF743FE0021484600F0F8F97088D8
:1023C00010FB0AF109B24046FFF736FE0022002159
:1023D000484600F0F0F9A088228810FB0AF109B203
:1023E000484600F0E8F96088228810FB0AF109B23B
:1023F000404601F0C8FD2088318848434FF47A7187
:10240000B0FBF1F0401CB880A068B86000202874D0
:10241000BDE8F0872DE9F14F061D00F17C04B76897
:10242000656982B03888ADF804004FF00108B088C3
:10243000002800F09980401EB080287D002800F020
:102440009080B07B002840F08C80607A002840F0BB
:102450008580207C617C401C2074C0B2814205D202
:10246000706FFFF743FF002020702074706F00F042
:10247000ACFC58B120787F280AD2401C2070706FC5
:10248000FFF7D4FDE16801FA80F000E02070E06021
:102490002078617CB0EB510F63D1706FFFF7C6FD00
:1024A0008146B9F1000F44BF404200B20090B6F936
:1024B0000C00012806DBB9F1010F06DA00202070BC
:1024C000E0604EE0B9F1000FF8D50099688989B253
:1024D000884205D2706F00F07CFC84F8098040E0EF
:1024E0000099A88989B288423BD2306801F0ADFDDD
:1024F000706F4FF0000A00F071FCD34607E082468F
:10250000B07BB7F904B0B160401C0F46B073B7F9A7
:1025100002000099884205DAB9680029EFD100204D
:10252000B0801EE0B7F90400B7F90210A0EB0B0071
:1025300000FB09F0A1EB0A0190FBF1F00BEB0001AD
:1025400002980068002209B200F035F9A6F804806C
:1025500002986830B0600620B07302E0706F00F03F
:1025600038FCB088002849D1B0680028287D38D0D0
:1025700098B1B07B50B96068FFF7CFFD606884F810
:102580000880FFF7F6FD0020207006E0012804D146
:102590006068FFF7C7FD00202072B888B189BDF8D8
:1025A000044010FB01F102980068224609B200F0D5
:1025B00002F97888B189BDF8042010FB01F1306878
:1025C00009B201F0E0FC288860434FF47A71B0FB57
:1025D000F1F0401CB080B868B060B07B401CB073B4
:1025E0000CE000281CBFB07B042805D0072805D1CB
:1025F0000020B073B08001E04FF00008404603B007
:10260000BDE8F08FC068002100B90121084670477D
:1026100001EB410300EB83008282704701EB410331
:1026200000EB8300C282704701EB410300EB8300A3
:102630000283704701EB410200EB8200808A704701
:1026400001EB410200EB8200B0F91600704701EB8C
:10265000410200EB8200B0F91800704790F8740056
:10266000704710B544680021C16001812046FFF722
:10267000DDFC01462046BDE81040002201F083BC8D
:10268000084A1378082B07D203EBC30102EB810140
:102690005B1C091D137000E00021C8610020086266
:1026A00008467047F0010020C16909880180C169AE
:1026B0004988418000214160C16989688160C169A0
:1026C000C968C160C169098A0182C169498A4182B8
:1026D000C16989888182C169C988C182C169898AC1
:1026E0000183C169C98A4183704701807047418075
:1026F000704700E002E0B0F900007047B0F9020056
:10270000704741607047808A70470183012202FA56
:1027100001F181827047C08A7047418301228A405B
:10272000C2EBC2318160C282A2EBC231C16070478C
:10273000C160704781607047418270470182704775
:10274000054A1178002903BF111D012313700021D0
:102750000862084670470000580C0020036A0161B7
:102760004261997B0170B3F9101009044160B3F91B
:1027700012100904816000214180C1608161598982
:1027800081839989C183704741617047406970476F
:102790000178012903D100690021FFF7B2BF70471A
:1027A0004068FFE7C11300EB11400014704701704F
:1027B0000021C1607047F0B41346066A0578012213
:1027C0000C46B5B987684FEAE73C07EB1C47B0F801
:1027D0001CC03F14A445B0F91EC0B8BF002261451B
:1027E00019DB5AB3E3B92104012D0CBF41608160AC
:1027F00013E04768B6F802C03F14A445A4BFB6F979
:1028000008C0614507DBB6F804C06445BCBFB6F933
:1028100006C08C45E6DA002210E00021C1600CE021
:102820004180318859434FF47A73B1FBF3F1491C6D
:10283000C160E31B1B0493FBF1F18161F0BC104606
:10284000704770B5044620780028E0680CBFA56882
:102850006568022803D3A1694D19401E05E00128CF
:1028600004D1B4F9020005040020E060E81305EB90
:1028700010400614207801280CD16069FFF7D6FBC0
:10288000311A206909B2FDF7CBFB064630046560BA
:10289000A06000E0A560304670BD006AB0F910008D
:1028A0007047006A40887047006AB0F908007047B6
:1028B00002780021012A04BFC16001210846704747
:1028C000006AB0F9121081B0ADF80010808AADF83E
:1028D0000200009801B0704781834942C18370476C
:1028E00010B504466069FFF7A1FB0004606010BDED
:1028F000054A1178002903BF111D0123137000211F
:102900000860084670470000540D002013B4009181
:102910000168BDF90420BDF906000C8812FB02F322
:1029200010FB003364439C4215D291F8B0401B0E5B
:102930001B1BDBB201EB430149884A434843931315
:10294000811302EB534200EB5140D213C013ADF898
:102950000020ADF80200009816BC704738B50D464F
:10296000FFF74CFB044654480178002903BF011DC2
:102970000122027000210FF24D10C1F8D050A16267
:1029800020600FF2A10060600FF29120A0604B4820
:10299000E0600FF2351020610FF2FD306061A06A37
:1029A000D0F8D0001030FFF76BFEA16A48612046D6
:1029B00032BD10B4806A0A8802804A8842808A88C0
:1029C0008280CA88C2800A8902814A8982818A8972
:1029D000C28100F1C602CB8913800B8A5380012289
:1029E00000234382B1F90C40354B93FBF4F31BB247
:1029F00007E0448A03EBD373DB03641C1B1452000F
:102A00004482002BF5D10282B1F90C10B0F91020EC
:102A100011FB02F142F6BE0291FBF2F1418110BCC2
:102A200070470000F8B50446A66AD6F8D05028884A
:102A3000308006F1AE0768887080A888B080E8888A
:102A4000F080288930816889B081A889F08105F1FA
:102A50003000C1883983018979830021007838707A
:102A60000120B8737182B5F90C20154991FBF2F180
:102A700009B207E0728A01EBD171C903521C091433
:102A8000400072820029F5D13082B6F91010B5F9F4
:102A90000C0010FB01F042F6BE0190FBF1F07081DA
:102AA000204600F0BBF87069FFF7FEFD002020848F
:102AB000E88DF883F1BD000020060020850D001090
:102AC0005EEA0F00704700002DE9F04F00F11C0492
:102AD0000025E368D3F8D00090F828E00027B84636
:102AE0004046BEF1010F4646C446024608DB03F1EC
:102AF0002C09F24639F902BBBAF1010A5D44F9D159
:102B0000BEF1010F95FBFEF50BDB03F12C09F2463C
:102B100039F902BBABEB050BBAF1010A0BFB0B77E2
:102B2000F6D105FB05F997FBFEF74FEAA91E09EB65
:102B30005E6ED3F8D090B9F82A904FEAEE1E09FBEA
:102B40000EFE7745A7687F89B8BF4FF0010C6F4331
:102B500007EB87056F00FD1307EB1547E5793F1479
:102B600097FBF5F70F8003F1AD01278081F800C0D6
:102B700003F1B40C9CF80850012D34D1E568D5F868
:102B8000D05005F1320E002FBEF8025048BF7F42F0
:102B9000AF4222DA2833A66833F90080B3F9023055
:102BA000B6F9026018FB08F813FB0388C7EBC733BC
:102BB00093FBF6F39EF801605E43771106EB976690
:102BC000B6115E43731106EB93639EF800709B1180
:102BD00007FB13634345B8BF01220A71CCF800809C
:102BE000CCF8046000E00122CB789BB10B78002B7D
:102BF00018BF002A0DD18A78521C8A70D2B2E368BD
:102C0000D3F8D03093F831309A4203D38870BDE8BE
:102C1000F08F88700120BDE8F08F000038B5816A20
:102C200001F1140400226260A260E260226102836A
:102C3000C283002301F1AE02137053709370D370FE
:102C400041F8B43F4B60CB608B75CB75856AD5F886
:102C5000D00090F82800012804DB410005F12C0089
:102C600001F0F8F905F1AC00002101700183206842
:102C7000BDE83440FFF745BDF0B400F11C02002070
:102C8000D468D4F8D06004F1AD039D7F012D5D7F41
:102C900008BF115E012D37D0155E11FB05FCBCF19C
:102CA000010F38DB002D44BF6D422DB2002948BF13
:102CB000494216F82C7F09B217FB01F74FEAE70CDF
:102CC00007EB1C7796F801C01CFB01F14FEAE10C01
:102CD00001EB1C7193F800C03F030903BCF1010F25
:102CE00018D1B4F8CC401FFA85FC644512D2B5EB7C
:102CF000214FA4BF3F14AF420CDB5978491C5970D7
:102D0000C9B23479A14206D30120D8700021917153
:102D1000F0BC70475870F0BC7047806AB0F928105A
:102D200081B0ADF80010408DADF802000EE0806A71
:102D3000B0F8C61050F8182F81B042FA01F3ADF880
:102D40000030406840FA01F2ADF80220009801B06E
:102D50007047806A43880B80C08810807047806A03
:102D60004180C280704770B5866A70690C4615460E
:102D7000FFF7BFFC20807069FFF7BCFC288070BDA6
:102D800038B5856A68691446FFF7AFFC6869214663
:102D9000BDE83440FFF7ABBC704770B504460D4644
:102DA000A06A40691646FFF7B6FC00FB05F1A06A71
:102DB0004069FFF7A6FC268370BD806AD0F8B80092
:102DC0007047806AD0F8B4007047806A90F8AD0010
:102DD0007047806A012180F8CA107047806A01211B
:102DE00080F8CB107047806AA0F8CC1070470000C4
:102DF000B5EEC00AF1EE10FA02D4B1EEC00A704787
:102E00006FF0004C00EE10CA01F028B930B5DFF8C1
:102E10002C4D81B00120A060DFF8240D20602568D2
:102E200000F0A8F885421CBF20688047DFF8140D29
:102E30000021016041600FF24D0181600021C160FD
:102E40000161416101B030BD30B5DFF8F04C81B0B7
:102E50000120A060DFF8E80C2060256800F08AF807
:102E600085421CBF20688047DFF8D80C0021016034
:102E700041600FF24D0181600021C160016141613B
:102E800001B030BD00B5DFF8B40C81B00121816024
:102E9000DFF8B42CDFF8B41C0160016891421CBF5C
:102EA00000688047DFF89C0C002101604160816070
:102EB0000FF23531C16000210161416101B000BDF7
:102EC00000B5DFF8780C81B001218160DFF8782C43
:102ED000DFF8781C0160016891421CBF00688047E0
:102EE000DFF8600C0021016041608160C160016118
:102EF0000FF20901416101B000BD000000B5DFF82B
:102F00003C0C81B001218160DFF83C2CDFF83C1CD7
:102F10000160016891421CBF00688047DFF8240C03
:102F2000002101600FF2DD21416000218160C1605C
:102F30000161416101B000BD00B5DFF8000C81B056
:102F400001218160DFF8002CDFF8001C01600168BE
:102F500091421CBF00688047DFF8E80B0FF26D213B
:102F60000160002141608160C1600161416101B087
:102F700000BD0000F0B5A0B0002300A94FF0FF3263
:102F800022FA03F404F0010441F8044B5B1C22FA1A
:102F900003F404F0010441F8044B5B1C22FA03F42F
:102FA00004F0010441F8044B5B1C22FA03F45B1C9F
:102FB00004F00104202B41F8044BE1D30021DFF899
:102FC000942B00AB9D6FDC6F5E6FAD0705EBC47596
:102FD00005EB46751E6F05EB0675DE6E05EBC665E7
:102FE0009E6E05EB86655E6E05EB46651E6E05EB17
:102FF0000665DE6D05EBC6559E6D05EB86555E6D6F
:1030000005EB46551E6D05EB0655DE6C05EBC6451A
:103010009E6C05EB86455E6C05EB46451E6C05EB2C
:103020000645DE6B05EBC6359E6B05EB86355E6BA4
:1030300005EB46351E6B05EB0635DE6A05EBC6254E
:103040009E6A05EB86255E6A05EB46251E6A05EB42
:103050000625DE6905EBC6159E6905EB86155E69DA
:1030600005EB46151E6905EB0615DE6805EBC60582
:103070009E6805EB86055E6805EB4605009E7519A2
:10308000C1F11F0620FA06F707F00106744000940C
:103090000226009C6C4004F001045C6002AC009FBE
:1030A00022FA06FC0CEA0707A6F1010C25FA0CFE31
:1030B0008EEA070707F0010744F8047B761C009F9F
:1030C00022FA06FC0CEA0707A6F1010C25FA0CFE11
:1030D0008EEA070707F0010744F8047B761C009F7F
:1030E00022FA06FC0CEA0707A6F1010C25FA0CFEF1
:1030F0008EEA0707761C07F00107202E44F8047BB0
:10310000CDD3491C2029FFF45DAF996FD86F890793
:1031100001EBC070596F00EB4170196F00EB01704B
:10312000D96E00EBC160996E00EB8160596E00EBC7
:103130004160196E00EB0160D96D00EBC150996DD3
:1031400000EB8150596D00EB4150196D00EB0150BF
:10315000D96C00EBC140996C00EB8140596C00EBDD
:103160004140196C00EB0140D96B00EBC130996B09
:1031700000EB8130596B00EB4130196B00EB0130F3
:10318000D96A00EBC120996A00EB8120596A00EBF3
:103190004120196A00EB0120D96900EBC11099693F
:1031A00000EB8110596900EB4110196900EB011027
:1031B000D96800EBC100996800EB8100596800EB09
:1031C00041000099081820B0F0BD0000DFF8740934
:1031D00000210160DFF86819416000218160C16051
:1031E0000161416170470000DFF85809002101606A
:1031F000DFF86419416000218160C16001614161B3
:1032000070470000DFF83C09DFF850190160002129
:1032100041608160C160016141617047DFF8402910
:103220001178002903BF111D012313700021C1F87B
:103230009C0008467047F0B5044681B0D4F89C6005
:103240000D463046FEF746FE0746FEF75DFE276157
:10325000DFF8F07838688047786880470020A4F865
:103260005800A4F85A0020626062A062E062206503
:10327000B06AC4F88000B8688047F8688047706812
:103280002063002084F83400A063E063A4F84000C9
:10329000A4F84C00A4F84E0078688047B8688047CE
:1032A000308896ED020A00EE900AF8EE600A60EEB1
:1032B000800AFDEEE00A10EE900AA4F85C00D6ED5C
:1032C000040A80EE800ABDEEC00A10EE100AA4F8CF
:1032D0005E00D6ED070A308800EE100AB8EE400A0C
:1032E00020EE200ABDEEC00A10EE100AA4F860001D
:1032F000D6ED080A308800EE100AB8EE400A20EE3B
:10330000200ABDEEC00A10EE100AA4F87400786915
:10331000804778688047386880472868206001B017
:1033200068686060A868A060E868E060002084F8D1
:1033300062006066A06684F86C002067307B84F8C9
:103340007600F089A4F87800F06AC4F88400306B45
:10335000C4F88800706BC4F88C000020C4F890009A
:10336000C4F89400F0BD90F8621071B980F8341080
:103370008163C163A0F84010A0F84C10A0F84E1073
:10338000C0F89010C0F8941070470A2180F83410EB
:103390007047002180F83410704700002DE9F0419B
:1033A000044694F83400D4F89C602569092800F29A
:1033B000C882DFE810F00A004200C602C602C60258
:1033C0009500C0002D015901F0016168002081F8CD
:1033D00024000021E068FFF7EAF90020A063E06321
:1033E000A4F84000A4F84800A4F84C00A4F84E004B
:1033F0000120A4F84A00002084F86C002068FEF741
:1034000015FE00EB4001002249002846FEF795FD1D
:10341000D4F880104FF47A722846FEF78EFD012012
:1034200084F834006068B0F9100000EE100AB8EEBD
:10343000C00A84ED240ABDE8F0812846FEF76CFD41
:1034400000EE100AB8EEC00A84ED1C0A204600F017
:10345000B0FA07462846FEF7B4FD002800F0718256
:10346000B4F84E00401C012FA4F84E0005D0B4F86B
:10347000741080B2814280F064822068FEF7D6FD2D
:1034800000EE100AB8EEC00AF1EE080A20EE200A9B
:1034900084ED140A41F28832D6ED050A20EE200AA6
:1034A000BDEEC00A10EE100AA4F8580094ED140AFC
:1034B000D6ED060A20EE200ABDEEC00A10EE100A74
:1034C000A4F85A000020E063A4F840006064A4F867
:1034D0004E002846B4F95A10FEF72FFD05202EE2C3
:1034E0002846FEF719FD00EE100AB8EEC00A84ED7A
:1034F0001C0A204600F05DFA06462846FEF761FDEC
:10350000002800F01E82B4F84E00401C012EA4F8E2
:103510004E0005D0B4F8741080B2814280F0118260
:103520000020E063A4F840006064A4F84800A4F818
:103530004E00062003E294ED1C0A204600F039FA02
:103540002068FEF773FDE16B01FA80F06168E063CB
:10355000B1F90C10A06B4018A063B4F84000B4F8A7
:103560005C10401CA4F84000606C401C6064B4F81F
:103570004000814280F0E581E16BB4F8602091FB6E
:10358000F0F0B4F84810A4F84800091AA4F84A105A
:1035900009B2002948BF49420020E063A4F8400076
:1035A000606C8242A4BF09B2052980F2CA81A16B76
:1035B00091FBF0F0A082DFEDE40AB4F9480000EEE0
:1035C000100AB8EEC00A94F8760020EE200A00EE49
:1035D000900AF8EE600A20EE200A84ED060A2068C0
:1035E000FEF724FD00EE100A0020B8EEC00AF1EE4E
:1035F000080AA4F84E0020EE200AB4F9581084ED11
:103600001C0A41F288322846FEF797FC072096E113
:103610002846FEF781FC00EE100AB8EEC00A84EDE1
:103620001C0A204600F0C5F906462846FEF7C9FCEC
:10363000002800F08681B4F84E00401C012EA4F84A
:103640004E0005D0B4F8741080B2814280F07981C8
:103650000020A063E063A4F840006064A4F8480080
:10366000A4F84E0008206AE194ED1C0A204600F000
:10367000A0F92068FEF7DAFCE16B01FA80F06168DE
:10368000E063B1F90C10A06B4018A063B4F84000DF
:10369000B4F85C10401CA4F84000606C401C6064EE
:1036A000B4F84000814280F04C81E16BB4F86020B6
:1036B00091FBF0F0B4F84810A4F84800091AA4F8F7
:1036C0004A1009B2002948BF49420020E063A4F82B
:1036D0004000606C8242A4BF09B2052980F23181AA
:1036E000A16B91FBF0F0E0829FED970AB4F94800DE
:1036F00000EE900AF8EEE00A94F8760020EE800AD8
:1037000000EE900AB4F91400F8EE600A20EE200AE8
:1037100000EE900AB4F9160084ED070A01EE100AD3
:10372000F8EEE00AB8EEC11A70EEC10A94ED061A7E
:1037300031EE400A80EE800ADFED840AB4EE600AC2
:1037400084ED080AF1EE10FA48BFC4ED080A94EDC2
:10375000060AD4ED070AB4F91410B4F91620E0688B
:1037600030EE600ADFEDE90A20EE200A84ED090A56
:103770008A42D4ED070A30EE200A84ED090AB2BF6E
:1037800000220022B4F97810FFF715F80020A4F801
:103790004E000920D3E0B4F84E00401CA4F84E00BF
:1037A0002068FEF743FC00EE900A94F876009FED47
:1037B000660AF8EEE00A01EE100A60EE800AB8EE42
:1037C000411A60EE810A94ED091AF4EE410AF1EE15
:1037D00010FA08DAB4F87400B4F84E1000EB4000A8
:1037E000884280F2AE803088A56800EE900AB4F876
:1037F0004E0001EE100AF8EE600AB8EE411A81EEB2
:10380000201A84ED0A1AF6EE001A81EE811AF3EE00
:103810000E1A21EE211A84ED0C1A94ED0A1AD4ED39
:10382000081A94F8760021EE211A84ED0B1A102163
:10383000D4ED0C1A21EE211A21EE000A01EE100A35
:10384000B8EE411A20EE010A84ED190A102694ED13
:103850000A1A80EE010A80EE200A84ED1A0A002777
:103860000F2047F6FF72012301E0102910D103FA5F
:1038700000FC00EE10CAB8EEC00AD4ED190A20EE22
:10388000200ABDEEC00A10EE108A9045B8BF41B2C2
:10389000B6B2102E10D103FA00F700EE107AB8EE8F
:1038A000C00AD4ED1A0A20EE200ABDEEC00A10EEBE
:1038B000107A9742B8BF46B2401E89B2D5D51029BA
:1038C00007D02846FEF721FF0FFA88F12846FEF7B9
:1038D0000CFFB6B2102E07D031462846FEF71DFF6A
:1038E00039B22846FEF703FFB4F978102846FEF7F0
:1038F00025FFB4F87800414209B22846FEF71CFFC4
:103900002846FEF708FFB4F8781000FB01F63146B0
:103910002846FEF70FFF71422846FEF709FF0120F7
:1039200084F862000121E068FEF741FF2068FEF79D
:103930007DFB0146E0680022FEF73DFF0A2084F887
:103940003400BDE8F08100009CC4203F0AD7233C2E
:1039500010B5044694F86200A8B9616881F82400A3
:103960000021E068FEF723FF6068B0F91010E068FE
:103970000022FEF720FFE068BDE810404FF47A62B5
:103980000021FEF718BF10BD002180F862107047BB
:1039900090ED140A00F0EFB80B20704790F8340057
:1039A000704790F8340000210A2808BF012108461A
:1039B000704730B5044681B000252DED048BD4F856
:1039C0009C00D0ED098A2068B0EE408AFEF72EFBFD
:1039D00000EB4001480000EE100A94ED221AB8EE08
:1039E000C09AB5EE401A38EE490AD4ED210AF1EE3C
:1039F00010FA60EE800A08BFC4F890500BD0D4EDE6
:103A0000251A70EE611A94ED240A01EE810A84ED04
:103A1000240A70EE800AB4F8780001EE100AB8EEBD
:103A2000411AB4EE601AB0EE600AF1EE10FA48BF27
:103A3000B0EE410A404201EE100AB8EEC11AF4EEAF
:103A4000410AF1EE10FA48BFB0EE410A70EEC00A2A
:103A500094ED231AE068BDEEC00A60EE810A10EE14
:103A6000101AC4ED250A002209B2FEF7A4FE28EEC2
:103A7000280AB4EE409AF1EE10FA15D4B4EE489A42
:103A8000F1EE10FA0AD4B0EE000A30EE680A20EE29
:103A9000080AB4EE409AF1EE10FA05D594F86C00DD
:103AA000401C84F86C0001E084F86C5094F96C00C0
:103AB000142803DB142084F86C000125BDEC048B72
:103AC000284601B030BD80F876107047A0F8781015
:103AD000704780ED0C0A704790ED0C0A70470000AB
:103AE00090ED0B0AD0F89C1091ED0F1ADFED180A3B
:103AF00020EE200AD0ED260A20EE200AD1ED0E0A93
:103B000060EE810A80EE200A70470000AE47213F38
:103B100090ED080AD0F89C1091ED0F1ADFED0C0A19
:103B200020EE200AD0ED260A20EE200AD1ED0E0A62
:103B300060EE810A80EE200A7047000000300240EB
:103B40000D2E0008600000200AC34C3033BB55AA7C
:103B5000CB151E35B71DC104492E0008392F0008AA
:103B6000AC070020C0F88010704780ED260A70472F
:103B700090F8620070472DED010A009801B070477F
:103B8000010040F10780F446404200F003F851F094
:103B90000041604709D0B0FA80F18840C91CC1F5E6
:103BA0008461090501EBD02140057047B0B581EA79
:103BB000030C0CF0004C40F2FF7515EA11541DBFC8
:103BC00015EA1357AC42AF4239E0E41923EA4553F2
:103BD00043F48013C90241F0004141EA505EC7023C
:103BE0001100A7FB020200284FF00000EEFB0120AD
:103BF0004FF00001E3FB072118BF42F0010240181B
:103C000000214941E3FB0E01A4F580640F0302D2B9
:103C100052004041494154F101046CDD470872F102
:103C2000004250F1000051EB0451A1F580115CBF3E
:103C300041EA0C01B0BD4CEA05510020B0BD05EAD7
:103C40001357AC4214BFAF4241E050EA410E1CBFD3
:103C500052EA430E02E061460020B0BD24423C44DB
:103C60001BD15FEA070EF6D0090302BF0146002010
:103C7000AEF1140EB1FA81F7AEEB070401FA07FEBC
:103C80000C37C7F1200100FA07F7C8404EEA000ED2
:103C900023EA455343F48013A2E733F00043B3FA19
:103CA00083F704BFB2FA82FE77440B3FE41BB7F1FF
:103CB000200E2FBF02FA0EF3BB40C7F1200E22FAEE
:103CC0000EFE38BF43EA0E03BA40641C82E750EA96
:103CD000410E14BF52EA430E6FF000014FF400177B
:103CE00017EB430F8ABF194617EB410FB5E74CEAB4
:103CF00005510020B0BDD4F10104B4F120070FDA62
:103D0000C4F12007520828BF42F0010210FA07F55B
:103D100001FA07F7E1BF2A43E0403843E1400FE0F2
:103D2000352C98DCC7F1200452EA400220FA07F251
:103D300018BF42F0010231FA07F0A1400A43002106
:103D400072F1004250F1000051EB0C01B0BD0000D7
:103D5000F446400D40EAC120490006D200F00EF8BA
:103D6000004248BF6FF00040604700F007F84FF096
:103D7000004188428CBF08464042604740F0004006
:103D8000490DA1F58061491C05D4D1F11F0154BF33
:103D9000C840C01770474FF0000070475FF0FF0C3D
:103DA0001CEAD05114BF614506E0C110400721F064
:103DB000E04101F16051704779B900F00041000223
:103DC0000AD0B0FA80FC00FA0CF001F16051A1EBCE
:103DD0000C5101EBD0214005704741020CBF40F46B
:103DE000E0016FF000010020704700004FEAF17C15
:103DF000BCF1E04C2CBFBCF5001F11E05FEA4C0C9D
:103E000034BFBCF17F5F2EE05FEA9C0C4FEA0C1CD4
:103E10004FEA3C0CC10071F100414CEB507070470F
:103E2000C90241EA5051C00218BF41F0010141F0FE
:103E300000414FEA6C50C0F10900212810D240EA3D
:103E4000CC7CCCF1200C11FA0CF070F10040CCF1DC
:103E5000200C21FA0CF00CF0004C40EB0C007047E9
:103E60004FEACC707047490011F5001F04D84FEAA3
:103E7000CC10FF30C0057047C817704710B50C460E
:103E8000FEF7BCF80C490A78002A03BF0A1D01237B
:103E90000B7000220FF229015461416082620FF21F
:103EA000250181600549C1600FF2490101610FF2EE
:103EB000C101416110BD0000DC0C00201312001094
:103EC00000BF00BF816A00F11802002313805380F5
:103ED0009380D380138193720B604B600B810B82B4
:103EE0000B734B73806A40694088C8818B74CB74B4
:103EF0007047000030B4826A148900F11803406AE8
:103F0000022C19D3546815682C195460E51304EB7E
:103F100015442414DC804089B3F90640604300EB6B
:103F200080046000DC7A240490FBF4F008800888A8
:103F300098801089401E13E0012C13D1B2F90A4079
:103F40000C809C804089B1F9001000EB80040904CA
:103F5000600091FBF0F0D97A10FB01F0D8800020CE
:103F6000108101E09888088030BC507B70470000C9
:103F700000F11802806A01820846D37A118090FB12
:103F8000F3F050807047F0B4846A466A656900F1C6
:103F90001803207B90BB08047AB99980728902EBE0
:103FA00082056A0090FBF2F0DA7A10FB02F0D8800A
:103FB000618100202081F0BC70472D886A434FF456
:103FC0007A75B2FBF5F2521C228192B27689DD7AC3
:103FD00006EB86077E0090FBF6F0B3F9066096FBD1
:103FE000F5F600B236B2801B000490FBF2F0684395
:103FF00020606181B3F9060000046060F0BC704786
:10400000012201290BD1836A1973816A4B69B3F9C3
:10401000023023B94A73002180F822100022104692
:104020007047806A90F80CC0002200231146BCF152
:10403000010F407B08BF0122012808BF012393EA3A
:10404000020018BF012108467047806A0121C1742F
:1040500070470000002200F007B800001FB500F014
:104060001DF8212101601FBD00B500BF1300964659
:104070009446103928BFA0E80C50FAD85FEA417C7A
:1040800028BF0CC048BF40F8042BC90728BF20F840
:10409000022B48BF00F8012B00BD0000014800F0D2
:1040A00003B80000BC0000207047000038B50D4682
:1040B000FEF710F8044621480178002903BF011DCE
:1040C0000122027000211E480D64216720602146F4
:1040D000A87B01F087FD0FF2850060601948A060A1
:1040E0001948E06019482061194860611948A061C9
:1040F00019482062DFF8300E6062DFF8300EA062EF
:10410000DFF82C0EE062DFF82C0E2063DFF8280EBB
:104110006063DFF8280EA063DFF8240EE061DFF8AB
:10412000240EE063DFF8200E6064DFF8200EA06448
:10413000DFF81C0EE064204632BD00006C0B00204E
:104140003709001099010010395500085F54000824
:10415000F751000807540008130300102DE9F04F31
:10416000A1B0044604F15000216F1891D1F840B07D
:10417000DBF830100BF18005D5F824A0AF6AD5F834
:104180002C80D5F830906E6B05919BF809100129B1
:104190000CBF002101210174189814300390E06EC7
:1041A0000399008840080880DFF8A80D016841F0F5
:1041B000400101600121DBF8040001F097FE0121BC
:1041C0004FF4FC0001F092FE0598DFF88C1D884248
:1041D00006D101214FF4006001F091FE002006E0BD
:1041E00001214FF4005001F08AFE4FF0805001F0A1
:1041F00057FE012001F002FD0598214600F0AEFEB9
:1042000000A801F0F9FEBAF1000F32D1BBF814009A
:10421000009000A903208DF80400DBF8100001F0E5
:10422000B3FEBBF81410DBF8100001F0F0FEBBF891
:104230001C00009000A903208DF80400DBF8180092
:1042400001F0A2FEBBF81C10DBF8180001F0DFFE45
:10425000BBF82400009000A903208DF80400DBF8CF
:10426000200001F091FEBBF82410DBF8200001F0E3
:10427000CEFE0BF130000021008A01E04008491C0D
:104280000128FBD10BF13000AA7BC06889B201F094
:10429000D2FE0BF130000021808B01E04008491C68
:1042A0000128FBD10BF13000EA7B806989B201F073
:1042B000C2FE0BF130000021008D01E04008491CD6
:1042C0000128FBD10BF130002A7C406A89B201F051
:1042D000B2FE00A801F090FE0020ADF8060000A993
:1042E00002208DF804000BF15C0403208DF805001A
:1042F0000BF13000008A00900BF13000C06801F033
:1043000043FE0BF1300000A9808B00900BF13000D0
:10431000806901F039FE0BF1300000A9008D00909A
:104320000BF13000406A01F02FFE0BF13000018AE2
:10433000C06801F06CFE0BF13000818B806901F0E8
:1043400066FE0BF13000018D406A01F060FE2078BE
:10435000012842D12089002101E04008491C0128A0
:10436000FBD16A7C606889B201F065FEA08A0021F9
:1043700001E04008491C0128FBD1AA7C206989B2D0
:1043800001F059FE208C002101E04008491C012861
:10439000FBD1EA7CE06989B201F04DFE20890090F2
:1043A00000A9606801F0F0FDA08A009000A92069D2
:1043B00001F0EAFD208C009000A9E06901F0E4FD25
:1043C0002189606801F023FEA18A206901F01FFEA7
:1043D000218CE06901F01BFE25E0022823D1012099
:1043E0008DF8040000A920890090606801F0CCFDE0
:1043F000A08A009000A9206901F0C6FD208C0090E1
:1044000000A9E06901F0C0FD2189606801F0FFFDAD
:10441000A18A206901F0FBFD218CE06901F0F7FD24
:1044200002208DF804002878012815D1A8890021E0
:1044300001E04008491C0128FBD12A7DA86889B207
:1044400001F0F9FDA889009000A9A86801F09CFD81
:10445000A989A86801F0DBFDA87D012815D1288C69
:10446000002101E04008491C0128FBD16A7DE86970
:1044700089B201F0E0FD288C009000A9E86901F004
:1044800083FD298CE86901F0C2FD0598DFF8C81AA0
:10449000884207BF012101200121022001F0E0FD37
:1044A000BAF1000F00F09A800121012001F027FDF0
:1044B00003208DF8040000A9BAF81C000090DAF877
:1044C000180001F061FDBAF81C10DAF8180001F0CC
:1044D0009EFDBAF82800009000A9DAF8240001F047
:1044E00053FDBAF82810DAF8240001F090FD9AF88C
:1044F000040001280DD1BAF81000009000A9DAF8E4
:104500000C0001F041FDBAF81010DAF80C0001F0CF
:104510007EFDBAF83000009000A9DAF82C0001F016
:1045200033FDBAF83010DAF82C0001F070FDDAF83B
:104530000800169016A9DAF8140017900AF138044A
:10454000DAF8000001F098FD626B216BDAF80000E8
:1045500001F09BFDDAF80000012101F0A2FD208BA3
:10456000009000A9606901F00FFD218B606901F0E6
:104570004EFDA08C009000A9206A01F005FDA18CE1
:10458000206A01F044FD2078012809D1A08900901B
:1045900000A9A06801F0F8FCA189A06801F037FD2E
:1045A000A08D009000A9A06A01F0EEFCA18DA06A88
:1045B00001F02DFD6068169016A920691790DAF8B1
:1045C000340001F059FD626B216BDAF8340001F020
:1045D0005CFDDAF83400012101F063FD002F00F0EA
:1045E000B3800121012001F08AFC03208DF8040032
:1045F00000A9B88B0090B86901F0C6FCB98BB86906
:1046000001F005FD387901280AD1388A009000A907
:10461000F86801F0B9FC398AF86801F0F8FC4CE060
:10462000B868402822D1B5F838A001214FF00050D9
:1046300001F06EFC3C2006900020079002200990BB
:104640000020089006AADFF8584D0021204601F00E
:1046500039FD52460421204601F05EFD0122002171
:10466000204601F04DFD0122002123E0502824D1F5
:10467000B5F838A001214FF0005001F049FC3C2072
:10468000069000200790022009900020089006AABA
:10469000DFF80C4D1021204601F014FD5246042194
:1046A000204601F03FFD01221021204601F028FDA7
:1046B00001221021204601F018FD0020ADF8100065
:1046C00002E0BDF81000401CADF81000BDF810006D
:1046D000B0F57A7FF5D3B87F012819D102208DF883
:1046E000040000A9388D0090786A01F04DFC388DE7
:1046F000002101E04008491C0128FBD197F82A203D
:10470000786A89B201F097FC398D786A01F07FFCF4
:10471000B8680A9078690B90386A0C9007F12C0001
:1047200001680E9100210D914FF480310F910AA97B
:1047300040681090386801F001FD3868012101F0EF
:1047400012FD386801F01AFDB8F1000F6CD001219C
:10475000012001F0D4FB03208DF8040000A9B8F873
:104760001C000090D8F8180001F00EFCB8F81C10DE
:10477000D8F8180001F04BFC98F8040001280DD17E
:10478000B8F81000009000A9D8F80C0001F0FCFB6C
:10479000B8F81010D8F80C0001F039FC98F81E0099
:1047A00001281FD102208DF8040000A9B8F82800C4
:1047B0000090D8F8240001F0E7FBB8F828000021A9
:1047C00001E04008491C0128FBD198F82A20D8F8BC
:1047D000240089B201F02FFCB8F82810D8F8240082
:1047E00001F015FCD8F808000A90D8F814000B90D6
:1047F000D8F820000C9008F12C0001680E910021DF
:104800000D914FF480310F910AA940681090D8F8AB
:10481000000001F093FCD8F80000012101F0A3FC96
:10482000D8F8000001F0AAFCB9F1000F6CD001210A
:10483000012001F064FB03208DF8040000A9B9F801
:104840001C000090D9F8180001F09EFBB9F81C106C
:10485000D9F8180001F0DBFB99F8040001280DD10C
:10486000B9F81000009000A9D9F80C0001F08CFBF9
:10487000B9F81010D9F80C0001F0C9FB99F81E0026
:1048800001281FD102208DF8040000A9B9F82800E2
:104890000090D9F8240001F077FBB9F82800002136
:1048A00001E04008491C0128FBD199F82A20D9F8D9
:1048B000240089B201F0BFFBB9F82810D9F8240010
:1048C00001F0A5FBD9F808000A90D9F814000B9064
:1048D000D9F820000C9009F12C0001680E910021FC
:1048E0000D914FF480310F910AA940681090D9F8CA
:1048F000000001F023FCD9F80000012101F033FC95
:10490000D9F8000001F03AFC002E00F0B18001213E
:10491000012001F0F4FA03208DF8040000A9B08B07
:104920000090B06901F030FBB18BB06901F06FFB12
:10493000307901280AD1308A009000A9F06801F08E
:1049400023FB318AF06801F062FB4AE0B06840283E
:1049500021D16F8F01214FF0005001F0D9FA3C2096
:10496000069000200790022009900020089006AAD7
:10497000DFF82C4A0021204601F0A4FB3A4604212E
:10498000204601F0C9FB01220021204601F0B8FBBE
:104990000122002122E0502823D16F8F01214FF006
:1049A000005001F0B5FA3C2006900020079002204C
:1049B00009900020089006AADFF8E449102120465B
:1049C00001F080FB3A460421204601F0ABFB0122B6
:1049D0001021204601F094FB01221021204601F015
:1049E00084FB0020ADF8100002E0BDF81000401C70
:1049F000ADF81000BDF81000B0F57A7FF5D3B07FA8
:104A0000012819D102208DF8040000A9308D0090F2
:104A1000706A01F0B9FA308D002101E04008491CAC
:104A20000128FBD196F82A20706A89B201F003FBB5
:104A3000318D706A01F0EBFAB0680A9070690B90E2
:104A4000306A0C9006F12C0001680E9100210D9146
:104A50004FF480310F910AA940681090306801F03E
:104A60006DFB3068012101F07EFB306801F086FBB0
:104A70009BF80900012806D14FF0A046DFF8D07C52
:104A80004FF0120805E0DFF8CC6CDFF8CC7C4FF07B
:104A90002F080398DFF8C42CC66103980762002032
:104AA00005999142039908BF24208884304601F07B
:104AB0006FFB384601F06CFB9BF80900012845D1DB
:104AC000E86BB04218BFB84240D0B0F1A04F1CBF55
:104AD000DFF87C1C884218D101214FF0805001F092
:104AE00005FAE86B01F054FB11A801F0C5FB0020AA
:104AF000119011A9DBF8000012900020139014907F
:104B00008DF854004FF0A0401EE0DFF8484CA04262
:104B10001CBFDFF8441C884218D101214FF000501F
:104B200001F0E4F9E86B01F033FB11A801F0A4FBFC
:104B30000020119011A9DBF80000129000201390C2
:104B400014908DF85400204601F06EFB11A801F07E
:104B500093FB0020119011A9DBF8000012900020B7
:104B6000139014908DF85400304601F05DFB012144
:104B7000304601F0A1FB0121384601F09DFB0021E8
:104B8000304601F08EFB304601F086FB304601F0E6
:104B900090FB0128FAD00021384601F082FB38460C
:104BA00001F07AFB384601F084FB0128FAD09BF82B
:104BB0000900012813D1E86BB04218BFB8420ED0EB
:104BC000012101F079FBE86B002101F06AFBE86B41
:104BD00001F062FBE86B01F06CFB0128FAD00220C7
:104BE0008DF809008DF8088000208DF80A0001205A
:104BF0008DF80B0002A801F09AFB0121304601F06C
:104C000042FB0121384601F03EFB9BF809000128D8
:104C10001BD1E86BB04218BFB84216D0012101F099
:104C200032FB19A801F0F5FA002019901A901B9098
:104C30001C9019A920201D9000201E901F9001207B
:104C40008DF88000E86B01F0C9FA19A801F0E1FACB
:104C5000002019901A901B901C9019A920201D90DB
:104C600000201E901F9001208DF88000304601F03A
:104C7000B5FA19A9384601F0B1FA03999BF8160064
:104C80009BF80F20898CF36C1B0A41EA03230A2A44
:104C900043F040030FDBA2F10A0EB4690EEB4E0E97
:104CA0004FF0070808FA0EF824EA080400FA0EF09C
:104CB0002043B0610EE06AB102EB4204D6F814E082
:104CC0004FF0070808FA04F82EEA080EA04040EA60
:104CD0000E00706123F4F85040EA0220039AD0607D
:104CE0009BF81E209BF81730F86C000A41EA002060
:104CF00040F0400407200A2B0FDBA3F10A08D7F885
:104D000018E008EB480800FA08F92EEA090E02FA42
:104D100008F242EA0E02BA610DE063B103EB430E02
:104D2000D7F8148000FA0EF928EA090802FA0EF200
:104D300042EA08027A6124F4F85242EA0322039B11
:104D40001A619BF826209BF81F30FC6C240A41EA6C
:104D500004210A2B41F040010DDBA3F10A0EBC69CE
:104D60000EEB4E0E00FA0EF824EA080402FA0EF2D8
:104D70002243BA610CE05BB103EB4304D7F814E0C3
:104D800000FA04F82EEA080EA24042EA0E027A6106
:104D900021F4F851039A41EA032151619BF80F2055
:104DA0009BF81610FB6C0A2A0ADB0A3ABB6902EB75
:104DB000420200FA02F4A34391401943B96109E0A9
:104DC00042B102EB42027B6900FA02F4A343914034
:104DD000194379619BF81E109BF81720F36C0A2A7F
:104DE0000ADB0A3AB36902EB420200FA02F4A34377
:104DF00091401943B16109E042B102EB420273698B
:104E000000FA02F4A3439140194371619BF8261004
:104E10009BF81F20F36C0A2A0ADB0A3AB36902EBFB
:104E20004202904023EA000091400843B06109E04B
:104E300042B102EB42027369904023EA00009140C4
:104E400008437061686A38B103980399C068486084
:104E500003980399006988600121304601F039FA0E
:104E60000121384601F035FA0398808CF16C090A6B
:104E700040EA012121F4F85141F04001F164F96C5C
:104E8000090A40EA012020F4F85040F04000F8649C
:104E90000021B06840F00800B060B86840F0080039
:104EA000B860059801F071FC05994FF6FF70086431
:104EB0000020059908640821059801F066FC40214E
:104EC000304601F017FA0028F9D04021384601F0A9
:104ED00011FA0028F9D04021304601F012FA4021A1
:104EE000384601F00EFA01224021304601F0FAF96D
:104EF000DBF83000184988420CBF18202B208DF8B1
:104F0000080004208DF8090001208DF80A008DF8B2
:104F10000B0002A801F00BFA18983A3000214170FA
:104F2000017021B0BDE8F08F0D0400101D050010C8
:104F30002D06001039070010410800103D550008EB
:104F40005D550008AF550008D155000861570008AD
:104F5000FD58000814100240002C01402DE9F04FCC
:104F600004468BB0086F06904FF6FF78D0F840905B
:104F7000204601F015FA08A801F0D3FA09F1080655
:104F800009F12A07307858FA80F0ADF8200008A916
:104F90002020ADF8220009F15C050698808A09906E
:104FA0004FF48070ADF828003878ADF82A0020461C
:104FB00001F075FA00A801F086FB60200090012046
:104FC000ADF804000698808A40080290F889ADF890
:104FD0000C00388BADF810002878012809D1042086
:104FE000ADF806006888ADF80E006889ADF81200CB
:104FF00002E00020ADF8060000A9204601F0A6FA64
:10500000788BADF80C00B88CADF81000287801282A
:1050100005D1A889ADF80E00E88AADF8120000A904
:10502000204601F0C8FAF88CADF80C00388EADF8C7
:1050300010002878012805D1288BADF80E00688C67
:10504000ADF8120000A9204601F0E5FA70200090AA
:10505000CDF808800020ADF80C00ADF8100000A9D4
:10506000204601F009FB0821204601F07BFB0821C6
:10507000204601F07DFB0821204601F080FB08213D
:10508000204601F082FB7021204601F0B4FB4FF472
:10509000C001204601F0B4FB4FF00008CDF81C80A1
:1050A00009F1800A308C4008ADF8160000259AF806
:1050B0000000012899F8A2000CBFDAF804B04FF400
:1050C000005B8DF814008021204601F08AFB01224C
:1050D0008021204601F072FB9AF81600B0B1012839
:1050E00009F1A2000CBFDAF818504FF0007590F8E3
:1050F00001906FF48070206101228021204601F030
:105100005DFB4FEA09504FF080780790BDF816001C
:105110009DF814104BEA000048EA0000284340EADA
:1051200001400799084340F4C850606410212046AC
:1051300001F05CFB0621204601F06AFB01212046BC
:1051400001F045FB307902280ED17079012804BFA7
:10515000387803280ED1012020860121204601F055
:1051600036FB0320208605E07078012813D13878BB
:10517000012806D10698808A411E204601F0DAF9FE
:1051800009E0032807D1012020860121204601F0F3
:105190001EFB032020860BB0BDE8F08F00B583B066
:1051A0000121012000F0B4FE4FF0804001F0F8F83A
:1051B00000A801F0B6F90020009000A9012001909C
:1051C0000020ADF808004FF0804001F068F9202180
:1051D0004FF0804001F00FFB01214FF0804001F0C3
:1051E000ABF94FF0804001F0DBF80021012000F026
:1051F0008FFE03B000BD2DE9F84FDFF8AC1805466F
:1052000005F150082C6FD4F840A00AF13000476F28
:1052100006680020206004F12C096060A06089F815
:105220000000306A084030620FF27910A860DFF8A1
:105230007C0828626862A862E86228636863A7B194
:105240003968DFF86C084158BA6821F06C011143E5
:105250007A691143E160796B4058F96B20F06C007A
:105260000843B96C0843206103E0206AA061606ACA
:10527000E061284600F0F3F89AF82A00401C400844
:1052800000EB00101FFA80FA4FF6FD7BC6F810B055
:10529000002099F8001010290FD231698907F8D53C
:1052A000401C80B25045C6F810B0F2DB99F80010EF
:1052B0001029EED20120A8F80A00284600F03CF997
:1052C000002089F800000FF21510A8605FB1786B1C
:1052D000DFF8DC170858F96B20F06C000843796D93
:1052E0000843206101E0A06AA061284600F0B7F8F9
:1052F000C6F810B0002099F8001010290FD23169BB
:105300008907F8D5401C80B25045C6F810B0F2DBD2
:1053100099F800101029EED20120A8F80A002846BA
:1053200000F00AF9206800092060606800096060E8
:10533000A0680009A060DFF87C07A860DFF87807A4
:105340002862DFF878076862DFF87407A862DFF880
:105350007407E862DFF870072863DFF87007686396
:105360004FF2F770B1690140B161F1690840F06135
:10537000A08A7063A08AB063A08AF06340F6080038
:10538000B1690143B161F1690843F06140F25551DF
:10539000306A08433062002089F81000BDE8F18FC0
:1053A00000740040006F026C126B4FF6FE711161C9
:1053B00000F12C010A78102A0ED24B680268D3F84B
:1053C00080309A1802608B684268D3F880309A184F
:1053D00042600878401C087070470000006F026C43
:1053E000126B4FF6FE71116100F12C010A78102A40
:1053F00008D28B688268D3F880309A188260087867
:10540000401C0870704738B5006F046C256B012193
:10541000284601F0E5F900206863A863E8630121EC
:10542000284601F0D6F90028F9D0686C40F4004015
:10543000686414F85C0F022810D121896068012289
:1054400000F0F4FDA18A2069012200F0EFFD218C1B
:10545000E069BDE83840012200F0E8BD31BD2DE92A
:10546000F041066F316C0C6B01F15C0500F15008E6
:10547000AF6C0121204601F0B3F90121204601F073
:10548000A8F90028F9D00121204601F0A9F998F8DF
:105490001100012804D16063716BF069C86402E0F7
:1054A000B08A40086063B08A4108A163E163401F8D
:1054B00020640121204601F08CF90028F9D0606CAD
:1054C00040F480606064606C40F400406064287860
:1054D00002281DD168682989226A40F255531A4270
:1054E00009D0012200F0A2FDA98A2869012200F05A
:1054F0009DFD012208E0002200F098FDA98A28699C
:10550000002200F093FD0022298CE86900F08EFD56
:105510003FB13A68DFF89805F16881507A6B3169DC
:105520008150316BB069C86498F8110010B9716B83
:10553000F069C864BDE8F08170B5D3E2006F026C19
:10554000D2F8BC2089011163116C042191601168AB
:105550004907FCD5116CC182C08A704732B4006F14
:10556000006C9DF800209DF80110D0F8BC000A2ABC
:105570000DDB0A3A02EB4202836907249440A343FD
:105580008361914083691943816131BC7047551E25
:105590004369382405EB4505AC40A343436102EB66
:1055A0004202436991401943416131BC7047016F28
:1055B0003A3100204A78012A02D1002202204A70A2
:1055C0000A78012A03D1002240F040000A70704797
:1055D0002DE9F041054605F150082C6F276C98F82D
:1055E00011003E6B002840F0A2806022002130466E
:1055F00001F073F801220021304601F0CDF80022BD
:105600000021304601F0CCF80021304601F08AF844
:1056100097F85C0001280CD110220421304601F0DB
:105620005CF800220421304601F0B6F8042204217F
:105630000DE002280ED120220421304601F04DF861
:1056400001220421304601F0A7F80022042130464F
:1056500001F0A6F870220821304601F03EF8002241
:105660000821304601F098F800220821304601F068
:1056700097F807F11700236B268FC1790278DF6C4A
:105680003F0A46EA07270A2A47F040070FDBA2F144
:105690000A0606EB460ED3F818C0072606FA0EF6E1
:1056A0002CEA060601FA0EF1314399610DE062B170
:1056B00002EB420CD3F814E0072606FA0CF62EEAA9
:1056C000060601FA0CF13143596127F4F85141EA19
:1056D00002212162C179626B0078D36C1B0A1B0224
:1056E0000A2843F060030EDBA0F10A06976906EB77
:1056F00046064FF0070E0EFA06FE27EA0E07B140E7
:10570000394391610CE058B100EB400756694FF006
:10571000070E0EFA07FE26EA0E06B9403143516124
:1057200023F4F85141EA0020606260682060DFF8ED
:10573000A003A8600FF26920A8610FF2B9202861C8
:105740000FF29D30E860012088F81100BDE8F0817B
:1057500000010050000400500005005000340140DA
:105760002DE9F047054605F150082C6F276C98F895
:1057700011003E6B012840F0BF80602200213046BE
:1057800000F0ABFF01220021304601F005F897F848
:105790005C00012802D10422002103E0022804D188
:1057A00000220021304600F0FBFFA08A410830466D
:1057B00000F0B8FF60220421304600F08EFF012285
:1057C0000421304600F0E8FF97F85C00012802D180
:1057D0000422042103E0022804D1002204213046DF
:1057E00000F0DEFFA08A4108304600F09DFF6022F5
:1057F0000821304600F071FF01220821304600F0F8
:10580000CBFF97F85C00012808BF042202D00228D1
:1058100004D100220821304600F0C2FFA08A4108CE
:10582000304600F083FF07F10F02216B208FD37900
:105830001778CE6C360A40EA06260A2F46F0400E4C
:105840000FDBA7F10A098E6909EB49094FF0070A36
:105850000AFA09FA26EA0A0603FA09F333438B61C6
:105860000EE06FB107EB4706D1F814904FF0070A2E
:105870000AFA06FA29EA0A09B34043EA09034B6126
:105880002EF4F85343EA07232362D17B636B127A29
:10589000DF6C3F0A40EA07200A2A40F040000EDB96
:1058A000A2F10A069F6906EB46064FF0070E0EFAB4
:1058B00006FE27EA0E07B140394399610CE05AB160
:1058C00002EB42075E694FF0070E0EFA07FE26EA6A
:1058D0000E06B9403143596120F4F85040EA0220E5
:1058E00060627448A8607B48A8617B4828617B4857
:1058F000E860002088F81100BDE8F087F0B400F1FE
:105900005402D3691C6C9F8A966904F1300579436F
:105910002C686D6F090C118048F6FF77E1693940FA
:10592000E161E16941F4C041E161F788998AC91BED
:1059300021643189E1639DB12E685D498E59AF685C
:1059400026F06C063E436F693E43DE606E6B8959FC
:10595000EE6B21F06C013143AE6C3143196103E011
:10596000196A9961596AD9611088606335B12E68E6
:105970004F49D86888516D6B18694851196B9869FF
:10598000C864596BD869C8642069D188012900F0BE
:10599000010002D100210120D180F0BC704700003D
:1059A00038B5006F046C256B002068630121284620
:1059B00000F016FF0121284600F00BFF0028F9D067
:1059C000686C40F40040686414F85C0F022810D141
:1059D00021896068012200F029FBA18A2069002248
:1059E00000F024FB218CE069BDE83840002200F083
:1059F0001DBB31BDF8B5046F206C056B00F15C0771
:105A00000121BE6C284600F0EBFE0121284600F083
:105A1000E0FE0028F9D00121284600F0E1FE012037
:105A20006863A08A401F2864616BE069C864012133
:105A3000284600F0CEFE0028F9D0686C40F4806063
:105A40006864686C40F4004068643878022818D1B3
:105A5000786839892A6A40F255531A4204D00122E3
:105A600000F0E4FA012203E0002200F0DFFA002255
:105A7000B98A386900F0DAFA398CF869002200F046
:105A8000D5FA206AA061606AE06136B132680848E0
:105A9000E1688150726B21698150216BA069C864F3
:105AA000616BE069C864F1BDAAFAFFFFEF02001064
:105AB0003800014099010010130300100D0400107C
:105AC0001D0500102D0600103907001041080010B8
:105AD000A3090010075400085F5400083955000856
